{"contracts/SolidarySwap.sol":{"SolidarySwap":{"abi":[{"inputs":[],"stateMutability":"nonpayable","type":"constructor"},{"inputs":[],"name":"getProjectsContractId","outputs":[{"internalType":"address","name":"","type":"address"}],"stateMutability":"view","type":"function"},{"inputs":[],"name":"getUsersContractId","outputs":[{"internalType":"address","name":"","type":"address"}],"stateMutability":"view","type":"function"},{"inputs":[{"internalType":"address","name":"","type":"address"},{"internalType":"address","name":"","type":"address"},{"internalType":"uint256","name":"","type":"uint256"},{"internalType":"bytes","name":"","type":"bytes"}],"name":"onERC721Received","outputs":[{"internalType":"bytes4","name":"","type":"bytes4"}],"stateMutability":"nonpayable","type":"function"}],"evm":{"bytecode":{"linkReferences":{},"object":"608060405234801561001057600080fd5b50600060405161001f906100f3565b604051809103906000f08015801561003b573d6000803e3d6000fd5b509050806000806101000a81548173ffffffffffffffffffffffffffffffffffffffff021916908373ffffffffffffffffffffffffffffffffffffffff160217905550600060405161008c90610100565b604051809103906000f0801580156100a8573d6000803e3d6000fd5b50905080600160006101000a81548173ffffffffffffffffffffffffffffffffffffffff021916908373ffffffffffffffffffffffffffffffffffffffff160217905550505061010d565b6161fd8061055c83390190565b611ee98061675983390190565b6104408061011c6000396000f3fe608060405234801561001057600080fd5b50600436106100415760003560e01c80630cc8fb1014610046578063150b7a021461006457806384f4aa4514610094575b600080fd5b61004e6100b2565b60405161005b919061015a565b60405180910390f35b61007e60048036038101906100799190610331565b6100db565b60405161008b91906103ef565b60405180910390f35b61009c6100ef565b6040516100a9919061015a565b60405180910390f35b60008060009054906101000a900473ffffffffffffffffffffffffffffffffffffffff16905090565b600063150b7a0260e01b9050949350505050565b6000600160009054906101000a900473ffffffffffffffffffffffffffffffffffffffff16905090565b600073ffffffffffffffffffffffffffffffffffffffff82169050919050565b600061014482610119565b9050919050565b61015481610139565b82525050565b600060208201905061016f600083018461014b565b92915050565b6000604051905090565b600080fd5b600080fd5b61019281610139565b811461019d57600080fd5b50565b6000813590506101af81610189565b92915050565b6000819050919050565b6101c8816101b5565b81146101d357600080fd5b50565b6000813590506101e5816101bf565b92915050565b600080fd5b600080fd5b6000601f19601f8301169050919050565b7f4e487b7100000000000000000000000000000000000000000000000000000000600052604160045260246000fd5b61023e826101f5565b810181811067ffffffffffffffff8211171561025d5761025c610206565b5b80604052505050565b6000610270610175565b905061027c8282610235565b919050565b600067ffffffffffffffff82111561029c5761029b610206565b5b6102a5826101f5565b9050602081019050919050565b82818337600083830152505050565b60006102d46102cf84610281565b610266565b9050828152602081018484840111156102f0576102ef6101f0565b5b6102fb8482856102b2565b509392505050565b600082601f830112610318576103176101eb565b5b81356103288482602086016102c1565b91505092915050565b6000806000806080858703121561034b5761034a61017f565b5b6000610359878288016101a0565b945050602061036a878288016101a0565b935050604061037b878288016101d6565b925050606085013567ffffffffffffffff81111561039c5761039b610184565b5b6103a887828801610303565b91505092959194509250565b60007fffffffff0000000000000000000000000000000000000000000000000000000082169050919050565b6103e9816103b4565b82525050565b600060208201905061040460008301846103e0565b9291505056fea2646970667358221220b7934dd60d23dd69bf9d263d5fe0ed309ed6b2916af316c0b4a02ae8aea51d4564736f6c6343000818003360806040523480156200001157600080fd5b50620000226200002860201b60201c565b620009c3565b620000386200012160201b60201c565b73ffffffffffffffffffffffffffffffffffffffff1663a15ab08d30620000b46040518060c001604052806099815260200162006164609991396040518060400160405280601081526020017f7461626c655f61747472696275746573000000000000000000000000000000008152506200033a60201b60201c565b6040518363ffffffff1660e01b8152600401620000d3929190620006a4565b6020604051808303816000875af1158015620000f3573d6000803e3d6000fd5b505050506040513d601f19601f8201168201806040525081019062000119919062000718565b600081905550565b600060014603620001495773012969f7e3439a9b04025b5a049eb9bad82a8c12905062000337565b600a46036200016f5773fad44bf5b843de943a09d4f3e84949a11d3aa3e6905062000337565b61a4b146036200019657739abd75e8640871a5a20d3b4ee6330a04c962affd905062000337565b61a4ba4603620001bd57731a22854c5b1642760a827f20137a67930ae108d2905062000337565b60894603620001e357735c4e6a9e5c1e1bf445a062006faf19ea6c49afea905062000337565b61013a46036200020a577359ef8bf2d6c102b4c42aef9189e1a9f0abfd652d905062000337565b62aa36a74603620002325773c50c62498448acc8dbde43da77f8d5d2e2c7597d905062000337565b6101a44603620002595773c72e8a7be04f2469f8c2db3f1bdf69a7d516abba905062000337565b62066eee4603620002815773223a74b8323914afdc3ff1e5005564dc17231d6e905062000337565b620138814603620002a957734b48841d4b32c4650e4abc117a03fe8b51f38f68905062000337565b6204cb2f4603620002d15773030bcf3d50cad04c2e57391b12740982a9308621905062000337565b617a694603620002f85773e7f1725e7734ce288f8367e1bb143e90bb3f0512905062000337565b466040517f264e42cf0000000000000000000000000000000000000000000000000000000081526004016200032e91906200075b565b60405180910390fd5b90565b6060816200034e466200037a60201b60201c565b846040516020016200036393929190620008fa565b604051602081830303815290604052905092915050565b60606000600162000391846200045960201b60201c565b01905060008167ffffffffffffffff811115620003b357620003b262000965565b5b6040519080825280601f01601f191660200182016040528015620003e65781602001600182028036833780820191505090505b509050600082602001820190505b6001156200044e578080600190039150507f3031323334353637383961626364656600000000000000000000000000000000600a86061a8153600a858162000441576200044062000994565b5b04945060008503620003f4575b819350505050919050565b600080600090507a184f03e93ff9f4daa797ed6e38ed64bf6a1f0100000000000000008310620004bb577a184f03e93ff9f4daa797ed6e38ed64bf6a1f0100000000000000008381620004b157620004b062000994565b5b0492506040810190505b6d04ee2d6d415b85acef81000000008310620004fc576d04ee2d6d415b85acef81000000008381620004f257620004f162000994565b5b0492506020810190505b662386f26fc1000083106200052f57662386f26fc10000838162000525576200052462000994565b5b0492506010810190505b6305f5e10083106200055c576305f5e100838162000552576200055162000994565b5b0492506008810190505b6127108310620005855761271083816200057b576200057a62000994565b5b0492506004810190505b60648310620005ac5760648381620005a257620005a162000994565b5b0492506002810190505b600a8310620005bc576001810190505b80915050919050565b600073ffffffffffffffffffffffffffffffffffffffff82169050919050565b6000620005f282620005c5565b9050919050565b6200060481620005e5565b82525050565b600081519050919050565b600082825260208201905092915050565b60005b838110156200064657808201518184015260208101905062000629565b60008484015250505050565b6000601f19601f8301169050919050565b600062000670826200060a565b6200067c818562000615565b93506200068e81856020860162000626565b620006998162000652565b840191505092915050565b6000604082019050620006bb6000830185620005f9565b8181036020830152620006cf818462000663565b90509392505050565b600080fd5b6000819050919050565b620006f281620006dd565b8114620006fe57600080fd5b50565b6000815190506200071281620006e7565b92915050565b600060208284031215620007315762000730620006d8565b5b6000620007418482850162000701565b91505092915050565b6200075581620006dd565b82525050565b60006020820190506200077260008301846200074a565b92915050565b600081905092915050565b7f435245415445205441424c452000000000000000000000000000000000000000600082015250565b6000620007bb600d8362000778565b9150620007c88262000783565b600d82019050919050565b6000620007e0826200060a565b620007ec818562000778565b9350620007fe81856020860162000626565b80840191505092915050565b7f5f00000000000000000000000000000000000000000000000000000000000000600082015250565b60006200084260018362000778565b91506200084f826200080a565b600182019050919050565b7f2800000000000000000000000000000000000000000000000000000000000000600082015250565b60006200089260018362000778565b91506200089f826200085a565b600182019050919050565b7f2900000000000000000000000000000000000000000000000000000000000000600082015250565b6000620008e260018362000778565b9150620008ef82620008aa565b600182019050919050565b60006200090782620007ac565b9150620009158286620007d3565b9150620009228262000833565b9150620009308285620007d3565b91506200093d8262000883565b91506200094b8284620007d3565b91506200095882620008d3565b9150819050949350505050565b7f4e487b7100000000000000000000000000000000000000000000000000000000600052604160045260246000fd5b7f4e487b7100000000000000000000000000000000000000000000000000000000600052601260045260246000fd5b61579180620009d36000396000f3fe60806040523480156200001157600080fd5b5060043610620000885760003560e01c80632a18ab6f11620000635780632a18ab6f14620001035780635d5a33a2146200012357806388e4f1cb1462000145578063aaf5f33814620001675762000088565b8063150b7a02146200008d578063177b7e0014620000c357806319129e5a14620000e3575b600080fd5b620000ab6004803603810190620000a5919062000e4e565b62000187565b604051620000ba919062000f1c565b60405180910390f35b620000e16004803603810190620000db919062000fed565b6200019b565b005b620001016004803603810190620000fb919062001072565b620002d9565b005b6200012160048036038101906200011b9190620010a4565b6200035a565b005b6200012d62000445565b6040516200013c91906200117e565b60405180910390f35b6200014f6200048f565b6040516200015e9190620011b3565b60405180910390f35b6200018560048036038101906200017f919062000fed565b62000498565b005b600063150b7a0260e01b9050949350505050565b600082604051602001620001b0919062001238565b6040516020818303038152906040529050600082620001d8620001d262000585565b620005eb565b620001ec620001e662000616565b620005eb565b604051602001620002009392919062001288565b60405160208183030381529060405290506200021b6200066f565b73ffffffffffffffffffffffffffffffffffffffff1663377af0da306000546200027f6040518060400160405280601081526020017f7461626c655f6174747269627574657300000000000000000000000000000000815250600054888862000888565b6040518463ffffffff1660e01b81526004016200029f93929190620012f2565b600060405180830381600087803b158015620002ba57600080fd5b505af1158015620002cf573d6000803e3d6000fd5b5050505050505050565b620002e36200066f565b73ffffffffffffffffffffffffffffffffffffffff16638bb0ab9730600054846040518463ffffffff1660e01b8152600401620003239392919062001336565b600060405180830381600087803b1580156200033e57600080fd5b505af115801562000353573d6000803e3d6000fd5b5050505050565b6000816040516020016200036f919062001399565b60405160208183030381529060405290506200038a6200066f565b73ffffffffffffffffffffffffffffffffffffffff1663377af0da30600054620003ed6040518060400160405280601081526020017f7461626c655f617474726962757465730000000000000000000000000000000081525060005487620008cb565b6040518463ffffffff1660e01b81526004016200040d93929190620012f2565b600060405180830381600087803b1580156200042857600080fd5b505af11580156200043d573d6000803e3d6000fd5b505050505050565b60606200048a6040518060400160405280601081526020017f7461626c655f61747472696275746573000000000000000000000000000000008152506000546200090b565b905090565b60008054905090565b600082604051602001620004ad919062001399565b6040516020818303038152906040529050620004c86200066f565b73ffffffffffffffffffffffffffffffffffffffff1663377af0da306000546200052c6040518060400160405280601081526020017f7461626c655f617474726962757465730000000000000000000000000000000081525060005488886200094f565b6040518463ffffffff1660e01b81526004016200054c93929190620012f2565b600060405180830381600087803b1580156200056757600080fd5b505af11580156200057c573d6000803e3d6000fd5b50505050505050565b6060600030604051620005989062000c1c565b620005a49190620013c3565b604051809103906000f080158015620005c1573d6000803e3d6000fd5b509050620005e58173ffffffffffffffffffffffffffffffffffffffff16620009d7565b91505090565b60608160405160200162000600919062001430565b6040516020818303038152906040529050919050565b60606000604051620006289062000c2a565b604051809103906000f08015801562000645573d6000803e3d6000fd5b509050620006698173ffffffffffffffffffffffffffffffffffffffff16620009d7565b91505090565b600060014603620006975773012969f7e3439a9b04025b5a049eb9bad82a8c12905062000885565b600a4603620006bd5773fad44bf5b843de943a09d4f3e84949a11d3aa3e6905062000885565b61a4b14603620006e457739abd75e8640871a5a20d3b4ee6330a04c962affd905062000885565b61a4ba46036200070b57731a22854c5b1642760a827f20137a67930ae108d2905062000885565b608946036200073157735c4e6a9e5c1e1bf445a062006faf19ea6c49afea905062000885565b61013a460362000758577359ef8bf2d6c102b4c42aef9189e1a9f0abfd652d905062000885565b62aa36a74603620007805773c50c62498448acc8dbde43da77f8d5d2e2c7597d905062000885565b6101a44603620007a75773c72e8a7be04f2469f8c2db3f1bdf69a7d516abba905062000885565b62066eee4603620007cf5773223a74b8323914afdc3ff1e5005564dc17231d6e905062000885565b620138814603620007f757734b48841d4b32c4650e4abc117a03fe8b51f38f68905062000885565b6204cb2f46036200081f5773030bcf3d50cad04c2e57391b12740982a9308621905062000885565b617a694603620008465773e7f1725e7734ce288f8367e1bb143e90bb3f0512905062000885565b466040517f264e42cf0000000000000000000000000000000000000000000000000000000081526004016200087c9190620011b3565b60405180910390fd5b90565b606060006200089886866200090b565b9050808484604051602001620008b193929190620015a3565b604051602081830303815290604052915050949350505050565b60606000620008db85856200090b565b90508083604051602001620008f2929190620016ae565b6040516020818303038152906040529150509392505050565b6060826200091946620009d7565b6200092484620009d7565b604051602001620009389392919062001740565b604051602081830303815290604052905092915050565b606060006200095f86866200090b565b90506000604051806020016040528060008152509050600084511115620009a5578360405160200162000993919062001791565b60405160208183030381529060405290505b818582604051602001620009bc9392919062001857565b60405160208183030381529060405292505050949350505050565b606060006001620009e88462000ab0565b01905060008167ffffffffffffffff81111562000a0a5762000a0962000d07565b5b6040519080825280601f01601f19166020018201604052801562000a3d5781602001600182028036833780820191505090505b509050600082602001820190505b60011562000aa5578080600190039150507f3031323334353637383961626364656600000000000000000000000000000000600a86061a8153600a858162000a985762000a97620018a8565b5b0494506000850362000a4b575b819350505050919050565b600080600090507a184f03e93ff9f4daa797ed6e38ed64bf6a1f010000000000000000831062000b12577a184f03e93ff9f4daa797ed6e38ed64bf6a1f010000000000000000838162000b085762000b07620018a8565b5b0492506040810190505b6d04ee2d6d415b85acef8100000000831062000b53576d04ee2d6d415b85acef8100000000838162000b495762000b48620018a8565b5b0492506020810190505b662386f26fc10000831062000b8657662386f26fc10000838162000b7c5762000b7b620018a8565b5b0492506010810190505b6305f5e100831062000bb3576305f5e100838162000ba95762000ba8620018a8565b5b0492506008810190505b612710831062000bdc57612710838162000bd25762000bd1620018a8565b5b0492506004810190505b6064831062000c03576064838162000bf95762000bf8620018a8565b5b0492506002810190505b600a831062000c13576001810190505b80915050919050565b611eb680620018d883390190565b611fce806200378e83390190565b6000604051905090565b600080fd5b600080fd5b600073ffffffffffffffffffffffffffffffffffffffff82169050919050565b600062000c798262000c4c565b9050919050565b62000c8b8162000c6c565b811462000c9757600080fd5b50565b60008135905062000cab8162000c80565b92915050565b6000819050919050565b62000cc68162000cb1565b811462000cd257600080fd5b50565b60008135905062000ce68162000cbb565b92915050565b600080fd5b600080fd5b6000601f19601f8301169050919050565b7f4e487b7100000000000000000000000000000000000000000000000000000000600052604160045260246000fd5b62000d418262000cf6565b810181811067ffffffffffffffff8211171562000d635762000d6262000d07565b5b80604052505050565b600062000d7862000c38565b905062000d86828262000d36565b919050565b600067ffffffffffffffff82111562000da95762000da862000d07565b5b62000db48262000cf6565b9050602081019050919050565b82818337600083830152505050565b600062000de762000de18462000d8b565b62000d6c565b90508281526020810184848401111562000e065762000e0562000cf1565b5b62000e1384828562000dc1565b509392505050565b600082601f83011262000e335762000e3262000cec565b5b813562000e4584826020860162000dd0565b91505092915050565b6000806000806080858703121562000e6b5762000e6a62000c42565b5b600062000e7b8782880162000c9a565b945050602062000e8e8782880162000c9a565b935050604062000ea18782880162000cd5565b925050606085013567ffffffffffffffff81111562000ec55762000ec462000c47565b5b62000ed38782880162000e1b565b91505092959194509250565b60007fffffffff0000000000000000000000000000000000000000000000000000000082169050919050565b62000f168162000edf565b82525050565b600060208201905062000f33600083018462000f0b565b92915050565b600067ffffffffffffffff82111562000f575762000f5662000d07565b5b62000f628262000cf6565b9050602081019050919050565b600062000f8662000f808462000f39565b62000d6c565b90508281526020810184848401111562000fa55762000fa462000cf1565b5b62000fb284828562000dc1565b509392505050565b600082601f83011262000fd25762000fd162000cec565b5b813562000fe484826020860162000f6f565b91505092915050565b6000806040838503121562001007576200100662000c42565b5b600083013567ffffffffffffffff81111562001028576200102762000c47565b5b620010368582860162000fba565b925050602083013567ffffffffffffffff8111156200105a576200105962000c47565b5b620010688582860162000fba565b9150509250929050565b6000602082840312156200108b576200108a62000c42565b5b60006200109b8482850162000c9a565b91505092915050565b600060208284031215620010bd57620010bc62000c42565b5b600082013567ffffffffffffffff811115620010de57620010dd62000c47565b5b620010ec8482850162000fba565b91505092915050565b600081519050919050565b600082825260208201905092915050565b60005b838110156200113157808201518184015260208101905062001114565b60008484015250505050565b60006200114a82620010f5565b62001156818562001100565b93506200116881856020860162001111565b620011738162000cf6565b840191505092915050565b600060208201905081810360008301526200119a81846200113d565b905092915050565b620011ad8162000cb1565b82525050565b6000602082019050620011ca6000830184620011a2565b92915050565b600081905092915050565b6000620011e882620010f5565b620011f48185620011d0565b93506200120681856020860162001111565b80840191505092915050565b7f2c70726f6a6563745f636f6e74726163745f69642c6261636b65727300000000815250565b6000620012468284620011db565b9150620012538262001212565b601c8201915081905092915050565b7f2c00000000000000000000000000000000000000000000000000000000000000815250565b6000620012968286620011db565b9150620012a38262001262565b600182019150620012b58285620011db565b9150620012c28262001262565b600182019150620012d48284620011db565b9150819050949350505050565b620012ec8162000c6c565b82525050565b6000606082019050620013096000830186620012e1565b620013186020830185620011a2565b81810360408301526200132c81846200113d565b9050949350505050565b60006060820190506200134d6000830186620012e1565b6200135c6020830185620011a2565b6200136b6040830184620012e1565b949350505050565b7f69643d0000000000000000000000000000000000000000000000000000000000815250565b6000620013a68262001373565b600382019150620013b88284620011db565b915081905092915050565b6000602082019050620013da6000830184620012e1565b92915050565b7f2700000000000000000000000000000000000000000000000000000000000000600082015250565b600062001418600183620011d0565b91506200142582620013e0565b600182019050919050565b60006200143d8262001409565b91506200144b8284620011db565b9150620014588262001409565b915081905092915050565b7f494e5345525420494e544f200000000000000000000000000000000000000000600082015250565b60006200149b600c83620011d0565b9150620014a88262001463565b600c82019050919050565b7f2800000000000000000000000000000000000000000000000000000000000000600082015250565b6000620014eb600183620011d0565b9150620014f882620014b3565b600182019050919050565b7f2956414c55455328000000000000000000000000000000000000000000000000600082015250565b60006200153b600883620011d0565b9150620015488262001503565b600882019050919050565b7f2900000000000000000000000000000000000000000000000000000000000000600082015250565b60006200158b600183620011d0565b9150620015988262001553565b600182019050919050565b6000620015b0826200148c565b9150620015be8286620011db565b9150620015cb82620014dc565b9150620015d98285620011db565b9150620015e6826200152c565b9150620015f48284620011db565b915062001601826200157c565b9150819050949350505050565b7f44454c4554452046524f4d200000000000000000000000000000000000000000600082015250565b600062001646600c83620011d0565b915062001653826200160e565b600c82019050919050565b7f2057484552452000000000000000000000000000000000000000000000000000600082015250565b600062001696600783620011d0565b9150620016a3826200165e565b600782019050919050565b6000620016bb8262001637565b9150620016c98285620011db565b9150620016d68262001687565b9150620016e48284620011db565b91508190509392505050565b7f5f00000000000000000000000000000000000000000000000000000000000000600082015250565b600062001728600183620011d0565b91506200173582620016f0565b600182019050919050565b60006200174e8286620011db565b91506200175b8262001719565b9150620017698285620011db565b9150620017768262001719565b9150620017848284620011db565b9150819050949350505050565b60006200179e8262001687565b9150620017ac8284620011db565b915081905092915050565b7f5550444154452000000000000000000000000000000000000000000000000000600082015250565b6000620017ef600783620011d0565b9150620017fc82620017b7565b600782019050919050565b7f2053455420000000000000000000000000000000000000000000000000000000600082015250565b60006200183f600583620011d0565b91506200184c8262001807565b600582019050919050565b60006200186482620017e0565b9150620018728286620011db565b91506200187f8262001830565b91506200188d8285620011db565b91506200189b8284620011db565b9150819050949350505050565b7f4e487b7100000000000000000000000000000000000000000000000000000000600052601260045260246000fdfe60806040523480156200001157600080fd5b5060405162001eb638038062001eb6833981810160405281019062000037919062000288565b806040518060400160405280600481526020017f476f6c64000000000000000000000000000000000000000000000000000000008152506040518060400160405280600381526020017f474c4400000000000000000000000000000000000000000000000000000000008152508160039081620000b5919062000534565b508060049081620000c7919062000534565b505050600073ffffffffffffffffffffffffffffffffffffffff168173ffffffffffffffffffffffffffffffffffffffff16036200013f5760006040517f1e4fbdf70000000000000000000000000000000000000000000000000000000081526004016200013691906200062c565b60405180910390fd5b62000150816200015860201b60201c565b505062000649565b6000600560009054906101000a900473ffffffffffffffffffffffffffffffffffffffff16905081600560006101000a81548173ffffffffffffffffffffffffffffffffffffffff021916908373ffffffffffffffffffffffffffffffffffffffff1602179055508173ffffffffffffffffffffffffffffffffffffffff168173ffffffffffffffffffffffffffffffffffffffff167f8be0079c531659141344cd1fd0a4f28419497f9722a3daafe3b4186f6b6457e060405160405180910390a35050565b600080fd5b600073ffffffffffffffffffffffffffffffffffffffff82169050919050565b6000620002508262000223565b9050919050565b620002628162000243565b81146200026e57600080fd5b50565b600081519050620002828162000257565b92915050565b600060208284031215620002a157620002a06200021e565b5b6000620002b18482850162000271565b91505092915050565b600081519050919050565b7f4e487b7100000000000000000000000000000000000000000000000000000000600052604160045260246000fd5b7f4e487b7100000000000000000000000000000000000000000000000000000000600052602260045260246000fd5b600060028204905060018216806200033c57607f821691505b602082108103620003525762000351620002f4565b5b50919050565b60008190508160005260206000209050919050565b60006020601f8301049050919050565b600082821b905092915050565b600060088302620003bc7fffffffffffffffffffffffffffffffffffffffffffffffffffffffffffffffff826200037d565b620003c886836200037d565b95508019841693508086168417925050509392505050565b6000819050919050565b6000819050919050565b6000620004156200040f6200040984620003e0565b620003ea565b620003e0565b9050919050565b6000819050919050565b6200043183620003f4565b6200044962000440826200041c565b8484546200038a565b825550505050565b600090565b6200046062000451565b6200046d81848462000426565b505050565b5b8181101562000495576200048960008262000456565b60018101905062000473565b5050565b601f821115620004e457620004ae8162000358565b620004b9846200036d565b81016020851015620004c9578190505b620004e1620004d8856200036d565b83018262000472565b50505b505050565b600082821c905092915050565b60006200050960001984600802620004e9565b1980831691505092915050565b6000620005248383620004f6565b9150826002028217905092915050565b6200053f82620002ba565b67ffffffffffffffff8111156200055b576200055a620002c5565b5b62000567825462000323565b6200057482828562000499565b600060209050601f831160018114620005ac576000841562000597578287015190505b620005a3858262000516565b86555062000613565b601f198416620005bc8662000358565b60005b82811015620005e657848901518255600182019150602085019450602081019050620005bf565b8683101562000606578489015162000602601f891682620004f6565b8355505b6001600288020188555050505b505050505050565b620006268162000243565b82525050565b60006020820190506200064360008301846200061b565b92915050565b61185d80620006596000396000f3fe6080604052600436106101085760003560e01c80638da5cb5b11610095578063cdbb02af11610064578063cdbb02af1461035f578063d0e30db01461038a578063dd62ed3e14610394578063e9d80020146103d1578063f2fde38b1461040e57610108565b80638da5cb5b146102ae57806395d89b41146102d9578063a6f2ae3a14610304578063a9059cbb1461032257610108565b806319aa4aa8116100dc57806319aa4aa8146101c957806323b872dd146101f2578063313ce5671461022f57806370a082311461025a578063715018a61461029757610108565b8062f714ce1461010d57806306fdde0314610136578063095ea7b31461016157806318160ddd1461019e575b600080fd5b34801561011957600080fd5b50610134600480360381019061012f919061129a565b610437565b005b34801561014257600080fd5b5061014b610504565b604051610158919061136a565b60405180910390f35b34801561016d57600080fd5b506101886004803603810190610183919061138c565b610596565b60405161019591906113e7565b60405180910390f35b3480156101aa57600080fd5b506101b36105b9565b6040516101c09190611411565b60405180910390f35b3480156101d557600080fd5b506101f060048036038101906101eb919061142c565b6105c3565b005b3480156101fe57600080fd5b506102196004803603810190610214919061146c565b610654565b60405161022691906113e7565b60405180910390f35b34801561023b57600080fd5b50610244610683565b60405161025191906114db565b60405180910390f35b34801561026657600080fd5b50610281600480360381019061027c91906114f6565b61068c565b60405161028e9190611411565b60405180910390f35b3480156102a357600080fd5b506102ac6106d4565b005b3480156102ba57600080fd5b506102c36106e8565b6040516102d09190611532565b60405180910390f35b3480156102e557600080fd5b506102ee610712565b6040516102fb919061136a565b60405180910390f35b61030c6107a4565b6040516103199190611411565b60405180910390f35b34801561032e57600080fd5b506103496004803603810190610344919061138c565b61089c565b60405161035691906113e7565b60405180910390f35b34801561036b57600080fd5b506103746108bf565b6040516103819190611411565b60405180910390f35b6103926108cc565b005b3480156103a057600080fd5b506103bb60048036038101906103b6919061154d565b610948565b6040516103c89190611411565b60405180910390f35b3480156103dd57600080fd5b506103f860048036038101906103f3919061158d565b6109cf565b6040516104059190611532565b60405180910390f35b34801561041a57600080fd5b50610435600480360381019061043091906114f6565b610a0e565b005b61043f610a94565b81471015610482576040517f08c379a000000000000000000000000000000000000000000000000000000000815260040161047990611606565b60405180910390fd5b8073ffffffffffffffffffffffffffffffffffffffff166108fc839081150290604051600060405180830381858888f193505050501580156104c8573d6000803e3d6000fd5b507f5b6b431d4476a211bb7d41c20d1aab9ae2321deee0d20be3d9fc9b1093fa6e3d826040516104f89190611411565b60405180910390a15050565b60606003805461051390611655565b80601f016020809104026020016040519081016040528092919081815260200182805461053f90611655565b801561058c5780601f106105615761010080835404028352916020019161058c565b820191906000526020600020905b81548152906001019060200180831161056f57829003601f168201915b5050505050905090565b6000806105a1610b1b565b90506105ae818585610b23565b600191505092915050565b6000600254905090565b6105cb610a94565b600681815481106105df576105de611686565b5b9060005260206000200160009054906101000a900473ffffffffffffffffffffffffffffffffffffffff1673ffffffffffffffffffffffffffffffffffffffff166108fc839081150290604051600060405180830381858888f1935050505015801561064f573d6000803e3d6000fd5b505050565b60008061065f610b1b565b905061066c858285610b35565b610677858585610bc9565b60019150509392505050565b60006012905090565b60008060008373ffffffffffffffffffffffffffffffffffffffff1673ffffffffffffffffffffffffffffffffffffffff168152602001908152602001600020549050919050565b6106dc610a94565b6106e66000610cbd565b565b6000600560009054906101000a900473ffffffffffffffffffffffffffffffffffffffff16905090565b60606004805461072190611655565b80601f016020809104026020016040519081016040528092919081815260200182805461074d90611655565b801561079a5780601f1061076f5761010080835404028352916020019161079a565b820191906000526020600020905b81548152906001019060200180831161077d57829003601f168201915b5050505050905090565b60008034116107e8576040517f08c379a00000000000000000000000000000000000000000000000000000000081526004016107df90611701565b60405180910390fd5b60003490506107f73382610d83565b6006339080600181540180825580915050600190039060005260206000200160009091909190916101000a81548173ffffffffffffffffffffffffffffffffffffffff021916908373ffffffffffffffffffffffffffffffffffffffff1602179055507fa9a40dec7a304e5915d11358b968c1e8d365992abf20f82285d1df1b30c8e24c33348360405161088d93929190611721565b60405180910390a18091505090565b6000806108a7610b1b565b90506108b4818585610bc9565b600191505092915050565b6000600680549050905090565b6000341161090f576040517f08c379a0000000000000000000000000000000000000000000000000000000008152600401610906906117a4565b60405180910390fd5b7f4d6ce1e535dbade1c23defba91e23b8f791ce5edc0cc320257a2b364e4e384263460405161093e9190611411565b60405180910390a1565b6000600160008473ffffffffffffffffffffffffffffffffffffffff1673ffffffffffffffffffffffffffffffffffffffff16815260200190815260200160002060008373ffffffffffffffffffffffffffffffffffffffff1673ffffffffffffffffffffffffffffffffffffffff16815260200190815260200160002054905092915050565b600681815481106109df57600080fd5b906000526020600020016000915054906101000a900473ffffffffffffffffffffffffffffffffffffffff1681565b610a16610a94565b600073ffffffffffffffffffffffffffffffffffffffff168173ffffffffffffffffffffffffffffffffffffffff1603610a885760006040517f1e4fbdf7000000000000000000000000000000000000000000000000000000008152600401610a7f9190611532565b60405180910390fd5b610a9181610cbd565b50565b610a9c610b1b565b73ffffffffffffffffffffffffffffffffffffffff16610aba6106e8565b73ffffffffffffffffffffffffffffffffffffffff1614610b1957610add610b1b565b6040517f118cdaa7000000000000000000000000000000000000000000000000000000008152600401610b109190611532565b60405180910390fd5b565b600033905090565b610b308383836001610e05565b505050565b6000610b418484610948565b90507fffffffffffffffffffffffffffffffffffffffffffffffffffffffffffffffff8114610bc35781811015610bb3578281836040517ffb8f41b2000000000000000000000000000000000000000000000000000000008152600401610baa93929190611721565b60405180910390fd5b610bc284848484036000610e05565b5b50505050565b600073ffffffffffffffffffffffffffffffffffffffff168373ffffffffffffffffffffffffffffffffffffffff1603610c3b5760006040517f96c6fd1e000000000000000000000000000000000000000000000000000000008152600401610c329190611532565b60405180910390fd5b600073ffffffffffffffffffffffffffffffffffffffff168273ffffffffffffffffffffffffffffffffffffffff1603610cad5760006040517fec442f05000000000000000000000000000000000000000000000000000000008152600401610ca49190611532565b60405180910390fd5b610cb8838383610fdc565b505050565b6000600560009054906101000a900473ffffffffffffffffffffffffffffffffffffffff16905081600560006101000a81548173ffffffffffffffffffffffffffffffffffffffff021916908373ffffffffffffffffffffffffffffffffffffffff1602179055508173ffffffffffffffffffffffffffffffffffffffff168173ffffffffffffffffffffffffffffffffffffffff167f8be0079c531659141344cd1fd0a4f28419497f9722a3daafe3b4186f6b6457e060405160405180910390a35050565b600073ffffffffffffffffffffffffffffffffffffffff168273ffffffffffffffffffffffffffffffffffffffff1603610df55760006040517fec442f05000000000000000000000000000000000000000000000000000000008152600401610dec9190611532565b60405180910390fd5b610e0160008383610fdc565b5050565b600073ffffffffffffffffffffffffffffffffffffffff168473ffffffffffffffffffffffffffffffffffffffff1603610e775760006040517fe602df05000000000000000000000000000000000000000000000000000000008152600401610e6e9190611532565b60405180910390fd5b600073ffffffffffffffffffffffffffffffffffffffff168373ffffffffffffffffffffffffffffffffffffffff1603610ee95760006040517f94280d62000000000000000000000000000000000000000000000000000000008152600401610ee09190611532565b60405180910390fd5b81600160008673ffffffffffffffffffffffffffffffffffffffff1673ffffffffffffffffffffffffffffffffffffffff16815260200190815260200160002060008573ffffffffffffffffffffffffffffffffffffffff1673ffffffffffffffffffffffffffffffffffffffff168152602001908152602001600020819055508015610fd6578273ffffffffffffffffffffffffffffffffffffffff168473ffffffffffffffffffffffffffffffffffffffff167f8c5be1e5ebec7d5bd14f71427d1e84f3dd0314c0f7b2291e5b200ac8c7c3b92584604051610fcd9190611411565b60405180910390a35b50505050565b600073ffffffffffffffffffffffffffffffffffffffff168373ffffffffffffffffffffffffffffffffffffffff160361102e57806002600082825461102291906117f3565b92505081905550611101565b60008060008573ffffffffffffffffffffffffffffffffffffffff1673ffffffffffffffffffffffffffffffffffffffff168152602001908152602001600020549050818110156110ba578381836040517fe450d38c0000000000000000000000000000000000000000000000000000000081526004016110b193929190611721565b60405180910390fd5b8181036000808673ffffffffffffffffffffffffffffffffffffffff1673ffffffffffffffffffffffffffffffffffffffff16815260200190815260200160002081905550505b600073ffffffffffffffffffffffffffffffffffffffff168273ffffffffffffffffffffffffffffffffffffffff160361114a5780600260008282540392505081905550611197565b806000808473ffffffffffffffffffffffffffffffffffffffff1673ffffffffffffffffffffffffffffffffffffffff168152602001908152602001600020600082825401925050819055505b8173ffffffffffffffffffffffffffffffffffffffff168373ffffffffffffffffffffffffffffffffffffffff167fddf252ad1be2c89b69c2b068fc378daa952ba7f163c4a11628f55a4df523b3ef836040516111f49190611411565b60405180910390a3505050565b600080fd5b6000819050919050565b61121981611206565b811461122457600080fd5b50565b60008135905061123681611210565b92915050565b600073ffffffffffffffffffffffffffffffffffffffff82169050919050565b60006112678261123c565b9050919050565b6112778161125c565b811461128257600080fd5b50565b6000813590506112948161126e565b92915050565b600080604083850312156112b1576112b0611201565b5b60006112bf85828601611227565b92505060206112d085828601611285565b9150509250929050565b600081519050919050565b600082825260208201905092915050565b60005b838110156113145780820151818401526020810190506112f9565b60008484015250505050565b6000601f19601f8301169050919050565b600061133c826112da565b61134681856112e5565b93506113568185602086016112f6565b61135f81611320565b840191505092915050565b600060208201905081810360008301526113848184611331565b905092915050565b600080604083850312156113a3576113a2611201565b5b60006113b185828601611285565b92505060206113c285828601611227565b9150509250929050565b60008115159050919050565b6113e1816113cc565b82525050565b60006020820190506113fc60008301846113d8565b92915050565b61140b81611206565b82525050565b60006020820190506114266000830184611402565b92915050565b6000806040838503121561144357611442611201565b5b600061145185828601611227565b925050602061146285828601611227565b9150509250929050565b60008060006060848603121561148557611484611201565b5b600061149386828701611285565b93505060206114a486828701611285565b92505060406114b586828701611227565b9150509250925092565b600060ff82169050919050565b6114d5816114bf565b82525050565b60006020820190506114f060008301846114cc565b92915050565b60006020828403121561150c5761150b611201565b5b600061151a84828501611285565b91505092915050565b61152c8161125c565b82525050565b60006020820190506115476000830184611523565b92915050565b6000806040838503121561156457611563611201565b5b600061157285828601611285565b925050602061158385828601611285565b9150509250929050565b6000602082840312156115a3576115a2611201565b5b60006115b184828501611227565b91505092915050565b7f496e73756666696369656e742062616c616e6365000000000000000000000000600082015250565b60006115f06014836112e5565b91506115fb826115ba565b602082019050919050565b6000602082019050818103600083015261161f816115e3565b9050919050565b7f4e487b7100000000000000000000000000000000000000000000000000000000600052602260045260246000fd5b6000600282049050600182168061166d57607f821691505b6020821081036116805761167f611626565b5b50919050565b7f4e487b7100000000000000000000000000000000000000000000000000000000600052603260045260246000fd5b7f53656e642045544820746f2062757920736f6d6520746f6b656e730000000000600082015250565b60006116eb601b836112e5565b91506116f6826116b5565b602082019050919050565b6000602082019050818103600083015261171a816116de565b9050919050565b60006060820190506117366000830186611523565b6117436020830185611402565b6117506040830184611402565b949350505050565b7f53656e642045544820746f206465706f73697400000000000000000000000000600082015250565b600061178e6013836112e5565b915061179982611758565b602082019050919050565b600060208201905081810360008301526117bd81611781565b9050919050565b7f4e487b7100000000000000000000000000000000000000000000000000000000600052601160045260246000fd5b60006117fe82611206565b915061180983611206565b9250828201905080821115611821576118206117c4565b5b9291505056fea2646970667358221220c5024e04df2f8340c4048dee037a0b0307446f5f2d8a4bb264adad569554afd764736f6c6343000818003360806040523480156200001157600080fd5b50620000226200002860201b60201c565b620009c3565b620000386200012160201b60201c565b73ffffffffffffffffffffffffffffffffffffffff1663a15ab08d30620000b460405180606001604052806023815260200162001fab602391396040518060400160405280601081526020017f7461626c655f61747472696275746573000000000000000000000000000000008152506200033a60201b60201c565b6040518363ffffffff1660e01b8152600401620000d3929190620006a4565b6020604051808303816000875af1158015620000f3573d6000803e3d6000fd5b505050506040513d601f19601f8201168201806040525081019062000119919062000718565b600081905550565b600060014603620001495773012969f7e3439a9b04025b5a049eb9bad82a8c12905062000337565b600a46036200016f5773fad44bf5b843de943a09d4f3e84949a11d3aa3e6905062000337565b61a4b146036200019657739abd75e8640871a5a20d3b4ee6330a04c962affd905062000337565b61a4ba4603620001bd57731a22854c5b1642760a827f20137a67930ae108d2905062000337565b60894603620001e357735c4e6a9e5c1e1bf445a062006faf19ea6c49afea905062000337565b61013a46036200020a577359ef8bf2d6c102b4c42aef9189e1a9f0abfd652d905062000337565b62aa36a74603620002325773c50c62498448acc8dbde43da77f8d5d2e2c7597d905062000337565b6101a44603620002595773c72e8a7be04f2469f8c2db3f1bdf69a7d516abba905062000337565b62066eee4603620002815773223a74b8323914afdc3ff1e5005564dc17231d6e905062000337565b620138814603620002a957734b48841d4b32c4650e4abc117a03fe8b51f38f68905062000337565b6204cb2f4603620002d15773030bcf3d50cad04c2e57391b12740982a9308621905062000337565b617a694603620002f85773e7f1725e7734ce288f8367e1bb143e90bb3f0512905062000337565b466040517f264e42cf0000000000000000000000000000000000000000000000000000000081526004016200032e91906200075b565b60405180910390fd5b90565b6060816200034e466200037a60201b60201c565b846040516020016200036393929190620008fa565b604051602081830303815290604052905092915050565b60606000600162000391846200045960201b60201c565b01905060008167ffffffffffffffff811115620003b357620003b262000965565b5b6040519080825280601f01601f191660200182016040528015620003e65781602001600182028036833780820191505090505b509050600082602001820190505b6001156200044e578080600190039150507f3031323334353637383961626364656600000000000000000000000000000000600a86061a8153600a858162000441576200044062000994565b5b04945060008503620003f4575b819350505050919050565b600080600090507a184f03e93ff9f4daa797ed6e38ed64bf6a1f0100000000000000008310620004bb577a184f03e93ff9f4daa797ed6e38ed64bf6a1f0100000000000000008381620004b157620004b062000994565b5b0492506040810190505b6d04ee2d6d415b85acef81000000008310620004fc576d04ee2d6d415b85acef81000000008381620004f257620004f162000994565b5b0492506020810190505b662386f26fc1000083106200052f57662386f26fc10000838162000525576200052462000994565b5b0492506010810190505b6305f5e10083106200055c576305f5e100838162000552576200055162000994565b5b0492506008810190505b6127108310620005855761271083816200057b576200057a62000994565b5b0492506004810190505b60648310620005ac5760648381620005a257620005a162000994565b5b0492506002810190505b600a8310620005bc576001810190505b80915050919050565b600073ffffffffffffffffffffffffffffffffffffffff82169050919050565b6000620005f282620005c5565b9050919050565b6200060481620005e5565b82525050565b600081519050919050565b600082825260208201905092915050565b60005b838110156200064657808201518184015260208101905062000629565b60008484015250505050565b6000601f19601f8301169050919050565b600062000670826200060a565b6200067c818562000615565b93506200068e81856020860162000626565b620006998162000652565b840191505092915050565b6000604082019050620006bb6000830185620005f9565b8181036020830152620006cf818462000663565b90509392505050565b600080fd5b6000819050919050565b620006f281620006dd565b8114620006fe57600080fd5b50565b6000815190506200071281620006e7565b92915050565b600060208284031215620007315762000730620006d8565b5b6000620007418482850162000701565b91505092915050565b6200075581620006dd565b82525050565b60006020820190506200077260008301846200074a565b92915050565b600081905092915050565b7f435245415445205441424c452000000000000000000000000000000000000000600082015250565b6000620007bb600d8362000778565b9150620007c88262000783565b600d82019050919050565b6000620007e0826200060a565b620007ec818562000778565b9350620007fe81856020860162000626565b80840191505092915050565b7f5f00000000000000000000000000000000000000000000000000000000000000600082015250565b60006200084260018362000778565b91506200084f826200080a565b600182019050919050565b7f2800000000000000000000000000000000000000000000000000000000000000600082015250565b60006200089260018362000778565b91506200089f826200085a565b600182019050919050565b7f2900000000000000000000000000000000000000000000000000000000000000600082015250565b6000620008e260018362000778565b9150620008ef82620008aa565b600182019050919050565b60006200090782620007ac565b9150620009158286620007d3565b9150620009228262000833565b9150620009308285620007d3565b91506200093d8262000883565b91506200094b8284620007d3565b91506200095882620008d3565b9150819050949350505050565b7f4e487b7100000000000000000000000000000000000000000000000000000000600052604160045260246000fd5b7f4e487b7100000000000000000000000000000000000000000000000000000000600052601260045260246000fd5b6115d880620009d36000396000f3fe608060405234801561001057600080fd5b506004361061007d5760003560e01c8063312fa4571161005b578063312fa457146100ea5780635d5a33a21461010657806388e4f1cb14610124578063f56ec1ed146101425761007d565b806304bfc47f14610082578063150b7a021461009e57806319129e5a146100ce575b600080fd5b61009c60048036038101906100979190610b03565b61015e565b005b6100b860048036038101906100b39190610cd4565b610247565b6040516100c59190610d92565b60405180910390f35b6100e860048036038101906100e39190610dad565b61025b565b005b61010460048036038101906100ff9190610e7b565b6102d6565b005b61010e6103c1565b60405161011b9190610f56565b60405180910390f35b61012c610409565b6040516101399190610f87565b60405180910390f35b61015c60048036038101906101579190610e7b565b610412565b005b600061016982610536565b6040516020016101799190611004565b6040516020818303038152906040529050610192610604565b73ffffffffffffffffffffffffffffffffffffffff1663377af0da306000546101f36040518060400160405280601081526020017f7461626c655f617474726962757465730000000000000000000000000000000081525060005487610803565b6040518463ffffffff1660e01b815260040161021193929190611039565b600060405180830381600087803b15801561022b57600080fd5b505af115801561023f573d6000803e3d6000fd5b505050505050565b600063150b7a0260e01b9050949350505050565b610263610604565b73ffffffffffffffffffffffffffffffffffffffff16638bb0ab9730600054846040518463ffffffff1660e01b81526004016102a193929190611077565b600060405180830381600087803b1580156102bb57600080fd5b505af11580156102cf573d6000803e3d6000fd5b5050505050565b60006102e183610536565b6040516020016102f19190611004565b604051602081830303815290604052905061030a610604565b73ffffffffffffffffffffffffffffffffffffffff1663377af0da3060005461036c6040518060400160405280601081526020017f7461626c655f6174747269627574657300000000000000000000000000000000815250600054888861083f565b6040518463ffffffff1660e01b815260040161038a93929190611039565b600060405180830381600087803b1580156103a457600080fd5b505af11580156103b8573d6000803e3d6000fd5b50505050505050565b60606104046040518060400160405280601081526020017f7461626c655f61747472696275746573000000000000000000000000000000008152506000546108c0565b905090565b60008054905090565b61041a610604565b73ffffffffffffffffffffffffffffffffffffffff1663377af0da306000546104e26040518060400160405280601081526020017f7461626c655f61747472696275746573000000000000000000000000000000008152506000546040518060400160405280600a81526020017f69642c757365725f6964000000000000000000000000000000000000000000008152506104b48a610536565b6104bd8a6108fe565b6040516020016104ce9291906110d4565b604051602081830303815290604052610927565b6040518463ffffffff1660e01b815260040161050093929190611039565b600060405180830381600087803b15801561051a57600080fd5b505af115801561052e573d6000803e3d6000fd5b505050505050565b60606000600161054584610966565b01905060008167ffffffffffffffff81111561056457610563610ba9565b5b6040519080825280601f01601f1916602001820160405280156105965781602001600182028036833780820191505090505b509050600082602001820190505b6001156105f9578080600190039150507f3031323334353637383961626364656600000000000000000000000000000000600a86061a8153600a85816105ed576105ec611107565b5b049450600085036105a4575b819350505050919050565b60006001460361062a5773012969f7e3439a9b04025b5a049eb9bad82a8c129050610800565b600a460361064e5773fad44bf5b843de943a09d4f3e84949a11d3aa3e69050610800565b61a4b1460361067357739abd75e8640871a5a20d3b4ee6330a04c962affd9050610800565b61a4ba460361069857731a22854c5b1642760a827f20137a67930ae108d29050610800565b608946036106bc57735c4e6a9e5c1e1bf445a062006faf19ea6c49afea9050610800565b61013a46036106e1577359ef8bf2d6c102b4c42aef9189e1a9f0abfd652d9050610800565b62aa36a746036107075773c50c62498448acc8dbde43da77f8d5d2e2c7597d9050610800565b6101a4460361072c5773c72e8a7be04f2469f8c2db3f1bdf69a7d516abba9050610800565b62066eee46036107525773223a74b8323914afdc3ff1e5005564dc17231d6e9050610800565b62013881460361077857734b48841d4b32c4650e4abc117a03fe8b51f38f689050610800565b6204cb2f460361079e5773030bcf3d50cad04c2e57391b12740982a93086219050610800565b617a6946036107c35773e7f1725e7734ce288f8367e1bb143e90bb3f05129050610800565b466040517f264e42cf0000000000000000000000000000000000000000000000000000000081526004016107f79190610f87565b60405180910390fd5b90565b6060600061081185856108c0565b905080836040516020016108269291906111ce565b6040516020818303038152906040529150509392505050565b6060600061084d86866108c0565b90506000604051806020016040528060008152509050600084511115610890578360405160200161087e9190611208565b60405160208183030381529060405290505b8185826040516020016108a5939291906112c2565b60405160208183030381529060405292505050949350505050565b6060826108cc46610536565b6108d584610536565b6040516020016108e793929190611355565b604051602081830303815290604052905092915050565b60608160405160200161091191906113e8565b6040516020818303038152906040529050919050565b6060600061093586866108c0565b905080848460405160200161094c93929190611545565b604051602081830303815290604052915050949350505050565b600080600090507a184f03e93ff9f4daa797ed6e38ed64bf6a1f01000000000000000083106109c4577a184f03e93ff9f4daa797ed6e38ed64bf6a1f01000000000000000083816109ba576109b9611107565b5b0492506040810190505b6d04ee2d6d415b85acef81000000008310610a01576d04ee2d6d415b85acef810000000083816109f7576109f6611107565b5b0492506020810190505b662386f26fc100008310610a3057662386f26fc100008381610a2657610a25611107565b5b0492506010810190505b6305f5e1008310610a59576305f5e1008381610a4f57610a4e611107565b5b0492506008810190505b6127108310610a7e576127108381610a7457610a73611107565b5b0492506004810190505b60648310610aa15760648381610a9757610a96611107565b5b0492506002810190505b600a8310610ab0576001810190505b80915050919050565b6000604051905090565b600080fd5b600080fd5b6000819050919050565b610ae081610acd565b8114610aeb57600080fd5b50565b600081359050610afd81610ad7565b92915050565b600060208284031215610b1957610b18610ac3565b5b6000610b2784828501610aee565b91505092915050565b600073ffffffffffffffffffffffffffffffffffffffff82169050919050565b6000610b5b82610b30565b9050919050565b610b6b81610b50565b8114610b7657600080fd5b50565b600081359050610b8881610b62565b92915050565b600080fd5b600080fd5b6000601f19601f8301169050919050565b7f4e487b7100000000000000000000000000000000000000000000000000000000600052604160045260246000fd5b610be182610b98565b810181811067ffffffffffffffff82111715610c0057610bff610ba9565b5b80604052505050565b6000610c13610ab9565b9050610c1f8282610bd8565b919050565b600067ffffffffffffffff821115610c3f57610c3e610ba9565b5b610c4882610b98565b9050602081019050919050565b82818337600083830152505050565b6000610c77610c7284610c24565b610c09565b905082815260208101848484011115610c9357610c92610b93565b5b610c9e848285610c55565b509392505050565b600082601f830112610cbb57610cba610b8e565b5b8135610ccb848260208601610c64565b91505092915050565b60008060008060808587031215610cee57610ced610ac3565b5b6000610cfc87828801610b79565b9450506020610d0d87828801610b79565b9350506040610d1e87828801610aee565b925050606085013567ffffffffffffffff811115610d3f57610d3e610ac8565b5b610d4b87828801610ca6565b91505092959194509250565b60007fffffffff0000000000000000000000000000000000000000000000000000000082169050919050565b610d8c81610d57565b82525050565b6000602082019050610da76000830184610d83565b92915050565b600060208284031215610dc357610dc2610ac3565b5b6000610dd184828501610b79565b91505092915050565b600067ffffffffffffffff821115610df557610df4610ba9565b5b610dfe82610b98565b9050602081019050919050565b6000610e1e610e1984610dda565b610c09565b905082815260208101848484011115610e3a57610e39610b93565b5b610e45848285610c55565b509392505050565b600082601f830112610e6257610e61610b8e565b5b8135610e72848260208601610e0b565b91505092915050565b60008060408385031215610e9257610e91610ac3565b5b6000610ea085828601610aee565b925050602083013567ffffffffffffffff811115610ec157610ec0610ac8565b5b610ecd85828601610e4d565b9150509250929050565b600081519050919050565b600082825260208201905092915050565b60005b83811015610f11578082015181840152602081019050610ef6565b60008484015250505050565b6000610f2882610ed7565b610f328185610ee2565b9350610f42818560208601610ef3565b610f4b81610b98565b840191505092915050565b60006020820190508181036000830152610f708184610f1d565b905092915050565b610f8181610acd565b82525050565b6000602082019050610f9c6000830184610f78565b92915050565b7f69643d0000000000000000000000000000000000000000000000000000000000815250565b600081905092915050565b6000610fde82610ed7565b610fe88185610fc8565b9350610ff8818560208601610ef3565b80840191505092915050565b600061100f82610fa2565b60038201915061101f8284610fd3565b915081905092915050565b61103381610b50565b82525050565b600060608201905061104e600083018661102a565b61105b6020830185610f78565b818103604083015261106d8184610f1d565b9050949350505050565b600060608201905061108c600083018661102a565b6110996020830185610f78565b6110a6604083018461102a565b949350505050565b7f2c00000000000000000000000000000000000000000000000000000000000000815250565b60006110e08285610fd3565b91506110eb826110ae565b6001820191506110fb8284610fd3565b91508190509392505050565b7f4e487b7100000000000000000000000000000000000000000000000000000000600052601260045260246000fd5b7f44454c4554452046524f4d200000000000000000000000000000000000000000600082015250565b600061116c600c83610fc8565b915061117782611136565b600c82019050919050565b7f2057484552452000000000000000000000000000000000000000000000000000600082015250565b60006111b8600783610fc8565b91506111c382611182565b600782019050919050565b60006111d98261115f565b91506111e58285610fd3565b91506111f0826111ab565b91506111fc8284610fd3565b91508190509392505050565b6000611213826111ab565b915061121f8284610fd3565b915081905092915050565b7f5550444154452000000000000000000000000000000000000000000000000000600082015250565b6000611260600783610fc8565b915061126b8261122a565b600782019050919050565b7f2053455420000000000000000000000000000000000000000000000000000000600082015250565b60006112ac600583610fc8565b91506112b782611276565b600582019050919050565b60006112cd82611253565b91506112d98286610fd3565b91506112e48261129f565b91506112f08285610fd3565b91506112fc8284610fd3565b9150819050949350505050565b7f5f00000000000000000000000000000000000000000000000000000000000000600082015250565b600061133f600183610fc8565b915061134a82611309565b600182019050919050565b60006113618286610fd3565b915061136c82611332565b91506113788285610fd3565b915061138382611332565b915061138f8284610fd3565b9150819050949350505050565b7f2700000000000000000000000000000000000000000000000000000000000000600082015250565b60006113d2600183610fc8565b91506113dd8261139c565b600182019050919050565b60006113f3826113c5565b91506113ff8284610fd3565b915061140a826113c5565b915081905092915050565b7f494e5345525420494e544f200000000000000000000000000000000000000000600082015250565b600061144b600c83610fc8565b915061145682611415565b600c82019050919050565b7f2800000000000000000000000000000000000000000000000000000000000000600082015250565b6000611497600183610fc8565b91506114a282611461565b600182019050919050565b7f2956414c55455328000000000000000000000000000000000000000000000000600082015250565b60006114e3600883610fc8565b91506114ee826114ad565b600882019050919050565b7f2900000000000000000000000000000000000000000000000000000000000000600082015250565b600061152f600183610fc8565b915061153a826114f9565b600182019050919050565b60006115508261143e565b915061155c8286610fd3565b91506115678261148a565b91506115738285610fd3565b915061157e826114d6565b915061158a8284610fd3565b915061159582611522565b915081905094935050505056fea26469706673582212200455cede3e4073ebf27df3f83f4c1fe4643234d41ae16e0a955e9f45f37c97b764736f6c63430008180033696420696e7465676572207072696d617279206b65792c757365725f69642074657874a26469706673582212207fa24dbf03ee386e215cce5f5fea10bda65aa4f249b5b6dc84c34bff3de4a76564736f6c6343000818003369642074657874207072696d617279206b65792c7469746c6520746578742c6465736372697074696f6e20746578742c6461746120746578742c696d61676520746578742c766964656f20746578742c6c6f636174696f6e20746578742c757365725f636f6e74726163745f696420746578742c6261636b65727320746578742c70726f6a6563745f636f6e74726163745f6964207465787460806040523480156200001157600080fd5b50620000226200002860201b60201c565b620009c3565b620000386200012160201b60201c565b73ffffffffffffffffffffffffffffffffffffffff1663a15ab08d30620000b46040518060a001604052806077815260200162001e72607791396040518060400160405280601081526020017f7461626c655f61747472696275746573000000000000000000000000000000008152506200033a60201b60201c565b6040518363ffffffff1660e01b8152600401620000d3929190620006a4565b6020604051808303816000875af1158015620000f3573d6000803e3d6000fd5b505050506040513d601f19601f8201168201806040525081019062000119919062000718565b600081905550565b600060014603620001495773012969f7e3439a9b04025b5a049eb9bad82a8c12905062000337565b600a46036200016f5773fad44bf5b843de943a09d4f3e84949a11d3aa3e6905062000337565b61a4b146036200019657739abd75e8640871a5a20d3b4ee6330a04c962affd905062000337565b61a4ba4603620001bd57731a22854c5b1642760a827f20137a67930ae108d2905062000337565b60894603620001e357735c4e6a9e5c1e1bf445a062006faf19ea6c49afea905062000337565b61013a46036200020a577359ef8bf2d6c102b4c42aef9189e1a9f0abfd652d905062000337565b62aa36a74603620002325773c50c62498448acc8dbde43da77f8d5d2e2c7597d905062000337565b6101a44603620002595773c72e8a7be04f2469f8c2db3f1bdf69a7d516abba905062000337565b62066eee4603620002815773223a74b8323914afdc3ff1e5005564dc17231d6e905062000337565b620138814603620002a957734b48841d4b32c4650e4abc117a03fe8b51f38f68905062000337565b6204cb2f4603620002d15773030bcf3d50cad04c2e57391b12740982a9308621905062000337565b617a694603620002f85773e7f1725e7734ce288f8367e1bb143e90bb3f0512905062000337565b466040517f264e42cf0000000000000000000000000000000000000000000000000000000081526004016200032e91906200075b565b60405180910390fd5b90565b6060816200034e466200037a60201b60201c565b846040516020016200036393929190620008fa565b604051602081830303815290604052905092915050565b60606000600162000391846200045960201b60201c565b01905060008167ffffffffffffffff811115620003b357620003b262000965565b5b6040519080825280601f01601f191660200182016040528015620003e65781602001600182028036833780820191505090505b509050600082602001820190505b6001156200044e578080600190039150507f3031323334353637383961626364656600000000000000000000000000000000600a86061a8153600a858162000441576200044062000994565b5b04945060008503620003f4575b819350505050919050565b600080600090507a184f03e93ff9f4daa797ed6e38ed64bf6a1f0100000000000000008310620004bb577a184f03e93ff9f4daa797ed6e38ed64bf6a1f0100000000000000008381620004b157620004b062000994565b5b0492506040810190505b6d04ee2d6d415b85acef81000000008310620004fc576d04ee2d6d415b85acef81000000008381620004f257620004f162000994565b5b0492506020810190505b662386f26fc1000083106200052f57662386f26fc10000838162000525576200052462000994565b5b0492506010810190505b6305f5e10083106200055c576305f5e100838162000552576200055162000994565b5b0492506008810190505b6127108310620005855761271083816200057b576200057a62000994565b5b0492506004810190505b60648310620005ac5760648381620005a257620005a162000994565b5b0492506002810190505b600a8310620005bc576001810190505b80915050919050565b600073ffffffffffffffffffffffffffffffffffffffff82169050919050565b6000620005f282620005c5565b9050919050565b6200060481620005e5565b82525050565b600081519050919050565b600082825260208201905092915050565b60005b838110156200064657808201518184015260208101905062000629565b60008484015250505050565b6000601f19601f8301169050919050565b600062000670826200060a565b6200067c818562000615565b93506200068e81856020860162000626565b620006998162000652565b840191505092915050565b6000604082019050620006bb6000830185620005f9565b8181036020830152620006cf818462000663565b90509392505050565b600080fd5b6000819050919050565b620006f281620006dd565b8114620006fe57600080fd5b50565b6000815190506200071281620006e7565b92915050565b600060208284031215620007315762000730620006d8565b5b6000620007418482850162000701565b91505092915050565b6200075581620006dd565b82525050565b60006020820190506200077260008301846200074a565b92915050565b600081905092915050565b7f435245415445205441424c452000000000000000000000000000000000000000600082015250565b6000620007bb600d8362000778565b9150620007c88262000783565b600d82019050919050565b6000620007e0826200060a565b620007ec818562000778565b9350620007fe81856020860162000626565b80840191505092915050565b7f5f00000000000000000000000000000000000000000000000000000000000000600082015250565b60006200084260018362000778565b91506200084f826200080a565b600182019050919050565b7f2800000000000000000000000000000000000000000000000000000000000000600082015250565b60006200089260018362000778565b91506200089f826200085a565b600182019050919050565b7f2900000000000000000000000000000000000000000000000000000000000000600082015250565b6000620008e260018362000778565b9150620008ef82620008aa565b600182019050919050565b60006200090782620007ac565b9150620009158286620007d3565b9150620009228262000833565b9150620009308285620007d3565b91506200093d8262000883565b91506200094b8284620007d3565b91506200095882620008d3565b9150819050949350505050565b7f4e487b7100000000000000000000000000000000000000000000000000000000600052604160045260246000fd5b7f4e487b7100000000000000000000000000000000000000000000000000000000600052601260045260246000fd5b61149f80620009d36000396000f3fe608060405234801561001057600080fd5b506004361061007d5760003560e01c80632a18ab6f1161005b5780632a18ab6f146100ea5780635d5a33a21461010657806388e4f1cb14610124578063aaf5f338146101425761007d565b8063150b7a0214610082578063177b7e00146100b257806319129e5a146100ce575b600080fd5b61009c60048036038101906100979190610c08565b61015e565b6040516100a99190610cc6565b60405180910390f35b6100cc60048036038101906100c79190610d82565b610172565b005b6100e860048036038101906100e39190610dfa565b610230565b005b61010460048036038101906100ff9190610e27565b6102ab565b005b61010e61038c565b60405161011b9190610eef565b60405180910390f35b61012c6103d4565b6040516101399190610f20565b60405180910390f35b61015c60048036038101906101579190610d82565b6103dd565b005b600063150b7a0260e01b9050949350505050565b61017a6104c0565b73ffffffffffffffffffffffffffffffffffffffff1663377af0da306000546101dc6040518060400160405280601081526020017f7461626c655f617474726962757465730000000000000000000000000000000081525060005488886106bf565b6040518463ffffffff1660e01b81526004016101fa93929190610f4a565b600060405180830381600087803b15801561021457600080fd5b505af1158015610228573d6000803e3d6000fd5b505050505050565b6102386104c0565b73ffffffffffffffffffffffffffffffffffffffff16638bb0ab9730600054846040518463ffffffff1660e01b815260040161027693929190610f88565b600060405180830381600087803b15801561029057600080fd5b505af11580156102a4573d6000803e3d6000fd5b5050505050565b6000816040516020016102be9190611021565b60405160208183030381529060405290506102d76104c0565b73ffffffffffffffffffffffffffffffffffffffff1663377af0da306000546103386040518060400160405280601081526020017f7461626c655f6174747269627574657300000000000000000000000000000000815250600054876106fe565b6040518463ffffffff1660e01b815260040161035693929190610f4a565b600060405180830381600087803b15801561037057600080fd5b505af1158015610384573d6000803e3d6000fd5b505050505050565b60606103cf6040518060400160405280601081526020017f7461626c655f617474726962757465730000000000000000000000000000000081525060005461073a565b905090565b60008054905090565b6000826040516020016103f09190611021565b60405160208183030381529060405290506104096104c0565b73ffffffffffffffffffffffffffffffffffffffff1663377af0da3060005461046b6040518060400160405280601081526020017f7461626c655f61747472696275746573000000000000000000000000000000008152506000548888610778565b6040518463ffffffff1660e01b815260040161048993929190610f4a565b600060405180830381600087803b1580156104a357600080fd5b505af11580156104b7573d6000803e3d6000fd5b50505050505050565b6000600146036104e65773012969f7e3439a9b04025b5a049eb9bad82a8c1290506106bc565b600a460361050a5773fad44bf5b843de943a09d4f3e84949a11d3aa3e690506106bc565b61a4b1460361052f57739abd75e8640871a5a20d3b4ee6330a04c962affd90506106bc565b61a4ba460361055457731a22854c5b1642760a827f20137a67930ae108d290506106bc565b6089460361057857735c4e6a9e5c1e1bf445a062006faf19ea6c49afea90506106bc565b61013a460361059d577359ef8bf2d6c102b4c42aef9189e1a9f0abfd652d90506106bc565b62aa36a746036105c35773c50c62498448acc8dbde43da77f8d5d2e2c7597d90506106bc565b6101a446036105e85773c72e8a7be04f2469f8c2db3f1bdf69a7d516abba90506106bc565b62066eee460361060e5773223a74b8323914afdc3ff1e5005564dc17231d6e90506106bc565b62013881460361063457734b48841d4b32c4650e4abc117a03fe8b51f38f6890506106bc565b6204cb2f460361065a5773030bcf3d50cad04c2e57391b12740982a930862190506106bc565b617a69460361067f5773e7f1725e7734ce288f8367e1bb143e90bb3f051290506106bc565b466040517f264e42cf0000000000000000000000000000000000000000000000000000000081526004016106b39190610f20565b60405180910390fd5b90565b606060006106cd868661073a565b90508084846040516020016106e493929190611177565b604051602081830303815290604052915050949350505050565b6060600061070c858561073a565b9050808360405160200161072192919061126c565b6040516020818303038152906040529150509392505050565b606082610746466107f9565b61074f846107f9565b604051602001610761939291906112f2565b604051602081830303815290604052905092915050565b60606000610786868661073a565b905060006040518060200160405280600081525090506000845111156107c957836040516020016107b79190611339565b60405160208183030381529060405290505b8185826040516020016107de939291906113f3565b60405160208183030381529060405292505050949350505050565b606060006001610808846108c7565b01905060008167ffffffffffffffff81111561082757610826610add565b5b6040519080825280601f01601f1916602001820160405280156108595781602001600182028036833780820191505090505b509050600082602001820190505b6001156108bc578080600190039150507f3031323334353637383961626364656600000000000000000000000000000000600a86061a8153600a85816108b0576108af61143a565b5b04945060008503610867575b819350505050919050565b600080600090507a184f03e93ff9f4daa797ed6e38ed64bf6a1f0100000000000000008310610925577a184f03e93ff9f4daa797ed6e38ed64bf6a1f010000000000000000838161091b5761091a61143a565b5b0492506040810190505b6d04ee2d6d415b85acef81000000008310610962576d04ee2d6d415b85acef810000000083816109585761095761143a565b5b0492506020810190505b662386f26fc10000831061099157662386f26fc1000083816109875761098661143a565b5b0492506010810190505b6305f5e10083106109ba576305f5e10083816109b0576109af61143a565b5b0492506008810190505b61271083106109df5761271083816109d5576109d461143a565b5b0492506004810190505b60648310610a0257606483816109f8576109f761143a565b5b0492506002810190505b600a8310610a11576001810190505b80915050919050565b6000604051905090565b600080fd5b600080fd5b600073ffffffffffffffffffffffffffffffffffffffff82169050919050565b6000610a5982610a2e565b9050919050565b610a6981610a4e565b8114610a7457600080fd5b50565b600081359050610a8681610a60565b92915050565b6000819050919050565b610a9f81610a8c565b8114610aaa57600080fd5b50565b600081359050610abc81610a96565b92915050565b600080fd5b600080fd5b6000601f19601f8301169050919050565b7f4e487b7100000000000000000000000000000000000000000000000000000000600052604160045260246000fd5b610b1582610acc565b810181811067ffffffffffffffff82111715610b3457610b33610add565b5b80604052505050565b6000610b47610a1a565b9050610b538282610b0c565b919050565b600067ffffffffffffffff821115610b7357610b72610add565b5b610b7c82610acc565b9050602081019050919050565b82818337600083830152505050565b6000610bab610ba684610b58565b610b3d565b905082815260208101848484011115610bc757610bc6610ac7565b5b610bd2848285610b89565b509392505050565b600082601f830112610bef57610bee610ac2565b5b8135610bff848260208601610b98565b91505092915050565b60008060008060808587031215610c2257610c21610a24565b5b6000610c3087828801610a77565b9450506020610c4187828801610a77565b9350506040610c5287828801610aad565b925050606085013567ffffffffffffffff811115610c7357610c72610a29565b5b610c7f87828801610bda565b91505092959194509250565b60007fffffffff0000000000000000000000000000000000000000000000000000000082169050919050565b610cc081610c8b565b82525050565b6000602082019050610cdb6000830184610cb7565b92915050565b600067ffffffffffffffff821115610cfc57610cfb610add565b5b610d0582610acc565b9050602081019050919050565b6000610d25610d2084610ce1565b610b3d565b905082815260208101848484011115610d4157610d40610ac7565b5b610d4c848285610b89565b509392505050565b600082601f830112610d6957610d68610ac2565b5b8135610d79848260208601610d12565b91505092915050565b60008060408385031215610d9957610d98610a24565b5b600083013567ffffffffffffffff811115610db757610db6610a29565b5b610dc385828601610d54565b925050602083013567ffffffffffffffff811115610de457610de3610a29565b5b610df085828601610d54565b9150509250929050565b600060208284031215610e1057610e0f610a24565b5b6000610e1e84828501610a77565b91505092915050565b600060208284031215610e3d57610e3c610a24565b5b600082013567ffffffffffffffff811115610e5b57610e5a610a29565b5b610e6784828501610d54565b91505092915050565b600081519050919050565b600082825260208201905092915050565b60005b83811015610eaa578082015181840152602081019050610e8f565b60008484015250505050565b6000610ec182610e70565b610ecb8185610e7b565b9350610edb818560208601610e8c565b610ee481610acc565b840191505092915050565b60006020820190508181036000830152610f098184610eb6565b905092915050565b610f1a81610a8c565b82525050565b6000602082019050610f356000830184610f11565b92915050565b610f4481610a4e565b82525050565b6000606082019050610f5f6000830186610f3b565b610f6c6020830185610f11565b8181036040830152610f7e8184610eb6565b9050949350505050565b6000606082019050610f9d6000830186610f3b565b610faa6020830185610f11565b610fb76040830184610f3b565b949350505050565b7f69643d0000000000000000000000000000000000000000000000000000000000815250565b600081905092915050565b6000610ffb82610e70565b6110058185610fe5565b9350611015818560208601610e8c565b80840191505092915050565b600061102c82610fbf565b60038201915061103c8284610ff0565b915081905092915050565b7f494e5345525420494e544f200000000000000000000000000000000000000000600082015250565b600061107d600c83610fe5565b915061108882611047565b600c82019050919050565b7f2800000000000000000000000000000000000000000000000000000000000000600082015250565b60006110c9600183610fe5565b91506110d482611093565b600182019050919050565b7f2956414c55455328000000000000000000000000000000000000000000000000600082015250565b6000611115600883610fe5565b9150611120826110df565b600882019050919050565b7f2900000000000000000000000000000000000000000000000000000000000000600082015250565b6000611161600183610fe5565b915061116c8261112b565b600182019050919050565b600061118282611070565b915061118e8286610ff0565b9150611199826110bc565b91506111a58285610ff0565b91506111b082611108565b91506111bc8284610ff0565b91506111c782611154565b9150819050949350505050565b7f44454c4554452046524f4d200000000000000000000000000000000000000000600082015250565b600061120a600c83610fe5565b9150611215826111d4565b600c82019050919050565b7f2057484552452000000000000000000000000000000000000000000000000000600082015250565b6000611256600783610fe5565b915061126182611220565b600782019050919050565b6000611277826111fd565b91506112838285610ff0565b915061128e82611249565b915061129a8284610ff0565b91508190509392505050565b7f5f00000000000000000000000000000000000000000000000000000000000000600082015250565b60006112dc600183610fe5565b91506112e7826112a6565b600182019050919050565b60006112fe8286610ff0565b9150611309826112cf565b91506113158285610ff0565b9150611320826112cf565b915061132c8284610ff0565b9150819050949350505050565b600061134482611249565b91506113508284610ff0565b915081905092915050565b7f5550444154452000000000000000000000000000000000000000000000000000600082015250565b6000611391600783610fe5565b915061139c8261135b565b600782019050919050565b7f2053455420000000000000000000000000000000000000000000000000000000600082015250565b60006113dd600583610fe5565b91506113e8826113a7565b600582019050919050565b60006113fe82611384565b915061140a8286610ff0565b9150611415826113d0565b91506114218285610ff0565b915061142d8284610ff0565b9150819050949350505050565b7f4e487b7100000000000000000000000000000000000000000000000000000000600052601260045260246000fdfea26469706673582212201b999fefb2c099ee9ed44d214e10b845c9771c8204505cface3456e5b43cff0164736f6c6343000818003369642074657874207072696d617279206b65792c6e616d6520746578742c656d61696c20746578742c62696f67726170687920746578742c696d61676520746578742c6c6f636174696f6e20746578742c70617373776f726420746578742c70726f6a6563745f636f6e74726163745f69642074657874","opcodes":"PUSH1 0x80 PUSH1 0x40 MSTORE CALLVALUE DUP1 ISZERO PUSH2 0x10 JUMPI PUSH1 0x0 DUP1 REVERT JUMPDEST POP PUSH1 0x0 PUSH1 0x40 MLOAD PUSH2 0x1F SWAP1 PUSH2 0xF3 JUMP JUMPDEST PUSH1 0x40 MLOAD DUP1 SWAP2 SUB SWAP1 PUSH1 0x0 CREATE DUP1 ISZERO DUP1 ISZERO PUSH2 0x3B JUMPI RETURNDATASIZE PUSH1 0x0 DUP1 RETURNDATACOPY RETURNDATASIZE PUSH1 0x0 REVERT JUMPDEST POP SWAP1 POP DUP1 PUSH1 0x0 DUP1 PUSH2 0x100 EXP DUP2 SLOAD DUP2 PUSH20 0xFFFFFFFFFFFFFFFFFFFFFFFFFFFFFFFFFFFFFFFF MUL NOT AND SWAP1 DUP4 PUSH20 0xFFFFFFFFFFFFFFFFFFFFFFFFFFFFFFFFFFFFFFFF AND MUL OR SWAP1 SSTORE POP PUSH1 0x0 PUSH1 0x40 MLOAD PUSH2 0x8C SWAP1 PUSH2 0x100 JUMP JUMPDEST PUSH1 0x40 MLOAD DUP1 SWAP2 SUB SWAP1 PUSH1 0x0 CREATE DUP1 ISZERO DUP1 ISZERO PUSH2 0xA8 JUMPI RETURNDATASIZE PUSH1 0x0 DUP1 RETURNDATACOPY RETURNDATASIZE PUSH1 0x0 REVERT JUMPDEST POP SWAP1 POP DUP1 PUSH1 0x1 PUSH1 0x0 PUSH2 0x100 EXP DUP2 SLOAD DUP2 PUSH20 0xFFFFFFFFFFFFFFFFFFFFFFFFFFFFFFFFFFFFFFFF MUL NOT AND SWAP1 DUP4 PUSH20 0xFFFFFFFFFFFFFFFFFFFFFFFFFFFFFFFFFFFFFFFF AND MUL OR SWAP1 SSTORE POP POP POP PUSH2 0x10D JUMP JUMPDEST PUSH2 0x61FD DUP1 PUSH2 0x55C DUP4 CODECOPY ADD SWAP1 JUMP JUMPDEST PUSH2 0x1EE9 DUP1 PUSH2 0x6759 DUP4 CODECOPY ADD SWAP1 JUMP JUMPDEST PUSH2 0x440 DUP1 PUSH2 0x11C PUSH1 0x0 CODECOPY PUSH1 0x0 RETURN INVALID PUSH1 0x80 PUSH1 0x40 MSTORE CALLVALUE DUP1 ISZERO PUSH2 0x10 JUMPI PUSH1 0x0 DUP1 REVERT JUMPDEST POP PUSH1 0x4 CALLDATASIZE LT PUSH2 0x41 JUMPI PUSH1 0x0 CALLDATALOAD PUSH1 0xE0 SHR DUP1 PUSH4 0xCC8FB10 EQ PUSH2 0x46 JUMPI DUP1 PUSH4 0x150B7A02 EQ PUSH2 0x64 JUMPI DUP1 PUSH4 0x84F4AA45 EQ PUSH2 0x94 JUMPI JUMPDEST PUSH1 0x0 DUP1 REVERT JUMPDEST PUSH2 0x4E PUSH2 0xB2 JUMP JUMPDEST PUSH1 0x40 MLOAD PUSH2 0x5B SWAP2 SWAP1 PUSH2 0x15A JUMP JUMPDEST PUSH1 0x40 MLOAD DUP1 SWAP2 SUB SWAP1 RETURN JUMPDEST PUSH2 0x7E PUSH1 0x4 DUP1 CALLDATASIZE SUB DUP2 ADD SWAP1 PUSH2 0x79 SWAP2 SWAP1 PUSH2 0x331 JUMP JUMPDEST PUSH2 0xDB JUMP JUMPDEST PUSH1 0x40 MLOAD PUSH2 0x8B SWAP2 SWAP1 PUSH2 0x3EF JUMP JUMPDEST PUSH1 0x40 MLOAD DUP1 SWAP2 SUB SWAP1 RETURN JUMPDEST PUSH2 0x9C PUSH2 0xEF JUMP JUMPDEST PUSH1 0x40 MLOAD PUSH2 0xA9 SWAP2 SWAP1 PUSH2 0x15A JUMP JUMPDEST PUSH1 0x40 MLOAD DUP1 SWAP2 SUB SWAP1 RETURN JUMPDEST PUSH1 0x0 DUP1 PUSH1 0x0 SWAP1 SLOAD SWAP1 PUSH2 0x100 EXP SWAP1 DIV PUSH20 0xFFFFFFFFFFFFFFFFFFFFFFFFFFFFFFFFFFFFFFFF AND SWAP1 POP SWAP1 JUMP JUMPDEST PUSH1 0x0 PUSH4 0x150B7A02 PUSH1 0xE0 SHL SWAP1 POP SWAP5 SWAP4 POP POP POP POP JUMP JUMPDEST PUSH1 0x0 PUSH1 0x1 PUSH1 0x0 SWAP1 SLOAD SWAP1 PUSH2 0x100 EXP SWAP1 DIV PUSH20 0xFFFFFFFFFFFFFFFFFFFFFFFFFFFFFFFFFFFFFFFF AND SWAP1 POP SWAP1 JUMP JUMPDEST PUSH1 0x0 PUSH20 0xFFFFFFFFFFFFFFFFFFFFFFFFFFFFFFFFFFFFFFFF DUP3 AND SWAP1 POP SWAP2 SWAP1 POP JUMP JUMPDEST PUSH1 0x0 PUSH2 0x144 DUP3 PUSH2 0x119 JUMP JUMPDEST SWAP1 POP SWAP2 SWAP1 POP JUMP JUMPDEST PUSH2 0x154 DUP2 PUSH2 0x139 JUMP JUMPDEST DUP3 MSTORE POP POP JUMP JUMPDEST PUSH1 0x0 PUSH1 0x20 DUP3 ADD SWAP1 POP PUSH2 0x16F PUSH1 0x0 DUP4 ADD DUP5 PUSH2 0x14B JUMP JUMPDEST SWAP3 SWAP2 POP POP JUMP JUMPDEST PUSH1 0x0 PUSH1 0x40 MLOAD SWAP1 POP SWAP1 JUMP JUMPDEST PUSH1 0x0 DUP1 REVERT JUMPDEST PUSH1 0x0 DUP1 REVERT JUMPDEST PUSH2 0x192 DUP2 PUSH2 0x139 JUMP JUMPDEST DUP2 EQ PUSH2 0x19D JUMPI PUSH1 0x0 DUP1 REVERT JUMPDEST POP JUMP JUMPDEST PUSH1 0x0 DUP2 CALLDATALOAD SWAP1 POP PUSH2 0x1AF DUP2 PUSH2 0x189 JUMP JUMPDEST SWAP3 SWAP2 POP POP JUMP JUMPDEST PUSH1 0x0 DUP2 SWAP1 POP SWAP2 SWAP1 POP JUMP JUMPDEST PUSH2 0x1C8 DUP2 PUSH2 0x1B5 JUMP JUMPDEST DUP2 EQ PUSH2 0x1D3 JUMPI PUSH1 0x0 DUP1 REVERT JUMPDEST POP JUMP JUMPDEST PUSH1 0x0 DUP2 CALLDATALOAD SWAP1 POP PUSH2 0x1E5 DUP2 PUSH2 0x1BF JUMP JUMPDEST SWAP3 SWAP2 POP POP JUMP JUMPDEST PUSH1 0x0 DUP1 REVERT JUMPDEST PUSH1 0x0 DUP1 REVERT JUMPDEST PUSH1 0x0 PUSH1 0x1F NOT PUSH1 0x1F DUP4 ADD AND SWAP1 POP SWAP2 SWAP1 POP JUMP JUMPDEST PUSH32 0x4E487B7100000000000000000000000000000000000000000000000000000000 PUSH1 0x0 MSTORE PUSH1 0x41 PUSH1 0x4 MSTORE PUSH1 0x24 PUSH1 0x0 REVERT JUMPDEST PUSH2 0x23E DUP3 PUSH2 0x1F5 JUMP JUMPDEST DUP2 ADD DUP2 DUP2 LT PUSH8 0xFFFFFFFFFFFFFFFF DUP3 GT OR ISZERO PUSH2 0x25D JUMPI PUSH2 0x25C PUSH2 0x206 JUMP JUMPDEST JUMPDEST DUP1 PUSH1 0x40 MSTORE POP POP POP JUMP JUMPDEST PUSH1 0x0 PUSH2 0x270 PUSH2 0x175 JUMP JUMPDEST SWAP1 POP PUSH2 0x27C DUP3 DUP3 PUSH2 0x235 JUMP JUMPDEST SWAP2 SWAP1 POP JUMP JUMPDEST PUSH1 0x0 PUSH8 0xFFFFFFFFFFFFFFFF DUP3 GT ISZERO PUSH2 0x29C JUMPI PUSH2 0x29B PUSH2 0x206 JUMP JUMPDEST JUMPDEST PUSH2 0x2A5 DUP3 PUSH2 0x1F5 JUMP JUMPDEST SWAP1 POP PUSH1 0x20 DUP2 ADD SWAP1 POP SWAP2 SWAP1 POP JUMP JUMPDEST DUP3 DUP2 DUP4 CALLDATACOPY PUSH1 0x0 DUP4 DUP4 ADD MSTORE POP POP POP JUMP JUMPDEST PUSH1 0x0 PUSH2 0x2D4 PUSH2 0x2CF DUP5 PUSH2 0x281 JUMP JUMPDEST PUSH2 0x266 JUMP JUMPDEST SWAP1 POP DUP3 DUP2 MSTORE PUSH1 0x20 DUP2 ADD DUP5 DUP5 DUP5 ADD GT ISZERO PUSH2 0x2F0 JUMPI PUSH2 0x2EF PUSH2 0x1F0 JUMP JUMPDEST JUMPDEST PUSH2 0x2FB DUP5 DUP3 DUP6 PUSH2 0x2B2 JUMP JUMPDEST POP SWAP4 SWAP3 POP POP POP JUMP JUMPDEST PUSH1 0x0 DUP3 PUSH1 0x1F DUP4 ADD SLT PUSH2 0x318 JUMPI PUSH2 0x317 PUSH2 0x1EB JUMP JUMPDEST JUMPDEST DUP2 CALLDATALOAD PUSH2 0x328 DUP5 DUP3 PUSH1 0x20 DUP7 ADD PUSH2 0x2C1 JUMP JUMPDEST SWAP2 POP POP SWAP3 SWAP2 POP POP JUMP JUMPDEST PUSH1 0x0 DUP1 PUSH1 0x0 DUP1 PUSH1 0x80 DUP6 DUP8 SUB SLT ISZERO PUSH2 0x34B JUMPI PUSH2 0x34A PUSH2 0x17F JUMP JUMPDEST JUMPDEST PUSH1 0x0 PUSH2 0x359 DUP8 DUP3 DUP9 ADD PUSH2 0x1A0 JUMP JUMPDEST SWAP5 POP POP PUSH1 0x20 PUSH2 0x36A DUP8 DUP3 DUP9 ADD PUSH2 0x1A0 JUMP JUMPDEST SWAP4 POP POP PUSH1 0x40 PUSH2 0x37B DUP8 DUP3 DUP9 ADD PUSH2 0x1D6 JUMP JUMPDEST SWAP3 POP POP PUSH1 0x60 DUP6 ADD CALLDATALOAD PUSH8 0xFFFFFFFFFFFFFFFF DUP2 GT ISZERO PUSH2 0x39C JUMPI PUSH2 0x39B PUSH2 0x184 JUMP JUMPDEST JUMPDEST PUSH2 0x3A8 DUP8 DUP3 DUP9 ADD PUSH2 0x303 JUMP JUMPDEST SWAP2 POP POP SWAP3 SWAP6 SWAP2 SWAP5 POP SWAP3 POP JUMP JUMPDEST PUSH1 0x0 PUSH32 0xFFFFFFFF00000000000000000000000000000000000000000000000000000000 DUP3 AND SWAP1 POP SWAP2 SWAP1 POP JUMP JUMPDEST PUSH2 0x3E9 DUP2 PUSH2 0x3B4 JUMP JUMPDEST DUP3 MSTORE POP POP JUMP JUMPDEST PUSH1 0x0 PUSH1 0x20 DUP3 ADD SWAP1 POP PUSH2 0x404 PUSH1 0x0 DUP4 ADD DUP5 PUSH2 0x3E0 JUMP JUMPDEST SWAP3 SWAP2 POP POP JUMP INVALID LOG2 PUSH5 0x6970667358 0x22 SLT KECCAK256 0xB7 SWAP4 0x4D 0xD6 0xD 0x23 0xDD PUSH10 0xBF9D263D5FE0ED309ED6 0xB2 SWAP2 PUSH11 0xF316C0B4A02AE8AEA51D45 PUSH5 0x736F6C6343 STOP ADDMOD XOR STOP CALLER PUSH1 0x80 PUSH1 0x40 MSTORE CALLVALUE DUP1 ISZERO PUSH3 0x11 JUMPI PUSH1 0x0 DUP1 REVERT JUMPDEST POP PUSH3 0x22 PUSH3 0x28 PUSH1 0x20 SHL PUSH1 0x20 SHR JUMP JUMPDEST PUSH3 0x9C3 JUMP JUMPDEST PUSH3 0x38 PUSH3 0x121 PUSH1 0x20 SHL PUSH1 0x20 SHR JUMP JUMPDEST PUSH20 0xFFFFFFFFFFFFFFFFFFFFFFFFFFFFFFFFFFFFFFFF AND PUSH4 0xA15AB08D ADDRESS PUSH3 0xB4 PUSH1 0x40 MLOAD DUP1 PUSH1 0xC0 ADD PUSH1 0x40 MSTORE DUP1 PUSH1 0x99 DUP2 MSTORE PUSH1 0x20 ADD PUSH3 0x6164 PUSH1 0x99 SWAP2 CODECOPY PUSH1 0x40 MLOAD DUP1 PUSH1 0x40 ADD PUSH1 0x40 MSTORE DUP1 PUSH1 0x10 DUP2 MSTORE PUSH1 0x20 ADD PUSH32 0x7461626C655F6174747269627574657300000000000000000000000000000000 DUP2 MSTORE POP PUSH3 0x33A PUSH1 0x20 SHL PUSH1 0x20 SHR JUMP JUMPDEST PUSH1 0x40 MLOAD DUP4 PUSH4 0xFFFFFFFF AND PUSH1 0xE0 SHL DUP2 MSTORE PUSH1 0x4 ADD PUSH3 0xD3 SWAP3 SWAP2 SWAP1 PUSH3 0x6A4 JUMP JUMPDEST PUSH1 0x20 PUSH1 0x40 MLOAD DUP1 DUP4 SUB DUP2 PUSH1 0x0 DUP8 GAS CALL ISZERO DUP1 ISZERO PUSH3 0xF3 JUMPI RETURNDATASIZE PUSH1 0x0 DUP1 RETURNDATACOPY RETURNDATASIZE PUSH1 0x0 REVERT JUMPDEST POP POP POP POP PUSH1 0x40 MLOAD RETURNDATASIZE PUSH1 0x1F NOT PUSH1 0x1F DUP3 ADD AND DUP3 ADD DUP1 PUSH1 0x40 MSTORE POP DUP2 ADD SWAP1 PUSH3 0x119 SWAP2 SWAP1 PUSH3 0x718 JUMP JUMPDEST PUSH1 0x0 DUP2 SWAP1 SSTORE POP JUMP JUMPDEST PUSH1 0x0 PUSH1 0x1 CHAINID SUB PUSH3 0x149 JUMPI PUSH20 0x12969F7E3439A9B04025B5A049EB9BAD82A8C12 SWAP1 POP PUSH3 0x337 JUMP JUMPDEST PUSH1 0xA CHAINID SUB PUSH3 0x16F JUMPI PUSH20 0xFAD44BF5B843DE943A09D4F3E84949A11D3AA3E6 SWAP1 POP PUSH3 0x337 JUMP JUMPDEST PUSH2 0xA4B1 CHAINID SUB PUSH3 0x196 JUMPI PUSH20 0x9ABD75E8640871A5A20D3B4EE6330A04C962AFFD SWAP1 POP PUSH3 0x337 JUMP JUMPDEST PUSH2 0xA4BA CHAINID SUB PUSH3 0x1BD JUMPI PUSH20 0x1A22854C5B1642760A827F20137A67930AE108D2 SWAP1 POP PUSH3 0x337 JUMP JUMPDEST PUSH1 0x89 CHAINID SUB PUSH3 0x1E3 JUMPI PUSH20 0x5C4E6A9E5C1E1BF445A062006FAF19EA6C49AFEA SWAP1 POP PUSH3 0x337 JUMP JUMPDEST PUSH2 0x13A CHAINID SUB PUSH3 0x20A JUMPI PUSH20 0x59EF8BF2D6C102B4C42AEF9189E1A9F0ABFD652D SWAP1 POP PUSH3 0x337 JUMP JUMPDEST PUSH3 0xAA36A7 CHAINID SUB PUSH3 0x232 JUMPI PUSH20 0xC50C62498448ACC8DBDE43DA77F8D5D2E2C7597D SWAP1 POP PUSH3 0x337 JUMP JUMPDEST PUSH2 0x1A4 CHAINID SUB PUSH3 0x259 JUMPI PUSH20 0xC72E8A7BE04F2469F8C2DB3F1BDF69A7D516ABBA SWAP1 POP PUSH3 0x337 JUMP JUMPDEST PUSH3 0x66EEE CHAINID SUB PUSH3 0x281 JUMPI PUSH20 0x223A74B8323914AFDC3FF1E5005564DC17231D6E SWAP1 POP PUSH3 0x337 JUMP JUMPDEST PUSH3 0x13881 CHAINID SUB PUSH3 0x2A9 JUMPI PUSH20 0x4B48841D4B32C4650E4ABC117A03FE8B51F38F68 SWAP1 POP PUSH3 0x337 JUMP JUMPDEST PUSH3 0x4CB2F CHAINID SUB PUSH3 0x2D1 JUMPI PUSH20 0x30BCF3D50CAD04C2E57391B12740982A9308621 SWAP1 POP PUSH3 0x337 JUMP JUMPDEST PUSH2 0x7A69 CHAINID SUB PUSH3 0x2F8 JUMPI PUSH20 0xE7F1725E7734CE288F8367E1BB143E90BB3F0512 SWAP1 POP PUSH3 0x337 JUMP JUMPDEST CHAINID PUSH1 0x40 MLOAD PUSH32 0x264E42CF00000000000000000000000000000000000000000000000000000000 DUP2 MSTORE PUSH1 0x4 ADD PUSH3 0x32E SWAP2 SWAP1 PUSH3 0x75B JUMP JUMPDEST PUSH1 0x40 MLOAD DUP1 SWAP2 SUB SWAP1 REVERT JUMPDEST SWAP1 JUMP JUMPDEST PUSH1 0x60 DUP2 PUSH3 0x34E CHAINID PUSH3 0x37A PUSH1 0x20 SHL PUSH1 0x20 SHR JUMP JUMPDEST DUP5 PUSH1 0x40 MLOAD PUSH1 0x20 ADD PUSH3 0x363 SWAP4 SWAP3 SWAP2 SWAP1 PUSH3 0x8FA JUMP JUMPDEST PUSH1 0x40 MLOAD PUSH1 0x20 DUP2 DUP4 SUB SUB DUP2 MSTORE SWAP1 PUSH1 0x40 MSTORE SWAP1 POP SWAP3 SWAP2 POP POP JUMP JUMPDEST PUSH1 0x60 PUSH1 0x0 PUSH1 0x1 PUSH3 0x391 DUP5 PUSH3 0x459 PUSH1 0x20 SHL PUSH1 0x20 SHR JUMP JUMPDEST ADD SWAP1 POP PUSH1 0x0 DUP2 PUSH8 0xFFFFFFFFFFFFFFFF DUP2 GT ISZERO PUSH3 0x3B3 JUMPI PUSH3 0x3B2 PUSH3 0x965 JUMP JUMPDEST JUMPDEST PUSH1 0x40 MLOAD SWAP1 DUP1 DUP3 MSTORE DUP1 PUSH1 0x1F ADD PUSH1 0x1F NOT AND PUSH1 0x20 ADD DUP3 ADD PUSH1 0x40 MSTORE DUP1 ISZERO PUSH3 0x3E6 JUMPI DUP2 PUSH1 0x20 ADD PUSH1 0x1 DUP3 MUL DUP1 CALLDATASIZE DUP4 CALLDATACOPY DUP1 DUP3 ADD SWAP2 POP POP SWAP1 POP JUMPDEST POP SWAP1 POP PUSH1 0x0 DUP3 PUSH1 0x20 ADD DUP3 ADD SWAP1 POP JUMPDEST PUSH1 0x1 ISZERO PUSH3 0x44E JUMPI DUP1 DUP1 PUSH1 0x1 SWAP1 SUB SWAP2 POP POP PUSH32 0x3031323334353637383961626364656600000000000000000000000000000000 PUSH1 0xA DUP7 MOD BYTE DUP2 MSTORE8 PUSH1 0xA DUP6 DUP2 PUSH3 0x441 JUMPI PUSH3 0x440 PUSH3 0x994 JUMP JUMPDEST JUMPDEST DIV SWAP5 POP PUSH1 0x0 DUP6 SUB PUSH3 0x3F4 JUMPI JUMPDEST DUP2 SWAP4 POP POP POP POP SWAP2 SWAP1 POP JUMP JUMPDEST PUSH1 0x0 DUP1 PUSH1 0x0 SWAP1 POP PUSH27 0x184F03E93FF9F4DAA797ED6E38ED64BF6A1F010000000000000000 DUP4 LT PUSH3 0x4BB JUMPI PUSH27 0x184F03E93FF9F4DAA797ED6E38ED64BF6A1F010000000000000000 DUP4 DUP2 PUSH3 0x4B1 JUMPI PUSH3 0x4B0 PUSH3 0x994 JUMP JUMPDEST JUMPDEST DIV SWAP3 POP PUSH1 0x40 DUP2 ADD SWAP1 POP JUMPDEST PUSH14 0x4EE2D6D415B85ACEF8100000000 DUP4 LT PUSH3 0x4FC JUMPI PUSH14 0x4EE2D6D415B85ACEF8100000000 DUP4 DUP2 PUSH3 0x4F2 JUMPI PUSH3 0x4F1 PUSH3 0x994 JUMP JUMPDEST JUMPDEST DIV SWAP3 POP PUSH1 0x20 DUP2 ADD SWAP1 POP JUMPDEST PUSH7 0x2386F26FC10000 DUP4 LT PUSH3 0x52F JUMPI PUSH7 0x2386F26FC10000 DUP4 DUP2 PUSH3 0x525 JUMPI PUSH3 0x524 PUSH3 0x994 JUMP JUMPDEST JUMPDEST DIV SWAP3 POP PUSH1 0x10 DUP2 ADD SWAP1 POP JUMPDEST PUSH4 0x5F5E100 DUP4 LT PUSH3 0x55C JUMPI PUSH4 0x5F5E100 DUP4 DUP2 PUSH3 0x552 JUMPI PUSH3 0x551 PUSH3 0x994 JUMP JUMPDEST JUMPDEST DIV SWAP3 POP PUSH1 0x8 DUP2 ADD SWAP1 POP JUMPDEST PUSH2 0x2710 DUP4 LT PUSH3 0x585 JUMPI PUSH2 0x2710 DUP4 DUP2 PUSH3 0x57B JUMPI PUSH3 0x57A PUSH3 0x994 JUMP JUMPDEST JUMPDEST DIV SWAP3 POP PUSH1 0x4 DUP2 ADD SWAP1 POP JUMPDEST PUSH1 0x64 DUP4 LT PUSH3 0x5AC JUMPI PUSH1 0x64 DUP4 DUP2 PUSH3 0x5A2 JUMPI PUSH3 0x5A1 PUSH3 0x994 JUMP JUMPDEST JUMPDEST DIV SWAP3 POP PUSH1 0x2 DUP2 ADD SWAP1 POP JUMPDEST PUSH1 0xA DUP4 LT PUSH3 0x5BC JUMPI PUSH1 0x1 DUP2 ADD SWAP1 POP JUMPDEST DUP1 SWAP2 POP POP SWAP2 SWAP1 POP JUMP JUMPDEST PUSH1 0x0 PUSH20 0xFFFFFFFFFFFFFFFFFFFFFFFFFFFFFFFFFFFFFFFF DUP3 AND SWAP1 POP SWAP2 SWAP1 POP JUMP JUMPDEST PUSH1 0x0 PUSH3 0x5F2 DUP3 PUSH3 0x5C5 JUMP JUMPDEST SWAP1 POP SWAP2 SWAP1 POP JUMP JUMPDEST PUSH3 0x604 DUP2 PUSH3 0x5E5 JUMP JUMPDEST DUP3 MSTORE POP POP JUMP JUMPDEST PUSH1 0x0 DUP2 MLOAD SWAP1 POP SWAP2 SWAP1 POP JUMP JUMPDEST PUSH1 0x0 DUP3 DUP3 MSTORE PUSH1 0x20 DUP3 ADD SWAP1 POP SWAP3 SWAP2 POP POP JUMP JUMPDEST PUSH1 0x0 JUMPDEST DUP4 DUP2 LT ISZERO PUSH3 0x646 JUMPI DUP1 DUP3 ADD MLOAD DUP2 DUP5 ADD MSTORE PUSH1 0x20 DUP2 ADD SWAP1 POP PUSH3 0x629 JUMP JUMPDEST PUSH1 0x0 DUP5 DUP5 ADD MSTORE POP POP POP POP JUMP JUMPDEST PUSH1 0x0 PUSH1 0x1F NOT PUSH1 0x1F DUP4 ADD AND SWAP1 POP SWAP2 SWAP1 POP JUMP JUMPDEST PUSH1 0x0 PUSH3 0x670 DUP3 PUSH3 0x60A JUMP JUMPDEST PUSH3 0x67C DUP2 DUP6 PUSH3 0x615 JUMP JUMPDEST SWAP4 POP PUSH3 0x68E DUP2 DUP6 PUSH1 0x20 DUP7 ADD PUSH3 0x626 JUMP JUMPDEST PUSH3 0x699 DUP2 PUSH3 0x652 JUMP JUMPDEST DUP5 ADD SWAP2 POP POP SWAP3 SWAP2 POP POP JUMP JUMPDEST PUSH1 0x0 PUSH1 0x40 DUP3 ADD SWAP1 POP PUSH3 0x6BB PUSH1 0x0 DUP4 ADD DUP6 PUSH3 0x5F9 JUMP JUMPDEST DUP2 DUP2 SUB PUSH1 0x20 DUP4 ADD MSTORE PUSH3 0x6CF DUP2 DUP5 PUSH3 0x663 JUMP JUMPDEST SWAP1 POP SWAP4 SWAP3 POP POP POP JUMP JUMPDEST PUSH1 0x0 DUP1 REVERT JUMPDEST PUSH1 0x0 DUP2 SWAP1 POP SWAP2 SWAP1 POP JUMP JUMPDEST PUSH3 0x6F2 DUP2 PUSH3 0x6DD JUMP JUMPDEST DUP2 EQ PUSH3 0x6FE JUMPI PUSH1 0x0 DUP1 REVERT JUMPDEST POP JUMP JUMPDEST PUSH1 0x0 DUP2 MLOAD SWAP1 POP PUSH3 0x712 DUP2 PUSH3 0x6E7 JUMP JUMPDEST SWAP3 SWAP2 POP POP JUMP JUMPDEST PUSH1 0x0 PUSH1 0x20 DUP3 DUP5 SUB SLT ISZERO PUSH3 0x731 JUMPI PUSH3 0x730 PUSH3 0x6D8 JUMP JUMPDEST JUMPDEST PUSH1 0x0 PUSH3 0x741 DUP5 DUP3 DUP6 ADD PUSH3 0x701 JUMP JUMPDEST SWAP2 POP POP SWAP3 SWAP2 POP POP JUMP JUMPDEST PUSH3 0x755 DUP2 PUSH3 0x6DD JUMP JUMPDEST DUP3 MSTORE POP POP JUMP JUMPDEST PUSH1 0x0 PUSH1 0x20 DUP3 ADD SWAP1 POP PUSH3 0x772 PUSH1 0x0 DUP4 ADD DUP5 PUSH3 0x74A JUMP JUMPDEST SWAP3 SWAP2 POP POP JUMP JUMPDEST PUSH1 0x0 DUP2 SWAP1 POP SWAP3 SWAP2 POP POP JUMP JUMPDEST PUSH32 0x435245415445205441424C452000000000000000000000000000000000000000 PUSH1 0x0 DUP3 ADD MSTORE POP JUMP JUMPDEST PUSH1 0x0 PUSH3 0x7BB PUSH1 0xD DUP4 PUSH3 0x778 JUMP JUMPDEST SWAP2 POP PUSH3 0x7C8 DUP3 PUSH3 0x783 JUMP JUMPDEST PUSH1 0xD DUP3 ADD SWAP1 POP SWAP2 SWAP1 POP JUMP JUMPDEST PUSH1 0x0 PUSH3 0x7E0 DUP3 PUSH3 0x60A JUMP JUMPDEST PUSH3 0x7EC DUP2 DUP6 PUSH3 0x778 JUMP JUMPDEST SWAP4 POP PUSH3 0x7FE DUP2 DUP6 PUSH1 0x20 DUP7 ADD PUSH3 0x626 JUMP JUMPDEST DUP1 DUP5 ADD SWAP2 POP POP SWAP3 SWAP2 POP POP JUMP JUMPDEST PUSH32 0x5F00000000000000000000000000000000000000000000000000000000000000 PUSH1 0x0 DUP3 ADD MSTORE POP JUMP JUMPDEST PUSH1 0x0 PUSH3 0x842 PUSH1 0x1 DUP4 PUSH3 0x778 JUMP JUMPDEST SWAP2 POP PUSH3 0x84F DUP3 PUSH3 0x80A JUMP JUMPDEST PUSH1 0x1 DUP3 ADD SWAP1 POP SWAP2 SWAP1 POP JUMP JUMPDEST PUSH32 0x2800000000000000000000000000000000000000000000000000000000000000 PUSH1 0x0 DUP3 ADD MSTORE POP JUMP JUMPDEST PUSH1 0x0 PUSH3 0x892 PUSH1 0x1 DUP4 PUSH3 0x778 JUMP JUMPDEST SWAP2 POP PUSH3 0x89F DUP3 PUSH3 0x85A JUMP JUMPDEST PUSH1 0x1 DUP3 ADD SWAP1 POP SWAP2 SWAP1 POP JUMP JUMPDEST PUSH32 0x2900000000000000000000000000000000000000000000000000000000000000 PUSH1 0x0 DUP3 ADD MSTORE POP JUMP JUMPDEST PUSH1 0x0 PUSH3 0x8E2 PUSH1 0x1 DUP4 PUSH3 0x778 JUMP JUMPDEST SWAP2 POP PUSH3 0x8EF DUP3 PUSH3 0x8AA JUMP JUMPDEST PUSH1 0x1 DUP3 ADD SWAP1 POP SWAP2 SWAP1 POP JUMP JUMPDEST PUSH1 0x0 PUSH3 0x907 DUP3 PUSH3 0x7AC JUMP JUMPDEST SWAP2 POP PUSH3 0x915 DUP3 DUP7 PUSH3 0x7D3 JUMP JUMPDEST SWAP2 POP PUSH3 0x922 DUP3 PUSH3 0x833 JUMP JUMPDEST SWAP2 POP PUSH3 0x930 DUP3 DUP6 PUSH3 0x7D3 JUMP JUMPDEST SWAP2 POP PUSH3 0x93D DUP3 PUSH3 0x883 JUMP JUMPDEST SWAP2 POP PUSH3 0x94B DUP3 DUP5 PUSH3 0x7D3 JUMP JUMPDEST SWAP2 POP PUSH3 0x958 DUP3 PUSH3 0x8D3 JUMP JUMPDEST SWAP2 POP DUP2 SWAP1 POP SWAP5 SWAP4 POP POP POP POP JUMP JUMPDEST PUSH32 0x4E487B7100000000000000000000000000000000000000000000000000000000 PUSH1 0x0 MSTORE PUSH1 0x41 PUSH1 0x4 MSTORE PUSH1 0x24 PUSH1 0x0 REVERT JUMPDEST PUSH32 0x4E487B7100000000000000000000000000000000000000000000000000000000 PUSH1 0x0 MSTORE PUSH1 0x12 PUSH1 0x4 MSTORE PUSH1 0x24 PUSH1 0x0 REVERT JUMPDEST PUSH2 0x5791 DUP1 PUSH3 0x9D3 PUSH1 0x0 CODECOPY PUSH1 0x0 RETURN INVALID PUSH1 0x80 PUSH1 0x40 MSTORE CALLVALUE DUP1 ISZERO PUSH3 0x11 JUMPI PUSH1 0x0 DUP1 REVERT JUMPDEST POP PUSH1 0x4 CALLDATASIZE LT PUSH3 0x88 JUMPI PUSH1 0x0 CALLDATALOAD PUSH1 0xE0 SHR DUP1 PUSH4 0x2A18AB6F GT PUSH3 0x63 JUMPI DUP1 PUSH4 0x2A18AB6F EQ PUSH3 0x103 JUMPI DUP1 PUSH4 0x5D5A33A2 EQ PUSH3 0x123 JUMPI DUP1 PUSH4 0x88E4F1CB EQ PUSH3 0x145 JUMPI DUP1 PUSH4 0xAAF5F338 EQ PUSH3 0x167 JUMPI PUSH3 0x88 JUMP JUMPDEST DUP1 PUSH4 0x150B7A02 EQ PUSH3 0x8D JUMPI DUP1 PUSH4 0x177B7E00 EQ PUSH3 0xC3 JUMPI DUP1 PUSH4 0x19129E5A EQ PUSH3 0xE3 JUMPI JUMPDEST PUSH1 0x0 DUP1 REVERT JUMPDEST PUSH3 0xAB PUSH1 0x4 DUP1 CALLDATASIZE SUB DUP2 ADD SWAP1 PUSH3 0xA5 SWAP2 SWAP1 PUSH3 0xE4E JUMP JUMPDEST PUSH3 0x187 JUMP JUMPDEST PUSH1 0x40 MLOAD PUSH3 0xBA SWAP2 SWAP1 PUSH3 0xF1C JUMP JUMPDEST PUSH1 0x40 MLOAD DUP1 SWAP2 SUB SWAP1 RETURN JUMPDEST PUSH3 0xE1 PUSH1 0x4 DUP1 CALLDATASIZE SUB DUP2 ADD SWAP1 PUSH3 0xDB SWAP2 SWAP1 PUSH3 0xFED JUMP JUMPDEST PUSH3 0x19B JUMP JUMPDEST STOP JUMPDEST PUSH3 0x101 PUSH1 0x4 DUP1 CALLDATASIZE SUB DUP2 ADD SWAP1 PUSH3 0xFB SWAP2 SWAP1 PUSH3 0x1072 JUMP JUMPDEST PUSH3 0x2D9 JUMP JUMPDEST STOP JUMPDEST PUSH3 0x121 PUSH1 0x4 DUP1 CALLDATASIZE SUB DUP2 ADD SWAP1 PUSH3 0x11B SWAP2 SWAP1 PUSH3 0x10A4 JUMP JUMPDEST PUSH3 0x35A JUMP JUMPDEST STOP JUMPDEST PUSH3 0x12D PUSH3 0x445 JUMP JUMPDEST PUSH1 0x40 MLOAD PUSH3 0x13C SWAP2 SWAP1 PUSH3 0x117E JUMP JUMPDEST PUSH1 0x40 MLOAD DUP1 SWAP2 SUB SWAP1 RETURN JUMPDEST PUSH3 0x14F PUSH3 0x48F JUMP JUMPDEST PUSH1 0x40 MLOAD PUSH3 0x15E SWAP2 SWAP1 PUSH3 0x11B3 JUMP JUMPDEST PUSH1 0x40 MLOAD DUP1 SWAP2 SUB SWAP1 RETURN JUMPDEST PUSH3 0x185 PUSH1 0x4 DUP1 CALLDATASIZE SUB DUP2 ADD SWAP1 PUSH3 0x17F SWAP2 SWAP1 PUSH3 0xFED JUMP JUMPDEST PUSH3 0x498 JUMP JUMPDEST STOP JUMPDEST PUSH1 0x0 PUSH4 0x150B7A02 PUSH1 0xE0 SHL SWAP1 POP SWAP5 SWAP4 POP POP POP POP JUMP JUMPDEST PUSH1 0x0 DUP3 PUSH1 0x40 MLOAD PUSH1 0x20 ADD PUSH3 0x1B0 SWAP2 SWAP1 PUSH3 0x1238 JUMP JUMPDEST PUSH1 0x40 MLOAD PUSH1 0x20 DUP2 DUP4 SUB SUB DUP2 MSTORE SWAP1 PUSH1 0x40 MSTORE SWAP1 POP PUSH1 0x0 DUP3 PUSH3 0x1D8 PUSH3 0x1D2 PUSH3 0x585 JUMP JUMPDEST PUSH3 0x5EB JUMP JUMPDEST PUSH3 0x1EC PUSH3 0x1E6 PUSH3 0x616 JUMP JUMPDEST PUSH3 0x5EB JUMP JUMPDEST PUSH1 0x40 MLOAD PUSH1 0x20 ADD PUSH3 0x200 SWAP4 SWAP3 SWAP2 SWAP1 PUSH3 0x1288 JUMP JUMPDEST PUSH1 0x40 MLOAD PUSH1 0x20 DUP2 DUP4 SUB SUB DUP2 MSTORE SWAP1 PUSH1 0x40 MSTORE SWAP1 POP PUSH3 0x21B PUSH3 0x66F JUMP JUMPDEST PUSH20 0xFFFFFFFFFFFFFFFFFFFFFFFFFFFFFFFFFFFFFFFF AND PUSH4 0x377AF0DA ADDRESS PUSH1 0x0 SLOAD PUSH3 0x27F PUSH1 0x40 MLOAD DUP1 PUSH1 0x40 ADD PUSH1 0x40 MSTORE DUP1 PUSH1 0x10 DUP2 MSTORE PUSH1 0x20 ADD PUSH32 0x7461626C655F6174747269627574657300000000000000000000000000000000 DUP2 MSTORE POP PUSH1 0x0 SLOAD DUP9 DUP9 PUSH3 0x888 JUMP JUMPDEST PUSH1 0x40 MLOAD DUP5 PUSH4 0xFFFFFFFF AND PUSH1 0xE0 SHL DUP2 MSTORE PUSH1 0x4 ADD PUSH3 0x29F SWAP4 SWAP3 SWAP2 SWAP1 PUSH3 0x12F2 JUMP JUMPDEST PUSH1 0x0 PUSH1 0x40 MLOAD DUP1 DUP4 SUB DUP2 PUSH1 0x0 DUP8 DUP1 EXTCODESIZE ISZERO DUP1 ISZERO PUSH3 0x2BA JUMPI PUSH1 0x0 DUP1 REVERT JUMPDEST POP GAS CALL ISZERO DUP1 ISZERO PUSH3 0x2CF JUMPI RETURNDATASIZE PUSH1 0x0 DUP1 RETURNDATACOPY RETURNDATASIZE PUSH1 0x0 REVERT JUMPDEST POP POP POP POP POP POP POP POP JUMP JUMPDEST PUSH3 0x2E3 PUSH3 0x66F JUMP JUMPDEST PUSH20 0xFFFFFFFFFFFFFFFFFFFFFFFFFFFFFFFFFFFFFFFF AND PUSH4 0x8BB0AB97 ADDRESS PUSH1 0x0 SLOAD DUP5 PUSH1 0x40 MLOAD DUP5 PUSH4 0xFFFFFFFF AND PUSH1 0xE0 SHL DUP2 MSTORE PUSH1 0x4 ADD PUSH3 0x323 SWAP4 SWAP3 SWAP2 SWAP1 PUSH3 0x1336 JUMP JUMPDEST PUSH1 0x0 PUSH1 0x40 MLOAD DUP1 DUP4 SUB DUP2 PUSH1 0x0 DUP8 DUP1 EXTCODESIZE ISZERO DUP1 ISZERO PUSH3 0x33E JUMPI PUSH1 0x0 DUP1 REVERT JUMPDEST POP GAS CALL ISZERO DUP1 ISZERO PUSH3 0x353 JUMPI RETURNDATASIZE PUSH1 0x0 DUP1 RETURNDATACOPY RETURNDATASIZE PUSH1 0x0 REVERT JUMPDEST POP POP POP POP POP JUMP JUMPDEST PUSH1 0x0 DUP2 PUSH1 0x40 MLOAD PUSH1 0x20 ADD PUSH3 0x36F SWAP2 SWAP1 PUSH3 0x1399 JUMP JUMPDEST PUSH1 0x40 MLOAD PUSH1 0x20 DUP2 DUP4 SUB SUB DUP2 MSTORE SWAP1 PUSH1 0x40 MSTORE SWAP1 POP PUSH3 0x38A PUSH3 0x66F JUMP JUMPDEST PUSH20 0xFFFFFFFFFFFFFFFFFFFFFFFFFFFFFFFFFFFFFFFF AND PUSH4 0x377AF0DA ADDRESS PUSH1 0x0 SLOAD PUSH3 0x3ED PUSH1 0x40 MLOAD DUP1 PUSH1 0x40 ADD PUSH1 0x40 MSTORE DUP1 PUSH1 0x10 DUP2 MSTORE PUSH1 0x20 ADD PUSH32 0x7461626C655F6174747269627574657300000000000000000000000000000000 DUP2 MSTORE POP PUSH1 0x0 SLOAD DUP8 PUSH3 0x8CB JUMP JUMPDEST PUSH1 0x40 MLOAD DUP5 PUSH4 0xFFFFFFFF AND PUSH1 0xE0 SHL DUP2 MSTORE PUSH1 0x4 ADD PUSH3 0x40D SWAP4 SWAP3 SWAP2 SWAP1 PUSH3 0x12F2 JUMP JUMPDEST PUSH1 0x0 PUSH1 0x40 MLOAD DUP1 DUP4 SUB DUP2 PUSH1 0x0 DUP8 DUP1 EXTCODESIZE ISZERO DUP1 ISZERO PUSH3 0x428 JUMPI PUSH1 0x0 DUP1 REVERT JUMPDEST POP GAS CALL ISZERO DUP1 ISZERO PUSH3 0x43D JUMPI RETURNDATASIZE PUSH1 0x0 DUP1 RETURNDATACOPY RETURNDATASIZE PUSH1 0x0 REVERT JUMPDEST POP POP POP POP POP POP JUMP JUMPDEST PUSH1 0x60 PUSH3 0x48A PUSH1 0x40 MLOAD DUP1 PUSH1 0x40 ADD PUSH1 0x40 MSTORE DUP1 PUSH1 0x10 DUP2 MSTORE PUSH1 0x20 ADD PUSH32 0x7461626C655F6174747269627574657300000000000000000000000000000000 DUP2 MSTORE POP PUSH1 0x0 SLOAD PUSH3 0x90B JUMP JUMPDEST SWAP1 POP SWAP1 JUMP JUMPDEST PUSH1 0x0 DUP1 SLOAD SWAP1 POP SWAP1 JUMP JUMPDEST PUSH1 0x0 DUP3 PUSH1 0x40 MLOAD PUSH1 0x20 ADD PUSH3 0x4AD SWAP2 SWAP1 PUSH3 0x1399 JUMP JUMPDEST PUSH1 0x40 MLOAD PUSH1 0x20 DUP2 DUP4 SUB SUB DUP2 MSTORE SWAP1 PUSH1 0x40 MSTORE SWAP1 POP PUSH3 0x4C8 PUSH3 0x66F JUMP JUMPDEST PUSH20 0xFFFFFFFFFFFFFFFFFFFFFFFFFFFFFFFFFFFFFFFF AND PUSH4 0x377AF0DA ADDRESS PUSH1 0x0 SLOAD PUSH3 0x52C PUSH1 0x40 MLOAD DUP1 PUSH1 0x40 ADD PUSH1 0x40 MSTORE DUP1 PUSH1 0x10 DUP2 MSTORE PUSH1 0x20 ADD PUSH32 0x7461626C655F6174747269627574657300000000000000000000000000000000 DUP2 MSTORE POP PUSH1 0x0 SLOAD DUP9 DUP9 PUSH3 0x94F JUMP JUMPDEST PUSH1 0x40 MLOAD DUP5 PUSH4 0xFFFFFFFF AND PUSH1 0xE0 SHL DUP2 MSTORE PUSH1 0x4 ADD PUSH3 0x54C SWAP4 SWAP3 SWAP2 SWAP1 PUSH3 0x12F2 JUMP JUMPDEST PUSH1 0x0 PUSH1 0x40 MLOAD DUP1 DUP4 SUB DUP2 PUSH1 0x0 DUP8 DUP1 EXTCODESIZE ISZERO DUP1 ISZERO PUSH3 0x567 JUMPI PUSH1 0x0 DUP1 REVERT JUMPDEST POP GAS CALL ISZERO DUP1 ISZERO PUSH3 0x57C JUMPI RETURNDATASIZE PUSH1 0x0 DUP1 RETURNDATACOPY RETURNDATASIZE PUSH1 0x0 REVERT JUMPDEST POP POP POP POP POP POP POP JUMP JUMPDEST PUSH1 0x60 PUSH1 0x0 ADDRESS PUSH1 0x40 MLOAD PUSH3 0x598 SWAP1 PUSH3 0xC1C JUMP JUMPDEST PUSH3 0x5A4 SWAP2 SWAP1 PUSH3 0x13C3 JUMP JUMPDEST PUSH1 0x40 MLOAD DUP1 SWAP2 SUB SWAP1 PUSH1 0x0 CREATE DUP1 ISZERO DUP1 ISZERO PUSH3 0x5C1 JUMPI RETURNDATASIZE PUSH1 0x0 DUP1 RETURNDATACOPY RETURNDATASIZE PUSH1 0x0 REVERT JUMPDEST POP SWAP1 POP PUSH3 0x5E5 DUP2 PUSH20 0xFFFFFFFFFFFFFFFFFFFFFFFFFFFFFFFFFFFFFFFF AND PUSH3 0x9D7 JUMP JUMPDEST SWAP2 POP POP SWAP1 JUMP JUMPDEST PUSH1 0x60 DUP2 PUSH1 0x40 MLOAD PUSH1 0x20 ADD PUSH3 0x600 SWAP2 SWAP1 PUSH3 0x1430 JUMP JUMPDEST PUSH1 0x40 MLOAD PUSH1 0x20 DUP2 DUP4 SUB SUB DUP2 MSTORE SWAP1 PUSH1 0x40 MSTORE SWAP1 POP SWAP2 SWAP1 POP JUMP JUMPDEST PUSH1 0x60 PUSH1 0x0 PUSH1 0x40 MLOAD PUSH3 0x628 SWAP1 PUSH3 0xC2A JUMP JUMPDEST PUSH1 0x40 MLOAD DUP1 SWAP2 SUB SWAP1 PUSH1 0x0 CREATE DUP1 ISZERO DUP1 ISZERO PUSH3 0x645 JUMPI RETURNDATASIZE PUSH1 0x0 DUP1 RETURNDATACOPY RETURNDATASIZE PUSH1 0x0 REVERT JUMPDEST POP SWAP1 POP PUSH3 0x669 DUP2 PUSH20 0xFFFFFFFFFFFFFFFFFFFFFFFFFFFFFFFFFFFFFFFF AND PUSH3 0x9D7 JUMP JUMPDEST SWAP2 POP POP SWAP1 JUMP JUMPDEST PUSH1 0x0 PUSH1 0x1 CHAINID SUB PUSH3 0x697 JUMPI PUSH20 0x12969F7E3439A9B04025B5A049EB9BAD82A8C12 SWAP1 POP PUSH3 0x885 JUMP JUMPDEST PUSH1 0xA CHAINID SUB PUSH3 0x6BD JUMPI PUSH20 0xFAD44BF5B843DE943A09D4F3E84949A11D3AA3E6 SWAP1 POP PUSH3 0x885 JUMP JUMPDEST PUSH2 0xA4B1 CHAINID SUB PUSH3 0x6E4 JUMPI PUSH20 0x9ABD75E8640871A5A20D3B4EE6330A04C962AFFD SWAP1 POP PUSH3 0x885 JUMP JUMPDEST PUSH2 0xA4BA CHAINID SUB PUSH3 0x70B JUMPI PUSH20 0x1A22854C5B1642760A827F20137A67930AE108D2 SWAP1 POP PUSH3 0x885 JUMP JUMPDEST PUSH1 0x89 CHAINID SUB PUSH3 0x731 JUMPI PUSH20 0x5C4E6A9E5C1E1BF445A062006FAF19EA6C49AFEA SWAP1 POP PUSH3 0x885 JUMP JUMPDEST PUSH2 0x13A CHAINID SUB PUSH3 0x758 JUMPI PUSH20 0x59EF8BF2D6C102B4C42AEF9189E1A9F0ABFD652D SWAP1 POP PUSH3 0x885 JUMP JUMPDEST PUSH3 0xAA36A7 CHAINID SUB PUSH3 0x780 JUMPI PUSH20 0xC50C62498448ACC8DBDE43DA77F8D5D2E2C7597D SWAP1 POP PUSH3 0x885 JUMP JUMPDEST PUSH2 0x1A4 CHAINID SUB PUSH3 0x7A7 JUMPI PUSH20 0xC72E8A7BE04F2469F8C2DB3F1BDF69A7D516ABBA SWAP1 POP PUSH3 0x885 JUMP JUMPDEST PUSH3 0x66EEE CHAINID SUB PUSH3 0x7CF JUMPI PUSH20 0x223A74B8323914AFDC3FF1E5005564DC17231D6E SWAP1 POP PUSH3 0x885 JUMP JUMPDEST PUSH3 0x13881 CHAINID SUB PUSH3 0x7F7 JUMPI PUSH20 0x4B48841D4B32C4650E4ABC117A03FE8B51F38F68 SWAP1 POP PUSH3 0x885 JUMP JUMPDEST PUSH3 0x4CB2F CHAINID SUB PUSH3 0x81F JUMPI PUSH20 0x30BCF3D50CAD04C2E57391B12740982A9308621 SWAP1 POP PUSH3 0x885 JUMP JUMPDEST PUSH2 0x7A69 CHAINID SUB PUSH3 0x846 JUMPI PUSH20 0xE7F1725E7734CE288F8367E1BB143E90BB3F0512 SWAP1 POP PUSH3 0x885 JUMP JUMPDEST CHAINID PUSH1 0x40 MLOAD PUSH32 0x264E42CF00000000000000000000000000000000000000000000000000000000 DUP2 MSTORE PUSH1 0x4 ADD PUSH3 0x87C SWAP2 SWAP1 PUSH3 0x11B3 JUMP JUMPDEST PUSH1 0x40 MLOAD DUP1 SWAP2 SUB SWAP1 REVERT JUMPDEST SWAP1 JUMP JUMPDEST PUSH1 0x60 PUSH1 0x0 PUSH3 0x898 DUP7 DUP7 PUSH3 0x90B JUMP JUMPDEST SWAP1 POP DUP1 DUP5 DUP5 PUSH1 0x40 MLOAD PUSH1 0x20 ADD PUSH3 0x8B1 SWAP4 SWAP3 SWAP2 SWAP1 PUSH3 0x15A3 JUMP JUMPDEST PUSH1 0x40 MLOAD PUSH1 0x20 DUP2 DUP4 SUB SUB DUP2 MSTORE SWAP1 PUSH1 0x40 MSTORE SWAP2 POP POP SWAP5 SWAP4 POP POP POP POP JUMP JUMPDEST PUSH1 0x60 PUSH1 0x0 PUSH3 0x8DB DUP6 DUP6 PUSH3 0x90B JUMP JUMPDEST SWAP1 POP DUP1 DUP4 PUSH1 0x40 MLOAD PUSH1 0x20 ADD PUSH3 0x8F2 SWAP3 SWAP2 SWAP1 PUSH3 0x16AE JUMP JUMPDEST PUSH1 0x40 MLOAD PUSH1 0x20 DUP2 DUP4 SUB SUB DUP2 MSTORE SWAP1 PUSH1 0x40 MSTORE SWAP2 POP POP SWAP4 SWAP3 POP POP POP JUMP JUMPDEST PUSH1 0x60 DUP3 PUSH3 0x919 CHAINID PUSH3 0x9D7 JUMP JUMPDEST PUSH3 0x924 DUP5 PUSH3 0x9D7 JUMP JUMPDEST PUSH1 0x40 MLOAD PUSH1 0x20 ADD PUSH3 0x938 SWAP4 SWAP3 SWAP2 SWAP1 PUSH3 0x1740 JUMP JUMPDEST PUSH1 0x40 MLOAD PUSH1 0x20 DUP2 DUP4 SUB SUB DUP2 MSTORE SWAP1 PUSH1 0x40 MSTORE SWAP1 POP SWAP3 SWAP2 POP POP JUMP JUMPDEST PUSH1 0x60 PUSH1 0x0 PUSH3 0x95F DUP7 DUP7 PUSH3 0x90B JUMP JUMPDEST SWAP1 POP PUSH1 0x0 PUSH1 0x40 MLOAD DUP1 PUSH1 0x20 ADD PUSH1 0x40 MSTORE DUP1 PUSH1 0x0 DUP2 MSTORE POP SWAP1 POP PUSH1 0x0 DUP5 MLOAD GT ISZERO PUSH3 0x9A5 JUMPI DUP4 PUSH1 0x40 MLOAD PUSH1 0x20 ADD PUSH3 0x993 SWAP2 SWAP1 PUSH3 0x1791 JUMP JUMPDEST PUSH1 0x40 MLOAD PUSH1 0x20 DUP2 DUP4 SUB SUB DUP2 MSTORE SWAP1 PUSH1 0x40 MSTORE SWAP1 POP JUMPDEST DUP2 DUP6 DUP3 PUSH1 0x40 MLOAD PUSH1 0x20 ADD PUSH3 0x9BC SWAP4 SWAP3 SWAP2 SWAP1 PUSH3 0x1857 JUMP JUMPDEST PUSH1 0x40 MLOAD PUSH1 0x20 DUP2 DUP4 SUB SUB DUP2 MSTORE SWAP1 PUSH1 0x40 MSTORE SWAP3 POP POP POP SWAP5 SWAP4 POP POP POP POP JUMP JUMPDEST PUSH1 0x60 PUSH1 0x0 PUSH1 0x1 PUSH3 0x9E8 DUP5 PUSH3 0xAB0 JUMP JUMPDEST ADD SWAP1 POP PUSH1 0x0 DUP2 PUSH8 0xFFFFFFFFFFFFFFFF DUP2 GT ISZERO PUSH3 0xA0A JUMPI PUSH3 0xA09 PUSH3 0xD07 JUMP JUMPDEST JUMPDEST PUSH1 0x40 MLOAD SWAP1 DUP1 DUP3 MSTORE DUP1 PUSH1 0x1F ADD PUSH1 0x1F NOT AND PUSH1 0x20 ADD DUP3 ADD PUSH1 0x40 MSTORE DUP1 ISZERO PUSH3 0xA3D JUMPI DUP2 PUSH1 0x20 ADD PUSH1 0x1 DUP3 MUL DUP1 CALLDATASIZE DUP4 CALLDATACOPY DUP1 DUP3 ADD SWAP2 POP POP SWAP1 POP JUMPDEST POP SWAP1 POP PUSH1 0x0 DUP3 PUSH1 0x20 ADD DUP3 ADD SWAP1 POP JUMPDEST PUSH1 0x1 ISZERO PUSH3 0xAA5 JUMPI DUP1 DUP1 PUSH1 0x1 SWAP1 SUB SWAP2 POP POP PUSH32 0x3031323334353637383961626364656600000000000000000000000000000000 PUSH1 0xA DUP7 MOD BYTE DUP2 MSTORE8 PUSH1 0xA DUP6 DUP2 PUSH3 0xA98 JUMPI PUSH3 0xA97 PUSH3 0x18A8 JUMP JUMPDEST JUMPDEST DIV SWAP5 POP PUSH1 0x0 DUP6 SUB PUSH3 0xA4B JUMPI JUMPDEST DUP2 SWAP4 POP POP POP POP SWAP2 SWAP1 POP JUMP JUMPDEST PUSH1 0x0 DUP1 PUSH1 0x0 SWAP1 POP PUSH27 0x184F03E93FF9F4DAA797ED6E38ED64BF6A1F010000000000000000 DUP4 LT PUSH3 0xB12 JUMPI PUSH27 0x184F03E93FF9F4DAA797ED6E38ED64BF6A1F010000000000000000 DUP4 DUP2 PUSH3 0xB08 JUMPI PUSH3 0xB07 PUSH3 0x18A8 JUMP JUMPDEST JUMPDEST DIV SWAP3 POP PUSH1 0x40 DUP2 ADD SWAP1 POP JUMPDEST PUSH14 0x4EE2D6D415B85ACEF8100000000 DUP4 LT PUSH3 0xB53 JUMPI PUSH14 0x4EE2D6D415B85ACEF8100000000 DUP4 DUP2 PUSH3 0xB49 JUMPI PUSH3 0xB48 PUSH3 0x18A8 JUMP JUMPDEST JUMPDEST DIV SWAP3 POP PUSH1 0x20 DUP2 ADD SWAP1 POP JUMPDEST PUSH7 0x2386F26FC10000 DUP4 LT PUSH3 0xB86 JUMPI PUSH7 0x2386F26FC10000 DUP4 DUP2 PUSH3 0xB7C JUMPI PUSH3 0xB7B PUSH3 0x18A8 JUMP JUMPDEST JUMPDEST DIV SWAP3 POP PUSH1 0x10 DUP2 ADD SWAP1 POP JUMPDEST PUSH4 0x5F5E100 DUP4 LT PUSH3 0xBB3 JUMPI PUSH4 0x5F5E100 DUP4 DUP2 PUSH3 0xBA9 JUMPI PUSH3 0xBA8 PUSH3 0x18A8 JUMP JUMPDEST JUMPDEST DIV SWAP3 POP PUSH1 0x8 DUP2 ADD SWAP1 POP JUMPDEST PUSH2 0x2710 DUP4 LT PUSH3 0xBDC JUMPI PUSH2 0x2710 DUP4 DUP2 PUSH3 0xBD2 JUMPI PUSH3 0xBD1 PUSH3 0x18A8 JUMP JUMPDEST JUMPDEST DIV SWAP3 POP PUSH1 0x4 DUP2 ADD SWAP1 POP JUMPDEST PUSH1 0x64 DUP4 LT PUSH3 0xC03 JUMPI PUSH1 0x64 DUP4 DUP2 PUSH3 0xBF9 JUMPI PUSH3 0xBF8 PUSH3 0x18A8 JUMP JUMPDEST JUMPDEST DIV SWAP3 POP PUSH1 0x2 DUP2 ADD SWAP1 POP JUMPDEST PUSH1 0xA DUP4 LT PUSH3 0xC13 JUMPI PUSH1 0x1 DUP2 ADD SWAP1 POP JUMPDEST DUP1 SWAP2 POP POP SWAP2 SWAP1 POP JUMP JUMPDEST PUSH2 0x1EB6 DUP1 PUSH3 0x18D8 DUP4 CODECOPY ADD SWAP1 JUMP JUMPDEST PUSH2 0x1FCE DUP1 PUSH3 0x378E DUP4 CODECOPY ADD SWAP1 JUMP JUMPDEST PUSH1 0x0 PUSH1 0x40 MLOAD SWAP1 POP SWAP1 JUMP JUMPDEST PUSH1 0x0 DUP1 REVERT JUMPDEST PUSH1 0x0 DUP1 REVERT JUMPDEST PUSH1 0x0 PUSH20 0xFFFFFFFFFFFFFFFFFFFFFFFFFFFFFFFFFFFFFFFF DUP3 AND SWAP1 POP SWAP2 SWAP1 POP JUMP JUMPDEST PUSH1 0x0 PUSH3 0xC79 DUP3 PUSH3 0xC4C JUMP JUMPDEST SWAP1 POP SWAP2 SWAP1 POP JUMP JUMPDEST PUSH3 0xC8B DUP2 PUSH3 0xC6C JUMP JUMPDEST DUP2 EQ PUSH3 0xC97 JUMPI PUSH1 0x0 DUP1 REVERT JUMPDEST POP JUMP JUMPDEST PUSH1 0x0 DUP2 CALLDATALOAD SWAP1 POP PUSH3 0xCAB DUP2 PUSH3 0xC80 JUMP JUMPDEST SWAP3 SWAP2 POP POP JUMP JUMPDEST PUSH1 0x0 DUP2 SWAP1 POP SWAP2 SWAP1 POP JUMP JUMPDEST PUSH3 0xCC6 DUP2 PUSH3 0xCB1 JUMP JUMPDEST DUP2 EQ PUSH3 0xCD2 JUMPI PUSH1 0x0 DUP1 REVERT JUMPDEST POP JUMP JUMPDEST PUSH1 0x0 DUP2 CALLDATALOAD SWAP1 POP PUSH3 0xCE6 DUP2 PUSH3 0xCBB JUMP JUMPDEST SWAP3 SWAP2 POP POP JUMP JUMPDEST PUSH1 0x0 DUP1 REVERT JUMPDEST PUSH1 0x0 DUP1 REVERT JUMPDEST PUSH1 0x0 PUSH1 0x1F NOT PUSH1 0x1F DUP4 ADD AND SWAP1 POP SWAP2 SWAP1 POP JUMP JUMPDEST PUSH32 0x4E487B7100000000000000000000000000000000000000000000000000000000 PUSH1 0x0 MSTORE PUSH1 0x41 PUSH1 0x4 MSTORE PUSH1 0x24 PUSH1 0x0 REVERT JUMPDEST PUSH3 0xD41 DUP3 PUSH3 0xCF6 JUMP JUMPDEST DUP2 ADD DUP2 DUP2 LT PUSH8 0xFFFFFFFFFFFFFFFF DUP3 GT OR ISZERO PUSH3 0xD63 JUMPI PUSH3 0xD62 PUSH3 0xD07 JUMP JUMPDEST JUMPDEST DUP1 PUSH1 0x40 MSTORE POP POP POP JUMP JUMPDEST PUSH1 0x0 PUSH3 0xD78 PUSH3 0xC38 JUMP JUMPDEST SWAP1 POP PUSH3 0xD86 DUP3 DUP3 PUSH3 0xD36 JUMP JUMPDEST SWAP2 SWAP1 POP JUMP JUMPDEST PUSH1 0x0 PUSH8 0xFFFFFFFFFFFFFFFF DUP3 GT ISZERO PUSH3 0xDA9 JUMPI PUSH3 0xDA8 PUSH3 0xD07 JUMP JUMPDEST JUMPDEST PUSH3 0xDB4 DUP3 PUSH3 0xCF6 JUMP JUMPDEST SWAP1 POP PUSH1 0x20 DUP2 ADD SWAP1 POP SWAP2 SWAP1 POP JUMP JUMPDEST DUP3 DUP2 DUP4 CALLDATACOPY PUSH1 0x0 DUP4 DUP4 ADD MSTORE POP POP POP JUMP JUMPDEST PUSH1 0x0 PUSH3 0xDE7 PUSH3 0xDE1 DUP5 PUSH3 0xD8B JUMP JUMPDEST PUSH3 0xD6C JUMP JUMPDEST SWAP1 POP DUP3 DUP2 MSTORE PUSH1 0x20 DUP2 ADD DUP5 DUP5 DUP5 ADD GT ISZERO PUSH3 0xE06 JUMPI PUSH3 0xE05 PUSH3 0xCF1 JUMP JUMPDEST JUMPDEST PUSH3 0xE13 DUP5 DUP3 DUP6 PUSH3 0xDC1 JUMP JUMPDEST POP SWAP4 SWAP3 POP POP POP JUMP JUMPDEST PUSH1 0x0 DUP3 PUSH1 0x1F DUP4 ADD SLT PUSH3 0xE33 JUMPI PUSH3 0xE32 PUSH3 0xCEC JUMP JUMPDEST JUMPDEST DUP2 CALLDATALOAD PUSH3 0xE45 DUP5 DUP3 PUSH1 0x20 DUP7 ADD PUSH3 0xDD0 JUMP JUMPDEST SWAP2 POP POP SWAP3 SWAP2 POP POP JUMP JUMPDEST PUSH1 0x0 DUP1 PUSH1 0x0 DUP1 PUSH1 0x80 DUP6 DUP8 SUB SLT ISZERO PUSH3 0xE6B JUMPI PUSH3 0xE6A PUSH3 0xC42 JUMP JUMPDEST JUMPDEST PUSH1 0x0 PUSH3 0xE7B DUP8 DUP3 DUP9 ADD PUSH3 0xC9A JUMP JUMPDEST SWAP5 POP POP PUSH1 0x20 PUSH3 0xE8E DUP8 DUP3 DUP9 ADD PUSH3 0xC9A JUMP JUMPDEST SWAP4 POP POP PUSH1 0x40 PUSH3 0xEA1 DUP8 DUP3 DUP9 ADD PUSH3 0xCD5 JUMP JUMPDEST SWAP3 POP POP PUSH1 0x60 DUP6 ADD CALLDATALOAD PUSH8 0xFFFFFFFFFFFFFFFF DUP2 GT ISZERO PUSH3 0xEC5 JUMPI PUSH3 0xEC4 PUSH3 0xC47 JUMP JUMPDEST JUMPDEST PUSH3 0xED3 DUP8 DUP3 DUP9 ADD PUSH3 0xE1B JUMP JUMPDEST SWAP2 POP POP SWAP3 SWAP6 SWAP2 SWAP5 POP SWAP3 POP JUMP JUMPDEST PUSH1 0x0 PUSH32 0xFFFFFFFF00000000000000000000000000000000000000000000000000000000 DUP3 AND SWAP1 POP SWAP2 SWAP1 POP JUMP JUMPDEST PUSH3 0xF16 DUP2 PUSH3 0xEDF JUMP JUMPDEST DUP3 MSTORE POP POP JUMP JUMPDEST PUSH1 0x0 PUSH1 0x20 DUP3 ADD SWAP1 POP PUSH3 0xF33 PUSH1 0x0 DUP4 ADD DUP5 PUSH3 0xF0B JUMP JUMPDEST SWAP3 SWAP2 POP POP JUMP JUMPDEST PUSH1 0x0 PUSH8 0xFFFFFFFFFFFFFFFF DUP3 GT ISZERO PUSH3 0xF57 JUMPI PUSH3 0xF56 PUSH3 0xD07 JUMP JUMPDEST JUMPDEST PUSH3 0xF62 DUP3 PUSH3 0xCF6 JUMP JUMPDEST SWAP1 POP PUSH1 0x20 DUP2 ADD SWAP1 POP SWAP2 SWAP1 POP JUMP JUMPDEST PUSH1 0x0 PUSH3 0xF86 PUSH3 0xF80 DUP5 PUSH3 0xF39 JUMP JUMPDEST PUSH3 0xD6C JUMP JUMPDEST SWAP1 POP DUP3 DUP2 MSTORE PUSH1 0x20 DUP2 ADD DUP5 DUP5 DUP5 ADD GT ISZERO PUSH3 0xFA5 JUMPI PUSH3 0xFA4 PUSH3 0xCF1 JUMP JUMPDEST JUMPDEST PUSH3 0xFB2 DUP5 DUP3 DUP6 PUSH3 0xDC1 JUMP JUMPDEST POP SWAP4 SWAP3 POP POP POP JUMP JUMPDEST PUSH1 0x0 DUP3 PUSH1 0x1F DUP4 ADD SLT PUSH3 0xFD2 JUMPI PUSH3 0xFD1 PUSH3 0xCEC JUMP JUMPDEST JUMPDEST DUP2 CALLDATALOAD PUSH3 0xFE4 DUP5 DUP3 PUSH1 0x20 DUP7 ADD PUSH3 0xF6F JUMP JUMPDEST SWAP2 POP POP SWAP3 SWAP2 POP POP JUMP JUMPDEST PUSH1 0x0 DUP1 PUSH1 0x40 DUP4 DUP6 SUB SLT ISZERO PUSH3 0x1007 JUMPI PUSH3 0x1006 PUSH3 0xC42 JUMP JUMPDEST JUMPDEST PUSH1 0x0 DUP4 ADD CALLDATALOAD PUSH8 0xFFFFFFFFFFFFFFFF DUP2 GT ISZERO PUSH3 0x1028 JUMPI PUSH3 0x1027 PUSH3 0xC47 JUMP JUMPDEST JUMPDEST PUSH3 0x1036 DUP6 DUP3 DUP7 ADD PUSH3 0xFBA JUMP JUMPDEST SWAP3 POP POP PUSH1 0x20 DUP4 ADD CALLDATALOAD PUSH8 0xFFFFFFFFFFFFFFFF DUP2 GT ISZERO PUSH3 0x105A JUMPI PUSH3 0x1059 PUSH3 0xC47 JUMP JUMPDEST JUMPDEST PUSH3 0x1068 DUP6 DUP3 DUP7 ADD PUSH3 0xFBA JUMP JUMPDEST SWAP2 POP POP SWAP3 POP SWAP3 SWAP1 POP JUMP JUMPDEST PUSH1 0x0 PUSH1 0x20 DUP3 DUP5 SUB SLT ISZERO PUSH3 0x108B JUMPI PUSH3 0x108A PUSH3 0xC42 JUMP JUMPDEST JUMPDEST PUSH1 0x0 PUSH3 0x109B DUP5 DUP3 DUP6 ADD PUSH3 0xC9A JUMP JUMPDEST SWAP2 POP POP SWAP3 SWAP2 POP POP JUMP JUMPDEST PUSH1 0x0 PUSH1 0x20 DUP3 DUP5 SUB SLT ISZERO PUSH3 0x10BD JUMPI PUSH3 0x10BC PUSH3 0xC42 JUMP JUMPDEST JUMPDEST PUSH1 0x0 DUP3 ADD CALLDATALOAD PUSH8 0xFFFFFFFFFFFFFFFF DUP2 GT ISZERO PUSH3 0x10DE JUMPI PUSH3 0x10DD PUSH3 0xC47 JUMP JUMPDEST JUMPDEST PUSH3 0x10EC DUP5 DUP3 DUP6 ADD PUSH3 0xFBA JUMP JUMPDEST SWAP2 POP POP SWAP3 SWAP2 POP POP JUMP JUMPDEST PUSH1 0x0 DUP2 MLOAD SWAP1 POP SWAP2 SWAP1 POP JUMP JUMPDEST PUSH1 0x0 DUP3 DUP3 MSTORE PUSH1 0x20 DUP3 ADD SWAP1 POP SWAP3 SWAP2 POP POP JUMP JUMPDEST PUSH1 0x0 JUMPDEST DUP4 DUP2 LT ISZERO PUSH3 0x1131 JUMPI DUP1 DUP3 ADD MLOAD DUP2 DUP5 ADD MSTORE PUSH1 0x20 DUP2 ADD SWAP1 POP PUSH3 0x1114 JUMP JUMPDEST PUSH1 0x0 DUP5 DUP5 ADD MSTORE POP POP POP POP JUMP JUMPDEST PUSH1 0x0 PUSH3 0x114A DUP3 PUSH3 0x10F5 JUMP JUMPDEST PUSH3 0x1156 DUP2 DUP6 PUSH3 0x1100 JUMP JUMPDEST SWAP4 POP PUSH3 0x1168 DUP2 DUP6 PUSH1 0x20 DUP7 ADD PUSH3 0x1111 JUMP JUMPDEST PUSH3 0x1173 DUP2 PUSH3 0xCF6 JUMP JUMPDEST DUP5 ADD SWAP2 POP POP SWAP3 SWAP2 POP POP JUMP JUMPDEST PUSH1 0x0 PUSH1 0x20 DUP3 ADD SWAP1 POP DUP2 DUP2 SUB PUSH1 0x0 DUP4 ADD MSTORE PUSH3 0x119A DUP2 DUP5 PUSH3 0x113D JUMP JUMPDEST SWAP1 POP SWAP3 SWAP2 POP POP JUMP JUMPDEST PUSH3 0x11AD DUP2 PUSH3 0xCB1 JUMP JUMPDEST DUP3 MSTORE POP POP JUMP JUMPDEST PUSH1 0x0 PUSH1 0x20 DUP3 ADD SWAP1 POP PUSH3 0x11CA PUSH1 0x0 DUP4 ADD DUP5 PUSH3 0x11A2 JUMP JUMPDEST SWAP3 SWAP2 POP POP JUMP JUMPDEST PUSH1 0x0 DUP2 SWAP1 POP SWAP3 SWAP2 POP POP JUMP JUMPDEST PUSH1 0x0 PUSH3 0x11E8 DUP3 PUSH3 0x10F5 JUMP JUMPDEST PUSH3 0x11F4 DUP2 DUP6 PUSH3 0x11D0 JUMP JUMPDEST SWAP4 POP PUSH3 0x1206 DUP2 DUP6 PUSH1 0x20 DUP7 ADD PUSH3 0x1111 JUMP JUMPDEST DUP1 DUP5 ADD SWAP2 POP POP SWAP3 SWAP2 POP POP JUMP JUMPDEST PUSH32 0x2C70726F6A6563745F636F6E74726163745F69642C6261636B65727300000000 DUP2 MSTORE POP JUMP JUMPDEST PUSH1 0x0 PUSH3 0x1246 DUP3 DUP5 PUSH3 0x11DB JUMP JUMPDEST SWAP2 POP PUSH3 0x1253 DUP3 PUSH3 0x1212 JUMP JUMPDEST PUSH1 0x1C DUP3 ADD SWAP2 POP DUP2 SWAP1 POP SWAP3 SWAP2 POP POP JUMP JUMPDEST PUSH32 0x2C00000000000000000000000000000000000000000000000000000000000000 DUP2 MSTORE POP JUMP JUMPDEST PUSH1 0x0 PUSH3 0x1296 DUP3 DUP7 PUSH3 0x11DB JUMP JUMPDEST SWAP2 POP PUSH3 0x12A3 DUP3 PUSH3 0x1262 JUMP JUMPDEST PUSH1 0x1 DUP3 ADD SWAP2 POP PUSH3 0x12B5 DUP3 DUP6 PUSH3 0x11DB JUMP JUMPDEST SWAP2 POP PUSH3 0x12C2 DUP3 PUSH3 0x1262 JUMP JUMPDEST PUSH1 0x1 DUP3 ADD SWAP2 POP PUSH3 0x12D4 DUP3 DUP5 PUSH3 0x11DB JUMP JUMPDEST SWAP2 POP DUP2 SWAP1 POP SWAP5 SWAP4 POP POP POP POP JUMP JUMPDEST PUSH3 0x12EC DUP2 PUSH3 0xC6C JUMP JUMPDEST DUP3 MSTORE POP POP JUMP JUMPDEST PUSH1 0x0 PUSH1 0x60 DUP3 ADD SWAP1 POP PUSH3 0x1309 PUSH1 0x0 DUP4 ADD DUP7 PUSH3 0x12E1 JUMP JUMPDEST PUSH3 0x1318 PUSH1 0x20 DUP4 ADD DUP6 PUSH3 0x11A2 JUMP JUMPDEST DUP2 DUP2 SUB PUSH1 0x40 DUP4 ADD MSTORE PUSH3 0x132C DUP2 DUP5 PUSH3 0x113D JUMP JUMPDEST SWAP1 POP SWAP5 SWAP4 POP POP POP POP JUMP JUMPDEST PUSH1 0x0 PUSH1 0x60 DUP3 ADD SWAP1 POP PUSH3 0x134D PUSH1 0x0 DUP4 ADD DUP7 PUSH3 0x12E1 JUMP JUMPDEST PUSH3 0x135C PUSH1 0x20 DUP4 ADD DUP6 PUSH3 0x11A2 JUMP JUMPDEST PUSH3 0x136B PUSH1 0x40 DUP4 ADD DUP5 PUSH3 0x12E1 JUMP JUMPDEST SWAP5 SWAP4 POP POP POP POP JUMP JUMPDEST PUSH32 0x69643D0000000000000000000000000000000000000000000000000000000000 DUP2 MSTORE POP JUMP JUMPDEST PUSH1 0x0 PUSH3 0x13A6 DUP3 PUSH3 0x1373 JUMP JUMPDEST PUSH1 0x3 DUP3 ADD SWAP2 POP PUSH3 0x13B8 DUP3 DUP5 PUSH3 0x11DB JUMP JUMPDEST SWAP2 POP DUP2 SWAP1 POP SWAP3 SWAP2 POP POP JUMP JUMPDEST PUSH1 0x0 PUSH1 0x20 DUP3 ADD SWAP1 POP PUSH3 0x13DA PUSH1 0x0 DUP4 ADD DUP5 PUSH3 0x12E1 JUMP JUMPDEST SWAP3 SWAP2 POP POP JUMP JUMPDEST PUSH32 0x2700000000000000000000000000000000000000000000000000000000000000 PUSH1 0x0 DUP3 ADD MSTORE POP JUMP JUMPDEST PUSH1 0x0 PUSH3 0x1418 PUSH1 0x1 DUP4 PUSH3 0x11D0 JUMP JUMPDEST SWAP2 POP PUSH3 0x1425 DUP3 PUSH3 0x13E0 JUMP JUMPDEST PUSH1 0x1 DUP3 ADD SWAP1 POP SWAP2 SWAP1 POP JUMP JUMPDEST PUSH1 0x0 PUSH3 0x143D DUP3 PUSH3 0x1409 JUMP JUMPDEST SWAP2 POP PUSH3 0x144B DUP3 DUP5 PUSH3 0x11DB JUMP JUMPDEST SWAP2 POP PUSH3 0x1458 DUP3 PUSH3 0x1409 JUMP JUMPDEST SWAP2 POP DUP2 SWAP1 POP SWAP3 SWAP2 POP POP JUMP JUMPDEST PUSH32 0x494E5345525420494E544F200000000000000000000000000000000000000000 PUSH1 0x0 DUP3 ADD MSTORE POP JUMP JUMPDEST PUSH1 0x0 PUSH3 0x149B PUSH1 0xC DUP4 PUSH3 0x11D0 JUMP JUMPDEST SWAP2 POP PUSH3 0x14A8 DUP3 PUSH3 0x1463 JUMP JUMPDEST PUSH1 0xC DUP3 ADD SWAP1 POP SWAP2 SWAP1 POP JUMP JUMPDEST PUSH32 0x2800000000000000000000000000000000000000000000000000000000000000 PUSH1 0x0 DUP3 ADD MSTORE POP JUMP JUMPDEST PUSH1 0x0 PUSH3 0x14EB PUSH1 0x1 DUP4 PUSH3 0x11D0 JUMP JUMPDEST SWAP2 POP PUSH3 0x14F8 DUP3 PUSH3 0x14B3 JUMP JUMPDEST PUSH1 0x1 DUP3 ADD SWAP1 POP SWAP2 SWAP1 POP JUMP JUMPDEST PUSH32 0x2956414C55455328000000000000000000000000000000000000000000000000 PUSH1 0x0 DUP3 ADD MSTORE POP JUMP JUMPDEST PUSH1 0x0 PUSH3 0x153B PUSH1 0x8 DUP4 PUSH3 0x11D0 JUMP JUMPDEST SWAP2 POP PUSH3 0x1548 DUP3 PUSH3 0x1503 JUMP JUMPDEST PUSH1 0x8 DUP3 ADD SWAP1 POP SWAP2 SWAP1 POP JUMP JUMPDEST PUSH32 0x2900000000000000000000000000000000000000000000000000000000000000 PUSH1 0x0 DUP3 ADD MSTORE POP JUMP JUMPDEST PUSH1 0x0 PUSH3 0x158B PUSH1 0x1 DUP4 PUSH3 0x11D0 JUMP JUMPDEST SWAP2 POP PUSH3 0x1598 DUP3 PUSH3 0x1553 JUMP JUMPDEST PUSH1 0x1 DUP3 ADD SWAP1 POP SWAP2 SWAP1 POP JUMP JUMPDEST PUSH1 0x0 PUSH3 0x15B0 DUP3 PUSH3 0x148C JUMP JUMPDEST SWAP2 POP PUSH3 0x15BE DUP3 DUP7 PUSH3 0x11DB JUMP JUMPDEST SWAP2 POP PUSH3 0x15CB DUP3 PUSH3 0x14DC JUMP JUMPDEST SWAP2 POP PUSH3 0x15D9 DUP3 DUP6 PUSH3 0x11DB JUMP JUMPDEST SWAP2 POP PUSH3 0x15E6 DUP3 PUSH3 0x152C JUMP JUMPDEST SWAP2 POP PUSH3 0x15F4 DUP3 DUP5 PUSH3 0x11DB JUMP JUMPDEST SWAP2 POP PUSH3 0x1601 DUP3 PUSH3 0x157C JUMP JUMPDEST SWAP2 POP DUP2 SWAP1 POP SWAP5 SWAP4 POP POP POP POP JUMP JUMPDEST PUSH32 0x44454C4554452046524F4D200000000000000000000000000000000000000000 PUSH1 0x0 DUP3 ADD MSTORE POP JUMP JUMPDEST PUSH1 0x0 PUSH3 0x1646 PUSH1 0xC DUP4 PUSH3 0x11D0 JUMP JUMPDEST SWAP2 POP PUSH3 0x1653 DUP3 PUSH3 0x160E JUMP JUMPDEST PUSH1 0xC DUP3 ADD SWAP1 POP SWAP2 SWAP1 POP JUMP JUMPDEST PUSH32 0x2057484552452000000000000000000000000000000000000000000000000000 PUSH1 0x0 DUP3 ADD MSTORE POP JUMP JUMPDEST PUSH1 0x0 PUSH3 0x1696 PUSH1 0x7 DUP4 PUSH3 0x11D0 JUMP JUMPDEST SWAP2 POP PUSH3 0x16A3 DUP3 PUSH3 0x165E JUMP JUMPDEST PUSH1 0x7 DUP3 ADD SWAP1 POP SWAP2 SWAP1 POP JUMP JUMPDEST PUSH1 0x0 PUSH3 0x16BB DUP3 PUSH3 0x1637 JUMP JUMPDEST SWAP2 POP PUSH3 0x16C9 DUP3 DUP6 PUSH3 0x11DB JUMP JUMPDEST SWAP2 POP PUSH3 0x16D6 DUP3 PUSH3 0x1687 JUMP JUMPDEST SWAP2 POP PUSH3 0x16E4 DUP3 DUP5 PUSH3 0x11DB JUMP JUMPDEST SWAP2 POP DUP2 SWAP1 POP SWAP4 SWAP3 POP POP POP JUMP JUMPDEST PUSH32 0x5F00000000000000000000000000000000000000000000000000000000000000 PUSH1 0x0 DUP3 ADD MSTORE POP JUMP JUMPDEST PUSH1 0x0 PUSH3 0x1728 PUSH1 0x1 DUP4 PUSH3 0x11D0 JUMP JUMPDEST SWAP2 POP PUSH3 0x1735 DUP3 PUSH3 0x16F0 JUMP JUMPDEST PUSH1 0x1 DUP3 ADD SWAP1 POP SWAP2 SWAP1 POP JUMP JUMPDEST PUSH1 0x0 PUSH3 0x174E DUP3 DUP7 PUSH3 0x11DB JUMP JUMPDEST SWAP2 POP PUSH3 0x175B DUP3 PUSH3 0x1719 JUMP JUMPDEST SWAP2 POP PUSH3 0x1769 DUP3 DUP6 PUSH3 0x11DB JUMP JUMPDEST SWAP2 POP PUSH3 0x1776 DUP3 PUSH3 0x1719 JUMP JUMPDEST SWAP2 POP PUSH3 0x1784 DUP3 DUP5 PUSH3 0x11DB JUMP JUMPDEST SWAP2 POP DUP2 SWAP1 POP SWAP5 SWAP4 POP POP POP POP JUMP JUMPDEST PUSH1 0x0 PUSH3 0x179E DUP3 PUSH3 0x1687 JUMP JUMPDEST SWAP2 POP PUSH3 0x17AC DUP3 DUP5 PUSH3 0x11DB JUMP JUMPDEST SWAP2 POP DUP2 SWAP1 POP SWAP3 SWAP2 POP POP JUMP JUMPDEST PUSH32 0x5550444154452000000000000000000000000000000000000000000000000000 PUSH1 0x0 DUP3 ADD MSTORE POP JUMP JUMPDEST PUSH1 0x0 PUSH3 0x17EF PUSH1 0x7 DUP4 PUSH3 0x11D0 JUMP JUMPDEST SWAP2 POP PUSH3 0x17FC DUP3 PUSH3 0x17B7 JUMP JUMPDEST PUSH1 0x7 DUP3 ADD SWAP1 POP SWAP2 SWAP1 POP JUMP JUMPDEST PUSH32 0x2053455420000000000000000000000000000000000000000000000000000000 PUSH1 0x0 DUP3 ADD MSTORE POP JUMP JUMPDEST PUSH1 0x0 PUSH3 0x183F PUSH1 0x5 DUP4 PUSH3 0x11D0 JUMP JUMPDEST SWAP2 POP PUSH3 0x184C DUP3 PUSH3 0x1807 JUMP JUMPDEST PUSH1 0x5 DUP3 ADD SWAP1 POP SWAP2 SWAP1 POP JUMP JUMPDEST PUSH1 0x0 PUSH3 0x1864 DUP3 PUSH3 0x17E0 JUMP JUMPDEST SWAP2 POP PUSH3 0x1872 DUP3 DUP7 PUSH3 0x11DB JUMP JUMPDEST SWAP2 POP PUSH3 0x187F DUP3 PUSH3 0x1830 JUMP JUMPDEST SWAP2 POP PUSH3 0x188D DUP3 DUP6 PUSH3 0x11DB JUMP JUMPDEST SWAP2 POP PUSH3 0x189B DUP3 DUP5 PUSH3 0x11DB JUMP JUMPDEST SWAP2 POP DUP2 SWAP1 POP SWAP5 SWAP4 POP POP POP POP JUMP JUMPDEST PUSH32 0x4E487B7100000000000000000000000000000000000000000000000000000000 PUSH1 0x0 MSTORE PUSH1 0x12 PUSH1 0x4 MSTORE PUSH1 0x24 PUSH1 0x0 REVERT INVALID PUSH1 0x80 PUSH1 0x40 MSTORE CALLVALUE DUP1 ISZERO PUSH3 0x11 JUMPI PUSH1 0x0 DUP1 REVERT JUMPDEST POP PUSH1 0x40 MLOAD PUSH3 0x1EB6 CODESIZE SUB DUP1 PUSH3 0x1EB6 DUP4 CODECOPY DUP2 DUP2 ADD PUSH1 0x40 MSTORE DUP2 ADD SWAP1 PUSH3 0x37 SWAP2 SWAP1 PUSH3 0x288 JUMP JUMPDEST DUP1 PUSH1 0x40 MLOAD DUP1 PUSH1 0x40 ADD PUSH1 0x40 MSTORE DUP1 PUSH1 0x4 DUP2 MSTORE PUSH1 0x20 ADD PUSH32 0x476F6C6400000000000000000000000000000000000000000000000000000000 DUP2 MSTORE POP PUSH1 0x40 MLOAD DUP1 PUSH1 0x40 ADD PUSH1 0x40 MSTORE DUP1 PUSH1 0x3 DUP2 MSTORE PUSH1 0x20 ADD PUSH32 0x474C440000000000000000000000000000000000000000000000000000000000 DUP2 MSTORE POP DUP2 PUSH1 0x3 SWAP1 DUP2 PUSH3 0xB5 SWAP2 SWAP1 PUSH3 0x534 JUMP JUMPDEST POP DUP1 PUSH1 0x4 SWAP1 DUP2 PUSH3 0xC7 SWAP2 SWAP1 PUSH3 0x534 JUMP JUMPDEST POP POP POP PUSH1 0x0 PUSH20 0xFFFFFFFFFFFFFFFFFFFFFFFFFFFFFFFFFFFFFFFF AND DUP2 PUSH20 0xFFFFFFFFFFFFFFFFFFFFFFFFFFFFFFFFFFFFFFFF AND SUB PUSH3 0x13F JUMPI PUSH1 0x0 PUSH1 0x40 MLOAD PUSH32 0x1E4FBDF700000000000000000000000000000000000000000000000000000000 DUP2 MSTORE PUSH1 0x4 ADD PUSH3 0x136 SWAP2 SWAP1 PUSH3 0x62C JUMP JUMPDEST PUSH1 0x40 MLOAD DUP1 SWAP2 SUB SWAP1 REVERT JUMPDEST PUSH3 0x150 DUP2 PUSH3 0x158 PUSH1 0x20 SHL PUSH1 0x20 SHR JUMP JUMPDEST POP POP PUSH3 0x649 JUMP JUMPDEST PUSH1 0x0 PUSH1 0x5 PUSH1 0x0 SWAP1 SLOAD SWAP1 PUSH2 0x100 EXP SWAP1 DIV PUSH20 0xFFFFFFFFFFFFFFFFFFFFFFFFFFFFFFFFFFFFFFFF AND SWAP1 POP DUP2 PUSH1 0x5 PUSH1 0x0 PUSH2 0x100 EXP DUP2 SLOAD DUP2 PUSH20 0xFFFFFFFFFFFFFFFFFFFFFFFFFFFFFFFFFFFFFFFF MUL NOT AND SWAP1 DUP4 PUSH20 0xFFFFFFFFFFFFFFFFFFFFFFFFFFFFFFFFFFFFFFFF AND MUL OR SWAP1 SSTORE POP DUP2 PUSH20 0xFFFFFFFFFFFFFFFFFFFFFFFFFFFFFFFFFFFFFFFF AND DUP2 PUSH20 0xFFFFFFFFFFFFFFFFFFFFFFFFFFFFFFFFFFFFFFFF AND PUSH32 0x8BE0079C531659141344CD1FD0A4F28419497F9722A3DAAFE3B4186F6B6457E0 PUSH1 0x40 MLOAD PUSH1 0x40 MLOAD DUP1 SWAP2 SUB SWAP1 LOG3 POP POP JUMP JUMPDEST PUSH1 0x0 DUP1 REVERT JUMPDEST PUSH1 0x0 PUSH20 0xFFFFFFFFFFFFFFFFFFFFFFFFFFFFFFFFFFFFFFFF DUP3 AND SWAP1 POP SWAP2 SWAP1 POP JUMP JUMPDEST PUSH1 0x0 PUSH3 0x250 DUP3 PUSH3 0x223 JUMP JUMPDEST SWAP1 POP SWAP2 SWAP1 POP JUMP JUMPDEST PUSH3 0x262 DUP2 PUSH3 0x243 JUMP JUMPDEST DUP2 EQ PUSH3 0x26E JUMPI PUSH1 0x0 DUP1 REVERT JUMPDEST POP JUMP JUMPDEST PUSH1 0x0 DUP2 MLOAD SWAP1 POP PUSH3 0x282 DUP2 PUSH3 0x257 JUMP JUMPDEST SWAP3 SWAP2 POP POP JUMP JUMPDEST PUSH1 0x0 PUSH1 0x20 DUP3 DUP5 SUB SLT ISZERO PUSH3 0x2A1 JUMPI PUSH3 0x2A0 PUSH3 0x21E JUMP JUMPDEST JUMPDEST PUSH1 0x0 PUSH3 0x2B1 DUP5 DUP3 DUP6 ADD PUSH3 0x271 JUMP JUMPDEST SWAP2 POP POP SWAP3 SWAP2 POP POP JUMP JUMPDEST PUSH1 0x0 DUP2 MLOAD SWAP1 POP SWAP2 SWAP1 POP JUMP JUMPDEST PUSH32 0x4E487B7100000000000000000000000000000000000000000000000000000000 PUSH1 0x0 MSTORE PUSH1 0x41 PUSH1 0x4 MSTORE PUSH1 0x24 PUSH1 0x0 REVERT JUMPDEST PUSH32 0x4E487B7100000000000000000000000000000000000000000000000000000000 PUSH1 0x0 MSTORE PUSH1 0x22 PUSH1 0x4 MSTORE PUSH1 0x24 PUSH1 0x0 REVERT JUMPDEST PUSH1 0x0 PUSH1 0x2 DUP3 DIV SWAP1 POP PUSH1 0x1 DUP3 AND DUP1 PUSH3 0x33C JUMPI PUSH1 0x7F DUP3 AND SWAP2 POP JUMPDEST PUSH1 0x20 DUP3 LT DUP2 SUB PUSH3 0x352 JUMPI PUSH3 0x351 PUSH3 0x2F4 JUMP JUMPDEST JUMPDEST POP SWAP2 SWAP1 POP JUMP JUMPDEST PUSH1 0x0 DUP2 SWAP1 POP DUP2 PUSH1 0x0 MSTORE PUSH1 0x20 PUSH1 0x0 KECCAK256 SWAP1 POP SWAP2 SWAP1 POP JUMP JUMPDEST PUSH1 0x0 PUSH1 0x20 PUSH1 0x1F DUP4 ADD DIV SWAP1 POP SWAP2 SWAP1 POP JUMP JUMPDEST PUSH1 0x0 DUP3 DUP3 SHL SWAP1 POP SWAP3 SWAP2 POP POP JUMP JUMPDEST PUSH1 0x0 PUSH1 0x8 DUP4 MUL PUSH3 0x3BC PUSH32 0xFFFFFFFFFFFFFFFFFFFFFFFFFFFFFFFFFFFFFFFFFFFFFFFFFFFFFFFFFFFFFFFF DUP3 PUSH3 0x37D JUMP JUMPDEST PUSH3 0x3C8 DUP7 DUP4 PUSH3 0x37D JUMP JUMPDEST SWAP6 POP DUP1 NOT DUP5 AND SWAP4 POP DUP1 DUP7 AND DUP5 OR SWAP3 POP POP POP SWAP4 SWAP3 POP POP POP JUMP JUMPDEST PUSH1 0x0 DUP2 SWAP1 POP SWAP2 SWAP1 POP JUMP JUMPDEST PUSH1 0x0 DUP2 SWAP1 POP SWAP2 SWAP1 POP JUMP JUMPDEST PUSH1 0x0 PUSH3 0x415 PUSH3 0x40F PUSH3 0x409 DUP5 PUSH3 0x3E0 JUMP JUMPDEST PUSH3 0x3EA JUMP JUMPDEST PUSH3 0x3E0 JUMP JUMPDEST SWAP1 POP SWAP2 SWAP1 POP JUMP JUMPDEST PUSH1 0x0 DUP2 SWAP1 POP SWAP2 SWAP1 POP JUMP JUMPDEST PUSH3 0x431 DUP4 PUSH3 0x3F4 JUMP JUMPDEST PUSH3 0x449 PUSH3 0x440 DUP3 PUSH3 0x41C JUMP JUMPDEST DUP5 DUP5 SLOAD PUSH3 0x38A JUMP JUMPDEST DUP3 SSTORE POP POP POP POP JUMP JUMPDEST PUSH1 0x0 SWAP1 JUMP JUMPDEST PUSH3 0x460 PUSH3 0x451 JUMP JUMPDEST PUSH3 0x46D DUP2 DUP5 DUP5 PUSH3 0x426 JUMP JUMPDEST POP POP POP JUMP JUMPDEST JUMPDEST DUP2 DUP2 LT ISZERO PUSH3 0x495 JUMPI PUSH3 0x489 PUSH1 0x0 DUP3 PUSH3 0x456 JUMP JUMPDEST PUSH1 0x1 DUP2 ADD SWAP1 POP PUSH3 0x473 JUMP JUMPDEST POP POP JUMP JUMPDEST PUSH1 0x1F DUP3 GT ISZERO PUSH3 0x4E4 JUMPI PUSH3 0x4AE DUP2 PUSH3 0x358 JUMP JUMPDEST PUSH3 0x4B9 DUP5 PUSH3 0x36D JUMP JUMPDEST DUP2 ADD PUSH1 0x20 DUP6 LT ISZERO PUSH3 0x4C9 JUMPI DUP2 SWAP1 POP JUMPDEST PUSH3 0x4E1 PUSH3 0x4D8 DUP6 PUSH3 0x36D JUMP JUMPDEST DUP4 ADD DUP3 PUSH3 0x472 JUMP JUMPDEST POP POP JUMPDEST POP POP POP JUMP JUMPDEST PUSH1 0x0 DUP3 DUP3 SHR SWAP1 POP SWAP3 SWAP2 POP POP JUMP JUMPDEST PUSH1 0x0 PUSH3 0x509 PUSH1 0x0 NOT DUP5 PUSH1 0x8 MUL PUSH3 0x4E9 JUMP JUMPDEST NOT DUP1 DUP4 AND SWAP2 POP POP SWAP3 SWAP2 POP POP JUMP JUMPDEST PUSH1 0x0 PUSH3 0x524 DUP4 DUP4 PUSH3 0x4F6 JUMP JUMPDEST SWAP2 POP DUP3 PUSH1 0x2 MUL DUP3 OR SWAP1 POP SWAP3 SWAP2 POP POP JUMP JUMPDEST PUSH3 0x53F DUP3 PUSH3 0x2BA JUMP JUMPDEST PUSH8 0xFFFFFFFFFFFFFFFF DUP2 GT ISZERO PUSH3 0x55B JUMPI PUSH3 0x55A PUSH3 0x2C5 JUMP JUMPDEST JUMPDEST PUSH3 0x567 DUP3 SLOAD PUSH3 0x323 JUMP JUMPDEST PUSH3 0x574 DUP3 DUP3 DUP6 PUSH3 0x499 JUMP JUMPDEST PUSH1 0x0 PUSH1 0x20 SWAP1 POP PUSH1 0x1F DUP4 GT PUSH1 0x1 DUP2 EQ PUSH3 0x5AC JUMPI PUSH1 0x0 DUP5 ISZERO PUSH3 0x597 JUMPI DUP3 DUP8 ADD MLOAD SWAP1 POP JUMPDEST PUSH3 0x5A3 DUP6 DUP3 PUSH3 0x516 JUMP JUMPDEST DUP7 SSTORE POP PUSH3 0x613 JUMP JUMPDEST PUSH1 0x1F NOT DUP5 AND PUSH3 0x5BC DUP7 PUSH3 0x358 JUMP JUMPDEST PUSH1 0x0 JUMPDEST DUP3 DUP2 LT ISZERO PUSH3 0x5E6 JUMPI DUP5 DUP10 ADD MLOAD DUP3 SSTORE PUSH1 0x1 DUP3 ADD SWAP2 POP PUSH1 0x20 DUP6 ADD SWAP5 POP PUSH1 0x20 DUP2 ADD SWAP1 POP PUSH3 0x5BF JUMP JUMPDEST DUP7 DUP4 LT ISZERO PUSH3 0x606 JUMPI DUP5 DUP10 ADD MLOAD PUSH3 0x602 PUSH1 0x1F DUP10 AND DUP3 PUSH3 0x4F6 JUMP JUMPDEST DUP4 SSTORE POP JUMPDEST PUSH1 0x1 PUSH1 0x2 DUP9 MUL ADD DUP9 SSTORE POP POP POP JUMPDEST POP POP POP POP POP POP JUMP JUMPDEST PUSH3 0x626 DUP2 PUSH3 0x243 JUMP JUMPDEST DUP3 MSTORE POP POP JUMP JUMPDEST PUSH1 0x0 PUSH1 0x20 DUP3 ADD SWAP1 POP PUSH3 0x643 PUSH1 0x0 DUP4 ADD DUP5 PUSH3 0x61B JUMP JUMPDEST SWAP3 SWAP2 POP POP JUMP JUMPDEST PUSH2 0x185D DUP1 PUSH3 0x659 PUSH1 0x0 CODECOPY PUSH1 0x0 RETURN INVALID PUSH1 0x80 PUSH1 0x40 MSTORE PUSH1 0x4 CALLDATASIZE LT PUSH2 0x108 JUMPI PUSH1 0x0 CALLDATALOAD PUSH1 0xE0 SHR DUP1 PUSH4 0x8DA5CB5B GT PUSH2 0x95 JUMPI DUP1 PUSH4 0xCDBB02AF GT PUSH2 0x64 JUMPI DUP1 PUSH4 0xCDBB02AF EQ PUSH2 0x35F JUMPI DUP1 PUSH4 0xD0E30DB0 EQ PUSH2 0x38A JUMPI DUP1 PUSH4 0xDD62ED3E EQ PUSH2 0x394 JUMPI DUP1 PUSH4 0xE9D80020 EQ PUSH2 0x3D1 JUMPI DUP1 PUSH4 0xF2FDE38B EQ PUSH2 0x40E JUMPI PUSH2 0x108 JUMP JUMPDEST DUP1 PUSH4 0x8DA5CB5B EQ PUSH2 0x2AE JUMPI DUP1 PUSH4 0x95D89B41 EQ PUSH2 0x2D9 JUMPI DUP1 PUSH4 0xA6F2AE3A EQ PUSH2 0x304 JUMPI DUP1 PUSH4 0xA9059CBB EQ PUSH2 0x322 JUMPI PUSH2 0x108 JUMP JUMPDEST DUP1 PUSH4 0x19AA4AA8 GT PUSH2 0xDC JUMPI DUP1 PUSH4 0x19AA4AA8 EQ PUSH2 0x1C9 JUMPI DUP1 PUSH4 0x23B872DD EQ PUSH2 0x1F2 JUMPI DUP1 PUSH4 0x313CE567 EQ PUSH2 0x22F JUMPI DUP1 PUSH4 0x70A08231 EQ PUSH2 0x25A JUMPI DUP1 PUSH4 0x715018A6 EQ PUSH2 0x297 JUMPI PUSH2 0x108 JUMP JUMPDEST DUP1 PUSH3 0xF714CE EQ PUSH2 0x10D JUMPI DUP1 PUSH4 0x6FDDE03 EQ PUSH2 0x136 JUMPI DUP1 PUSH4 0x95EA7B3 EQ PUSH2 0x161 JUMPI DUP1 PUSH4 0x18160DDD EQ PUSH2 0x19E JUMPI JUMPDEST PUSH1 0x0 DUP1 REVERT JUMPDEST CALLVALUE DUP1 ISZERO PUSH2 0x119 JUMPI PUSH1 0x0 DUP1 REVERT JUMPDEST POP PUSH2 0x134 PUSH1 0x4 DUP1 CALLDATASIZE SUB DUP2 ADD SWAP1 PUSH2 0x12F SWAP2 SWAP1 PUSH2 0x129A JUMP JUMPDEST PUSH2 0x437 JUMP JUMPDEST STOP JUMPDEST CALLVALUE DUP1 ISZERO PUSH2 0x142 JUMPI PUSH1 0x0 DUP1 REVERT JUMPDEST POP PUSH2 0x14B PUSH2 0x504 JUMP JUMPDEST PUSH1 0x40 MLOAD PUSH2 0x158 SWAP2 SWAP1 PUSH2 0x136A JUMP JUMPDEST PUSH1 0x40 MLOAD DUP1 SWAP2 SUB SWAP1 RETURN JUMPDEST CALLVALUE DUP1 ISZERO PUSH2 0x16D JUMPI PUSH1 0x0 DUP1 REVERT JUMPDEST POP PUSH2 0x188 PUSH1 0x4 DUP1 CALLDATASIZE SUB DUP2 ADD SWAP1 PUSH2 0x183 SWAP2 SWAP1 PUSH2 0x138C JUMP JUMPDEST PUSH2 0x596 JUMP JUMPDEST PUSH1 0x40 MLOAD PUSH2 0x195 SWAP2 SWAP1 PUSH2 0x13E7 JUMP JUMPDEST PUSH1 0x40 MLOAD DUP1 SWAP2 SUB SWAP1 RETURN JUMPDEST CALLVALUE DUP1 ISZERO PUSH2 0x1AA JUMPI PUSH1 0x0 DUP1 REVERT JUMPDEST POP PUSH2 0x1B3 PUSH2 0x5B9 JUMP JUMPDEST PUSH1 0x40 MLOAD PUSH2 0x1C0 SWAP2 SWAP1 PUSH2 0x1411 JUMP JUMPDEST PUSH1 0x40 MLOAD DUP1 SWAP2 SUB SWAP1 RETURN JUMPDEST CALLVALUE DUP1 ISZERO PUSH2 0x1D5 JUMPI PUSH1 0x0 DUP1 REVERT JUMPDEST POP PUSH2 0x1F0 PUSH1 0x4 DUP1 CALLDATASIZE SUB DUP2 ADD SWAP1 PUSH2 0x1EB SWAP2 SWAP1 PUSH2 0x142C JUMP JUMPDEST PUSH2 0x5C3 JUMP JUMPDEST STOP JUMPDEST CALLVALUE DUP1 ISZERO PUSH2 0x1FE JUMPI PUSH1 0x0 DUP1 REVERT JUMPDEST POP PUSH2 0x219 PUSH1 0x4 DUP1 CALLDATASIZE SUB DUP2 ADD SWAP1 PUSH2 0x214 SWAP2 SWAP1 PUSH2 0x146C JUMP JUMPDEST PUSH2 0x654 JUMP JUMPDEST PUSH1 0x40 MLOAD PUSH2 0x226 SWAP2 SWAP1 PUSH2 0x13E7 JUMP JUMPDEST PUSH1 0x40 MLOAD DUP1 SWAP2 SUB SWAP1 RETURN JUMPDEST CALLVALUE DUP1 ISZERO PUSH2 0x23B JUMPI PUSH1 0x0 DUP1 REVERT JUMPDEST POP PUSH2 0x244 PUSH2 0x683 JUMP JUMPDEST PUSH1 0x40 MLOAD PUSH2 0x251 SWAP2 SWAP1 PUSH2 0x14DB JUMP JUMPDEST PUSH1 0x40 MLOAD DUP1 SWAP2 SUB SWAP1 RETURN JUMPDEST CALLVALUE DUP1 ISZERO PUSH2 0x266 JUMPI PUSH1 0x0 DUP1 REVERT JUMPDEST POP PUSH2 0x281 PUSH1 0x4 DUP1 CALLDATASIZE SUB DUP2 ADD SWAP1 PUSH2 0x27C SWAP2 SWAP1 PUSH2 0x14F6 JUMP JUMPDEST PUSH2 0x68C JUMP JUMPDEST PUSH1 0x40 MLOAD PUSH2 0x28E SWAP2 SWAP1 PUSH2 0x1411 JUMP JUMPDEST PUSH1 0x40 MLOAD DUP1 SWAP2 SUB SWAP1 RETURN JUMPDEST CALLVALUE DUP1 ISZERO PUSH2 0x2A3 JUMPI PUSH1 0x0 DUP1 REVERT JUMPDEST POP PUSH2 0x2AC PUSH2 0x6D4 JUMP JUMPDEST STOP JUMPDEST CALLVALUE DUP1 ISZERO PUSH2 0x2BA JUMPI PUSH1 0x0 DUP1 REVERT JUMPDEST POP PUSH2 0x2C3 PUSH2 0x6E8 JUMP JUMPDEST PUSH1 0x40 MLOAD PUSH2 0x2D0 SWAP2 SWAP1 PUSH2 0x1532 JUMP JUMPDEST PUSH1 0x40 MLOAD DUP1 SWAP2 SUB SWAP1 RETURN JUMPDEST CALLVALUE DUP1 ISZERO PUSH2 0x2E5 JUMPI PUSH1 0x0 DUP1 REVERT JUMPDEST POP PUSH2 0x2EE PUSH2 0x712 JUMP JUMPDEST PUSH1 0x40 MLOAD PUSH2 0x2FB SWAP2 SWAP1 PUSH2 0x136A JUMP JUMPDEST PUSH1 0x40 MLOAD DUP1 SWAP2 SUB SWAP1 RETURN JUMPDEST PUSH2 0x30C PUSH2 0x7A4 JUMP JUMPDEST PUSH1 0x40 MLOAD PUSH2 0x319 SWAP2 SWAP1 PUSH2 0x1411 JUMP JUMPDEST PUSH1 0x40 MLOAD DUP1 SWAP2 SUB SWAP1 RETURN JUMPDEST CALLVALUE DUP1 ISZERO PUSH2 0x32E JUMPI PUSH1 0x0 DUP1 REVERT JUMPDEST POP PUSH2 0x349 PUSH1 0x4 DUP1 CALLDATASIZE SUB DUP2 ADD SWAP1 PUSH2 0x344 SWAP2 SWAP1 PUSH2 0x138C JUMP JUMPDEST PUSH2 0x89C JUMP JUMPDEST PUSH1 0x40 MLOAD PUSH2 0x356 SWAP2 SWAP1 PUSH2 0x13E7 JUMP JUMPDEST PUSH1 0x40 MLOAD DUP1 SWAP2 SUB SWAP1 RETURN JUMPDEST CALLVALUE DUP1 ISZERO PUSH2 0x36B JUMPI PUSH1 0x0 DUP1 REVERT JUMPDEST POP PUSH2 0x374 PUSH2 0x8BF JUMP JUMPDEST PUSH1 0x40 MLOAD PUSH2 0x381 SWAP2 SWAP1 PUSH2 0x1411 JUMP JUMPDEST PUSH1 0x40 MLOAD DUP1 SWAP2 SUB SWAP1 RETURN JUMPDEST PUSH2 0x392 PUSH2 0x8CC JUMP JUMPDEST STOP JUMPDEST CALLVALUE DUP1 ISZERO PUSH2 0x3A0 JUMPI PUSH1 0x0 DUP1 REVERT JUMPDEST POP PUSH2 0x3BB PUSH1 0x4 DUP1 CALLDATASIZE SUB DUP2 ADD SWAP1 PUSH2 0x3B6 SWAP2 SWAP1 PUSH2 0x154D JUMP JUMPDEST PUSH2 0x948 JUMP JUMPDEST PUSH1 0x40 MLOAD PUSH2 0x3C8 SWAP2 SWAP1 PUSH2 0x1411 JUMP JUMPDEST PUSH1 0x40 MLOAD DUP1 SWAP2 SUB SWAP1 RETURN JUMPDEST CALLVALUE DUP1 ISZERO PUSH2 0x3DD JUMPI PUSH1 0x0 DUP1 REVERT JUMPDEST POP PUSH2 0x3F8 PUSH1 0x4 DUP1 CALLDATASIZE SUB DUP2 ADD SWAP1 PUSH2 0x3F3 SWAP2 SWAP1 PUSH2 0x158D JUMP JUMPDEST PUSH2 0x9CF JUMP JUMPDEST PUSH1 0x40 MLOAD PUSH2 0x405 SWAP2 SWAP1 PUSH2 0x1532 JUMP JUMPDEST PUSH1 0x40 MLOAD DUP1 SWAP2 SUB SWAP1 RETURN JUMPDEST CALLVALUE DUP1 ISZERO PUSH2 0x41A JUMPI PUSH1 0x0 DUP1 REVERT JUMPDEST POP PUSH2 0x435 PUSH1 0x4 DUP1 CALLDATASIZE SUB DUP2 ADD SWAP1 PUSH2 0x430 SWAP2 SWAP1 PUSH2 0x14F6 JUMP JUMPDEST PUSH2 0xA0E JUMP JUMPDEST STOP JUMPDEST PUSH2 0x43F PUSH2 0xA94 JUMP JUMPDEST DUP2 SELFBALANCE LT ISZERO PUSH2 0x482 JUMPI PUSH1 0x40 MLOAD PUSH32 0x8C379A000000000000000000000000000000000000000000000000000000000 DUP2 MSTORE PUSH1 0x4 ADD PUSH2 0x479 SWAP1 PUSH2 0x1606 JUMP JUMPDEST PUSH1 0x40 MLOAD DUP1 SWAP2 SUB SWAP1 REVERT JUMPDEST DUP1 PUSH20 0xFFFFFFFFFFFFFFFFFFFFFFFFFFFFFFFFFFFFFFFF AND PUSH2 0x8FC DUP4 SWAP1 DUP2 ISZERO MUL SWAP1 PUSH1 0x40 MLOAD PUSH1 0x0 PUSH1 0x40 MLOAD DUP1 DUP4 SUB DUP2 DUP6 DUP9 DUP9 CALL SWAP4 POP POP POP POP ISZERO DUP1 ISZERO PUSH2 0x4C8 JUMPI RETURNDATASIZE PUSH1 0x0 DUP1 RETURNDATACOPY RETURNDATASIZE PUSH1 0x0 REVERT JUMPDEST POP PUSH32 0x5B6B431D4476A211BB7D41C20D1AAB9AE2321DEEE0D20BE3D9FC9B1093FA6E3D DUP3 PUSH1 0x40 MLOAD PUSH2 0x4F8 SWAP2 SWAP1 PUSH2 0x1411 JUMP JUMPDEST PUSH1 0x40 MLOAD DUP1 SWAP2 SUB SWAP1 LOG1 POP POP JUMP JUMPDEST PUSH1 0x60 PUSH1 0x3 DUP1 SLOAD PUSH2 0x513 SWAP1 PUSH2 0x1655 JUMP JUMPDEST DUP1 PUSH1 0x1F ADD PUSH1 0x20 DUP1 SWAP2 DIV MUL PUSH1 0x20 ADD PUSH1 0x40 MLOAD SWAP1 DUP2 ADD PUSH1 0x40 MSTORE DUP1 SWAP3 SWAP2 SWAP1 DUP2 DUP2 MSTORE PUSH1 0x20 ADD DUP3 DUP1 SLOAD PUSH2 0x53F SWAP1 PUSH2 0x1655 JUMP JUMPDEST DUP1 ISZERO PUSH2 0x58C JUMPI DUP1 PUSH1 0x1F LT PUSH2 0x561 JUMPI PUSH2 0x100 DUP1 DUP4 SLOAD DIV MUL DUP4 MSTORE SWAP2 PUSH1 0x20 ADD SWAP2 PUSH2 0x58C JUMP JUMPDEST DUP3 ADD SWAP2 SWAP1 PUSH1 0x0 MSTORE PUSH1 0x20 PUSH1 0x0 KECCAK256 SWAP1 JUMPDEST DUP2 SLOAD DUP2 MSTORE SWAP1 PUSH1 0x1 ADD SWAP1 PUSH1 0x20 ADD DUP1 DUP4 GT PUSH2 0x56F JUMPI DUP3 SWAP1 SUB PUSH1 0x1F AND DUP3 ADD SWAP2 JUMPDEST POP POP POP POP POP SWAP1 POP SWAP1 JUMP JUMPDEST PUSH1 0x0 DUP1 PUSH2 0x5A1 PUSH2 0xB1B JUMP JUMPDEST SWAP1 POP PUSH2 0x5AE DUP2 DUP6 DUP6 PUSH2 0xB23 JUMP JUMPDEST PUSH1 0x1 SWAP2 POP POP SWAP3 SWAP2 POP POP JUMP JUMPDEST PUSH1 0x0 PUSH1 0x2 SLOAD SWAP1 POP SWAP1 JUMP JUMPDEST PUSH2 0x5CB PUSH2 0xA94 JUMP JUMPDEST PUSH1 0x6 DUP2 DUP2 SLOAD DUP2 LT PUSH2 0x5DF JUMPI PUSH2 0x5DE PUSH2 0x1686 JUMP JUMPDEST JUMPDEST SWAP1 PUSH1 0x0 MSTORE PUSH1 0x20 PUSH1 0x0 KECCAK256 ADD PUSH1 0x0 SWAP1 SLOAD SWAP1 PUSH2 0x100 EXP SWAP1 DIV PUSH20 0xFFFFFFFFFFFFFFFFFFFFFFFFFFFFFFFFFFFFFFFF AND PUSH20 0xFFFFFFFFFFFFFFFFFFFFFFFFFFFFFFFFFFFFFFFF AND PUSH2 0x8FC DUP4 SWAP1 DUP2 ISZERO MUL SWAP1 PUSH1 0x40 MLOAD PUSH1 0x0 PUSH1 0x40 MLOAD DUP1 DUP4 SUB DUP2 DUP6 DUP9 DUP9 CALL SWAP4 POP POP POP POP ISZERO DUP1 ISZERO PUSH2 0x64F JUMPI RETURNDATASIZE PUSH1 0x0 DUP1 RETURNDATACOPY RETURNDATASIZE PUSH1 0x0 REVERT JUMPDEST POP POP POP JUMP JUMPDEST PUSH1 0x0 DUP1 PUSH2 0x65F PUSH2 0xB1B JUMP JUMPDEST SWAP1 POP PUSH2 0x66C DUP6 DUP3 DUP6 PUSH2 0xB35 JUMP JUMPDEST PUSH2 0x677 DUP6 DUP6 DUP6 PUSH2 0xBC9 JUMP JUMPDEST PUSH1 0x1 SWAP2 POP POP SWAP4 SWAP3 POP POP POP JUMP JUMPDEST PUSH1 0x0 PUSH1 0x12 SWAP1 POP SWAP1 JUMP JUMPDEST PUSH1 0x0 DUP1 PUSH1 0x0 DUP4 PUSH20 0xFFFFFFFFFFFFFFFFFFFFFFFFFFFFFFFFFFFFFFFF AND PUSH20 0xFFFFFFFFFFFFFFFFFFFFFFFFFFFFFFFFFFFFFFFF AND DUP2 MSTORE PUSH1 0x20 ADD SWAP1 DUP2 MSTORE PUSH1 0x20 ADD PUSH1 0x0 KECCAK256 SLOAD SWAP1 POP SWAP2 SWAP1 POP JUMP JUMPDEST PUSH2 0x6DC PUSH2 0xA94 JUMP JUMPDEST PUSH2 0x6E6 PUSH1 0x0 PUSH2 0xCBD JUMP JUMPDEST JUMP JUMPDEST PUSH1 0x0 PUSH1 0x5 PUSH1 0x0 SWAP1 SLOAD SWAP1 PUSH2 0x100 EXP SWAP1 DIV PUSH20 0xFFFFFFFFFFFFFFFFFFFFFFFFFFFFFFFFFFFFFFFF AND SWAP1 POP SWAP1 JUMP JUMPDEST PUSH1 0x60 PUSH1 0x4 DUP1 SLOAD PUSH2 0x721 SWAP1 PUSH2 0x1655 JUMP JUMPDEST DUP1 PUSH1 0x1F ADD PUSH1 0x20 DUP1 SWAP2 DIV MUL PUSH1 0x20 ADD PUSH1 0x40 MLOAD SWAP1 DUP2 ADD PUSH1 0x40 MSTORE DUP1 SWAP3 SWAP2 SWAP1 DUP2 DUP2 MSTORE PUSH1 0x20 ADD DUP3 DUP1 SLOAD PUSH2 0x74D SWAP1 PUSH2 0x1655 JUMP JUMPDEST DUP1 ISZERO PUSH2 0x79A JUMPI DUP1 PUSH1 0x1F LT PUSH2 0x76F JUMPI PUSH2 0x100 DUP1 DUP4 SLOAD DIV MUL DUP4 MSTORE SWAP2 PUSH1 0x20 ADD SWAP2 PUSH2 0x79A JUMP JUMPDEST DUP3 ADD SWAP2 SWAP1 PUSH1 0x0 MSTORE PUSH1 0x20 PUSH1 0x0 KECCAK256 SWAP1 JUMPDEST DUP2 SLOAD DUP2 MSTORE SWAP1 PUSH1 0x1 ADD SWAP1 PUSH1 0x20 ADD DUP1 DUP4 GT PUSH2 0x77D JUMPI DUP3 SWAP1 SUB PUSH1 0x1F AND DUP3 ADD SWAP2 JUMPDEST POP POP POP POP POP SWAP1 POP SWAP1 JUMP JUMPDEST PUSH1 0x0 DUP1 CALLVALUE GT PUSH2 0x7E8 JUMPI PUSH1 0x40 MLOAD PUSH32 0x8C379A000000000000000000000000000000000000000000000000000000000 DUP2 MSTORE PUSH1 0x4 ADD PUSH2 0x7DF SWAP1 PUSH2 0x1701 JUMP JUMPDEST PUSH1 0x40 MLOAD DUP1 SWAP2 SUB SWAP1 REVERT JUMPDEST PUSH1 0x0 CALLVALUE SWAP1 POP PUSH2 0x7F7 CALLER DUP3 PUSH2 0xD83 JUMP JUMPDEST PUSH1 0x6 CALLER SWAP1 DUP1 PUSH1 0x1 DUP2 SLOAD ADD DUP1 DUP3 SSTORE DUP1 SWAP2 POP POP PUSH1 0x1 SWAP1 SUB SWAP1 PUSH1 0x0 MSTORE PUSH1 0x20 PUSH1 0x0 KECCAK256 ADD PUSH1 0x0 SWAP1 SWAP2 SWAP1 SWAP2 SWAP1 SWAP2 PUSH2 0x100 EXP DUP2 SLOAD DUP2 PUSH20 0xFFFFFFFFFFFFFFFFFFFFFFFFFFFFFFFFFFFFFFFF MUL NOT AND SWAP1 DUP4 PUSH20 0xFFFFFFFFFFFFFFFFFFFFFFFFFFFFFFFFFFFFFFFF AND MUL OR SWAP1 SSTORE POP PUSH32 0xA9A40DEC7A304E5915D11358B968C1E8D365992ABF20F82285D1DF1B30C8E24C CALLER CALLVALUE DUP4 PUSH1 0x40 MLOAD PUSH2 0x88D SWAP4 SWAP3 SWAP2 SWAP1 PUSH2 0x1721 JUMP JUMPDEST PUSH1 0x40 MLOAD DUP1 SWAP2 SUB SWAP1 LOG1 DUP1 SWAP2 POP POP SWAP1 JUMP JUMPDEST PUSH1 0x0 DUP1 PUSH2 0x8A7 PUSH2 0xB1B JUMP JUMPDEST SWAP1 POP PUSH2 0x8B4 DUP2 DUP6 DUP6 PUSH2 0xBC9 JUMP JUMPDEST PUSH1 0x1 SWAP2 POP POP SWAP3 SWAP2 POP POP JUMP JUMPDEST PUSH1 0x0 PUSH1 0x6 DUP1 SLOAD SWAP1 POP SWAP1 POP SWAP1 JUMP JUMPDEST PUSH1 0x0 CALLVALUE GT PUSH2 0x90F JUMPI PUSH1 0x40 MLOAD PUSH32 0x8C379A000000000000000000000000000000000000000000000000000000000 DUP2 MSTORE PUSH1 0x4 ADD PUSH2 0x906 SWAP1 PUSH2 0x17A4 JUMP JUMPDEST PUSH1 0x40 MLOAD DUP1 SWAP2 SUB SWAP1 REVERT JUMPDEST PUSH32 0x4D6CE1E535DBADE1C23DEFBA91E23B8F791CE5EDC0CC320257A2B364E4E38426 CALLVALUE PUSH1 0x40 MLOAD PUSH2 0x93E SWAP2 SWAP1 PUSH2 0x1411 JUMP JUMPDEST PUSH1 0x40 MLOAD DUP1 SWAP2 SUB SWAP1 LOG1 JUMP JUMPDEST PUSH1 0x0 PUSH1 0x1 PUSH1 0x0 DUP5 PUSH20 0xFFFFFFFFFFFFFFFFFFFFFFFFFFFFFFFFFFFFFFFF AND PUSH20 0xFFFFFFFFFFFFFFFFFFFFFFFFFFFFFFFFFFFFFFFF AND DUP2 MSTORE PUSH1 0x20 ADD SWAP1 DUP2 MSTORE PUSH1 0x20 ADD PUSH1 0x0 KECCAK256 PUSH1 0x0 DUP4 PUSH20 0xFFFFFFFFFFFFFFFFFFFFFFFFFFFFFFFFFFFFFFFF AND PUSH20 0xFFFFFFFFFFFFFFFFFFFFFFFFFFFFFFFFFFFFFFFF AND DUP2 MSTORE PUSH1 0x20 ADD SWAP1 DUP2 MSTORE PUSH1 0x20 ADD PUSH1 0x0 KECCAK256 SLOAD SWAP1 POP SWAP3 SWAP2 POP POP JUMP JUMPDEST PUSH1 0x6 DUP2 DUP2 SLOAD DUP2 LT PUSH2 0x9DF JUMPI PUSH1 0x0 DUP1 REVERT JUMPDEST SWAP1 PUSH1 0x0 MSTORE PUSH1 0x20 PUSH1 0x0 KECCAK256 ADD PUSH1 0x0 SWAP2 POP SLOAD SWAP1 PUSH2 0x100 EXP SWAP1 DIV PUSH20 0xFFFFFFFFFFFFFFFFFFFFFFFFFFFFFFFFFFFFFFFF AND DUP2 JUMP JUMPDEST PUSH2 0xA16 PUSH2 0xA94 JUMP JUMPDEST PUSH1 0x0 PUSH20 0xFFFFFFFFFFFFFFFFFFFFFFFFFFFFFFFFFFFFFFFF AND DUP2 PUSH20 0xFFFFFFFFFFFFFFFFFFFFFFFFFFFFFFFFFFFFFFFF AND SUB PUSH2 0xA88 JUMPI PUSH1 0x0 PUSH1 0x40 MLOAD PUSH32 0x1E4FBDF700000000000000000000000000000000000000000000000000000000 DUP2 MSTORE PUSH1 0x4 ADD PUSH2 0xA7F SWAP2 SWAP1 PUSH2 0x1532 JUMP JUMPDEST PUSH1 0x40 MLOAD DUP1 SWAP2 SUB SWAP1 REVERT JUMPDEST PUSH2 0xA91 DUP2 PUSH2 0xCBD JUMP JUMPDEST POP JUMP JUMPDEST PUSH2 0xA9C PUSH2 0xB1B JUMP JUMPDEST PUSH20 0xFFFFFFFFFFFFFFFFFFFFFFFFFFFFFFFFFFFFFFFF AND PUSH2 0xABA PUSH2 0x6E8 JUMP JUMPDEST PUSH20 0xFFFFFFFFFFFFFFFFFFFFFFFFFFFFFFFFFFFFFFFF AND EQ PUSH2 0xB19 JUMPI PUSH2 0xADD PUSH2 0xB1B JUMP JUMPDEST PUSH1 0x40 MLOAD PUSH32 0x118CDAA700000000000000000000000000000000000000000000000000000000 DUP2 MSTORE PUSH1 0x4 ADD PUSH2 0xB10 SWAP2 SWAP1 PUSH2 0x1532 JUMP JUMPDEST PUSH1 0x40 MLOAD DUP1 SWAP2 SUB SWAP1 REVERT JUMPDEST JUMP JUMPDEST PUSH1 0x0 CALLER SWAP1 POP SWAP1 JUMP JUMPDEST PUSH2 0xB30 DUP4 DUP4 DUP4 PUSH1 0x1 PUSH2 0xE05 JUMP JUMPDEST POP POP POP JUMP JUMPDEST PUSH1 0x0 PUSH2 0xB41 DUP5 DUP5 PUSH2 0x948 JUMP JUMPDEST SWAP1 POP PUSH32 0xFFFFFFFFFFFFFFFFFFFFFFFFFFFFFFFFFFFFFFFFFFFFFFFFFFFFFFFFFFFFFFFF DUP2 EQ PUSH2 0xBC3 JUMPI DUP2 DUP2 LT ISZERO PUSH2 0xBB3 JUMPI DUP3 DUP2 DUP4 PUSH1 0x40 MLOAD PUSH32 0xFB8F41B200000000000000000000000000000000000000000000000000000000 DUP2 MSTORE PUSH1 0x4 ADD PUSH2 0xBAA SWAP4 SWAP3 SWAP2 SWAP1 PUSH2 0x1721 JUMP JUMPDEST PUSH1 0x40 MLOAD DUP1 SWAP2 SUB SWAP1 REVERT JUMPDEST PUSH2 0xBC2 DUP5 DUP5 DUP5 DUP5 SUB PUSH1 0x0 PUSH2 0xE05 JUMP JUMPDEST JUMPDEST POP POP POP POP JUMP JUMPDEST PUSH1 0x0 PUSH20 0xFFFFFFFFFFFFFFFFFFFFFFFFFFFFFFFFFFFFFFFF AND DUP4 PUSH20 0xFFFFFFFFFFFFFFFFFFFFFFFFFFFFFFFFFFFFFFFF AND SUB PUSH2 0xC3B JUMPI PUSH1 0x0 PUSH1 0x40 MLOAD PUSH32 0x96C6FD1E00000000000000000000000000000000000000000000000000000000 DUP2 MSTORE PUSH1 0x4 ADD PUSH2 0xC32 SWAP2 SWAP1 PUSH2 0x1532 JUMP JUMPDEST PUSH1 0x40 MLOAD DUP1 SWAP2 SUB SWAP1 REVERT JUMPDEST PUSH1 0x0 PUSH20 0xFFFFFFFFFFFFFFFFFFFFFFFFFFFFFFFFFFFFFFFF AND DUP3 PUSH20 0xFFFFFFFFFFFFFFFFFFFFFFFFFFFFFFFFFFFFFFFF AND SUB PUSH2 0xCAD JUMPI PUSH1 0x0 PUSH1 0x40 MLOAD PUSH32 0xEC442F0500000000000000000000000000000000000000000000000000000000 DUP2 MSTORE PUSH1 0x4 ADD PUSH2 0xCA4 SWAP2 SWAP1 PUSH2 0x1532 JUMP JUMPDEST PUSH1 0x40 MLOAD DUP1 SWAP2 SUB SWAP1 REVERT JUMPDEST PUSH2 0xCB8 DUP4 DUP4 DUP4 PUSH2 0xFDC JUMP JUMPDEST POP POP POP JUMP JUMPDEST PUSH1 0x0 PUSH1 0x5 PUSH1 0x0 SWAP1 SLOAD SWAP1 PUSH2 0x100 EXP SWAP1 DIV PUSH20 0xFFFFFFFFFFFFFFFFFFFFFFFFFFFFFFFFFFFFFFFF AND SWAP1 POP DUP2 PUSH1 0x5 PUSH1 0x0 PUSH2 0x100 EXP DUP2 SLOAD DUP2 PUSH20 0xFFFFFFFFFFFFFFFFFFFFFFFFFFFFFFFFFFFFFFFF MUL NOT AND SWAP1 DUP4 PUSH20 0xFFFFFFFFFFFFFFFFFFFFFFFFFFFFFFFFFFFFFFFF AND MUL OR SWAP1 SSTORE POP DUP2 PUSH20 0xFFFFFFFFFFFFFFFFFFFFFFFFFFFFFFFFFFFFFFFF AND DUP2 PUSH20 0xFFFFFFFFFFFFFFFFFFFFFFFFFFFFFFFFFFFFFFFF AND PUSH32 0x8BE0079C531659141344CD1FD0A4F28419497F9722A3DAAFE3B4186F6B6457E0 PUSH1 0x40 MLOAD PUSH1 0x40 MLOAD DUP1 SWAP2 SUB SWAP1 LOG3 POP POP JUMP JUMPDEST PUSH1 0x0 PUSH20 0xFFFFFFFFFFFFFFFFFFFFFFFFFFFFFFFFFFFFFFFF AND DUP3 PUSH20 0xFFFFFFFFFFFFFFFFFFFFFFFFFFFFFFFFFFFFFFFF AND SUB PUSH2 0xDF5 JUMPI PUSH1 0x0 PUSH1 0x40 MLOAD PUSH32 0xEC442F0500000000000000000000000000000000000000000000000000000000 DUP2 MSTORE PUSH1 0x4 ADD PUSH2 0xDEC SWAP2 SWAP1 PUSH2 0x1532 JUMP JUMPDEST PUSH1 0x40 MLOAD DUP1 SWAP2 SUB SWAP1 REVERT JUMPDEST PUSH2 0xE01 PUSH1 0x0 DUP4 DUP4 PUSH2 0xFDC JUMP JUMPDEST POP POP JUMP JUMPDEST PUSH1 0x0 PUSH20 0xFFFFFFFFFFFFFFFFFFFFFFFFFFFFFFFFFFFFFFFF AND DUP5 PUSH20 0xFFFFFFFFFFFFFFFFFFFFFFFFFFFFFFFFFFFFFFFF AND SUB PUSH2 0xE77 JUMPI PUSH1 0x0 PUSH1 0x40 MLOAD PUSH32 0xE602DF0500000000000000000000000000000000000000000000000000000000 DUP2 MSTORE PUSH1 0x4 ADD PUSH2 0xE6E SWAP2 SWAP1 PUSH2 0x1532 JUMP JUMPDEST PUSH1 0x40 MLOAD DUP1 SWAP2 SUB SWAP1 REVERT JUMPDEST PUSH1 0x0 PUSH20 0xFFFFFFFFFFFFFFFFFFFFFFFFFFFFFFFFFFFFFFFF AND DUP4 PUSH20 0xFFFFFFFFFFFFFFFFFFFFFFFFFFFFFFFFFFFFFFFF AND SUB PUSH2 0xEE9 JUMPI PUSH1 0x0 PUSH1 0x40 MLOAD PUSH32 0x94280D6200000000000000000000000000000000000000000000000000000000 DUP2 MSTORE PUSH1 0x4 ADD PUSH2 0xEE0 SWAP2 SWAP1 PUSH2 0x1532 JUMP JUMPDEST PUSH1 0x40 MLOAD DUP1 SWAP2 SUB SWAP1 REVERT JUMPDEST DUP2 PUSH1 0x1 PUSH1 0x0 DUP7 PUSH20 0xFFFFFFFFFFFFFFFFFFFFFFFFFFFFFFFFFFFFFFFF AND PUSH20 0xFFFFFFFFFFFFFFFFFFFFFFFFFFFFFFFFFFFFFFFF AND DUP2 MSTORE PUSH1 0x20 ADD SWAP1 DUP2 MSTORE PUSH1 0x20 ADD PUSH1 0x0 KECCAK256 PUSH1 0x0 DUP6 PUSH20 0xFFFFFFFFFFFFFFFFFFFFFFFFFFFFFFFFFFFFFFFF AND PUSH20 0xFFFFFFFFFFFFFFFFFFFFFFFFFFFFFFFFFFFFFFFF AND DUP2 MSTORE PUSH1 0x20 ADD SWAP1 DUP2 MSTORE PUSH1 0x20 ADD PUSH1 0x0 KECCAK256 DUP2 SWAP1 SSTORE POP DUP1 ISZERO PUSH2 0xFD6 JUMPI DUP3 PUSH20 0xFFFFFFFFFFFFFFFFFFFFFFFFFFFFFFFFFFFFFFFF AND DUP5 PUSH20 0xFFFFFFFFFFFFFFFFFFFFFFFFFFFFFFFFFFFFFFFF AND PUSH32 0x8C5BE1E5EBEC7D5BD14F71427D1E84F3DD0314C0F7B2291E5B200AC8C7C3B925 DUP5 PUSH1 0x40 MLOAD PUSH2 0xFCD SWAP2 SWAP1 PUSH2 0x1411 JUMP JUMPDEST PUSH1 0x40 MLOAD DUP1 SWAP2 SUB SWAP1 LOG3 JUMPDEST POP POP POP POP JUMP JUMPDEST PUSH1 0x0 PUSH20 0xFFFFFFFFFFFFFFFFFFFFFFFFFFFFFFFFFFFFFFFF AND DUP4 PUSH20 0xFFFFFFFFFFFFFFFFFFFFFFFFFFFFFFFFFFFFFFFF AND SUB PUSH2 0x102E JUMPI DUP1 PUSH1 0x2 PUSH1 0x0 DUP3 DUP3 SLOAD PUSH2 0x1022 SWAP2 SWAP1 PUSH2 0x17F3 JUMP JUMPDEST SWAP3 POP POP DUP2 SWAP1 SSTORE POP PUSH2 0x1101 JUMP JUMPDEST PUSH1 0x0 DUP1 PUSH1 0x0 DUP6 PUSH20 0xFFFFFFFFFFFFFFFFFFFFFFFFFFFFFFFFFFFFFFFF AND PUSH20 0xFFFFFFFFFFFFFFFFFFFFFFFFFFFFFFFFFFFFFFFF AND DUP2 MSTORE PUSH1 0x20 ADD SWAP1 DUP2 MSTORE PUSH1 0x20 ADD PUSH1 0x0 KECCAK256 SLOAD SWAP1 POP DUP2 DUP2 LT ISZERO PUSH2 0x10BA JUMPI DUP4 DUP2 DUP4 PUSH1 0x40 MLOAD PUSH32 0xE450D38C00000000000000000000000000000000000000000000000000000000 DUP2 MSTORE PUSH1 0x4 ADD PUSH2 0x10B1 SWAP4 SWAP3 SWAP2 SWAP1 PUSH2 0x1721 JUMP JUMPDEST PUSH1 0x40 MLOAD DUP1 SWAP2 SUB SWAP1 REVERT JUMPDEST DUP2 DUP2 SUB PUSH1 0x0 DUP1 DUP7 PUSH20 0xFFFFFFFFFFFFFFFFFFFFFFFFFFFFFFFFFFFFFFFF AND PUSH20 0xFFFFFFFFFFFFFFFFFFFFFFFFFFFFFFFFFFFFFFFF AND DUP2 MSTORE PUSH1 0x20 ADD SWAP1 DUP2 MSTORE PUSH1 0x20 ADD PUSH1 0x0 KECCAK256 DUP2 SWAP1 SSTORE POP POP JUMPDEST PUSH1 0x0 PUSH20 0xFFFFFFFFFFFFFFFFFFFFFFFFFFFFFFFFFFFFFFFF AND DUP3 PUSH20 0xFFFFFFFFFFFFFFFFFFFFFFFFFFFFFFFFFFFFFFFF AND SUB PUSH2 0x114A JUMPI DUP1 PUSH1 0x2 PUSH1 0x0 DUP3 DUP3 SLOAD SUB SWAP3 POP POP DUP2 SWAP1 SSTORE POP PUSH2 0x1197 JUMP JUMPDEST DUP1 PUSH1 0x0 DUP1 DUP5 PUSH20 0xFFFFFFFFFFFFFFFFFFFFFFFFFFFFFFFFFFFFFFFF AND PUSH20 0xFFFFFFFFFFFFFFFFFFFFFFFFFFFFFFFFFFFFFFFF AND DUP2 MSTORE PUSH1 0x20 ADD SWAP1 DUP2 MSTORE PUSH1 0x20 ADD PUSH1 0x0 KECCAK256 PUSH1 0x0 DUP3 DUP3 SLOAD ADD SWAP3 POP POP DUP2 SWAP1 SSTORE POP JUMPDEST DUP2 PUSH20 0xFFFFFFFFFFFFFFFFFFFFFFFFFFFFFFFFFFFFFFFF AND DUP4 PUSH20 0xFFFFFFFFFFFFFFFFFFFFFFFFFFFFFFFFFFFFFFFF AND PUSH32 0xDDF252AD1BE2C89B69C2B068FC378DAA952BA7F163C4A11628F55A4DF523B3EF DUP4 PUSH1 0x40 MLOAD PUSH2 0x11F4 SWAP2 SWAP1 PUSH2 0x1411 JUMP JUMPDEST PUSH1 0x40 MLOAD DUP1 SWAP2 SUB SWAP1 LOG3 POP POP POP JUMP JUMPDEST PUSH1 0x0 DUP1 REVERT JUMPDEST PUSH1 0x0 DUP2 SWAP1 POP SWAP2 SWAP1 POP JUMP JUMPDEST PUSH2 0x1219 DUP2 PUSH2 0x1206 JUMP JUMPDEST DUP2 EQ PUSH2 0x1224 JUMPI PUSH1 0x0 DUP1 REVERT JUMPDEST POP JUMP JUMPDEST PUSH1 0x0 DUP2 CALLDATALOAD SWAP1 POP PUSH2 0x1236 DUP2 PUSH2 0x1210 JUMP JUMPDEST SWAP3 SWAP2 POP POP JUMP JUMPDEST PUSH1 0x0 PUSH20 0xFFFFFFFFFFFFFFFFFFFFFFFFFFFFFFFFFFFFFFFF DUP3 AND SWAP1 POP SWAP2 SWAP1 POP JUMP JUMPDEST PUSH1 0x0 PUSH2 0x1267 DUP3 PUSH2 0x123C JUMP JUMPDEST SWAP1 POP SWAP2 SWAP1 POP JUMP JUMPDEST PUSH2 0x1277 DUP2 PUSH2 0x125C JUMP JUMPDEST DUP2 EQ PUSH2 0x1282 JUMPI PUSH1 0x0 DUP1 REVERT JUMPDEST POP JUMP JUMPDEST PUSH1 0x0 DUP2 CALLDATALOAD SWAP1 POP PUSH2 0x1294 DUP2 PUSH2 0x126E JUMP JUMPDEST SWAP3 SWAP2 POP POP JUMP JUMPDEST PUSH1 0x0 DUP1 PUSH1 0x40 DUP4 DUP6 SUB SLT ISZERO PUSH2 0x12B1 JUMPI PUSH2 0x12B0 PUSH2 0x1201 JUMP JUMPDEST JUMPDEST PUSH1 0x0 PUSH2 0x12BF DUP6 DUP3 DUP7 ADD PUSH2 0x1227 JUMP JUMPDEST SWAP3 POP POP PUSH1 0x20 PUSH2 0x12D0 DUP6 DUP3 DUP7 ADD PUSH2 0x1285 JUMP JUMPDEST SWAP2 POP POP SWAP3 POP SWAP3 SWAP1 POP JUMP JUMPDEST PUSH1 0x0 DUP2 MLOAD SWAP1 POP SWAP2 SWAP1 POP JUMP JUMPDEST PUSH1 0x0 DUP3 DUP3 MSTORE PUSH1 0x20 DUP3 ADD SWAP1 POP SWAP3 SWAP2 POP POP JUMP JUMPDEST PUSH1 0x0 JUMPDEST DUP4 DUP2 LT ISZERO PUSH2 0x1314 JUMPI DUP1 DUP3 ADD MLOAD DUP2 DUP5 ADD MSTORE PUSH1 0x20 DUP2 ADD SWAP1 POP PUSH2 0x12F9 JUMP JUMPDEST PUSH1 0x0 DUP5 DUP5 ADD MSTORE POP POP POP POP JUMP JUMPDEST PUSH1 0x0 PUSH1 0x1F NOT PUSH1 0x1F DUP4 ADD AND SWAP1 POP SWAP2 SWAP1 POP JUMP JUMPDEST PUSH1 0x0 PUSH2 0x133C DUP3 PUSH2 0x12DA JUMP JUMPDEST PUSH2 0x1346 DUP2 DUP6 PUSH2 0x12E5 JUMP JUMPDEST SWAP4 POP PUSH2 0x1356 DUP2 DUP6 PUSH1 0x20 DUP7 ADD PUSH2 0x12F6 JUMP JUMPDEST PUSH2 0x135F DUP2 PUSH2 0x1320 JUMP JUMPDEST DUP5 ADD SWAP2 POP POP SWAP3 SWAP2 POP POP JUMP JUMPDEST PUSH1 0x0 PUSH1 0x20 DUP3 ADD SWAP1 POP DUP2 DUP2 SUB PUSH1 0x0 DUP4 ADD MSTORE PUSH2 0x1384 DUP2 DUP5 PUSH2 0x1331 JUMP JUMPDEST SWAP1 POP SWAP3 SWAP2 POP POP JUMP JUMPDEST PUSH1 0x0 DUP1 PUSH1 0x40 DUP4 DUP6 SUB SLT ISZERO PUSH2 0x13A3 JUMPI PUSH2 0x13A2 PUSH2 0x1201 JUMP JUMPDEST JUMPDEST PUSH1 0x0 PUSH2 0x13B1 DUP6 DUP3 DUP7 ADD PUSH2 0x1285 JUMP JUMPDEST SWAP3 POP POP PUSH1 0x20 PUSH2 0x13C2 DUP6 DUP3 DUP7 ADD PUSH2 0x1227 JUMP JUMPDEST SWAP2 POP POP SWAP3 POP SWAP3 SWAP1 POP JUMP JUMPDEST PUSH1 0x0 DUP2 ISZERO ISZERO SWAP1 POP SWAP2 SWAP1 POP JUMP JUMPDEST PUSH2 0x13E1 DUP2 PUSH2 0x13CC JUMP JUMPDEST DUP3 MSTORE POP POP JUMP JUMPDEST PUSH1 0x0 PUSH1 0x20 DUP3 ADD SWAP1 POP PUSH2 0x13FC PUSH1 0x0 DUP4 ADD DUP5 PUSH2 0x13D8 JUMP JUMPDEST SWAP3 SWAP2 POP POP JUMP JUMPDEST PUSH2 0x140B DUP2 PUSH2 0x1206 JUMP JUMPDEST DUP3 MSTORE POP POP JUMP JUMPDEST PUSH1 0x0 PUSH1 0x20 DUP3 ADD SWAP1 POP PUSH2 0x1426 PUSH1 0x0 DUP4 ADD DUP5 PUSH2 0x1402 JUMP JUMPDEST SWAP3 SWAP2 POP POP JUMP JUMPDEST PUSH1 0x0 DUP1 PUSH1 0x40 DUP4 DUP6 SUB SLT ISZERO PUSH2 0x1443 JUMPI PUSH2 0x1442 PUSH2 0x1201 JUMP JUMPDEST JUMPDEST PUSH1 0x0 PUSH2 0x1451 DUP6 DUP3 DUP7 ADD PUSH2 0x1227 JUMP JUMPDEST SWAP3 POP POP PUSH1 0x20 PUSH2 0x1462 DUP6 DUP3 DUP7 ADD PUSH2 0x1227 JUMP JUMPDEST SWAP2 POP POP SWAP3 POP SWAP3 SWAP1 POP JUMP JUMPDEST PUSH1 0x0 DUP1 PUSH1 0x0 PUSH1 0x60 DUP5 DUP7 SUB SLT ISZERO PUSH2 0x1485 JUMPI PUSH2 0x1484 PUSH2 0x1201 JUMP JUMPDEST JUMPDEST PUSH1 0x0 PUSH2 0x1493 DUP7 DUP3 DUP8 ADD PUSH2 0x1285 JUMP JUMPDEST SWAP4 POP POP PUSH1 0x20 PUSH2 0x14A4 DUP7 DUP3 DUP8 ADD PUSH2 0x1285 JUMP JUMPDEST SWAP3 POP POP PUSH1 0x40 PUSH2 0x14B5 DUP7 DUP3 DUP8 ADD PUSH2 0x1227 JUMP JUMPDEST SWAP2 POP POP SWAP3 POP SWAP3 POP SWAP3 JUMP JUMPDEST PUSH1 0x0 PUSH1 0xFF DUP3 AND SWAP1 POP SWAP2 SWAP1 POP JUMP JUMPDEST PUSH2 0x14D5 DUP2 PUSH2 0x14BF JUMP JUMPDEST DUP3 MSTORE POP POP JUMP JUMPDEST PUSH1 0x0 PUSH1 0x20 DUP3 ADD SWAP1 POP PUSH2 0x14F0 PUSH1 0x0 DUP4 ADD DUP5 PUSH2 0x14CC JUMP JUMPDEST SWAP3 SWAP2 POP POP JUMP JUMPDEST PUSH1 0x0 PUSH1 0x20 DUP3 DUP5 SUB SLT ISZERO PUSH2 0x150C JUMPI PUSH2 0x150B PUSH2 0x1201 JUMP JUMPDEST JUMPDEST PUSH1 0x0 PUSH2 0x151A DUP5 DUP3 DUP6 ADD PUSH2 0x1285 JUMP JUMPDEST SWAP2 POP POP SWAP3 SWAP2 POP POP JUMP JUMPDEST PUSH2 0x152C DUP2 PUSH2 0x125C JUMP JUMPDEST DUP3 MSTORE POP POP JUMP JUMPDEST PUSH1 0x0 PUSH1 0x20 DUP3 ADD SWAP1 POP PUSH2 0x1547 PUSH1 0x0 DUP4 ADD DUP5 PUSH2 0x1523 JUMP JUMPDEST SWAP3 SWAP2 POP POP JUMP JUMPDEST PUSH1 0x0 DUP1 PUSH1 0x40 DUP4 DUP6 SUB SLT ISZERO PUSH2 0x1564 JUMPI PUSH2 0x1563 PUSH2 0x1201 JUMP JUMPDEST JUMPDEST PUSH1 0x0 PUSH2 0x1572 DUP6 DUP3 DUP7 ADD PUSH2 0x1285 JUMP JUMPDEST SWAP3 POP POP PUSH1 0x20 PUSH2 0x1583 DUP6 DUP3 DUP7 ADD PUSH2 0x1285 JUMP JUMPDEST SWAP2 POP POP SWAP3 POP SWAP3 SWAP1 POP JUMP JUMPDEST PUSH1 0x0 PUSH1 0x20 DUP3 DUP5 SUB SLT ISZERO PUSH2 0x15A3 JUMPI PUSH2 0x15A2 PUSH2 0x1201 JUMP JUMPDEST JUMPDEST PUSH1 0x0 PUSH2 0x15B1 DUP5 DUP3 DUP6 ADD PUSH2 0x1227 JUMP JUMPDEST SWAP2 POP POP SWAP3 SWAP2 POP POP JUMP JUMPDEST PUSH32 0x496E73756666696369656E742062616C616E6365000000000000000000000000 PUSH1 0x0 DUP3 ADD MSTORE POP JUMP JUMPDEST PUSH1 0x0 PUSH2 0x15F0 PUSH1 0x14 DUP4 PUSH2 0x12E5 JUMP JUMPDEST SWAP2 POP PUSH2 0x15FB DUP3 PUSH2 0x15BA JUMP JUMPDEST PUSH1 0x20 DUP3 ADD SWAP1 POP SWAP2 SWAP1 POP JUMP JUMPDEST PUSH1 0x0 PUSH1 0x20 DUP3 ADD SWAP1 POP DUP2 DUP2 SUB PUSH1 0x0 DUP4 ADD MSTORE PUSH2 0x161F DUP2 PUSH2 0x15E3 JUMP JUMPDEST SWAP1 POP SWAP2 SWAP1 POP JUMP JUMPDEST PUSH32 0x4E487B7100000000000000000000000000000000000000000000000000000000 PUSH1 0x0 MSTORE PUSH1 0x22 PUSH1 0x4 MSTORE PUSH1 0x24 PUSH1 0x0 REVERT JUMPDEST PUSH1 0x0 PUSH1 0x2 DUP3 DIV SWAP1 POP PUSH1 0x1 DUP3 AND DUP1 PUSH2 0x166D JUMPI PUSH1 0x7F DUP3 AND SWAP2 POP JUMPDEST PUSH1 0x20 DUP3 LT DUP2 SUB PUSH2 0x1680 JUMPI PUSH2 0x167F PUSH2 0x1626 JUMP JUMPDEST JUMPDEST POP SWAP2 SWAP1 POP JUMP JUMPDEST PUSH32 0x4E487B7100000000000000000000000000000000000000000000000000000000 PUSH1 0x0 MSTORE PUSH1 0x32 PUSH1 0x4 MSTORE PUSH1 0x24 PUSH1 0x0 REVERT JUMPDEST PUSH32 0x53656E642045544820746F2062757920736F6D6520746F6B656E730000000000 PUSH1 0x0 DUP3 ADD MSTORE POP JUMP JUMPDEST PUSH1 0x0 PUSH2 0x16EB PUSH1 0x1B DUP4 PUSH2 0x12E5 JUMP JUMPDEST SWAP2 POP PUSH2 0x16F6 DUP3 PUSH2 0x16B5 JUMP JUMPDEST PUSH1 0x20 DUP3 ADD SWAP1 POP SWAP2 SWAP1 POP JUMP JUMPDEST PUSH1 0x0 PUSH1 0x20 DUP3 ADD SWAP1 POP DUP2 DUP2 SUB PUSH1 0x0 DUP4 ADD MSTORE PUSH2 0x171A DUP2 PUSH2 0x16DE JUMP JUMPDEST SWAP1 POP SWAP2 SWAP1 POP JUMP JUMPDEST PUSH1 0x0 PUSH1 0x60 DUP3 ADD SWAP1 POP PUSH2 0x1736 PUSH1 0x0 DUP4 ADD DUP7 PUSH2 0x1523 JUMP JUMPDEST PUSH2 0x1743 PUSH1 0x20 DUP4 ADD DUP6 PUSH2 0x1402 JUMP JUMPDEST PUSH2 0x1750 PUSH1 0x40 DUP4 ADD DUP5 PUSH2 0x1402 JUMP JUMPDEST SWAP5 SWAP4 POP POP POP POP JUMP JUMPDEST PUSH32 0x53656E642045544820746F206465706F73697400000000000000000000000000 PUSH1 0x0 DUP3 ADD MSTORE POP JUMP JUMPDEST PUSH1 0x0 PUSH2 0x178E PUSH1 0x13 DUP4 PUSH2 0x12E5 JUMP JUMPDEST SWAP2 POP PUSH2 0x1799 DUP3 PUSH2 0x1758 JUMP JUMPDEST PUSH1 0x20 DUP3 ADD SWAP1 POP SWAP2 SWAP1 POP JUMP JUMPDEST PUSH1 0x0 PUSH1 0x20 DUP3 ADD SWAP1 POP DUP2 DUP2 SUB PUSH1 0x0 DUP4 ADD MSTORE PUSH2 0x17BD DUP2 PUSH2 0x1781 JUMP JUMPDEST SWAP1 POP SWAP2 SWAP1 POP JUMP JUMPDEST PUSH32 0x4E487B7100000000000000000000000000000000000000000000000000000000 PUSH1 0x0 MSTORE PUSH1 0x11 PUSH1 0x4 MSTORE PUSH1 0x24 PUSH1 0x0 REVERT JUMPDEST PUSH1 0x0 PUSH2 0x17FE DUP3 PUSH2 0x1206 JUMP JUMPDEST SWAP2 POP PUSH2 0x1809 DUP4 PUSH2 0x1206 JUMP JUMPDEST SWAP3 POP DUP3 DUP3 ADD SWAP1 POP DUP1 DUP3 GT ISZERO PUSH2 0x1821 JUMPI PUSH2 0x1820 PUSH2 0x17C4 JUMP JUMPDEST JUMPDEST SWAP3 SWAP2 POP POP JUMP INVALID LOG2 PUSH5 0x6970667358 0x22 SLT KECCAK256 0xC5 MUL 0x4E DIV 0xDF 0x2F DUP4 BLOCKHASH 0xC4 DIV DUP14 0xEE SUB PUSH27 0xB0307446F5F2D8A4BB264ADAD569554AFD764736F6C6343000818 STOP CALLER PUSH1 0x80 PUSH1 0x40 MSTORE CALLVALUE DUP1 ISZERO PUSH3 0x11 JUMPI PUSH1 0x0 DUP1 REVERT JUMPDEST POP PUSH3 0x22 PUSH3 0x28 PUSH1 0x20 SHL PUSH1 0x20 SHR JUMP JUMPDEST PUSH3 0x9C3 JUMP JUMPDEST PUSH3 0x38 PUSH3 0x121 PUSH1 0x20 SHL PUSH1 0x20 SHR JUMP JUMPDEST PUSH20 0xFFFFFFFFFFFFFFFFFFFFFFFFFFFFFFFFFFFFFFFF AND PUSH4 0xA15AB08D ADDRESS PUSH3 0xB4 PUSH1 0x40 MLOAD DUP1 PUSH1 0x60 ADD PUSH1 0x40 MSTORE DUP1 PUSH1 0x23 DUP2 MSTORE PUSH1 0x20 ADD PUSH3 0x1FAB PUSH1 0x23 SWAP2 CODECOPY PUSH1 0x40 MLOAD DUP1 PUSH1 0x40 ADD PUSH1 0x40 MSTORE DUP1 PUSH1 0x10 DUP2 MSTORE PUSH1 0x20 ADD PUSH32 0x7461626C655F6174747269627574657300000000000000000000000000000000 DUP2 MSTORE POP PUSH3 0x33A PUSH1 0x20 SHL PUSH1 0x20 SHR JUMP JUMPDEST PUSH1 0x40 MLOAD DUP4 PUSH4 0xFFFFFFFF AND PUSH1 0xE0 SHL DUP2 MSTORE PUSH1 0x4 ADD PUSH3 0xD3 SWAP3 SWAP2 SWAP1 PUSH3 0x6A4 JUMP JUMPDEST PUSH1 0x20 PUSH1 0x40 MLOAD DUP1 DUP4 SUB DUP2 PUSH1 0x0 DUP8 GAS CALL ISZERO DUP1 ISZERO PUSH3 0xF3 JUMPI RETURNDATASIZE PUSH1 0x0 DUP1 RETURNDATACOPY RETURNDATASIZE PUSH1 0x0 REVERT JUMPDEST POP POP POP POP PUSH1 0x40 MLOAD RETURNDATASIZE PUSH1 0x1F NOT PUSH1 0x1F DUP3 ADD AND DUP3 ADD DUP1 PUSH1 0x40 MSTORE POP DUP2 ADD SWAP1 PUSH3 0x119 SWAP2 SWAP1 PUSH3 0x718 JUMP JUMPDEST PUSH1 0x0 DUP2 SWAP1 SSTORE POP JUMP JUMPDEST PUSH1 0x0 PUSH1 0x1 CHAINID SUB PUSH3 0x149 JUMPI PUSH20 0x12969F7E3439A9B04025B5A049EB9BAD82A8C12 SWAP1 POP PUSH3 0x337 JUMP JUMPDEST PUSH1 0xA CHAINID SUB PUSH3 0x16F JUMPI PUSH20 0xFAD44BF5B843DE943A09D4F3E84949A11D3AA3E6 SWAP1 POP PUSH3 0x337 JUMP JUMPDEST PUSH2 0xA4B1 CHAINID SUB PUSH3 0x196 JUMPI PUSH20 0x9ABD75E8640871A5A20D3B4EE6330A04C962AFFD SWAP1 POP PUSH3 0x337 JUMP JUMPDEST PUSH2 0xA4BA CHAINID SUB PUSH3 0x1BD JUMPI PUSH20 0x1A22854C5B1642760A827F20137A67930AE108D2 SWAP1 POP PUSH3 0x337 JUMP JUMPDEST PUSH1 0x89 CHAINID SUB PUSH3 0x1E3 JUMPI PUSH20 0x5C4E6A9E5C1E1BF445A062006FAF19EA6C49AFEA SWAP1 POP PUSH3 0x337 JUMP JUMPDEST PUSH2 0x13A CHAINID SUB PUSH3 0x20A JUMPI PUSH20 0x59EF8BF2D6C102B4C42AEF9189E1A9F0ABFD652D SWAP1 POP PUSH3 0x337 JUMP JUMPDEST PUSH3 0xAA36A7 CHAINID SUB PUSH3 0x232 JUMPI PUSH20 0xC50C62498448ACC8DBDE43DA77F8D5D2E2C7597D SWAP1 POP PUSH3 0x337 JUMP JUMPDEST PUSH2 0x1A4 CHAINID SUB PUSH3 0x259 JUMPI PUSH20 0xC72E8A7BE04F2469F8C2DB3F1BDF69A7D516ABBA SWAP1 POP PUSH3 0x337 JUMP JUMPDEST PUSH3 0x66EEE CHAINID SUB PUSH3 0x281 JUMPI PUSH20 0x223A74B8323914AFDC3FF1E5005564DC17231D6E SWAP1 POP PUSH3 0x337 JUMP JUMPDEST PUSH3 0x13881 CHAINID SUB PUSH3 0x2A9 JUMPI PUSH20 0x4B48841D4B32C4650E4ABC117A03FE8B51F38F68 SWAP1 POP PUSH3 0x337 JUMP JUMPDEST PUSH3 0x4CB2F CHAINID SUB PUSH3 0x2D1 JUMPI PUSH20 0x30BCF3D50CAD04C2E57391B12740982A9308621 SWAP1 POP PUSH3 0x337 JUMP JUMPDEST PUSH2 0x7A69 CHAINID SUB PUSH3 0x2F8 JUMPI PUSH20 0xE7F1725E7734CE288F8367E1BB143E90BB3F0512 SWAP1 POP PUSH3 0x337 JUMP JUMPDEST CHAINID PUSH1 0x40 MLOAD PUSH32 0x264E42CF00000000000000000000000000000000000000000000000000000000 DUP2 MSTORE PUSH1 0x4 ADD PUSH3 0x32E SWAP2 SWAP1 PUSH3 0x75B JUMP JUMPDEST PUSH1 0x40 MLOAD DUP1 SWAP2 SUB SWAP1 REVERT JUMPDEST SWAP1 JUMP JUMPDEST PUSH1 0x60 DUP2 PUSH3 0x34E CHAINID PUSH3 0x37A PUSH1 0x20 SHL PUSH1 0x20 SHR JUMP JUMPDEST DUP5 PUSH1 0x40 MLOAD PUSH1 0x20 ADD PUSH3 0x363 SWAP4 SWAP3 SWAP2 SWAP1 PUSH3 0x8FA JUMP JUMPDEST PUSH1 0x40 MLOAD PUSH1 0x20 DUP2 DUP4 SUB SUB DUP2 MSTORE SWAP1 PUSH1 0x40 MSTORE SWAP1 POP SWAP3 SWAP2 POP POP JUMP JUMPDEST PUSH1 0x60 PUSH1 0x0 PUSH1 0x1 PUSH3 0x391 DUP5 PUSH3 0x459 PUSH1 0x20 SHL PUSH1 0x20 SHR JUMP JUMPDEST ADD SWAP1 POP PUSH1 0x0 DUP2 PUSH8 0xFFFFFFFFFFFFFFFF DUP2 GT ISZERO PUSH3 0x3B3 JUMPI PUSH3 0x3B2 PUSH3 0x965 JUMP JUMPDEST JUMPDEST PUSH1 0x40 MLOAD SWAP1 DUP1 DUP3 MSTORE DUP1 PUSH1 0x1F ADD PUSH1 0x1F NOT AND PUSH1 0x20 ADD DUP3 ADD PUSH1 0x40 MSTORE DUP1 ISZERO PUSH3 0x3E6 JUMPI DUP2 PUSH1 0x20 ADD PUSH1 0x1 DUP3 MUL DUP1 CALLDATASIZE DUP4 CALLDATACOPY DUP1 DUP3 ADD SWAP2 POP POP SWAP1 POP JUMPDEST POP SWAP1 POP PUSH1 0x0 DUP3 PUSH1 0x20 ADD DUP3 ADD SWAP1 POP JUMPDEST PUSH1 0x1 ISZERO PUSH3 0x44E JUMPI DUP1 DUP1 PUSH1 0x1 SWAP1 SUB SWAP2 POP POP PUSH32 0x3031323334353637383961626364656600000000000000000000000000000000 PUSH1 0xA DUP7 MOD BYTE DUP2 MSTORE8 PUSH1 0xA DUP6 DUP2 PUSH3 0x441 JUMPI PUSH3 0x440 PUSH3 0x994 JUMP JUMPDEST JUMPDEST DIV SWAP5 POP PUSH1 0x0 DUP6 SUB PUSH3 0x3F4 JUMPI JUMPDEST DUP2 SWAP4 POP POP POP POP SWAP2 SWAP1 POP JUMP JUMPDEST PUSH1 0x0 DUP1 PUSH1 0x0 SWAP1 POP PUSH27 0x184F03E93FF9F4DAA797ED6E38ED64BF6A1F010000000000000000 DUP4 LT PUSH3 0x4BB JUMPI PUSH27 0x184F03E93FF9F4DAA797ED6E38ED64BF6A1F010000000000000000 DUP4 DUP2 PUSH3 0x4B1 JUMPI PUSH3 0x4B0 PUSH3 0x994 JUMP JUMPDEST JUMPDEST DIV SWAP3 POP PUSH1 0x40 DUP2 ADD SWAP1 POP JUMPDEST PUSH14 0x4EE2D6D415B85ACEF8100000000 DUP4 LT PUSH3 0x4FC JUMPI PUSH14 0x4EE2D6D415B85ACEF8100000000 DUP4 DUP2 PUSH3 0x4F2 JUMPI PUSH3 0x4F1 PUSH3 0x994 JUMP JUMPDEST JUMPDEST DIV SWAP3 POP PUSH1 0x20 DUP2 ADD SWAP1 POP JUMPDEST PUSH7 0x2386F26FC10000 DUP4 LT PUSH3 0x52F JUMPI PUSH7 0x2386F26FC10000 DUP4 DUP2 PUSH3 0x525 JUMPI PUSH3 0x524 PUSH3 0x994 JUMP JUMPDEST JUMPDEST DIV SWAP3 POP PUSH1 0x10 DUP2 ADD SWAP1 POP JUMPDEST PUSH4 0x5F5E100 DUP4 LT PUSH3 0x55C JUMPI PUSH4 0x5F5E100 DUP4 DUP2 PUSH3 0x552 JUMPI PUSH3 0x551 PUSH3 0x994 JUMP JUMPDEST JUMPDEST DIV SWAP3 POP PUSH1 0x8 DUP2 ADD SWAP1 POP JUMPDEST PUSH2 0x2710 DUP4 LT PUSH3 0x585 JUMPI PUSH2 0x2710 DUP4 DUP2 PUSH3 0x57B JUMPI PUSH3 0x57A PUSH3 0x994 JUMP JUMPDEST JUMPDEST DIV SWAP3 POP PUSH1 0x4 DUP2 ADD SWAP1 POP JUMPDEST PUSH1 0x64 DUP4 LT PUSH3 0x5AC JUMPI PUSH1 0x64 DUP4 DUP2 PUSH3 0x5A2 JUMPI PUSH3 0x5A1 PUSH3 0x994 JUMP JUMPDEST JUMPDEST DIV SWAP3 POP PUSH1 0x2 DUP2 ADD SWAP1 POP JUMPDEST PUSH1 0xA DUP4 LT PUSH3 0x5BC JUMPI PUSH1 0x1 DUP2 ADD SWAP1 POP JUMPDEST DUP1 SWAP2 POP POP SWAP2 SWAP1 POP JUMP JUMPDEST PUSH1 0x0 PUSH20 0xFFFFFFFFFFFFFFFFFFFFFFFFFFFFFFFFFFFFFFFF DUP3 AND SWAP1 POP SWAP2 SWAP1 POP JUMP JUMPDEST PUSH1 0x0 PUSH3 0x5F2 DUP3 PUSH3 0x5C5 JUMP JUMPDEST SWAP1 POP SWAP2 SWAP1 POP JUMP JUMPDEST PUSH3 0x604 DUP2 PUSH3 0x5E5 JUMP JUMPDEST DUP3 MSTORE POP POP JUMP JUMPDEST PUSH1 0x0 DUP2 MLOAD SWAP1 POP SWAP2 SWAP1 POP JUMP JUMPDEST PUSH1 0x0 DUP3 DUP3 MSTORE PUSH1 0x20 DUP3 ADD SWAP1 POP SWAP3 SWAP2 POP POP JUMP JUMPDEST PUSH1 0x0 JUMPDEST DUP4 DUP2 LT ISZERO PUSH3 0x646 JUMPI DUP1 DUP3 ADD MLOAD DUP2 DUP5 ADD MSTORE PUSH1 0x20 DUP2 ADD SWAP1 POP PUSH3 0x629 JUMP JUMPDEST PUSH1 0x0 DUP5 DUP5 ADD MSTORE POP POP POP POP JUMP JUMPDEST PUSH1 0x0 PUSH1 0x1F NOT PUSH1 0x1F DUP4 ADD AND SWAP1 POP SWAP2 SWAP1 POP JUMP JUMPDEST PUSH1 0x0 PUSH3 0x670 DUP3 PUSH3 0x60A JUMP JUMPDEST PUSH3 0x67C DUP2 DUP6 PUSH3 0x615 JUMP JUMPDEST SWAP4 POP PUSH3 0x68E DUP2 DUP6 PUSH1 0x20 DUP7 ADD PUSH3 0x626 JUMP JUMPDEST PUSH3 0x699 DUP2 PUSH3 0x652 JUMP JUMPDEST DUP5 ADD SWAP2 POP POP SWAP3 SWAP2 POP POP JUMP JUMPDEST PUSH1 0x0 PUSH1 0x40 DUP3 ADD SWAP1 POP PUSH3 0x6BB PUSH1 0x0 DUP4 ADD DUP6 PUSH3 0x5F9 JUMP JUMPDEST DUP2 DUP2 SUB PUSH1 0x20 DUP4 ADD MSTORE PUSH3 0x6CF DUP2 DUP5 PUSH3 0x663 JUMP JUMPDEST SWAP1 POP SWAP4 SWAP3 POP POP POP JUMP JUMPDEST PUSH1 0x0 DUP1 REVERT JUMPDEST PUSH1 0x0 DUP2 SWAP1 POP SWAP2 SWAP1 POP JUMP JUMPDEST PUSH3 0x6F2 DUP2 PUSH3 0x6DD JUMP JUMPDEST DUP2 EQ PUSH3 0x6FE JUMPI PUSH1 0x0 DUP1 REVERT JUMPDEST POP JUMP JUMPDEST PUSH1 0x0 DUP2 MLOAD SWAP1 POP PUSH3 0x712 DUP2 PUSH3 0x6E7 JUMP JUMPDEST SWAP3 SWAP2 POP POP JUMP JUMPDEST PUSH1 0x0 PUSH1 0x20 DUP3 DUP5 SUB SLT ISZERO PUSH3 0x731 JUMPI PUSH3 0x730 PUSH3 0x6D8 JUMP JUMPDEST JUMPDEST PUSH1 0x0 PUSH3 0x741 DUP5 DUP3 DUP6 ADD PUSH3 0x701 JUMP JUMPDEST SWAP2 POP POP SWAP3 SWAP2 POP POP JUMP JUMPDEST PUSH3 0x755 DUP2 PUSH3 0x6DD JUMP JUMPDEST DUP3 MSTORE POP POP JUMP JUMPDEST PUSH1 0x0 PUSH1 0x20 DUP3 ADD SWAP1 POP PUSH3 0x772 PUSH1 0x0 DUP4 ADD DUP5 PUSH3 0x74A JUMP JUMPDEST SWAP3 SWAP2 POP POP JUMP JUMPDEST PUSH1 0x0 DUP2 SWAP1 POP SWAP3 SWAP2 POP POP JUMP JUMPDEST PUSH32 0x435245415445205441424C452000000000000000000000000000000000000000 PUSH1 0x0 DUP3 ADD MSTORE POP JUMP JUMPDEST PUSH1 0x0 PUSH3 0x7BB PUSH1 0xD DUP4 PUSH3 0x778 JUMP JUMPDEST SWAP2 POP PUSH3 0x7C8 DUP3 PUSH3 0x783 JUMP JUMPDEST PUSH1 0xD DUP3 ADD SWAP1 POP SWAP2 SWAP1 POP JUMP JUMPDEST PUSH1 0x0 PUSH3 0x7E0 DUP3 PUSH3 0x60A JUMP JUMPDEST PUSH3 0x7EC DUP2 DUP6 PUSH3 0x778 JUMP JUMPDEST SWAP4 POP PUSH3 0x7FE DUP2 DUP6 PUSH1 0x20 DUP7 ADD PUSH3 0x626 JUMP JUMPDEST DUP1 DUP5 ADD SWAP2 POP POP SWAP3 SWAP2 POP POP JUMP JUMPDEST PUSH32 0x5F00000000000000000000000000000000000000000000000000000000000000 PUSH1 0x0 DUP3 ADD MSTORE POP JUMP JUMPDEST PUSH1 0x0 PUSH3 0x842 PUSH1 0x1 DUP4 PUSH3 0x778 JUMP JUMPDEST SWAP2 POP PUSH3 0x84F DUP3 PUSH3 0x80A JUMP JUMPDEST PUSH1 0x1 DUP3 ADD SWAP1 POP SWAP2 SWAP1 POP JUMP JUMPDEST PUSH32 0x2800000000000000000000000000000000000000000000000000000000000000 PUSH1 0x0 DUP3 ADD MSTORE POP JUMP JUMPDEST PUSH1 0x0 PUSH3 0x892 PUSH1 0x1 DUP4 PUSH3 0x778 JUMP JUMPDEST SWAP2 POP PUSH3 0x89F DUP3 PUSH3 0x85A JUMP JUMPDEST PUSH1 0x1 DUP3 ADD SWAP1 POP SWAP2 SWAP1 POP JUMP JUMPDEST PUSH32 0x2900000000000000000000000000000000000000000000000000000000000000 PUSH1 0x0 DUP3 ADD MSTORE POP JUMP JUMPDEST PUSH1 0x0 PUSH3 0x8E2 PUSH1 0x1 DUP4 PUSH3 0x778 JUMP JUMPDEST SWAP2 POP PUSH3 0x8EF DUP3 PUSH3 0x8AA JUMP JUMPDEST PUSH1 0x1 DUP3 ADD SWAP1 POP SWAP2 SWAP1 POP JUMP JUMPDEST PUSH1 0x0 PUSH3 0x907 DUP3 PUSH3 0x7AC JUMP JUMPDEST SWAP2 POP PUSH3 0x915 DUP3 DUP7 PUSH3 0x7D3 JUMP JUMPDEST SWAP2 POP PUSH3 0x922 DUP3 PUSH3 0x833 JUMP JUMPDEST SWAP2 POP PUSH3 0x930 DUP3 DUP6 PUSH3 0x7D3 JUMP JUMPDEST SWAP2 POP PUSH3 0x93D DUP3 PUSH3 0x883 JUMP JUMPDEST SWAP2 POP PUSH3 0x94B DUP3 DUP5 PUSH3 0x7D3 JUMP JUMPDEST SWAP2 POP PUSH3 0x958 DUP3 PUSH3 0x8D3 JUMP JUMPDEST SWAP2 POP DUP2 SWAP1 POP SWAP5 SWAP4 POP POP POP POP JUMP JUMPDEST PUSH32 0x4E487B7100000000000000000000000000000000000000000000000000000000 PUSH1 0x0 MSTORE PUSH1 0x41 PUSH1 0x4 MSTORE PUSH1 0x24 PUSH1 0x0 REVERT JUMPDEST PUSH32 0x4E487B7100000000000000000000000000000000000000000000000000000000 PUSH1 0x0 MSTORE PUSH1 0x12 PUSH1 0x4 MSTORE PUSH1 0x24 PUSH1 0x0 REVERT JUMPDEST PUSH2 0x15D8 DUP1 PUSH3 0x9D3 PUSH1 0x0 CODECOPY PUSH1 0x0 RETURN INVALID PUSH1 0x80 PUSH1 0x40 MSTORE CALLVALUE DUP1 ISZERO PUSH2 0x10 JUMPI PUSH1 0x0 DUP1 REVERT JUMPDEST POP PUSH1 0x4 CALLDATASIZE LT PUSH2 0x7D JUMPI PUSH1 0x0 CALLDATALOAD PUSH1 0xE0 SHR DUP1 PUSH4 0x312FA457 GT PUSH2 0x5B JUMPI DUP1 PUSH4 0x312FA457 EQ PUSH2 0xEA JUMPI DUP1 PUSH4 0x5D5A33A2 EQ PUSH2 0x106 JUMPI DUP1 PUSH4 0x88E4F1CB EQ PUSH2 0x124 JUMPI DUP1 PUSH4 0xF56EC1ED EQ PUSH2 0x142 JUMPI PUSH2 0x7D JUMP JUMPDEST DUP1 PUSH4 0x4BFC47F EQ PUSH2 0x82 JUMPI DUP1 PUSH4 0x150B7A02 EQ PUSH2 0x9E JUMPI DUP1 PUSH4 0x19129E5A EQ PUSH2 0xCE JUMPI JUMPDEST PUSH1 0x0 DUP1 REVERT JUMPDEST PUSH2 0x9C PUSH1 0x4 DUP1 CALLDATASIZE SUB DUP2 ADD SWAP1 PUSH2 0x97 SWAP2 SWAP1 PUSH2 0xB03 JUMP JUMPDEST PUSH2 0x15E JUMP JUMPDEST STOP JUMPDEST PUSH2 0xB8 PUSH1 0x4 DUP1 CALLDATASIZE SUB DUP2 ADD SWAP1 PUSH2 0xB3 SWAP2 SWAP1 PUSH2 0xCD4 JUMP JUMPDEST PUSH2 0x247 JUMP JUMPDEST PUSH1 0x40 MLOAD PUSH2 0xC5 SWAP2 SWAP1 PUSH2 0xD92 JUMP JUMPDEST PUSH1 0x40 MLOAD DUP1 SWAP2 SUB SWAP1 RETURN JUMPDEST PUSH2 0xE8 PUSH1 0x4 DUP1 CALLDATASIZE SUB DUP2 ADD SWAP1 PUSH2 0xE3 SWAP2 SWAP1 PUSH2 0xDAD JUMP JUMPDEST PUSH2 0x25B JUMP JUMPDEST STOP JUMPDEST PUSH2 0x104 PUSH1 0x4 DUP1 CALLDATASIZE SUB DUP2 ADD SWAP1 PUSH2 0xFF SWAP2 SWAP1 PUSH2 0xE7B JUMP JUMPDEST PUSH2 0x2D6 JUMP JUMPDEST STOP JUMPDEST PUSH2 0x10E PUSH2 0x3C1 JUMP JUMPDEST PUSH1 0x40 MLOAD PUSH2 0x11B SWAP2 SWAP1 PUSH2 0xF56 JUMP JUMPDEST PUSH1 0x40 MLOAD DUP1 SWAP2 SUB SWAP1 RETURN JUMPDEST PUSH2 0x12C PUSH2 0x409 JUMP JUMPDEST PUSH1 0x40 MLOAD PUSH2 0x139 SWAP2 SWAP1 PUSH2 0xF87 JUMP JUMPDEST PUSH1 0x40 MLOAD DUP1 SWAP2 SUB SWAP1 RETURN JUMPDEST PUSH2 0x15C PUSH1 0x4 DUP1 CALLDATASIZE SUB DUP2 ADD SWAP1 PUSH2 0x157 SWAP2 SWAP1 PUSH2 0xE7B JUMP JUMPDEST PUSH2 0x412 JUMP JUMPDEST STOP JUMPDEST PUSH1 0x0 PUSH2 0x169 DUP3 PUSH2 0x536 JUMP JUMPDEST PUSH1 0x40 MLOAD PUSH1 0x20 ADD PUSH2 0x179 SWAP2 SWAP1 PUSH2 0x1004 JUMP JUMPDEST PUSH1 0x40 MLOAD PUSH1 0x20 DUP2 DUP4 SUB SUB DUP2 MSTORE SWAP1 PUSH1 0x40 MSTORE SWAP1 POP PUSH2 0x192 PUSH2 0x604 JUMP JUMPDEST PUSH20 0xFFFFFFFFFFFFFFFFFFFFFFFFFFFFFFFFFFFFFFFF AND PUSH4 0x377AF0DA ADDRESS PUSH1 0x0 SLOAD PUSH2 0x1F3 PUSH1 0x40 MLOAD DUP1 PUSH1 0x40 ADD PUSH1 0x40 MSTORE DUP1 PUSH1 0x10 DUP2 MSTORE PUSH1 0x20 ADD PUSH32 0x7461626C655F6174747269627574657300000000000000000000000000000000 DUP2 MSTORE POP PUSH1 0x0 SLOAD DUP8 PUSH2 0x803 JUMP JUMPDEST PUSH1 0x40 MLOAD DUP5 PUSH4 0xFFFFFFFF AND PUSH1 0xE0 SHL DUP2 MSTORE PUSH1 0x4 ADD PUSH2 0x211 SWAP4 SWAP3 SWAP2 SWAP1 PUSH2 0x1039 JUMP JUMPDEST PUSH1 0x0 PUSH1 0x40 MLOAD DUP1 DUP4 SUB DUP2 PUSH1 0x0 DUP8 DUP1 EXTCODESIZE ISZERO DUP1 ISZERO PUSH2 0x22B JUMPI PUSH1 0x0 DUP1 REVERT JUMPDEST POP GAS CALL ISZERO DUP1 ISZERO PUSH2 0x23F JUMPI RETURNDATASIZE PUSH1 0x0 DUP1 RETURNDATACOPY RETURNDATASIZE PUSH1 0x0 REVERT JUMPDEST POP POP POP POP POP POP JUMP JUMPDEST PUSH1 0x0 PUSH4 0x150B7A02 PUSH1 0xE0 SHL SWAP1 POP SWAP5 SWAP4 POP POP POP POP JUMP JUMPDEST PUSH2 0x263 PUSH2 0x604 JUMP JUMPDEST PUSH20 0xFFFFFFFFFFFFFFFFFFFFFFFFFFFFFFFFFFFFFFFF AND PUSH4 0x8BB0AB97 ADDRESS PUSH1 0x0 SLOAD DUP5 PUSH1 0x40 MLOAD DUP5 PUSH4 0xFFFFFFFF AND PUSH1 0xE0 SHL DUP2 MSTORE PUSH1 0x4 ADD PUSH2 0x2A1 SWAP4 SWAP3 SWAP2 SWAP1 PUSH2 0x1077 JUMP JUMPDEST PUSH1 0x0 PUSH1 0x40 MLOAD DUP1 DUP4 SUB DUP2 PUSH1 0x0 DUP8 DUP1 EXTCODESIZE ISZERO DUP1 ISZERO PUSH2 0x2BB JUMPI PUSH1 0x0 DUP1 REVERT JUMPDEST POP GAS CALL ISZERO DUP1 ISZERO PUSH2 0x2CF JUMPI RETURNDATASIZE PUSH1 0x0 DUP1 RETURNDATACOPY RETURNDATASIZE PUSH1 0x0 REVERT JUMPDEST POP POP POP POP POP JUMP JUMPDEST PUSH1 0x0 PUSH2 0x2E1 DUP4 PUSH2 0x536 JUMP JUMPDEST PUSH1 0x40 MLOAD PUSH1 0x20 ADD PUSH2 0x2F1 SWAP2 SWAP1 PUSH2 0x1004 JUMP JUMPDEST PUSH1 0x40 MLOAD PUSH1 0x20 DUP2 DUP4 SUB SUB DUP2 MSTORE SWAP1 PUSH1 0x40 MSTORE SWAP1 POP PUSH2 0x30A PUSH2 0x604 JUMP JUMPDEST PUSH20 0xFFFFFFFFFFFFFFFFFFFFFFFFFFFFFFFFFFFFFFFF AND PUSH4 0x377AF0DA ADDRESS PUSH1 0x0 SLOAD PUSH2 0x36C PUSH1 0x40 MLOAD DUP1 PUSH1 0x40 ADD PUSH1 0x40 MSTORE DUP1 PUSH1 0x10 DUP2 MSTORE PUSH1 0x20 ADD PUSH32 0x7461626C655F6174747269627574657300000000000000000000000000000000 DUP2 MSTORE POP PUSH1 0x0 SLOAD DUP9 DUP9 PUSH2 0x83F JUMP JUMPDEST PUSH1 0x40 MLOAD DUP5 PUSH4 0xFFFFFFFF AND PUSH1 0xE0 SHL DUP2 MSTORE PUSH1 0x4 ADD PUSH2 0x38A SWAP4 SWAP3 SWAP2 SWAP1 PUSH2 0x1039 JUMP JUMPDEST PUSH1 0x0 PUSH1 0x40 MLOAD DUP1 DUP4 SUB DUP2 PUSH1 0x0 DUP8 DUP1 EXTCODESIZE ISZERO DUP1 ISZERO PUSH2 0x3A4 JUMPI PUSH1 0x0 DUP1 REVERT JUMPDEST POP GAS CALL ISZERO DUP1 ISZERO PUSH2 0x3B8 JUMPI RETURNDATASIZE PUSH1 0x0 DUP1 RETURNDATACOPY RETURNDATASIZE PUSH1 0x0 REVERT JUMPDEST POP POP POP POP POP POP POP JUMP JUMPDEST PUSH1 0x60 PUSH2 0x404 PUSH1 0x40 MLOAD DUP1 PUSH1 0x40 ADD PUSH1 0x40 MSTORE DUP1 PUSH1 0x10 DUP2 MSTORE PUSH1 0x20 ADD PUSH32 0x7461626C655F6174747269627574657300000000000000000000000000000000 DUP2 MSTORE POP PUSH1 0x0 SLOAD PUSH2 0x8C0 JUMP JUMPDEST SWAP1 POP SWAP1 JUMP JUMPDEST PUSH1 0x0 DUP1 SLOAD SWAP1 POP SWAP1 JUMP JUMPDEST PUSH2 0x41A PUSH2 0x604 JUMP JUMPDEST PUSH20 0xFFFFFFFFFFFFFFFFFFFFFFFFFFFFFFFFFFFFFFFF AND PUSH4 0x377AF0DA ADDRESS PUSH1 0x0 SLOAD PUSH2 0x4E2 PUSH1 0x40 MLOAD DUP1 PUSH1 0x40 ADD PUSH1 0x40 MSTORE DUP1 PUSH1 0x10 DUP2 MSTORE PUSH1 0x20 ADD PUSH32 0x7461626C655F6174747269627574657300000000000000000000000000000000 DUP2 MSTORE POP PUSH1 0x0 SLOAD PUSH1 0x40 MLOAD DUP1 PUSH1 0x40 ADD PUSH1 0x40 MSTORE DUP1 PUSH1 0xA DUP2 MSTORE PUSH1 0x20 ADD PUSH32 0x69642C757365725F696400000000000000000000000000000000000000000000 DUP2 MSTORE POP PUSH2 0x4B4 DUP11 PUSH2 0x536 JUMP JUMPDEST PUSH2 0x4BD DUP11 PUSH2 0x8FE JUMP JUMPDEST PUSH1 0x40 MLOAD PUSH1 0x20 ADD PUSH2 0x4CE SWAP3 SWAP2 SWAP1 PUSH2 0x10D4 JUMP JUMPDEST PUSH1 0x40 MLOAD PUSH1 0x20 DUP2 DUP4 SUB SUB DUP2 MSTORE SWAP1 PUSH1 0x40 MSTORE PUSH2 0x927 JUMP JUMPDEST PUSH1 0x40 MLOAD DUP5 PUSH4 0xFFFFFFFF AND PUSH1 0xE0 SHL DUP2 MSTORE PUSH1 0x4 ADD PUSH2 0x500 SWAP4 SWAP3 SWAP2 SWAP1 PUSH2 0x1039 JUMP JUMPDEST PUSH1 0x0 PUSH1 0x40 MLOAD DUP1 DUP4 SUB DUP2 PUSH1 0x0 DUP8 DUP1 EXTCODESIZE ISZERO DUP1 ISZERO PUSH2 0x51A JUMPI PUSH1 0x0 DUP1 REVERT JUMPDEST POP GAS CALL ISZERO DUP1 ISZERO PUSH2 0x52E JUMPI RETURNDATASIZE PUSH1 0x0 DUP1 RETURNDATACOPY RETURNDATASIZE PUSH1 0x0 REVERT JUMPDEST POP POP POP POP POP POP JUMP JUMPDEST PUSH1 0x60 PUSH1 0x0 PUSH1 0x1 PUSH2 0x545 DUP5 PUSH2 0x966 JUMP JUMPDEST ADD SWAP1 POP PUSH1 0x0 DUP2 PUSH8 0xFFFFFFFFFFFFFFFF DUP2 GT ISZERO PUSH2 0x564 JUMPI PUSH2 0x563 PUSH2 0xBA9 JUMP JUMPDEST JUMPDEST PUSH1 0x40 MLOAD SWAP1 DUP1 DUP3 MSTORE DUP1 PUSH1 0x1F ADD PUSH1 0x1F NOT AND PUSH1 0x20 ADD DUP3 ADD PUSH1 0x40 MSTORE DUP1 ISZERO PUSH2 0x596 JUMPI DUP2 PUSH1 0x20 ADD PUSH1 0x1 DUP3 MUL DUP1 CALLDATASIZE DUP4 CALLDATACOPY DUP1 DUP3 ADD SWAP2 POP POP SWAP1 POP JUMPDEST POP SWAP1 POP PUSH1 0x0 DUP3 PUSH1 0x20 ADD DUP3 ADD SWAP1 POP JUMPDEST PUSH1 0x1 ISZERO PUSH2 0x5F9 JUMPI DUP1 DUP1 PUSH1 0x1 SWAP1 SUB SWAP2 POP POP PUSH32 0x3031323334353637383961626364656600000000000000000000000000000000 PUSH1 0xA DUP7 MOD BYTE DUP2 MSTORE8 PUSH1 0xA DUP6 DUP2 PUSH2 0x5ED JUMPI PUSH2 0x5EC PUSH2 0x1107 JUMP JUMPDEST JUMPDEST DIV SWAP5 POP PUSH1 0x0 DUP6 SUB PUSH2 0x5A4 JUMPI JUMPDEST DUP2 SWAP4 POP POP POP POP SWAP2 SWAP1 POP JUMP JUMPDEST PUSH1 0x0 PUSH1 0x1 CHAINID SUB PUSH2 0x62A JUMPI PUSH20 0x12969F7E3439A9B04025B5A049EB9BAD82A8C12 SWAP1 POP PUSH2 0x800 JUMP JUMPDEST PUSH1 0xA CHAINID SUB PUSH2 0x64E JUMPI PUSH20 0xFAD44BF5B843DE943A09D4F3E84949A11D3AA3E6 SWAP1 POP PUSH2 0x800 JUMP JUMPDEST PUSH2 0xA4B1 CHAINID SUB PUSH2 0x673 JUMPI PUSH20 0x9ABD75E8640871A5A20D3B4EE6330A04C962AFFD SWAP1 POP PUSH2 0x800 JUMP JUMPDEST PUSH2 0xA4BA CHAINID SUB PUSH2 0x698 JUMPI PUSH20 0x1A22854C5B1642760A827F20137A67930AE108D2 SWAP1 POP PUSH2 0x800 JUMP JUMPDEST PUSH1 0x89 CHAINID SUB PUSH2 0x6BC JUMPI PUSH20 0x5C4E6A9E5C1E1BF445A062006FAF19EA6C49AFEA SWAP1 POP PUSH2 0x800 JUMP JUMPDEST PUSH2 0x13A CHAINID SUB PUSH2 0x6E1 JUMPI PUSH20 0x59EF8BF2D6C102B4C42AEF9189E1A9F0ABFD652D SWAP1 POP PUSH2 0x800 JUMP JUMPDEST PUSH3 0xAA36A7 CHAINID SUB PUSH2 0x707 JUMPI PUSH20 0xC50C62498448ACC8DBDE43DA77F8D5D2E2C7597D SWAP1 POP PUSH2 0x800 JUMP JUMPDEST PUSH2 0x1A4 CHAINID SUB PUSH2 0x72C JUMPI PUSH20 0xC72E8A7BE04F2469F8C2DB3F1BDF69A7D516ABBA SWAP1 POP PUSH2 0x800 JUMP JUMPDEST PUSH3 0x66EEE CHAINID SUB PUSH2 0x752 JUMPI PUSH20 0x223A74B8323914AFDC3FF1E5005564DC17231D6E SWAP1 POP PUSH2 0x800 JUMP JUMPDEST PUSH3 0x13881 CHAINID SUB PUSH2 0x778 JUMPI PUSH20 0x4B48841D4B32C4650E4ABC117A03FE8B51F38F68 SWAP1 POP PUSH2 0x800 JUMP JUMPDEST PUSH3 0x4CB2F CHAINID SUB PUSH2 0x79E JUMPI PUSH20 0x30BCF3D50CAD04C2E57391B12740982A9308621 SWAP1 POP PUSH2 0x800 JUMP JUMPDEST PUSH2 0x7A69 CHAINID SUB PUSH2 0x7C3 JUMPI PUSH20 0xE7F1725E7734CE288F8367E1BB143E90BB3F0512 SWAP1 POP PUSH2 0x800 JUMP JUMPDEST CHAINID PUSH1 0x40 MLOAD PUSH32 0x264E42CF00000000000000000000000000000000000000000000000000000000 DUP2 MSTORE PUSH1 0x4 ADD PUSH2 0x7F7 SWAP2 SWAP1 PUSH2 0xF87 JUMP JUMPDEST PUSH1 0x40 MLOAD DUP1 SWAP2 SUB SWAP1 REVERT JUMPDEST SWAP1 JUMP JUMPDEST PUSH1 0x60 PUSH1 0x0 PUSH2 0x811 DUP6 DUP6 PUSH2 0x8C0 JUMP JUMPDEST SWAP1 POP DUP1 DUP4 PUSH1 0x40 MLOAD PUSH1 0x20 ADD PUSH2 0x826 SWAP3 SWAP2 SWAP1 PUSH2 0x11CE JUMP JUMPDEST PUSH1 0x40 MLOAD PUSH1 0x20 DUP2 DUP4 SUB SUB DUP2 MSTORE SWAP1 PUSH1 0x40 MSTORE SWAP2 POP POP SWAP4 SWAP3 POP POP POP JUMP JUMPDEST PUSH1 0x60 PUSH1 0x0 PUSH2 0x84D DUP7 DUP7 PUSH2 0x8C0 JUMP JUMPDEST SWAP1 POP PUSH1 0x0 PUSH1 0x40 MLOAD DUP1 PUSH1 0x20 ADD PUSH1 0x40 MSTORE DUP1 PUSH1 0x0 DUP2 MSTORE POP SWAP1 POP PUSH1 0x0 DUP5 MLOAD GT ISZERO PUSH2 0x890 JUMPI DUP4 PUSH1 0x40 MLOAD PUSH1 0x20 ADD PUSH2 0x87E SWAP2 SWAP1 PUSH2 0x1208 JUMP JUMPDEST PUSH1 0x40 MLOAD PUSH1 0x20 DUP2 DUP4 SUB SUB DUP2 MSTORE SWAP1 PUSH1 0x40 MSTORE SWAP1 POP JUMPDEST DUP2 DUP6 DUP3 PUSH1 0x40 MLOAD PUSH1 0x20 ADD PUSH2 0x8A5 SWAP4 SWAP3 SWAP2 SWAP1 PUSH2 0x12C2 JUMP JUMPDEST PUSH1 0x40 MLOAD PUSH1 0x20 DUP2 DUP4 SUB SUB DUP2 MSTORE SWAP1 PUSH1 0x40 MSTORE SWAP3 POP POP POP SWAP5 SWAP4 POP POP POP POP JUMP JUMPDEST PUSH1 0x60 DUP3 PUSH2 0x8CC CHAINID PUSH2 0x536 JUMP JUMPDEST PUSH2 0x8D5 DUP5 PUSH2 0x536 JUMP JUMPDEST PUSH1 0x40 MLOAD PUSH1 0x20 ADD PUSH2 0x8E7 SWAP4 SWAP3 SWAP2 SWAP1 PUSH2 0x1355 JUMP JUMPDEST PUSH1 0x40 MLOAD PUSH1 0x20 DUP2 DUP4 SUB SUB DUP2 MSTORE SWAP1 PUSH1 0x40 MSTORE SWAP1 POP SWAP3 SWAP2 POP POP JUMP JUMPDEST PUSH1 0x60 DUP2 PUSH1 0x40 MLOAD PUSH1 0x20 ADD PUSH2 0x911 SWAP2 SWAP1 PUSH2 0x13E8 JUMP JUMPDEST PUSH1 0x40 MLOAD PUSH1 0x20 DUP2 DUP4 SUB SUB DUP2 MSTORE SWAP1 PUSH1 0x40 MSTORE SWAP1 POP SWAP2 SWAP1 POP JUMP JUMPDEST PUSH1 0x60 PUSH1 0x0 PUSH2 0x935 DUP7 DUP7 PUSH2 0x8C0 JUMP JUMPDEST SWAP1 POP DUP1 DUP5 DUP5 PUSH1 0x40 MLOAD PUSH1 0x20 ADD PUSH2 0x94C SWAP4 SWAP3 SWAP2 SWAP1 PUSH2 0x1545 JUMP JUMPDEST PUSH1 0x40 MLOAD PUSH1 0x20 DUP2 DUP4 SUB SUB DUP2 MSTORE SWAP1 PUSH1 0x40 MSTORE SWAP2 POP POP SWAP5 SWAP4 POP POP POP POP JUMP JUMPDEST PUSH1 0x0 DUP1 PUSH1 0x0 SWAP1 POP PUSH27 0x184F03E93FF9F4DAA797ED6E38ED64BF6A1F010000000000000000 DUP4 LT PUSH2 0x9C4 JUMPI PUSH27 0x184F03E93FF9F4DAA797ED6E38ED64BF6A1F010000000000000000 DUP4 DUP2 PUSH2 0x9BA JUMPI PUSH2 0x9B9 PUSH2 0x1107 JUMP JUMPDEST JUMPDEST DIV SWAP3 POP PUSH1 0x40 DUP2 ADD SWAP1 POP JUMPDEST PUSH14 0x4EE2D6D415B85ACEF8100000000 DUP4 LT PUSH2 0xA01 JUMPI PUSH14 0x4EE2D6D415B85ACEF8100000000 DUP4 DUP2 PUSH2 0x9F7 JUMPI PUSH2 0x9F6 PUSH2 0x1107 JUMP JUMPDEST JUMPDEST DIV SWAP3 POP PUSH1 0x20 DUP2 ADD SWAP1 POP JUMPDEST PUSH7 0x2386F26FC10000 DUP4 LT PUSH2 0xA30 JUMPI PUSH7 0x2386F26FC10000 DUP4 DUP2 PUSH2 0xA26 JUMPI PUSH2 0xA25 PUSH2 0x1107 JUMP JUMPDEST JUMPDEST DIV SWAP3 POP PUSH1 0x10 DUP2 ADD SWAP1 POP JUMPDEST PUSH4 0x5F5E100 DUP4 LT PUSH2 0xA59 JUMPI PUSH4 0x5F5E100 DUP4 DUP2 PUSH2 0xA4F JUMPI PUSH2 0xA4E PUSH2 0x1107 JUMP JUMPDEST JUMPDEST DIV SWAP3 POP PUSH1 0x8 DUP2 ADD SWAP1 POP JUMPDEST PUSH2 0x2710 DUP4 LT PUSH2 0xA7E JUMPI PUSH2 0x2710 DUP4 DUP2 PUSH2 0xA74 JUMPI PUSH2 0xA73 PUSH2 0x1107 JUMP JUMPDEST JUMPDEST DIV SWAP3 POP PUSH1 0x4 DUP2 ADD SWAP1 POP JUMPDEST PUSH1 0x64 DUP4 LT PUSH2 0xAA1 JUMPI PUSH1 0x64 DUP4 DUP2 PUSH2 0xA97 JUMPI PUSH2 0xA96 PUSH2 0x1107 JUMP JUMPDEST JUMPDEST DIV SWAP3 POP PUSH1 0x2 DUP2 ADD SWAP1 POP JUMPDEST PUSH1 0xA DUP4 LT PUSH2 0xAB0 JUMPI PUSH1 0x1 DUP2 ADD SWAP1 POP JUMPDEST DUP1 SWAP2 POP POP SWAP2 SWAP1 POP JUMP JUMPDEST PUSH1 0x0 PUSH1 0x40 MLOAD SWAP1 POP SWAP1 JUMP JUMPDEST PUSH1 0x0 DUP1 REVERT JUMPDEST PUSH1 0x0 DUP1 REVERT JUMPDEST PUSH1 0x0 DUP2 SWAP1 POP SWAP2 SWAP1 POP JUMP JUMPDEST PUSH2 0xAE0 DUP2 PUSH2 0xACD JUMP JUMPDEST DUP2 EQ PUSH2 0xAEB JUMPI PUSH1 0x0 DUP1 REVERT JUMPDEST POP JUMP JUMPDEST PUSH1 0x0 DUP2 CALLDATALOAD SWAP1 POP PUSH2 0xAFD DUP2 PUSH2 0xAD7 JUMP JUMPDEST SWAP3 SWAP2 POP POP JUMP JUMPDEST PUSH1 0x0 PUSH1 0x20 DUP3 DUP5 SUB SLT ISZERO PUSH2 0xB19 JUMPI PUSH2 0xB18 PUSH2 0xAC3 JUMP JUMPDEST JUMPDEST PUSH1 0x0 PUSH2 0xB27 DUP5 DUP3 DUP6 ADD PUSH2 0xAEE JUMP JUMPDEST SWAP2 POP POP SWAP3 SWAP2 POP POP JUMP JUMPDEST PUSH1 0x0 PUSH20 0xFFFFFFFFFFFFFFFFFFFFFFFFFFFFFFFFFFFFFFFF DUP3 AND SWAP1 POP SWAP2 SWAP1 POP JUMP JUMPDEST PUSH1 0x0 PUSH2 0xB5B DUP3 PUSH2 0xB30 JUMP JUMPDEST SWAP1 POP SWAP2 SWAP1 POP JUMP JUMPDEST PUSH2 0xB6B DUP2 PUSH2 0xB50 JUMP JUMPDEST DUP2 EQ PUSH2 0xB76 JUMPI PUSH1 0x0 DUP1 REVERT JUMPDEST POP JUMP JUMPDEST PUSH1 0x0 DUP2 CALLDATALOAD SWAP1 POP PUSH2 0xB88 DUP2 PUSH2 0xB62 JUMP JUMPDEST SWAP3 SWAP2 POP POP JUMP JUMPDEST PUSH1 0x0 DUP1 REVERT JUMPDEST PUSH1 0x0 DUP1 REVERT JUMPDEST PUSH1 0x0 PUSH1 0x1F NOT PUSH1 0x1F DUP4 ADD AND SWAP1 POP SWAP2 SWAP1 POP JUMP JUMPDEST PUSH32 0x4E487B7100000000000000000000000000000000000000000000000000000000 PUSH1 0x0 MSTORE PUSH1 0x41 PUSH1 0x4 MSTORE PUSH1 0x24 PUSH1 0x0 REVERT JUMPDEST PUSH2 0xBE1 DUP3 PUSH2 0xB98 JUMP JUMPDEST DUP2 ADD DUP2 DUP2 LT PUSH8 0xFFFFFFFFFFFFFFFF DUP3 GT OR ISZERO PUSH2 0xC00 JUMPI PUSH2 0xBFF PUSH2 0xBA9 JUMP JUMPDEST JUMPDEST DUP1 PUSH1 0x40 MSTORE POP POP POP JUMP JUMPDEST PUSH1 0x0 PUSH2 0xC13 PUSH2 0xAB9 JUMP JUMPDEST SWAP1 POP PUSH2 0xC1F DUP3 DUP3 PUSH2 0xBD8 JUMP JUMPDEST SWAP2 SWAP1 POP JUMP JUMPDEST PUSH1 0x0 PUSH8 0xFFFFFFFFFFFFFFFF DUP3 GT ISZERO PUSH2 0xC3F JUMPI PUSH2 0xC3E PUSH2 0xBA9 JUMP JUMPDEST JUMPDEST PUSH2 0xC48 DUP3 PUSH2 0xB98 JUMP JUMPDEST SWAP1 POP PUSH1 0x20 DUP2 ADD SWAP1 POP SWAP2 SWAP1 POP JUMP JUMPDEST DUP3 DUP2 DUP4 CALLDATACOPY PUSH1 0x0 DUP4 DUP4 ADD MSTORE POP POP POP JUMP JUMPDEST PUSH1 0x0 PUSH2 0xC77 PUSH2 0xC72 DUP5 PUSH2 0xC24 JUMP JUMPDEST PUSH2 0xC09 JUMP JUMPDEST SWAP1 POP DUP3 DUP2 MSTORE PUSH1 0x20 DUP2 ADD DUP5 DUP5 DUP5 ADD GT ISZERO PUSH2 0xC93 JUMPI PUSH2 0xC92 PUSH2 0xB93 JUMP JUMPDEST JUMPDEST PUSH2 0xC9E DUP5 DUP3 DUP6 PUSH2 0xC55 JUMP JUMPDEST POP SWAP4 SWAP3 POP POP POP JUMP JUMPDEST PUSH1 0x0 DUP3 PUSH1 0x1F DUP4 ADD SLT PUSH2 0xCBB JUMPI PUSH2 0xCBA PUSH2 0xB8E JUMP JUMPDEST JUMPDEST DUP2 CALLDATALOAD PUSH2 0xCCB DUP5 DUP3 PUSH1 0x20 DUP7 ADD PUSH2 0xC64 JUMP JUMPDEST SWAP2 POP POP SWAP3 SWAP2 POP POP JUMP JUMPDEST PUSH1 0x0 DUP1 PUSH1 0x0 DUP1 PUSH1 0x80 DUP6 DUP8 SUB SLT ISZERO PUSH2 0xCEE JUMPI PUSH2 0xCED PUSH2 0xAC3 JUMP JUMPDEST JUMPDEST PUSH1 0x0 PUSH2 0xCFC DUP8 DUP3 DUP9 ADD PUSH2 0xB79 JUMP JUMPDEST SWAP5 POP POP PUSH1 0x20 PUSH2 0xD0D DUP8 DUP3 DUP9 ADD PUSH2 0xB79 JUMP JUMPDEST SWAP4 POP POP PUSH1 0x40 PUSH2 0xD1E DUP8 DUP3 DUP9 ADD PUSH2 0xAEE JUMP JUMPDEST SWAP3 POP POP PUSH1 0x60 DUP6 ADD CALLDATALOAD PUSH8 0xFFFFFFFFFFFFFFFF DUP2 GT ISZERO PUSH2 0xD3F JUMPI PUSH2 0xD3E PUSH2 0xAC8 JUMP JUMPDEST JUMPDEST PUSH2 0xD4B DUP8 DUP3 DUP9 ADD PUSH2 0xCA6 JUMP JUMPDEST SWAP2 POP POP SWAP3 SWAP6 SWAP2 SWAP5 POP SWAP3 POP JUMP JUMPDEST PUSH1 0x0 PUSH32 0xFFFFFFFF00000000000000000000000000000000000000000000000000000000 DUP3 AND SWAP1 POP SWAP2 SWAP1 POP JUMP JUMPDEST PUSH2 0xD8C DUP2 PUSH2 0xD57 JUMP JUMPDEST DUP3 MSTORE POP POP JUMP JUMPDEST PUSH1 0x0 PUSH1 0x20 DUP3 ADD SWAP1 POP PUSH2 0xDA7 PUSH1 0x0 DUP4 ADD DUP5 PUSH2 0xD83 JUMP JUMPDEST SWAP3 SWAP2 POP POP JUMP JUMPDEST PUSH1 0x0 PUSH1 0x20 DUP3 DUP5 SUB SLT ISZERO PUSH2 0xDC3 JUMPI PUSH2 0xDC2 PUSH2 0xAC3 JUMP JUMPDEST JUMPDEST PUSH1 0x0 PUSH2 0xDD1 DUP5 DUP3 DUP6 ADD PUSH2 0xB79 JUMP JUMPDEST SWAP2 POP POP SWAP3 SWAP2 POP POP JUMP JUMPDEST PUSH1 0x0 PUSH8 0xFFFFFFFFFFFFFFFF DUP3 GT ISZERO PUSH2 0xDF5 JUMPI PUSH2 0xDF4 PUSH2 0xBA9 JUMP JUMPDEST JUMPDEST PUSH2 0xDFE DUP3 PUSH2 0xB98 JUMP JUMPDEST SWAP1 POP PUSH1 0x20 DUP2 ADD SWAP1 POP SWAP2 SWAP1 POP JUMP JUMPDEST PUSH1 0x0 PUSH2 0xE1E PUSH2 0xE19 DUP5 PUSH2 0xDDA JUMP JUMPDEST PUSH2 0xC09 JUMP JUMPDEST SWAP1 POP DUP3 DUP2 MSTORE PUSH1 0x20 DUP2 ADD DUP5 DUP5 DUP5 ADD GT ISZERO PUSH2 0xE3A JUMPI PUSH2 0xE39 PUSH2 0xB93 JUMP JUMPDEST JUMPDEST PUSH2 0xE45 DUP5 DUP3 DUP6 PUSH2 0xC55 JUMP JUMPDEST POP SWAP4 SWAP3 POP POP POP JUMP JUMPDEST PUSH1 0x0 DUP3 PUSH1 0x1F DUP4 ADD SLT PUSH2 0xE62 JUMPI PUSH2 0xE61 PUSH2 0xB8E JUMP JUMPDEST JUMPDEST DUP2 CALLDATALOAD PUSH2 0xE72 DUP5 DUP3 PUSH1 0x20 DUP7 ADD PUSH2 0xE0B JUMP JUMPDEST SWAP2 POP POP SWAP3 SWAP2 POP POP JUMP JUMPDEST PUSH1 0x0 DUP1 PUSH1 0x40 DUP4 DUP6 SUB SLT ISZERO PUSH2 0xE92 JUMPI PUSH2 0xE91 PUSH2 0xAC3 JUMP JUMPDEST JUMPDEST PUSH1 0x0 PUSH2 0xEA0 DUP6 DUP3 DUP7 ADD PUSH2 0xAEE JUMP JUMPDEST SWAP3 POP POP PUSH1 0x20 DUP4 ADD CALLDATALOAD PUSH8 0xFFFFFFFFFFFFFFFF DUP2 GT ISZERO PUSH2 0xEC1 JUMPI PUSH2 0xEC0 PUSH2 0xAC8 JUMP JUMPDEST JUMPDEST PUSH2 0xECD DUP6 DUP3 DUP7 ADD PUSH2 0xE4D JUMP JUMPDEST SWAP2 POP POP SWAP3 POP SWAP3 SWAP1 POP JUMP JUMPDEST PUSH1 0x0 DUP2 MLOAD SWAP1 POP SWAP2 SWAP1 POP JUMP JUMPDEST PUSH1 0x0 DUP3 DUP3 MSTORE PUSH1 0x20 DUP3 ADD SWAP1 POP SWAP3 SWAP2 POP POP JUMP JUMPDEST PUSH1 0x0 JUMPDEST DUP4 DUP2 LT ISZERO PUSH2 0xF11 JUMPI DUP1 DUP3 ADD MLOAD DUP2 DUP5 ADD MSTORE PUSH1 0x20 DUP2 ADD SWAP1 POP PUSH2 0xEF6 JUMP JUMPDEST PUSH1 0x0 DUP5 DUP5 ADD MSTORE POP POP POP POP JUMP JUMPDEST PUSH1 0x0 PUSH2 0xF28 DUP3 PUSH2 0xED7 JUMP JUMPDEST PUSH2 0xF32 DUP2 DUP6 PUSH2 0xEE2 JUMP JUMPDEST SWAP4 POP PUSH2 0xF42 DUP2 DUP6 PUSH1 0x20 DUP7 ADD PUSH2 0xEF3 JUMP JUMPDEST PUSH2 0xF4B DUP2 PUSH2 0xB98 JUMP JUMPDEST DUP5 ADD SWAP2 POP POP SWAP3 SWAP2 POP POP JUMP JUMPDEST PUSH1 0x0 PUSH1 0x20 DUP3 ADD SWAP1 POP DUP2 DUP2 SUB PUSH1 0x0 DUP4 ADD MSTORE PUSH2 0xF70 DUP2 DUP5 PUSH2 0xF1D JUMP JUMPDEST SWAP1 POP SWAP3 SWAP2 POP POP JUMP JUMPDEST PUSH2 0xF81 DUP2 PUSH2 0xACD JUMP JUMPDEST DUP3 MSTORE POP POP JUMP JUMPDEST PUSH1 0x0 PUSH1 0x20 DUP3 ADD SWAP1 POP PUSH2 0xF9C PUSH1 0x0 DUP4 ADD DUP5 PUSH2 0xF78 JUMP JUMPDEST SWAP3 SWAP2 POP POP JUMP JUMPDEST PUSH32 0x69643D0000000000000000000000000000000000000000000000000000000000 DUP2 MSTORE POP JUMP JUMPDEST PUSH1 0x0 DUP2 SWAP1 POP SWAP3 SWAP2 POP POP JUMP JUMPDEST PUSH1 0x0 PUSH2 0xFDE DUP3 PUSH2 0xED7 JUMP JUMPDEST PUSH2 0xFE8 DUP2 DUP6 PUSH2 0xFC8 JUMP JUMPDEST SWAP4 POP PUSH2 0xFF8 DUP2 DUP6 PUSH1 0x20 DUP7 ADD PUSH2 0xEF3 JUMP JUMPDEST DUP1 DUP5 ADD SWAP2 POP POP SWAP3 SWAP2 POP POP JUMP JUMPDEST PUSH1 0x0 PUSH2 0x100F DUP3 PUSH2 0xFA2 JUMP JUMPDEST PUSH1 0x3 DUP3 ADD SWAP2 POP PUSH2 0x101F DUP3 DUP5 PUSH2 0xFD3 JUMP JUMPDEST SWAP2 POP DUP2 SWAP1 POP SWAP3 SWAP2 POP POP JUMP JUMPDEST PUSH2 0x1033 DUP2 PUSH2 0xB50 JUMP JUMPDEST DUP3 MSTORE POP POP JUMP JUMPDEST PUSH1 0x0 PUSH1 0x60 DUP3 ADD SWAP1 POP PUSH2 0x104E PUSH1 0x0 DUP4 ADD DUP7 PUSH2 0x102A JUMP JUMPDEST PUSH2 0x105B PUSH1 0x20 DUP4 ADD DUP6 PUSH2 0xF78 JUMP JUMPDEST DUP2 DUP2 SUB PUSH1 0x40 DUP4 ADD MSTORE PUSH2 0x106D DUP2 DUP5 PUSH2 0xF1D JUMP JUMPDEST SWAP1 POP SWAP5 SWAP4 POP POP POP POP JUMP JUMPDEST PUSH1 0x0 PUSH1 0x60 DUP3 ADD SWAP1 POP PUSH2 0x108C PUSH1 0x0 DUP4 ADD DUP7 PUSH2 0x102A JUMP JUMPDEST PUSH2 0x1099 PUSH1 0x20 DUP4 ADD DUP6 PUSH2 0xF78 JUMP JUMPDEST PUSH2 0x10A6 PUSH1 0x40 DUP4 ADD DUP5 PUSH2 0x102A JUMP JUMPDEST SWAP5 SWAP4 POP POP POP POP JUMP JUMPDEST PUSH32 0x2C00000000000000000000000000000000000000000000000000000000000000 DUP2 MSTORE POP JUMP JUMPDEST PUSH1 0x0 PUSH2 0x10E0 DUP3 DUP6 PUSH2 0xFD3 JUMP JUMPDEST SWAP2 POP PUSH2 0x10EB DUP3 PUSH2 0x10AE JUMP JUMPDEST PUSH1 0x1 DUP3 ADD SWAP2 POP PUSH2 0x10FB DUP3 DUP5 PUSH2 0xFD3 JUMP JUMPDEST SWAP2 POP DUP2 SWAP1 POP SWAP4 SWAP3 POP POP POP JUMP JUMPDEST PUSH32 0x4E487B7100000000000000000000000000000000000000000000000000000000 PUSH1 0x0 MSTORE PUSH1 0x12 PUSH1 0x4 MSTORE PUSH1 0x24 PUSH1 0x0 REVERT JUMPDEST PUSH32 0x44454C4554452046524F4D200000000000000000000000000000000000000000 PUSH1 0x0 DUP3 ADD MSTORE POP JUMP JUMPDEST PUSH1 0x0 PUSH2 0x116C PUSH1 0xC DUP4 PUSH2 0xFC8 JUMP JUMPDEST SWAP2 POP PUSH2 0x1177 DUP3 PUSH2 0x1136 JUMP JUMPDEST PUSH1 0xC DUP3 ADD SWAP1 POP SWAP2 SWAP1 POP JUMP JUMPDEST PUSH32 0x2057484552452000000000000000000000000000000000000000000000000000 PUSH1 0x0 DUP3 ADD MSTORE POP JUMP JUMPDEST PUSH1 0x0 PUSH2 0x11B8 PUSH1 0x7 DUP4 PUSH2 0xFC8 JUMP JUMPDEST SWAP2 POP PUSH2 0x11C3 DUP3 PUSH2 0x1182 JUMP JUMPDEST PUSH1 0x7 DUP3 ADD SWAP1 POP SWAP2 SWAP1 POP JUMP JUMPDEST PUSH1 0x0 PUSH2 0x11D9 DUP3 PUSH2 0x115F JUMP JUMPDEST SWAP2 POP PUSH2 0x11E5 DUP3 DUP6 PUSH2 0xFD3 JUMP JUMPDEST SWAP2 POP PUSH2 0x11F0 DUP3 PUSH2 0x11AB JUMP JUMPDEST SWAP2 POP PUSH2 0x11FC DUP3 DUP5 PUSH2 0xFD3 JUMP JUMPDEST SWAP2 POP DUP2 SWAP1 POP SWAP4 SWAP3 POP POP POP JUMP JUMPDEST PUSH1 0x0 PUSH2 0x1213 DUP3 PUSH2 0x11AB JUMP JUMPDEST SWAP2 POP PUSH2 0x121F DUP3 DUP5 PUSH2 0xFD3 JUMP JUMPDEST SWAP2 POP DUP2 SWAP1 POP SWAP3 SWAP2 POP POP JUMP JUMPDEST PUSH32 0x5550444154452000000000000000000000000000000000000000000000000000 PUSH1 0x0 DUP3 ADD MSTORE POP JUMP JUMPDEST PUSH1 0x0 PUSH2 0x1260 PUSH1 0x7 DUP4 PUSH2 0xFC8 JUMP JUMPDEST SWAP2 POP PUSH2 0x126B DUP3 PUSH2 0x122A JUMP JUMPDEST PUSH1 0x7 DUP3 ADD SWAP1 POP SWAP2 SWAP1 POP JUMP JUMPDEST PUSH32 0x2053455420000000000000000000000000000000000000000000000000000000 PUSH1 0x0 DUP3 ADD MSTORE POP JUMP JUMPDEST PUSH1 0x0 PUSH2 0x12AC PUSH1 0x5 DUP4 PUSH2 0xFC8 JUMP JUMPDEST SWAP2 POP PUSH2 0x12B7 DUP3 PUSH2 0x1276 JUMP JUMPDEST PUSH1 0x5 DUP3 ADD SWAP1 POP SWAP2 SWAP1 POP JUMP JUMPDEST PUSH1 0x0 PUSH2 0x12CD DUP3 PUSH2 0x1253 JUMP JUMPDEST SWAP2 POP PUSH2 0x12D9 DUP3 DUP7 PUSH2 0xFD3 JUMP JUMPDEST SWAP2 POP PUSH2 0x12E4 DUP3 PUSH2 0x129F JUMP JUMPDEST SWAP2 POP PUSH2 0x12F0 DUP3 DUP6 PUSH2 0xFD3 JUMP JUMPDEST SWAP2 POP PUSH2 0x12FC DUP3 DUP5 PUSH2 0xFD3 JUMP JUMPDEST SWAP2 POP DUP2 SWAP1 POP SWAP5 SWAP4 POP POP POP POP JUMP JUMPDEST PUSH32 0x5F00000000000000000000000000000000000000000000000000000000000000 PUSH1 0x0 DUP3 ADD MSTORE POP JUMP JUMPDEST PUSH1 0x0 PUSH2 0x133F PUSH1 0x1 DUP4 PUSH2 0xFC8 JUMP JUMPDEST SWAP2 POP PUSH2 0x134A DUP3 PUSH2 0x1309 JUMP JUMPDEST PUSH1 0x1 DUP3 ADD SWAP1 POP SWAP2 SWAP1 POP JUMP JUMPDEST PUSH1 0x0 PUSH2 0x1361 DUP3 DUP7 PUSH2 0xFD3 JUMP JUMPDEST SWAP2 POP PUSH2 0x136C DUP3 PUSH2 0x1332 JUMP JUMPDEST SWAP2 POP PUSH2 0x1378 DUP3 DUP6 PUSH2 0xFD3 JUMP JUMPDEST SWAP2 POP PUSH2 0x1383 DUP3 PUSH2 0x1332 JUMP JUMPDEST SWAP2 POP PUSH2 0x138F DUP3 DUP5 PUSH2 0xFD3 JUMP JUMPDEST SWAP2 POP DUP2 SWAP1 POP SWAP5 SWAP4 POP POP POP POP JUMP JUMPDEST PUSH32 0x2700000000000000000000000000000000000000000000000000000000000000 PUSH1 0x0 DUP3 ADD MSTORE POP JUMP JUMPDEST PUSH1 0x0 PUSH2 0x13D2 PUSH1 0x1 DUP4 PUSH2 0xFC8 JUMP JUMPDEST SWAP2 POP PUSH2 0x13DD DUP3 PUSH2 0x139C JUMP JUMPDEST PUSH1 0x1 DUP3 ADD SWAP1 POP SWAP2 SWAP1 POP JUMP JUMPDEST PUSH1 0x0 PUSH2 0x13F3 DUP3 PUSH2 0x13C5 JUMP JUMPDEST SWAP2 POP PUSH2 0x13FF DUP3 DUP5 PUSH2 0xFD3 JUMP JUMPDEST SWAP2 POP PUSH2 0x140A DUP3 PUSH2 0x13C5 JUMP JUMPDEST SWAP2 POP DUP2 SWAP1 POP SWAP3 SWAP2 POP POP JUMP JUMPDEST PUSH32 0x494E5345525420494E544F200000000000000000000000000000000000000000 PUSH1 0x0 DUP3 ADD MSTORE POP JUMP JUMPDEST PUSH1 0x0 PUSH2 0x144B PUSH1 0xC DUP4 PUSH2 0xFC8 JUMP JUMPDEST SWAP2 POP PUSH2 0x1456 DUP3 PUSH2 0x1415 JUMP JUMPDEST PUSH1 0xC DUP3 ADD SWAP1 POP SWAP2 SWAP1 POP JUMP JUMPDEST PUSH32 0x2800000000000000000000000000000000000000000000000000000000000000 PUSH1 0x0 DUP3 ADD MSTORE POP JUMP JUMPDEST PUSH1 0x0 PUSH2 0x1497 PUSH1 0x1 DUP4 PUSH2 0xFC8 JUMP JUMPDEST SWAP2 POP PUSH2 0x14A2 DUP3 PUSH2 0x1461 JUMP JUMPDEST PUSH1 0x1 DUP3 ADD SWAP1 POP SWAP2 SWAP1 POP JUMP JUMPDEST PUSH32 0x2956414C55455328000000000000000000000000000000000000000000000000 PUSH1 0x0 DUP3 ADD MSTORE POP JUMP JUMPDEST PUSH1 0x0 PUSH2 0x14E3 PUSH1 0x8 DUP4 PUSH2 0xFC8 JUMP JUMPDEST SWAP2 POP PUSH2 0x14EE DUP3 PUSH2 0x14AD JUMP JUMPDEST PUSH1 0x8 DUP3 ADD SWAP1 POP SWAP2 SWAP1 POP JUMP JUMPDEST PUSH32 0x2900000000000000000000000000000000000000000000000000000000000000 PUSH1 0x0 DUP3 ADD MSTORE POP JUMP JUMPDEST PUSH1 0x0 PUSH2 0x152F PUSH1 0x1 DUP4 PUSH2 0xFC8 JUMP JUMPDEST SWAP2 POP PUSH2 0x153A DUP3 PUSH2 0x14F9 JUMP JUMPDEST PUSH1 0x1 DUP3 ADD SWAP1 POP SWAP2 SWAP1 POP JUMP JUMPDEST PUSH1 0x0 PUSH2 0x1550 DUP3 PUSH2 0x143E JUMP JUMPDEST SWAP2 POP PUSH2 0x155C DUP3 DUP7 PUSH2 0xFD3 JUMP JUMPDEST SWAP2 POP PUSH2 0x1567 DUP3 PUSH2 0x148A JUMP JUMPDEST SWAP2 POP PUSH2 0x1573 DUP3 DUP6 PUSH2 0xFD3 JUMP JUMPDEST SWAP2 POP PUSH2 0x157E DUP3 PUSH2 0x14D6 JUMP JUMPDEST SWAP2 POP PUSH2 0x158A DUP3 DUP5 PUSH2 0xFD3 JUMP JUMPDEST SWAP2 POP PUSH2 0x1595 DUP3 PUSH2 0x1522 JUMP JUMPDEST SWAP2 POP DUP2 SWAP1 POP SWAP5 SWAP4 POP POP POP POP JUMP INVALID LOG2 PUSH5 0x6970667358 0x22 SLT KECCAK256 DIV SSTORE 0xCE 0xDE RETURNDATACOPY BLOCKHASH PUSH20 0xEBF27DF3F83F4C1FE4643234D41AE16E0A955E9F GASLIMIT RETURN PUSH29 0x97B764736F6C63430008180033696420696E7465676572207072696D61 PUSH19 0x79206B65792C757365725F69642074657874A2 PUSH5 0x6970667358 0x22 SLT KECCAK256 PUSH32 0xA24DBF03EE386E215CCE5F5FEA10BDA65AA4F249B5B6DC84C34BFF3DE4A76564 PUSH20 0x6F6C634300081800336964207465787420707269 PUSH14 0x617279206B65792C7469746C6520 PUSH21 0x6578742C6465736372697074696F6E20746578742C PUSH5 0x6174612074 PUSH6 0x78742C696D61 PUSH8 0x6520746578742C76 PUSH10 0x64656F20746578742C6C PUSH16 0x636174696F6E20746578742C75736572 PUSH0 PUSH4 0x6F6E7472 PUSH2 0x6374 PUSH0 PUSH10 0x6420746578742C626163 PUSH12 0x65727320746578742C70726F PUSH11 0x6563745F636F6E74726163 PUSH21 0x5F6964207465787460806040523480156200001157 PUSH1 0x0 DUP1 REVERT JUMPDEST POP PUSH3 0x22 PUSH3 0x28 PUSH1 0x20 SHL PUSH1 0x20 SHR JUMP JUMPDEST PUSH3 0x9C3 JUMP JUMPDEST PUSH3 0x38 PUSH3 0x121 PUSH1 0x20 SHL PUSH1 0x20 SHR JUMP JUMPDEST PUSH20 0xFFFFFFFFFFFFFFFFFFFFFFFFFFFFFFFFFFFFFFFF AND PUSH4 0xA15AB08D ADDRESS PUSH3 0xB4 PUSH1 0x40 MLOAD DUP1 PUSH1 0xA0 ADD PUSH1 0x40 MSTORE DUP1 PUSH1 0x77 DUP2 MSTORE PUSH1 0x20 ADD PUSH3 0x1E72 PUSH1 0x77 SWAP2 CODECOPY PUSH1 0x40 MLOAD DUP1 PUSH1 0x40 ADD PUSH1 0x40 MSTORE DUP1 PUSH1 0x10 DUP2 MSTORE PUSH1 0x20 ADD PUSH32 0x7461626C655F6174747269627574657300000000000000000000000000000000 DUP2 MSTORE POP PUSH3 0x33A PUSH1 0x20 SHL PUSH1 0x20 SHR JUMP JUMPDEST PUSH1 0x40 MLOAD DUP4 PUSH4 0xFFFFFFFF AND PUSH1 0xE0 SHL DUP2 MSTORE PUSH1 0x4 ADD PUSH3 0xD3 SWAP3 SWAP2 SWAP1 PUSH3 0x6A4 JUMP JUMPDEST PUSH1 0x20 PUSH1 0x40 MLOAD DUP1 DUP4 SUB DUP2 PUSH1 0x0 DUP8 GAS CALL ISZERO DUP1 ISZERO PUSH3 0xF3 JUMPI RETURNDATASIZE PUSH1 0x0 DUP1 RETURNDATACOPY RETURNDATASIZE PUSH1 0x0 REVERT JUMPDEST POP POP POP POP PUSH1 0x40 MLOAD RETURNDATASIZE PUSH1 0x1F NOT PUSH1 0x1F DUP3 ADD AND DUP3 ADD DUP1 PUSH1 0x40 MSTORE POP DUP2 ADD SWAP1 PUSH3 0x119 SWAP2 SWAP1 PUSH3 0x718 JUMP JUMPDEST PUSH1 0x0 DUP2 SWAP1 SSTORE POP JUMP JUMPDEST PUSH1 0x0 PUSH1 0x1 CHAINID SUB PUSH3 0x149 JUMPI PUSH20 0x12969F7E3439A9B04025B5A049EB9BAD82A8C12 SWAP1 POP PUSH3 0x337 JUMP JUMPDEST PUSH1 0xA CHAINID SUB PUSH3 0x16F JUMPI PUSH20 0xFAD44BF5B843DE943A09D4F3E84949A11D3AA3E6 SWAP1 POP PUSH3 0x337 JUMP JUMPDEST PUSH2 0xA4B1 CHAINID SUB PUSH3 0x196 JUMPI PUSH20 0x9ABD75E8640871A5A20D3B4EE6330A04C962AFFD SWAP1 POP PUSH3 0x337 JUMP JUMPDEST PUSH2 0xA4BA CHAINID SUB PUSH3 0x1BD JUMPI PUSH20 0x1A22854C5B1642760A827F20137A67930AE108D2 SWAP1 POP PUSH3 0x337 JUMP JUMPDEST PUSH1 0x89 CHAINID SUB PUSH3 0x1E3 JUMPI PUSH20 0x5C4E6A9E5C1E1BF445A062006FAF19EA6C49AFEA SWAP1 POP PUSH3 0x337 JUMP JUMPDEST PUSH2 0x13A CHAINID SUB PUSH3 0x20A JUMPI PUSH20 0x59EF8BF2D6C102B4C42AEF9189E1A9F0ABFD652D SWAP1 POP PUSH3 0x337 JUMP JUMPDEST PUSH3 0xAA36A7 CHAINID SUB PUSH3 0x232 JUMPI PUSH20 0xC50C62498448ACC8DBDE43DA77F8D5D2E2C7597D SWAP1 POP PUSH3 0x337 JUMP JUMPDEST PUSH2 0x1A4 CHAINID SUB PUSH3 0x259 JUMPI PUSH20 0xC72E8A7BE04F2469F8C2DB3F1BDF69A7D516ABBA SWAP1 POP PUSH3 0x337 JUMP JUMPDEST PUSH3 0x66EEE CHAINID SUB PUSH3 0x281 JUMPI PUSH20 0x223A74B8323914AFDC3FF1E5005564DC17231D6E SWAP1 POP PUSH3 0x337 JUMP JUMPDEST PUSH3 0x13881 CHAINID SUB PUSH3 0x2A9 JUMPI PUSH20 0x4B48841D4B32C4650E4ABC117A03FE8B51F38F68 SWAP1 POP PUSH3 0x337 JUMP JUMPDEST PUSH3 0x4CB2F CHAINID SUB PUSH3 0x2D1 JUMPI PUSH20 0x30BCF3D50CAD04C2E57391B12740982A9308621 SWAP1 POP PUSH3 0x337 JUMP JUMPDEST PUSH2 0x7A69 CHAINID SUB PUSH3 0x2F8 JUMPI PUSH20 0xE7F1725E7734CE288F8367E1BB143E90BB3F0512 SWAP1 POP PUSH3 0x337 JUMP JUMPDEST CHAINID PUSH1 0x40 MLOAD PUSH32 0x264E42CF00000000000000000000000000000000000000000000000000000000 DUP2 MSTORE PUSH1 0x4 ADD PUSH3 0x32E SWAP2 SWAP1 PUSH3 0x75B JUMP JUMPDEST PUSH1 0x40 MLOAD DUP1 SWAP2 SUB SWAP1 REVERT JUMPDEST SWAP1 JUMP JUMPDEST PUSH1 0x60 DUP2 PUSH3 0x34E CHAINID PUSH3 0x37A PUSH1 0x20 SHL PUSH1 0x20 SHR JUMP JUMPDEST DUP5 PUSH1 0x40 MLOAD PUSH1 0x20 ADD PUSH3 0x363 SWAP4 SWAP3 SWAP2 SWAP1 PUSH3 0x8FA JUMP JUMPDEST PUSH1 0x40 MLOAD PUSH1 0x20 DUP2 DUP4 SUB SUB DUP2 MSTORE SWAP1 PUSH1 0x40 MSTORE SWAP1 POP SWAP3 SWAP2 POP POP JUMP JUMPDEST PUSH1 0x60 PUSH1 0x0 PUSH1 0x1 PUSH3 0x391 DUP5 PUSH3 0x459 PUSH1 0x20 SHL PUSH1 0x20 SHR JUMP JUMPDEST ADD SWAP1 POP PUSH1 0x0 DUP2 PUSH8 0xFFFFFFFFFFFFFFFF DUP2 GT ISZERO PUSH3 0x3B3 JUMPI PUSH3 0x3B2 PUSH3 0x965 JUMP JUMPDEST JUMPDEST PUSH1 0x40 MLOAD SWAP1 DUP1 DUP3 MSTORE DUP1 PUSH1 0x1F ADD PUSH1 0x1F NOT AND PUSH1 0x20 ADD DUP3 ADD PUSH1 0x40 MSTORE DUP1 ISZERO PUSH3 0x3E6 JUMPI DUP2 PUSH1 0x20 ADD PUSH1 0x1 DUP3 MUL DUP1 CALLDATASIZE DUP4 CALLDATACOPY DUP1 DUP3 ADD SWAP2 POP POP SWAP1 POP JUMPDEST POP SWAP1 POP PUSH1 0x0 DUP3 PUSH1 0x20 ADD DUP3 ADD SWAP1 POP JUMPDEST PUSH1 0x1 ISZERO PUSH3 0x44E JUMPI DUP1 DUP1 PUSH1 0x1 SWAP1 SUB SWAP2 POP POP PUSH32 0x3031323334353637383961626364656600000000000000000000000000000000 PUSH1 0xA DUP7 MOD BYTE DUP2 MSTORE8 PUSH1 0xA DUP6 DUP2 PUSH3 0x441 JUMPI PUSH3 0x440 PUSH3 0x994 JUMP JUMPDEST JUMPDEST DIV SWAP5 POP PUSH1 0x0 DUP6 SUB PUSH3 0x3F4 JUMPI JUMPDEST DUP2 SWAP4 POP POP POP POP SWAP2 SWAP1 POP JUMP JUMPDEST PUSH1 0x0 DUP1 PUSH1 0x0 SWAP1 POP PUSH27 0x184F03E93FF9F4DAA797ED6E38ED64BF6A1F010000000000000000 DUP4 LT PUSH3 0x4BB JUMPI PUSH27 0x184F03E93FF9F4DAA797ED6E38ED64BF6A1F010000000000000000 DUP4 DUP2 PUSH3 0x4B1 JUMPI PUSH3 0x4B0 PUSH3 0x994 JUMP JUMPDEST JUMPDEST DIV SWAP3 POP PUSH1 0x40 DUP2 ADD SWAP1 POP JUMPDEST PUSH14 0x4EE2D6D415B85ACEF8100000000 DUP4 LT PUSH3 0x4FC JUMPI PUSH14 0x4EE2D6D415B85ACEF8100000000 DUP4 DUP2 PUSH3 0x4F2 JUMPI PUSH3 0x4F1 PUSH3 0x994 JUMP JUMPDEST JUMPDEST DIV SWAP3 POP PUSH1 0x20 DUP2 ADD SWAP1 POP JUMPDEST PUSH7 0x2386F26FC10000 DUP4 LT PUSH3 0x52F JUMPI PUSH7 0x2386F26FC10000 DUP4 DUP2 PUSH3 0x525 JUMPI PUSH3 0x524 PUSH3 0x994 JUMP JUMPDEST JUMPDEST DIV SWAP3 POP PUSH1 0x10 DUP2 ADD SWAP1 POP JUMPDEST PUSH4 0x5F5E100 DUP4 LT PUSH3 0x55C JUMPI PUSH4 0x5F5E100 DUP4 DUP2 PUSH3 0x552 JUMPI PUSH3 0x551 PUSH3 0x994 JUMP JUMPDEST JUMPDEST DIV SWAP3 POP PUSH1 0x8 DUP2 ADD SWAP1 POP JUMPDEST PUSH2 0x2710 DUP4 LT PUSH3 0x585 JUMPI PUSH2 0x2710 DUP4 DUP2 PUSH3 0x57B JUMPI PUSH3 0x57A PUSH3 0x994 JUMP JUMPDEST JUMPDEST DIV SWAP3 POP PUSH1 0x4 DUP2 ADD SWAP1 POP JUMPDEST PUSH1 0x64 DUP4 LT PUSH3 0x5AC JUMPI PUSH1 0x64 DUP4 DUP2 PUSH3 0x5A2 JUMPI PUSH3 0x5A1 PUSH3 0x994 JUMP JUMPDEST JUMPDEST DIV SWAP3 POP PUSH1 0x2 DUP2 ADD SWAP1 POP JUMPDEST PUSH1 0xA DUP4 LT PUSH3 0x5BC JUMPI PUSH1 0x1 DUP2 ADD SWAP1 POP JUMPDEST DUP1 SWAP2 POP POP SWAP2 SWAP1 POP JUMP JUMPDEST PUSH1 0x0 PUSH20 0xFFFFFFFFFFFFFFFFFFFFFFFFFFFFFFFFFFFFFFFF DUP3 AND SWAP1 POP SWAP2 SWAP1 POP JUMP JUMPDEST PUSH1 0x0 PUSH3 0x5F2 DUP3 PUSH3 0x5C5 JUMP JUMPDEST SWAP1 POP SWAP2 SWAP1 POP JUMP JUMPDEST PUSH3 0x604 DUP2 PUSH3 0x5E5 JUMP JUMPDEST DUP3 MSTORE POP POP JUMP JUMPDEST PUSH1 0x0 DUP2 MLOAD SWAP1 POP SWAP2 SWAP1 POP JUMP JUMPDEST PUSH1 0x0 DUP3 DUP3 MSTORE PUSH1 0x20 DUP3 ADD SWAP1 POP SWAP3 SWAP2 POP POP JUMP JUMPDEST PUSH1 0x0 JUMPDEST DUP4 DUP2 LT ISZERO PUSH3 0x646 JUMPI DUP1 DUP3 ADD MLOAD DUP2 DUP5 ADD MSTORE PUSH1 0x20 DUP2 ADD SWAP1 POP PUSH3 0x629 JUMP JUMPDEST PUSH1 0x0 DUP5 DUP5 ADD MSTORE POP POP POP POP JUMP JUMPDEST PUSH1 0x0 PUSH1 0x1F NOT PUSH1 0x1F DUP4 ADD AND SWAP1 POP SWAP2 SWAP1 POP JUMP JUMPDEST PUSH1 0x0 PUSH3 0x670 DUP3 PUSH3 0x60A JUMP JUMPDEST PUSH3 0x67C DUP2 DUP6 PUSH3 0x615 JUMP JUMPDEST SWAP4 POP PUSH3 0x68E DUP2 DUP6 PUSH1 0x20 DUP7 ADD PUSH3 0x626 JUMP JUMPDEST PUSH3 0x699 DUP2 PUSH3 0x652 JUMP JUMPDEST DUP5 ADD SWAP2 POP POP SWAP3 SWAP2 POP POP JUMP JUMPDEST PUSH1 0x0 PUSH1 0x40 DUP3 ADD SWAP1 POP PUSH3 0x6BB PUSH1 0x0 DUP4 ADD DUP6 PUSH3 0x5F9 JUMP JUMPDEST DUP2 DUP2 SUB PUSH1 0x20 DUP4 ADD MSTORE PUSH3 0x6CF DUP2 DUP5 PUSH3 0x663 JUMP JUMPDEST SWAP1 POP SWAP4 SWAP3 POP POP POP JUMP JUMPDEST PUSH1 0x0 DUP1 REVERT JUMPDEST PUSH1 0x0 DUP2 SWAP1 POP SWAP2 SWAP1 POP JUMP JUMPDEST PUSH3 0x6F2 DUP2 PUSH3 0x6DD JUMP JUMPDEST DUP2 EQ PUSH3 0x6FE JUMPI PUSH1 0x0 DUP1 REVERT JUMPDEST POP JUMP JUMPDEST PUSH1 0x0 DUP2 MLOAD SWAP1 POP PUSH3 0x712 DUP2 PUSH3 0x6E7 JUMP JUMPDEST SWAP3 SWAP2 POP POP JUMP JUMPDEST PUSH1 0x0 PUSH1 0x20 DUP3 DUP5 SUB SLT ISZERO PUSH3 0x731 JUMPI PUSH3 0x730 PUSH3 0x6D8 JUMP JUMPDEST JUMPDEST PUSH1 0x0 PUSH3 0x741 DUP5 DUP3 DUP6 ADD PUSH3 0x701 JUMP JUMPDEST SWAP2 POP POP SWAP3 SWAP2 POP POP JUMP JUMPDEST PUSH3 0x755 DUP2 PUSH3 0x6DD JUMP JUMPDEST DUP3 MSTORE POP POP JUMP JUMPDEST PUSH1 0x0 PUSH1 0x20 DUP3 ADD SWAP1 POP PUSH3 0x772 PUSH1 0x0 DUP4 ADD DUP5 PUSH3 0x74A JUMP JUMPDEST SWAP3 SWAP2 POP POP JUMP JUMPDEST PUSH1 0x0 DUP2 SWAP1 POP SWAP3 SWAP2 POP POP JUMP JUMPDEST PUSH32 0x435245415445205441424C452000000000000000000000000000000000000000 PUSH1 0x0 DUP3 ADD MSTORE POP JUMP JUMPDEST PUSH1 0x0 PUSH3 0x7BB PUSH1 0xD DUP4 PUSH3 0x778 JUMP JUMPDEST SWAP2 POP PUSH3 0x7C8 DUP3 PUSH3 0x783 JUMP JUMPDEST PUSH1 0xD DUP3 ADD SWAP1 POP SWAP2 SWAP1 POP JUMP JUMPDEST PUSH1 0x0 PUSH3 0x7E0 DUP3 PUSH3 0x60A JUMP JUMPDEST PUSH3 0x7EC DUP2 DUP6 PUSH3 0x778 JUMP JUMPDEST SWAP4 POP PUSH3 0x7FE DUP2 DUP6 PUSH1 0x20 DUP7 ADD PUSH3 0x626 JUMP JUMPDEST DUP1 DUP5 ADD SWAP2 POP POP SWAP3 SWAP2 POP POP JUMP JUMPDEST PUSH32 0x5F00000000000000000000000000000000000000000000000000000000000000 PUSH1 0x0 DUP3 ADD MSTORE POP JUMP JUMPDEST PUSH1 0x0 PUSH3 0x842 PUSH1 0x1 DUP4 PUSH3 0x778 JUMP JUMPDEST SWAP2 POP PUSH3 0x84F DUP3 PUSH3 0x80A JUMP JUMPDEST PUSH1 0x1 DUP3 ADD SWAP1 POP SWAP2 SWAP1 POP JUMP JUMPDEST PUSH32 0x2800000000000000000000000000000000000000000000000000000000000000 PUSH1 0x0 DUP3 ADD MSTORE POP JUMP JUMPDEST PUSH1 0x0 PUSH3 0x892 PUSH1 0x1 DUP4 PUSH3 0x778 JUMP JUMPDEST SWAP2 POP PUSH3 0x89F DUP3 PUSH3 0x85A JUMP JUMPDEST PUSH1 0x1 DUP3 ADD SWAP1 POP SWAP2 SWAP1 POP JUMP JUMPDEST PUSH32 0x2900000000000000000000000000000000000000000000000000000000000000 PUSH1 0x0 DUP3 ADD MSTORE POP JUMP JUMPDEST PUSH1 0x0 PUSH3 0x8E2 PUSH1 0x1 DUP4 PUSH3 0x778 JUMP JUMPDEST SWAP2 POP PUSH3 0x8EF DUP3 PUSH3 0x8AA JUMP JUMPDEST PUSH1 0x1 DUP3 ADD SWAP1 POP SWAP2 SWAP1 POP JUMP JUMPDEST PUSH1 0x0 PUSH3 0x907 DUP3 PUSH3 0x7AC JUMP JUMPDEST SWAP2 POP PUSH3 0x915 DUP3 DUP7 PUSH3 0x7D3 JUMP JUMPDEST SWAP2 POP PUSH3 0x922 DUP3 PUSH3 0x833 JUMP JUMPDEST SWAP2 POP PUSH3 0x930 DUP3 DUP6 PUSH3 0x7D3 JUMP JUMPDEST SWAP2 POP PUSH3 0x93D DUP3 PUSH3 0x883 JUMP JUMPDEST SWAP2 POP PUSH3 0x94B DUP3 DUP5 PUSH3 0x7D3 JUMP JUMPDEST SWAP2 POP PUSH3 0x958 DUP3 PUSH3 0x8D3 JUMP JUMPDEST SWAP2 POP DUP2 SWAP1 POP SWAP5 SWAP4 POP POP POP POP JUMP JUMPDEST PUSH32 0x4E487B7100000000000000000000000000000000000000000000000000000000 PUSH1 0x0 MSTORE PUSH1 0x41 PUSH1 0x4 MSTORE PUSH1 0x24 PUSH1 0x0 REVERT JUMPDEST PUSH32 0x4E487B7100000000000000000000000000000000000000000000000000000000 PUSH1 0x0 MSTORE PUSH1 0x12 PUSH1 0x4 MSTORE PUSH1 0x24 PUSH1 0x0 REVERT JUMPDEST PUSH2 0x149F DUP1 PUSH3 0x9D3 PUSH1 0x0 CODECOPY PUSH1 0x0 RETURN INVALID PUSH1 0x80 PUSH1 0x40 MSTORE CALLVALUE DUP1 ISZERO PUSH2 0x10 JUMPI PUSH1 0x0 DUP1 REVERT JUMPDEST POP PUSH1 0x4 CALLDATASIZE LT PUSH2 0x7D JUMPI PUSH1 0x0 CALLDATALOAD PUSH1 0xE0 SHR DUP1 PUSH4 0x2A18AB6F GT PUSH2 0x5B JUMPI DUP1 PUSH4 0x2A18AB6F EQ PUSH2 0xEA JUMPI DUP1 PUSH4 0x5D5A33A2 EQ PUSH2 0x106 JUMPI DUP1 PUSH4 0x88E4F1CB EQ PUSH2 0x124 JUMPI DUP1 PUSH4 0xAAF5F338 EQ PUSH2 0x142 JUMPI PUSH2 0x7D JUMP JUMPDEST DUP1 PUSH4 0x150B7A02 EQ PUSH2 0x82 JUMPI DUP1 PUSH4 0x177B7E00 EQ PUSH2 0xB2 JUMPI DUP1 PUSH4 0x19129E5A EQ PUSH2 0xCE JUMPI JUMPDEST PUSH1 0x0 DUP1 REVERT JUMPDEST PUSH2 0x9C PUSH1 0x4 DUP1 CALLDATASIZE SUB DUP2 ADD SWAP1 PUSH2 0x97 SWAP2 SWAP1 PUSH2 0xC08 JUMP JUMPDEST PUSH2 0x15E JUMP JUMPDEST PUSH1 0x40 MLOAD PUSH2 0xA9 SWAP2 SWAP1 PUSH2 0xCC6 JUMP JUMPDEST PUSH1 0x40 MLOAD DUP1 SWAP2 SUB SWAP1 RETURN JUMPDEST PUSH2 0xCC PUSH1 0x4 DUP1 CALLDATASIZE SUB DUP2 ADD SWAP1 PUSH2 0xC7 SWAP2 SWAP1 PUSH2 0xD82 JUMP JUMPDEST PUSH2 0x172 JUMP JUMPDEST STOP JUMPDEST PUSH2 0xE8 PUSH1 0x4 DUP1 CALLDATASIZE SUB DUP2 ADD SWAP1 PUSH2 0xE3 SWAP2 SWAP1 PUSH2 0xDFA JUMP JUMPDEST PUSH2 0x230 JUMP JUMPDEST STOP JUMPDEST PUSH2 0x104 PUSH1 0x4 DUP1 CALLDATASIZE SUB DUP2 ADD SWAP1 PUSH2 0xFF SWAP2 SWAP1 PUSH2 0xE27 JUMP JUMPDEST PUSH2 0x2AB JUMP JUMPDEST STOP JUMPDEST PUSH2 0x10E PUSH2 0x38C JUMP JUMPDEST PUSH1 0x40 MLOAD PUSH2 0x11B SWAP2 SWAP1 PUSH2 0xEEF JUMP JUMPDEST PUSH1 0x40 MLOAD DUP1 SWAP2 SUB SWAP1 RETURN JUMPDEST PUSH2 0x12C PUSH2 0x3D4 JUMP JUMPDEST PUSH1 0x40 MLOAD PUSH2 0x139 SWAP2 SWAP1 PUSH2 0xF20 JUMP JUMPDEST PUSH1 0x40 MLOAD DUP1 SWAP2 SUB SWAP1 RETURN JUMPDEST PUSH2 0x15C PUSH1 0x4 DUP1 CALLDATASIZE SUB DUP2 ADD SWAP1 PUSH2 0x157 SWAP2 SWAP1 PUSH2 0xD82 JUMP JUMPDEST PUSH2 0x3DD JUMP JUMPDEST STOP JUMPDEST PUSH1 0x0 PUSH4 0x150B7A02 PUSH1 0xE0 SHL SWAP1 POP SWAP5 SWAP4 POP POP POP POP JUMP JUMPDEST PUSH2 0x17A PUSH2 0x4C0 JUMP JUMPDEST PUSH20 0xFFFFFFFFFFFFFFFFFFFFFFFFFFFFFFFFFFFFFFFF AND PUSH4 0x377AF0DA ADDRESS PUSH1 0x0 SLOAD PUSH2 0x1DC PUSH1 0x40 MLOAD DUP1 PUSH1 0x40 ADD PUSH1 0x40 MSTORE DUP1 PUSH1 0x10 DUP2 MSTORE PUSH1 0x20 ADD PUSH32 0x7461626C655F6174747269627574657300000000000000000000000000000000 DUP2 MSTORE POP PUSH1 0x0 SLOAD DUP9 DUP9 PUSH2 0x6BF JUMP JUMPDEST PUSH1 0x40 MLOAD DUP5 PUSH4 0xFFFFFFFF AND PUSH1 0xE0 SHL DUP2 MSTORE PUSH1 0x4 ADD PUSH2 0x1FA SWAP4 SWAP3 SWAP2 SWAP1 PUSH2 0xF4A JUMP JUMPDEST PUSH1 0x0 PUSH1 0x40 MLOAD DUP1 DUP4 SUB DUP2 PUSH1 0x0 DUP8 DUP1 EXTCODESIZE ISZERO DUP1 ISZERO PUSH2 0x214 JUMPI PUSH1 0x0 DUP1 REVERT JUMPDEST POP GAS CALL ISZERO DUP1 ISZERO PUSH2 0x228 JUMPI RETURNDATASIZE PUSH1 0x0 DUP1 RETURNDATACOPY RETURNDATASIZE PUSH1 0x0 REVERT JUMPDEST POP POP POP POP POP POP JUMP JUMPDEST PUSH2 0x238 PUSH2 0x4C0 JUMP JUMPDEST PUSH20 0xFFFFFFFFFFFFFFFFFFFFFFFFFFFFFFFFFFFFFFFF AND PUSH4 0x8BB0AB97 ADDRESS PUSH1 0x0 SLOAD DUP5 PUSH1 0x40 MLOAD DUP5 PUSH4 0xFFFFFFFF AND PUSH1 0xE0 SHL DUP2 MSTORE PUSH1 0x4 ADD PUSH2 0x276 SWAP4 SWAP3 SWAP2 SWAP1 PUSH2 0xF88 JUMP JUMPDEST PUSH1 0x0 PUSH1 0x40 MLOAD DUP1 DUP4 SUB DUP2 PUSH1 0x0 DUP8 DUP1 EXTCODESIZE ISZERO DUP1 ISZERO PUSH2 0x290 JUMPI PUSH1 0x0 DUP1 REVERT JUMPDEST POP GAS CALL ISZERO DUP1 ISZERO PUSH2 0x2A4 JUMPI RETURNDATASIZE PUSH1 0x0 DUP1 RETURNDATACOPY RETURNDATASIZE PUSH1 0x0 REVERT JUMPDEST POP POP POP POP POP JUMP JUMPDEST PUSH1 0x0 DUP2 PUSH1 0x40 MLOAD PUSH1 0x20 ADD PUSH2 0x2BE SWAP2 SWAP1 PUSH2 0x1021 JUMP JUMPDEST PUSH1 0x40 MLOAD PUSH1 0x20 DUP2 DUP4 SUB SUB DUP2 MSTORE SWAP1 PUSH1 0x40 MSTORE SWAP1 POP PUSH2 0x2D7 PUSH2 0x4C0 JUMP JUMPDEST PUSH20 0xFFFFFFFFFFFFFFFFFFFFFFFFFFFFFFFFFFFFFFFF AND PUSH4 0x377AF0DA ADDRESS PUSH1 0x0 SLOAD PUSH2 0x338 PUSH1 0x40 MLOAD DUP1 PUSH1 0x40 ADD PUSH1 0x40 MSTORE DUP1 PUSH1 0x10 DUP2 MSTORE PUSH1 0x20 ADD PUSH32 0x7461626C655F6174747269627574657300000000000000000000000000000000 DUP2 MSTORE POP PUSH1 0x0 SLOAD DUP8 PUSH2 0x6FE JUMP JUMPDEST PUSH1 0x40 MLOAD DUP5 PUSH4 0xFFFFFFFF AND PUSH1 0xE0 SHL DUP2 MSTORE PUSH1 0x4 ADD PUSH2 0x356 SWAP4 SWAP3 SWAP2 SWAP1 PUSH2 0xF4A JUMP JUMPDEST PUSH1 0x0 PUSH1 0x40 MLOAD DUP1 DUP4 SUB DUP2 PUSH1 0x0 DUP8 DUP1 EXTCODESIZE ISZERO DUP1 ISZERO PUSH2 0x370 JUMPI PUSH1 0x0 DUP1 REVERT JUMPDEST POP GAS CALL ISZERO DUP1 ISZERO PUSH2 0x384 JUMPI RETURNDATASIZE PUSH1 0x0 DUP1 RETURNDATACOPY RETURNDATASIZE PUSH1 0x0 REVERT JUMPDEST POP POP POP POP POP POP JUMP JUMPDEST PUSH1 0x60 PUSH2 0x3CF PUSH1 0x40 MLOAD DUP1 PUSH1 0x40 ADD PUSH1 0x40 MSTORE DUP1 PUSH1 0x10 DUP2 MSTORE PUSH1 0x20 ADD PUSH32 0x7461626C655F6174747269627574657300000000000000000000000000000000 DUP2 MSTORE POP PUSH1 0x0 SLOAD PUSH2 0x73A JUMP JUMPDEST SWAP1 POP SWAP1 JUMP JUMPDEST PUSH1 0x0 DUP1 SLOAD SWAP1 POP SWAP1 JUMP JUMPDEST PUSH1 0x0 DUP3 PUSH1 0x40 MLOAD PUSH1 0x20 ADD PUSH2 0x3F0 SWAP2 SWAP1 PUSH2 0x1021 JUMP JUMPDEST PUSH1 0x40 MLOAD PUSH1 0x20 DUP2 DUP4 SUB SUB DUP2 MSTORE SWAP1 PUSH1 0x40 MSTORE SWAP1 POP PUSH2 0x409 PUSH2 0x4C0 JUMP JUMPDEST PUSH20 0xFFFFFFFFFFFFFFFFFFFFFFFFFFFFFFFFFFFFFFFF AND PUSH4 0x377AF0DA ADDRESS PUSH1 0x0 SLOAD PUSH2 0x46B PUSH1 0x40 MLOAD DUP1 PUSH1 0x40 ADD PUSH1 0x40 MSTORE DUP1 PUSH1 0x10 DUP2 MSTORE PUSH1 0x20 ADD PUSH32 0x7461626C655F6174747269627574657300000000000000000000000000000000 DUP2 MSTORE POP PUSH1 0x0 SLOAD DUP9 DUP9 PUSH2 0x778 JUMP JUMPDEST PUSH1 0x40 MLOAD DUP5 PUSH4 0xFFFFFFFF AND PUSH1 0xE0 SHL DUP2 MSTORE PUSH1 0x4 ADD PUSH2 0x489 SWAP4 SWAP3 SWAP2 SWAP1 PUSH2 0xF4A JUMP JUMPDEST PUSH1 0x0 PUSH1 0x40 MLOAD DUP1 DUP4 SUB DUP2 PUSH1 0x0 DUP8 DUP1 EXTCODESIZE ISZERO DUP1 ISZERO PUSH2 0x4A3 JUMPI PUSH1 0x0 DUP1 REVERT JUMPDEST POP GAS CALL ISZERO DUP1 ISZERO PUSH2 0x4B7 JUMPI RETURNDATASIZE PUSH1 0x0 DUP1 RETURNDATACOPY RETURNDATASIZE PUSH1 0x0 REVERT JUMPDEST POP POP POP POP POP POP POP JUMP JUMPDEST PUSH1 0x0 PUSH1 0x1 CHAINID SUB PUSH2 0x4E6 JUMPI PUSH20 0x12969F7E3439A9B04025B5A049EB9BAD82A8C12 SWAP1 POP PUSH2 0x6BC JUMP JUMPDEST PUSH1 0xA CHAINID SUB PUSH2 0x50A JUMPI PUSH20 0xFAD44BF5B843DE943A09D4F3E84949A11D3AA3E6 SWAP1 POP PUSH2 0x6BC JUMP JUMPDEST PUSH2 0xA4B1 CHAINID SUB PUSH2 0x52F JUMPI PUSH20 0x9ABD75E8640871A5A20D3B4EE6330A04C962AFFD SWAP1 POP PUSH2 0x6BC JUMP JUMPDEST PUSH2 0xA4BA CHAINID SUB PUSH2 0x554 JUMPI PUSH20 0x1A22854C5B1642760A827F20137A67930AE108D2 SWAP1 POP PUSH2 0x6BC JUMP JUMPDEST PUSH1 0x89 CHAINID SUB PUSH2 0x578 JUMPI PUSH20 0x5C4E6A9E5C1E1BF445A062006FAF19EA6C49AFEA SWAP1 POP PUSH2 0x6BC JUMP JUMPDEST PUSH2 0x13A CHAINID SUB PUSH2 0x59D JUMPI PUSH20 0x59EF8BF2D6C102B4C42AEF9189E1A9F0ABFD652D SWAP1 POP PUSH2 0x6BC JUMP JUMPDEST PUSH3 0xAA36A7 CHAINID SUB PUSH2 0x5C3 JUMPI PUSH20 0xC50C62498448ACC8DBDE43DA77F8D5D2E2C7597D SWAP1 POP PUSH2 0x6BC JUMP JUMPDEST PUSH2 0x1A4 CHAINID SUB PUSH2 0x5E8 JUMPI PUSH20 0xC72E8A7BE04F2469F8C2DB3F1BDF69A7D516ABBA SWAP1 POP PUSH2 0x6BC JUMP JUMPDEST PUSH3 0x66EEE CHAINID SUB PUSH2 0x60E JUMPI PUSH20 0x223A74B8323914AFDC3FF1E5005564DC17231D6E SWAP1 POP PUSH2 0x6BC JUMP JUMPDEST PUSH3 0x13881 CHAINID SUB PUSH2 0x634 JUMPI PUSH20 0x4B48841D4B32C4650E4ABC117A03FE8B51F38F68 SWAP1 POP PUSH2 0x6BC JUMP JUMPDEST PUSH3 0x4CB2F CHAINID SUB PUSH2 0x65A JUMPI PUSH20 0x30BCF3D50CAD04C2E57391B12740982A9308621 SWAP1 POP PUSH2 0x6BC JUMP JUMPDEST PUSH2 0x7A69 CHAINID SUB PUSH2 0x67F JUMPI PUSH20 0xE7F1725E7734CE288F8367E1BB143E90BB3F0512 SWAP1 POP PUSH2 0x6BC JUMP JUMPDEST CHAINID PUSH1 0x40 MLOAD PUSH32 0x264E42CF00000000000000000000000000000000000000000000000000000000 DUP2 MSTORE PUSH1 0x4 ADD PUSH2 0x6B3 SWAP2 SWAP1 PUSH2 0xF20 JUMP JUMPDEST PUSH1 0x40 MLOAD DUP1 SWAP2 SUB SWAP1 REVERT JUMPDEST SWAP1 JUMP JUMPDEST PUSH1 0x60 PUSH1 0x0 PUSH2 0x6CD DUP7 DUP7 PUSH2 0x73A JUMP JUMPDEST SWAP1 POP DUP1 DUP5 DUP5 PUSH1 0x40 MLOAD PUSH1 0x20 ADD PUSH2 0x6E4 SWAP4 SWAP3 SWAP2 SWAP1 PUSH2 0x1177 JUMP JUMPDEST PUSH1 0x40 MLOAD PUSH1 0x20 DUP2 DUP4 SUB SUB DUP2 MSTORE SWAP1 PUSH1 0x40 MSTORE SWAP2 POP POP SWAP5 SWAP4 POP POP POP POP JUMP JUMPDEST PUSH1 0x60 PUSH1 0x0 PUSH2 0x70C DUP6 DUP6 PUSH2 0x73A JUMP JUMPDEST SWAP1 POP DUP1 DUP4 PUSH1 0x40 MLOAD PUSH1 0x20 ADD PUSH2 0x721 SWAP3 SWAP2 SWAP1 PUSH2 0x126C JUMP JUMPDEST PUSH1 0x40 MLOAD PUSH1 0x20 DUP2 DUP4 SUB SUB DUP2 MSTORE SWAP1 PUSH1 0x40 MSTORE SWAP2 POP POP SWAP4 SWAP3 POP POP POP JUMP JUMPDEST PUSH1 0x60 DUP3 PUSH2 0x746 CHAINID PUSH2 0x7F9 JUMP JUMPDEST PUSH2 0x74F DUP5 PUSH2 0x7F9 JUMP JUMPDEST PUSH1 0x40 MLOAD PUSH1 0x20 ADD PUSH2 0x761 SWAP4 SWAP3 SWAP2 SWAP1 PUSH2 0x12F2 JUMP JUMPDEST PUSH1 0x40 MLOAD PUSH1 0x20 DUP2 DUP4 SUB SUB DUP2 MSTORE SWAP1 PUSH1 0x40 MSTORE SWAP1 POP SWAP3 SWAP2 POP POP JUMP JUMPDEST PUSH1 0x60 PUSH1 0x0 PUSH2 0x786 DUP7 DUP7 PUSH2 0x73A JUMP JUMPDEST SWAP1 POP PUSH1 0x0 PUSH1 0x40 MLOAD DUP1 PUSH1 0x20 ADD PUSH1 0x40 MSTORE DUP1 PUSH1 0x0 DUP2 MSTORE POP SWAP1 POP PUSH1 0x0 DUP5 MLOAD GT ISZERO PUSH2 0x7C9 JUMPI DUP4 PUSH1 0x40 MLOAD PUSH1 0x20 ADD PUSH2 0x7B7 SWAP2 SWAP1 PUSH2 0x1339 JUMP JUMPDEST PUSH1 0x40 MLOAD PUSH1 0x20 DUP2 DUP4 SUB SUB DUP2 MSTORE SWAP1 PUSH1 0x40 MSTORE SWAP1 POP JUMPDEST DUP2 DUP6 DUP3 PUSH1 0x40 MLOAD PUSH1 0x20 ADD PUSH2 0x7DE SWAP4 SWAP3 SWAP2 SWAP1 PUSH2 0x13F3 JUMP JUMPDEST PUSH1 0x40 MLOAD PUSH1 0x20 DUP2 DUP4 SUB SUB DUP2 MSTORE SWAP1 PUSH1 0x40 MSTORE SWAP3 POP POP POP SWAP5 SWAP4 POP POP POP POP JUMP JUMPDEST PUSH1 0x60 PUSH1 0x0 PUSH1 0x1 PUSH2 0x808 DUP5 PUSH2 0x8C7 JUMP JUMPDEST ADD SWAP1 POP PUSH1 0x0 DUP2 PUSH8 0xFFFFFFFFFFFFFFFF DUP2 GT ISZERO PUSH2 0x827 JUMPI PUSH2 0x826 PUSH2 0xADD JUMP JUMPDEST JUMPDEST PUSH1 0x40 MLOAD SWAP1 DUP1 DUP3 MSTORE DUP1 PUSH1 0x1F ADD PUSH1 0x1F NOT AND PUSH1 0x20 ADD DUP3 ADD PUSH1 0x40 MSTORE DUP1 ISZERO PUSH2 0x859 JUMPI DUP2 PUSH1 0x20 ADD PUSH1 0x1 DUP3 MUL DUP1 CALLDATASIZE DUP4 CALLDATACOPY DUP1 DUP3 ADD SWAP2 POP POP SWAP1 POP JUMPDEST POP SWAP1 POP PUSH1 0x0 DUP3 PUSH1 0x20 ADD DUP3 ADD SWAP1 POP JUMPDEST PUSH1 0x1 ISZERO PUSH2 0x8BC JUMPI DUP1 DUP1 PUSH1 0x1 SWAP1 SUB SWAP2 POP POP PUSH32 0x3031323334353637383961626364656600000000000000000000000000000000 PUSH1 0xA DUP7 MOD BYTE DUP2 MSTORE8 PUSH1 0xA DUP6 DUP2 PUSH2 0x8B0 JUMPI PUSH2 0x8AF PUSH2 0x143A JUMP JUMPDEST JUMPDEST DIV SWAP5 POP PUSH1 0x0 DUP6 SUB PUSH2 0x867 JUMPI JUMPDEST DUP2 SWAP4 POP POP POP POP SWAP2 SWAP1 POP JUMP JUMPDEST PUSH1 0x0 DUP1 PUSH1 0x0 SWAP1 POP PUSH27 0x184F03E93FF9F4DAA797ED6E38ED64BF6A1F010000000000000000 DUP4 LT PUSH2 0x925 JUMPI PUSH27 0x184F03E93FF9F4DAA797ED6E38ED64BF6A1F010000000000000000 DUP4 DUP2 PUSH2 0x91B JUMPI PUSH2 0x91A PUSH2 0x143A JUMP JUMPDEST JUMPDEST DIV SWAP3 POP PUSH1 0x40 DUP2 ADD SWAP1 POP JUMPDEST PUSH14 0x4EE2D6D415B85ACEF8100000000 DUP4 LT PUSH2 0x962 JUMPI PUSH14 0x4EE2D6D415B85ACEF8100000000 DUP4 DUP2 PUSH2 0x958 JUMPI PUSH2 0x957 PUSH2 0x143A JUMP JUMPDEST JUMPDEST DIV SWAP3 POP PUSH1 0x20 DUP2 ADD SWAP1 POP JUMPDEST PUSH7 0x2386F26FC10000 DUP4 LT PUSH2 0x991 JUMPI PUSH7 0x2386F26FC10000 DUP4 DUP2 PUSH2 0x987 JUMPI PUSH2 0x986 PUSH2 0x143A JUMP JUMPDEST JUMPDEST DIV SWAP3 POP PUSH1 0x10 DUP2 ADD SWAP1 POP JUMPDEST PUSH4 0x5F5E100 DUP4 LT PUSH2 0x9BA JUMPI PUSH4 0x5F5E100 DUP4 DUP2 PUSH2 0x9B0 JUMPI PUSH2 0x9AF PUSH2 0x143A JUMP JUMPDEST JUMPDEST DIV SWAP3 POP PUSH1 0x8 DUP2 ADD SWAP1 POP JUMPDEST PUSH2 0x2710 DUP4 LT PUSH2 0x9DF JUMPI PUSH2 0x2710 DUP4 DUP2 PUSH2 0x9D5 JUMPI PUSH2 0x9D4 PUSH2 0x143A JUMP JUMPDEST JUMPDEST DIV SWAP3 POP PUSH1 0x4 DUP2 ADD SWAP1 POP JUMPDEST PUSH1 0x64 DUP4 LT PUSH2 0xA02 JUMPI PUSH1 0x64 DUP4 DUP2 PUSH2 0x9F8 JUMPI PUSH2 0x9F7 PUSH2 0x143A JUMP JUMPDEST JUMPDEST DIV SWAP3 POP PUSH1 0x2 DUP2 ADD SWAP1 POP JUMPDEST PUSH1 0xA DUP4 LT PUSH2 0xA11 JUMPI PUSH1 0x1 DUP2 ADD SWAP1 POP JUMPDEST DUP1 SWAP2 POP POP SWAP2 SWAP1 POP JUMP JUMPDEST PUSH1 0x0 PUSH1 0x40 MLOAD SWAP1 POP SWAP1 JUMP JUMPDEST PUSH1 0x0 DUP1 REVERT JUMPDEST PUSH1 0x0 DUP1 REVERT JUMPDEST PUSH1 0x0 PUSH20 0xFFFFFFFFFFFFFFFFFFFFFFFFFFFFFFFFFFFFFFFF DUP3 AND SWAP1 POP SWAP2 SWAP1 POP JUMP JUMPDEST PUSH1 0x0 PUSH2 0xA59 DUP3 PUSH2 0xA2E JUMP JUMPDEST SWAP1 POP SWAP2 SWAP1 POP JUMP JUMPDEST PUSH2 0xA69 DUP2 PUSH2 0xA4E JUMP JUMPDEST DUP2 EQ PUSH2 0xA74 JUMPI PUSH1 0x0 DUP1 REVERT JUMPDEST POP JUMP JUMPDEST PUSH1 0x0 DUP2 CALLDATALOAD SWAP1 POP PUSH2 0xA86 DUP2 PUSH2 0xA60 JUMP JUMPDEST SWAP3 SWAP2 POP POP JUMP JUMPDEST PUSH1 0x0 DUP2 SWAP1 POP SWAP2 SWAP1 POP JUMP JUMPDEST PUSH2 0xA9F DUP2 PUSH2 0xA8C JUMP JUMPDEST DUP2 EQ PUSH2 0xAAA JUMPI PUSH1 0x0 DUP1 REVERT JUMPDEST POP JUMP JUMPDEST PUSH1 0x0 DUP2 CALLDATALOAD SWAP1 POP PUSH2 0xABC DUP2 PUSH2 0xA96 JUMP JUMPDEST SWAP3 SWAP2 POP POP JUMP JUMPDEST PUSH1 0x0 DUP1 REVERT JUMPDEST PUSH1 0x0 DUP1 REVERT JUMPDEST PUSH1 0x0 PUSH1 0x1F NOT PUSH1 0x1F DUP4 ADD AND SWAP1 POP SWAP2 SWAP1 POP JUMP JUMPDEST PUSH32 0x4E487B7100000000000000000000000000000000000000000000000000000000 PUSH1 0x0 MSTORE PUSH1 0x41 PUSH1 0x4 MSTORE PUSH1 0x24 PUSH1 0x0 REVERT JUMPDEST PUSH2 0xB15 DUP3 PUSH2 0xACC JUMP JUMPDEST DUP2 ADD DUP2 DUP2 LT PUSH8 0xFFFFFFFFFFFFFFFF DUP3 GT OR ISZERO PUSH2 0xB34 JUMPI PUSH2 0xB33 PUSH2 0xADD JUMP JUMPDEST JUMPDEST DUP1 PUSH1 0x40 MSTORE POP POP POP JUMP JUMPDEST PUSH1 0x0 PUSH2 0xB47 PUSH2 0xA1A JUMP JUMPDEST SWAP1 POP PUSH2 0xB53 DUP3 DUP3 PUSH2 0xB0C JUMP JUMPDEST SWAP2 SWAP1 POP JUMP JUMPDEST PUSH1 0x0 PUSH8 0xFFFFFFFFFFFFFFFF DUP3 GT ISZERO PUSH2 0xB73 JUMPI PUSH2 0xB72 PUSH2 0xADD JUMP JUMPDEST JUMPDEST PUSH2 0xB7C DUP3 PUSH2 0xACC JUMP JUMPDEST SWAP1 POP PUSH1 0x20 DUP2 ADD SWAP1 POP SWAP2 SWAP1 POP JUMP JUMPDEST DUP3 DUP2 DUP4 CALLDATACOPY PUSH1 0x0 DUP4 DUP4 ADD MSTORE POP POP POP JUMP JUMPDEST PUSH1 0x0 PUSH2 0xBAB PUSH2 0xBA6 DUP5 PUSH2 0xB58 JUMP JUMPDEST PUSH2 0xB3D JUMP JUMPDEST SWAP1 POP DUP3 DUP2 MSTORE PUSH1 0x20 DUP2 ADD DUP5 DUP5 DUP5 ADD GT ISZERO PUSH2 0xBC7 JUMPI PUSH2 0xBC6 PUSH2 0xAC7 JUMP JUMPDEST JUMPDEST PUSH2 0xBD2 DUP5 DUP3 DUP6 PUSH2 0xB89 JUMP JUMPDEST POP SWAP4 SWAP3 POP POP POP JUMP JUMPDEST PUSH1 0x0 DUP3 PUSH1 0x1F DUP4 ADD SLT PUSH2 0xBEF JUMPI PUSH2 0xBEE PUSH2 0xAC2 JUMP JUMPDEST JUMPDEST DUP2 CALLDATALOAD PUSH2 0xBFF DUP5 DUP3 PUSH1 0x20 DUP7 ADD PUSH2 0xB98 JUMP JUMPDEST SWAP2 POP POP SWAP3 SWAP2 POP POP JUMP JUMPDEST PUSH1 0x0 DUP1 PUSH1 0x0 DUP1 PUSH1 0x80 DUP6 DUP8 SUB SLT ISZERO PUSH2 0xC22 JUMPI PUSH2 0xC21 PUSH2 0xA24 JUMP JUMPDEST JUMPDEST PUSH1 0x0 PUSH2 0xC30 DUP8 DUP3 DUP9 ADD PUSH2 0xA77 JUMP JUMPDEST SWAP5 POP POP PUSH1 0x20 PUSH2 0xC41 DUP8 DUP3 DUP9 ADD PUSH2 0xA77 JUMP JUMPDEST SWAP4 POP POP PUSH1 0x40 PUSH2 0xC52 DUP8 DUP3 DUP9 ADD PUSH2 0xAAD JUMP JUMPDEST SWAP3 POP POP PUSH1 0x60 DUP6 ADD CALLDATALOAD PUSH8 0xFFFFFFFFFFFFFFFF DUP2 GT ISZERO PUSH2 0xC73 JUMPI PUSH2 0xC72 PUSH2 0xA29 JUMP JUMPDEST JUMPDEST PUSH2 0xC7F DUP8 DUP3 DUP9 ADD PUSH2 0xBDA JUMP JUMPDEST SWAP2 POP POP SWAP3 SWAP6 SWAP2 SWAP5 POP SWAP3 POP JUMP JUMPDEST PUSH1 0x0 PUSH32 0xFFFFFFFF00000000000000000000000000000000000000000000000000000000 DUP3 AND SWAP1 POP SWAP2 SWAP1 POP JUMP JUMPDEST PUSH2 0xCC0 DUP2 PUSH2 0xC8B JUMP JUMPDEST DUP3 MSTORE POP POP JUMP JUMPDEST PUSH1 0x0 PUSH1 0x20 DUP3 ADD SWAP1 POP PUSH2 0xCDB PUSH1 0x0 DUP4 ADD DUP5 PUSH2 0xCB7 JUMP JUMPDEST SWAP3 SWAP2 POP POP JUMP JUMPDEST PUSH1 0x0 PUSH8 0xFFFFFFFFFFFFFFFF DUP3 GT ISZERO PUSH2 0xCFC JUMPI PUSH2 0xCFB PUSH2 0xADD JUMP JUMPDEST JUMPDEST PUSH2 0xD05 DUP3 PUSH2 0xACC JUMP JUMPDEST SWAP1 POP PUSH1 0x20 DUP2 ADD SWAP1 POP SWAP2 SWAP1 POP JUMP JUMPDEST PUSH1 0x0 PUSH2 0xD25 PUSH2 0xD20 DUP5 PUSH2 0xCE1 JUMP JUMPDEST PUSH2 0xB3D JUMP JUMPDEST SWAP1 POP DUP3 DUP2 MSTORE PUSH1 0x20 DUP2 ADD DUP5 DUP5 DUP5 ADD GT ISZERO PUSH2 0xD41 JUMPI PUSH2 0xD40 PUSH2 0xAC7 JUMP JUMPDEST JUMPDEST PUSH2 0xD4C DUP5 DUP3 DUP6 PUSH2 0xB89 JUMP JUMPDEST POP SWAP4 SWAP3 POP POP POP JUMP JUMPDEST PUSH1 0x0 DUP3 PUSH1 0x1F DUP4 ADD SLT PUSH2 0xD69 JUMPI PUSH2 0xD68 PUSH2 0xAC2 JUMP JUMPDEST JUMPDEST DUP2 CALLDATALOAD PUSH2 0xD79 DUP5 DUP3 PUSH1 0x20 DUP7 ADD PUSH2 0xD12 JUMP JUMPDEST SWAP2 POP POP SWAP3 SWAP2 POP POP JUMP JUMPDEST PUSH1 0x0 DUP1 PUSH1 0x40 DUP4 DUP6 SUB SLT ISZERO PUSH2 0xD99 JUMPI PUSH2 0xD98 PUSH2 0xA24 JUMP JUMPDEST JUMPDEST PUSH1 0x0 DUP4 ADD CALLDATALOAD PUSH8 0xFFFFFFFFFFFFFFFF DUP2 GT ISZERO PUSH2 0xDB7 JUMPI PUSH2 0xDB6 PUSH2 0xA29 JUMP JUMPDEST JUMPDEST PUSH2 0xDC3 DUP6 DUP3 DUP7 ADD PUSH2 0xD54 JUMP JUMPDEST SWAP3 POP POP PUSH1 0x20 DUP4 ADD CALLDATALOAD PUSH8 0xFFFFFFFFFFFFFFFF DUP2 GT ISZERO PUSH2 0xDE4 JUMPI PUSH2 0xDE3 PUSH2 0xA29 JUMP JUMPDEST JUMPDEST PUSH2 0xDF0 DUP6 DUP3 DUP7 ADD PUSH2 0xD54 JUMP JUMPDEST SWAP2 POP POP SWAP3 POP SWAP3 SWAP1 POP JUMP JUMPDEST PUSH1 0x0 PUSH1 0x20 DUP3 DUP5 SUB SLT ISZERO PUSH2 0xE10 JUMPI PUSH2 0xE0F PUSH2 0xA24 JUMP JUMPDEST JUMPDEST PUSH1 0x0 PUSH2 0xE1E DUP5 DUP3 DUP6 ADD PUSH2 0xA77 JUMP JUMPDEST SWAP2 POP POP SWAP3 SWAP2 POP POP JUMP JUMPDEST PUSH1 0x0 PUSH1 0x20 DUP3 DUP5 SUB SLT ISZERO PUSH2 0xE3D JUMPI PUSH2 0xE3C PUSH2 0xA24 JUMP JUMPDEST JUMPDEST PUSH1 0x0 DUP3 ADD CALLDATALOAD PUSH8 0xFFFFFFFFFFFFFFFF DUP2 GT ISZERO PUSH2 0xE5B JUMPI PUSH2 0xE5A PUSH2 0xA29 JUMP JUMPDEST JUMPDEST PUSH2 0xE67 DUP5 DUP3 DUP6 ADD PUSH2 0xD54 JUMP JUMPDEST SWAP2 POP POP SWAP3 SWAP2 POP POP JUMP JUMPDEST PUSH1 0x0 DUP2 MLOAD SWAP1 POP SWAP2 SWAP1 POP JUMP JUMPDEST PUSH1 0x0 DUP3 DUP3 MSTORE PUSH1 0x20 DUP3 ADD SWAP1 POP SWAP3 SWAP2 POP POP JUMP JUMPDEST PUSH1 0x0 JUMPDEST DUP4 DUP2 LT ISZERO PUSH2 0xEAA JUMPI DUP1 DUP3 ADD MLOAD DUP2 DUP5 ADD MSTORE PUSH1 0x20 DUP2 ADD SWAP1 POP PUSH2 0xE8F JUMP JUMPDEST PUSH1 0x0 DUP5 DUP5 ADD MSTORE POP POP POP POP JUMP JUMPDEST PUSH1 0x0 PUSH2 0xEC1 DUP3 PUSH2 0xE70 JUMP JUMPDEST PUSH2 0xECB DUP2 DUP6 PUSH2 0xE7B JUMP JUMPDEST SWAP4 POP PUSH2 0xEDB DUP2 DUP6 PUSH1 0x20 DUP7 ADD PUSH2 0xE8C JUMP JUMPDEST PUSH2 0xEE4 DUP2 PUSH2 0xACC JUMP JUMPDEST DUP5 ADD SWAP2 POP POP SWAP3 SWAP2 POP POP JUMP JUMPDEST PUSH1 0x0 PUSH1 0x20 DUP3 ADD SWAP1 POP DUP2 DUP2 SUB PUSH1 0x0 DUP4 ADD MSTORE PUSH2 0xF09 DUP2 DUP5 PUSH2 0xEB6 JUMP JUMPDEST SWAP1 POP SWAP3 SWAP2 POP POP JUMP JUMPDEST PUSH2 0xF1A DUP2 PUSH2 0xA8C JUMP JUMPDEST DUP3 MSTORE POP POP JUMP JUMPDEST PUSH1 0x0 PUSH1 0x20 DUP3 ADD SWAP1 POP PUSH2 0xF35 PUSH1 0x0 DUP4 ADD DUP5 PUSH2 0xF11 JUMP JUMPDEST SWAP3 SWAP2 POP POP JUMP JUMPDEST PUSH2 0xF44 DUP2 PUSH2 0xA4E JUMP JUMPDEST DUP3 MSTORE POP POP JUMP JUMPDEST PUSH1 0x0 PUSH1 0x60 DUP3 ADD SWAP1 POP PUSH2 0xF5F PUSH1 0x0 DUP4 ADD DUP7 PUSH2 0xF3B JUMP JUMPDEST PUSH2 0xF6C PUSH1 0x20 DUP4 ADD DUP6 PUSH2 0xF11 JUMP JUMPDEST DUP2 DUP2 SUB PUSH1 0x40 DUP4 ADD MSTORE PUSH2 0xF7E DUP2 DUP5 PUSH2 0xEB6 JUMP JUMPDEST SWAP1 POP SWAP5 SWAP4 POP POP POP POP JUMP JUMPDEST PUSH1 0x0 PUSH1 0x60 DUP3 ADD SWAP1 POP PUSH2 0xF9D PUSH1 0x0 DUP4 ADD DUP7 PUSH2 0xF3B JUMP JUMPDEST PUSH2 0xFAA PUSH1 0x20 DUP4 ADD DUP6 PUSH2 0xF11 JUMP JUMPDEST PUSH2 0xFB7 PUSH1 0x40 DUP4 ADD DUP5 PUSH2 0xF3B JUMP JUMPDEST SWAP5 SWAP4 POP POP POP POP JUMP JUMPDEST PUSH32 0x69643D0000000000000000000000000000000000000000000000000000000000 DUP2 MSTORE POP JUMP JUMPDEST PUSH1 0x0 DUP2 SWAP1 POP SWAP3 SWAP2 POP POP JUMP JUMPDEST PUSH1 0x0 PUSH2 0xFFB DUP3 PUSH2 0xE70 JUMP JUMPDEST PUSH2 0x1005 DUP2 DUP6 PUSH2 0xFE5 JUMP JUMPDEST SWAP4 POP PUSH2 0x1015 DUP2 DUP6 PUSH1 0x20 DUP7 ADD PUSH2 0xE8C JUMP JUMPDEST DUP1 DUP5 ADD SWAP2 POP POP SWAP3 SWAP2 POP POP JUMP JUMPDEST PUSH1 0x0 PUSH2 0x102C DUP3 PUSH2 0xFBF JUMP JUMPDEST PUSH1 0x3 DUP3 ADD SWAP2 POP PUSH2 0x103C DUP3 DUP5 PUSH2 0xFF0 JUMP JUMPDEST SWAP2 POP DUP2 SWAP1 POP SWAP3 SWAP2 POP POP JUMP JUMPDEST PUSH32 0x494E5345525420494E544F200000000000000000000000000000000000000000 PUSH1 0x0 DUP3 ADD MSTORE POP JUMP JUMPDEST PUSH1 0x0 PUSH2 0x107D PUSH1 0xC DUP4 PUSH2 0xFE5 JUMP JUMPDEST SWAP2 POP PUSH2 0x1088 DUP3 PUSH2 0x1047 JUMP JUMPDEST PUSH1 0xC DUP3 ADD SWAP1 POP SWAP2 SWAP1 POP JUMP JUMPDEST PUSH32 0x2800000000000000000000000000000000000000000000000000000000000000 PUSH1 0x0 DUP3 ADD MSTORE POP JUMP JUMPDEST PUSH1 0x0 PUSH2 0x10C9 PUSH1 0x1 DUP4 PUSH2 0xFE5 JUMP JUMPDEST SWAP2 POP PUSH2 0x10D4 DUP3 PUSH2 0x1093 JUMP JUMPDEST PUSH1 0x1 DUP3 ADD SWAP1 POP SWAP2 SWAP1 POP JUMP JUMPDEST PUSH32 0x2956414C55455328000000000000000000000000000000000000000000000000 PUSH1 0x0 DUP3 ADD MSTORE POP JUMP JUMPDEST PUSH1 0x0 PUSH2 0x1115 PUSH1 0x8 DUP4 PUSH2 0xFE5 JUMP JUMPDEST SWAP2 POP PUSH2 0x1120 DUP3 PUSH2 0x10DF JUMP JUMPDEST PUSH1 0x8 DUP3 ADD SWAP1 POP SWAP2 SWAP1 POP JUMP JUMPDEST PUSH32 0x2900000000000000000000000000000000000000000000000000000000000000 PUSH1 0x0 DUP3 ADD MSTORE POP JUMP JUMPDEST PUSH1 0x0 PUSH2 0x1161 PUSH1 0x1 DUP4 PUSH2 0xFE5 JUMP JUMPDEST SWAP2 POP PUSH2 0x116C DUP3 PUSH2 0x112B JUMP JUMPDEST PUSH1 0x1 DUP3 ADD SWAP1 POP SWAP2 SWAP1 POP JUMP JUMPDEST PUSH1 0x0 PUSH2 0x1182 DUP3 PUSH2 0x1070 JUMP JUMPDEST SWAP2 POP PUSH2 0x118E DUP3 DUP7 PUSH2 0xFF0 JUMP JUMPDEST SWAP2 POP PUSH2 0x1199 DUP3 PUSH2 0x10BC JUMP JUMPDEST SWAP2 POP PUSH2 0x11A5 DUP3 DUP6 PUSH2 0xFF0 JUMP JUMPDEST SWAP2 POP PUSH2 0x11B0 DUP3 PUSH2 0x1108 JUMP JUMPDEST SWAP2 POP PUSH2 0x11BC DUP3 DUP5 PUSH2 0xFF0 JUMP JUMPDEST SWAP2 POP PUSH2 0x11C7 DUP3 PUSH2 0x1154 JUMP JUMPDEST SWAP2 POP DUP2 SWAP1 POP SWAP5 SWAP4 POP POP POP POP JUMP JUMPDEST PUSH32 0x44454C4554452046524F4D200000000000000000000000000000000000000000 PUSH1 0x0 DUP3 ADD MSTORE POP JUMP JUMPDEST PUSH1 0x0 PUSH2 0x120A PUSH1 0xC DUP4 PUSH2 0xFE5 JUMP JUMPDEST SWAP2 POP PUSH2 0x1215 DUP3 PUSH2 0x11D4 JUMP JUMPDEST PUSH1 0xC DUP3 ADD SWAP1 POP SWAP2 SWAP1 POP JUMP JUMPDEST PUSH32 0x2057484552452000000000000000000000000000000000000000000000000000 PUSH1 0x0 DUP3 ADD MSTORE POP JUMP JUMPDEST PUSH1 0x0 PUSH2 0x1256 PUSH1 0x7 DUP4 PUSH2 0xFE5 JUMP JUMPDEST SWAP2 POP PUSH2 0x1261 DUP3 PUSH2 0x1220 JUMP JUMPDEST PUSH1 0x7 DUP3 ADD SWAP1 POP SWAP2 SWAP1 POP JUMP JUMPDEST PUSH1 0x0 PUSH2 0x1277 DUP3 PUSH2 0x11FD JUMP JUMPDEST SWAP2 POP PUSH2 0x1283 DUP3 DUP6 PUSH2 0xFF0 JUMP JUMPDEST SWAP2 POP PUSH2 0x128E DUP3 PUSH2 0x1249 JUMP JUMPDEST SWAP2 POP PUSH2 0x129A DUP3 DUP5 PUSH2 0xFF0 JUMP JUMPDEST SWAP2 POP DUP2 SWAP1 POP SWAP4 SWAP3 POP POP POP JUMP JUMPDEST PUSH32 0x5F00000000000000000000000000000000000000000000000000000000000000 PUSH1 0x0 DUP3 ADD MSTORE POP JUMP JUMPDEST PUSH1 0x0 PUSH2 0x12DC PUSH1 0x1 DUP4 PUSH2 0xFE5 JUMP JUMPDEST SWAP2 POP PUSH2 0x12E7 DUP3 PUSH2 0x12A6 JUMP JUMPDEST PUSH1 0x1 DUP3 ADD SWAP1 POP SWAP2 SWAP1 POP JUMP JUMPDEST PUSH1 0x0 PUSH2 0x12FE DUP3 DUP7 PUSH2 0xFF0 JUMP JUMPDEST SWAP2 POP PUSH2 0x1309 DUP3 PUSH2 0x12CF JUMP JUMPDEST SWAP2 POP PUSH2 0x1315 DUP3 DUP6 PUSH2 0xFF0 JUMP JUMPDEST SWAP2 POP PUSH2 0x1320 DUP3 PUSH2 0x12CF JUMP JUMPDEST SWAP2 POP PUSH2 0x132C DUP3 DUP5 PUSH2 0xFF0 JUMP JUMPDEST SWAP2 POP DUP2 SWAP1 POP SWAP5 SWAP4 POP POP POP POP JUMP JUMPDEST PUSH1 0x0 PUSH2 0x1344 DUP3 PUSH2 0x1249 JUMP JUMPDEST SWAP2 POP PUSH2 0x1350 DUP3 DUP5 PUSH2 0xFF0 JUMP JUMPDEST SWAP2 POP DUP2 SWAP1 POP SWAP3 SWAP2 POP POP JUMP JUMPDEST PUSH32 0x5550444154452000000000000000000000000000000000000000000000000000 PUSH1 0x0 DUP3 ADD MSTORE POP JUMP JUMPDEST PUSH1 0x0 PUSH2 0x1391 PUSH1 0x7 DUP4 PUSH2 0xFE5 JUMP JUMPDEST SWAP2 POP PUSH2 0x139C DUP3 PUSH2 0x135B JUMP JUMPDEST PUSH1 0x7 DUP3 ADD SWAP1 POP SWAP2 SWAP1 POP JUMP JUMPDEST PUSH32 0x2053455420000000000000000000000000000000000000000000000000000000 PUSH1 0x0 DUP3 ADD MSTORE POP JUMP JUMPDEST PUSH1 0x0 PUSH2 0x13DD PUSH1 0x5 DUP4 PUSH2 0xFE5 JUMP JUMPDEST SWAP2 POP PUSH2 0x13E8 DUP3 PUSH2 0x13A7 JUMP JUMPDEST PUSH1 0x5 DUP3 ADD SWAP1 POP SWAP2 SWAP1 POP JUMP JUMPDEST PUSH1 0x0 PUSH2 0x13FE DUP3 PUSH2 0x1384 JUMP JUMPDEST SWAP2 POP PUSH2 0x140A DUP3 DUP7 PUSH2 0xFF0 JUMP JUMPDEST SWAP2 POP PUSH2 0x1415 DUP3 PUSH2 0x13D0 JUMP JUMPDEST SWAP2 POP PUSH2 0x1421 DUP3 DUP6 PUSH2 0xFF0 JUMP JUMPDEST SWAP2 POP PUSH2 0x142D DUP3 DUP5 PUSH2 0xFF0 JUMP JUMPDEST SWAP2 POP DUP2 SWAP1 POP SWAP5 SWAP4 POP POP POP POP JUMP JUMPDEST PUSH32 0x4E487B7100000000000000000000000000000000000000000000000000000000 PUSH1 0x0 MSTORE PUSH1 0x12 PUSH1 0x4 MSTORE PUSH1 0x24 PUSH1 0x0 REVERT INVALID LOG2 PUSH5 0x6970667358 0x22 SLT KECCAK256 SHL SWAP10 SWAP16 0xEF 0xB2 0xC0 SWAP10 0xEE SWAP15 0xD4 0x4D 0x21 0x4E LT 0xB8 GASLIMIT 0xC9 PUSH24 0x1C8204505CFACE3456E5B43CFF0164736F6C634300081800 CALLER PUSH10 0x64207465787420707269 PUSH14 0x617279206B65792C6E616D652074 PUSH6 0x78742C656D61 PUSH10 0x6C20746578742C62696F PUSH8 0x7261706879207465 PUSH25 0x742C696D61676520746578742C6C6F636174696F6E20746578 PUSH21 0x2C70617373776F726420746578742C70726F6A6563 PUSH21 0x5F636F6E74726163745F6964207465787400000000 "},"methodIdentifiers":{"getProjectsContractId()":"0cc8fb10","getUsersContractId()":"84f4aa45","onERC721Received(address,address,uint256,bytes)":"150b7a02"}}}}}