{"contracts/ProjectsTable.sol":{"ProjectsTable":{"abi":[{"inputs":[],"stateMutability":"nonpayable","type":"constructor"},{"inputs":[{"internalType":"uint256","name":"chainid","type":"uint256"}],"name":"ChainNotSupported","type":"error"},{"inputs":[{"internalType":"string","name":"id","type":"string"}],"name":"deleteFromTable","outputs":[],"stateMutability":"nonpayable","type":"function"},{"inputs":[],"name":"getTableId","outputs":[{"internalType":"uint256","name":"","type":"uint256"}],"stateMutability":"view","type":"function"},{"inputs":[],"name":"getTableName","outputs":[{"internalType":"string","name":"","type":"string"}],"stateMutability":"view","type":"function"},{"inputs":[{"internalType":"string","name":"query","type":"string"},{"internalType":"string","name":"values","type":"string"}],"name":"insertIntoTable","outputs":[],"stateMutability":"nonpayable","type":"function"},{"inputs":[{"internalType":"address","name":"","type":"address"},{"internalType":"address","name":"","type":"address"},{"internalType":"uint256","name":"","type":"uint256"},{"internalType":"bytes","name":"","type":"bytes"}],"name":"onERC721Received","outputs":[{"internalType":"bytes4","name":"","type":"bytes4"}],"stateMutability":"nonpayable","type":"function"},{"inputs":[{"internalType":"address","name":"controller","type":"address"}],"name":"setAccessControl","outputs":[],"stateMutability":"nonpayable","type":"function"},{"inputs":[{"internalType":"string","name":"id","type":"string"},{"internalType":"string","name":"query","type":"string"}],"name":"updateTable","outputs":[],"stateMutability":"nonpayable","type":"function"}],"evm":{"bytecode":{"linkReferences":{},"object":"60806040523480156200001157600080fd5b50620000226200002860201b60201c565b620009c4565b620000386200012260201b60201c565b73ffffffffffffffffffffffffffffffffffffffff1663a15ab08d30620000b560405180610120016040528060e7815260200162001e7360e791396040518060400160405280601081526020017f7461626c655f61747472696275746573000000000000000000000000000000008152506200033b60201b60201c565b6040518363ffffffff1660e01b8152600401620000d4929190620006a5565b6020604051808303816000875af1158015620000f4573d6000803e3d6000fd5b505050506040513d601f19601f820116820180604052508101906200011a919062000719565b600081905550565b6000600146036200014a5773012969f7e3439a9b04025b5a049eb9bad82a8c12905062000338565b600a4603620001705773fad44bf5b843de943a09d4f3e84949a11d3aa3e6905062000338565b61a4b146036200019757739abd75e8640871a5a20d3b4ee6330a04c962affd905062000338565b61a4ba4603620001be57731a22854c5b1642760a827f20137a67930ae108d2905062000338565b60894603620001e457735c4e6a9e5c1e1bf445a062006faf19ea6c49afea905062000338565b61013a46036200020b577359ef8bf2d6c102b4c42aef9189e1a9f0abfd652d905062000338565b62aa36a74603620002335773c50c62498448acc8dbde43da77f8d5d2e2c7597d905062000338565b6101a446036200025a5773c72e8a7be04f2469f8c2db3f1bdf69a7d516abba905062000338565b62066eee4603620002825773223a74b8323914afdc3ff1e5005564dc17231d6e905062000338565b620138814603620002aa57734b48841d4b32c4650e4abc117a03fe8b51f38f68905062000338565b6204cb2f4603620002d25773030bcf3d50cad04c2e57391b12740982a9308621905062000338565b617a694603620002f95773e7f1725e7734ce288f8367e1bb143e90bb3f0512905062000338565b466040517f264e42cf0000000000000000000000000000000000000000000000000000000081526004016200032f91906200075c565b60405180910390fd5b90565b6060816200034f466200037b60201b60201c565b846040516020016200036493929190620008fb565b604051602081830303815290604052905092915050565b60606000600162000392846200045a60201b60201c565b01905060008167ffffffffffffffff811115620003b457620003b362000966565b5b6040519080825280601f01601f191660200182016040528015620003e75781602001600182028036833780820191505090505b509050600082602001820190505b6001156200044f578080600190039150507f3031323334353637383961626364656600000000000000000000000000000000600a86061a8153600a858162000442576200044162000995565b5b04945060008503620003f5575b819350505050919050565b600080600090507a184f03e93ff9f4daa797ed6e38ed64bf6a1f0100000000000000008310620004bc577a184f03e93ff9f4daa797ed6e38ed64bf6a1f0100000000000000008381620004b257620004b162000995565b5b0492506040810190505b6d04ee2d6d415b85acef81000000008310620004fd576d04ee2d6d415b85acef81000000008381620004f357620004f262000995565b5b0492506020810190505b662386f26fc1000083106200053057662386f26fc10000838162000526576200052562000995565b5b0492506010810190505b6305f5e10083106200055d576305f5e100838162000553576200055262000995565b5b0492506008810190505b6127108310620005865761271083816200057c576200057b62000995565b5b0492506004810190505b60648310620005ad5760648381620005a357620005a262000995565b5b0492506002810190505b600a8310620005bd576001810190505b80915050919050565b600073ffffffffffffffffffffffffffffffffffffffff82169050919050565b6000620005f382620005c6565b9050919050565b6200060581620005e6565b82525050565b600081519050919050565b600082825260208201905092915050565b60005b83811015620006475780820151818401526020810190506200062a565b60008484015250505050565b6000601f19601f8301169050919050565b600062000671826200060b565b6200067d818562000616565b93506200068f81856020860162000627565b6200069a8162000653565b840191505092915050565b6000604082019050620006bc6000830185620005fa565b8181036020830152620006d0818462000664565b90509392505050565b600080fd5b6000819050919050565b620006f381620006de565b8114620006ff57600080fd5b50565b6000815190506200071381620006e8565b92915050565b600060208284031215620007325762000731620006d9565b5b6000620007428482850162000702565b91505092915050565b6200075681620006de565b82525050565b60006020820190506200077360008301846200074b565b92915050565b600081905092915050565b7f435245415445205441424c452000000000000000000000000000000000000000600082015250565b6000620007bc600d8362000779565b9150620007c98262000784565b600d82019050919050565b6000620007e1826200060b565b620007ed818562000779565b9350620007ff81856020860162000627565b80840191505092915050565b7f5f00000000000000000000000000000000000000000000000000000000000000600082015250565b60006200084360018362000779565b915062000850826200080b565b600182019050919050565b7f2800000000000000000000000000000000000000000000000000000000000000600082015250565b60006200089360018362000779565b9150620008a0826200085b565b600182019050919050565b7f2900000000000000000000000000000000000000000000000000000000000000600082015250565b6000620008e360018362000779565b9150620008f082620008ab565b600182019050919050565b60006200090882620007ad565b9150620009168286620007d4565b9150620009238262000834565b9150620009318285620007d4565b91506200093e8262000884565b91506200094c8284620007d4565b91506200095982620008d4565b9150819050949350505050565b7f4e487b7100000000000000000000000000000000000000000000000000000000600052604160045260246000fd5b7f4e487b7100000000000000000000000000000000000000000000000000000000600052601260045260246000fd5b61149f80620009d46000396000f3fe608060405234801561001057600080fd5b506004361061007d5760003560e01c80632a18ab6f1161005b5780632a18ab6f146100ea5780635d5a33a21461010657806388e4f1cb14610124578063aaf5f338146101425761007d565b8063150b7a0214610082578063177b7e00146100b257806319129e5a146100ce575b600080fd5b61009c60048036038101906100979190610c08565b61015e565b6040516100a99190610cc6565b60405180910390f35b6100cc60048036038101906100c79190610d82565b610172565b005b6100e860048036038101906100e39190610dfa565b610230565b005b61010460048036038101906100ff9190610e27565b6102ab565b005b61010e61038c565b60405161011b9190610eef565b60405180910390f35b61012c6103d4565b6040516101399190610f20565b60405180910390f35b61015c60048036038101906101579190610d82565b6103dd565b005b600063150b7a0260e01b9050949350505050565b61017a6104c0565b73ffffffffffffffffffffffffffffffffffffffff1663377af0da306000546101dc6040518060400160405280601081526020017f7461626c655f617474726962757465730000000000000000000000000000000081525060005488886106bf565b6040518463ffffffff1660e01b81526004016101fa93929190610f4a565b600060405180830381600087803b15801561021457600080fd5b505af1158015610228573d6000803e3d6000fd5b505050505050565b6102386104c0565b73ffffffffffffffffffffffffffffffffffffffff16638bb0ab9730600054846040518463ffffffff1660e01b815260040161027693929190610f88565b600060405180830381600087803b15801561029057600080fd5b505af11580156102a4573d6000803e3d6000fd5b5050505050565b6000816040516020016102be9190611021565b60405160208183030381529060405290506102d76104c0565b73ffffffffffffffffffffffffffffffffffffffff1663377af0da306000546103386040518060400160405280601081526020017f7461626c655f6174747269627574657300000000000000000000000000000000815250600054876106fe565b6040518463ffffffff1660e01b815260040161035693929190610f4a565b600060405180830381600087803b15801561037057600080fd5b505af1158015610384573d6000803e3d6000fd5b505050505050565b60606103cf6040518060400160405280601081526020017f7461626c655f617474726962757465730000000000000000000000000000000081525060005461073a565b905090565b60008054905090565b6000826040516020016103f09190611021565b60405160208183030381529060405290506104096104c0565b73ffffffffffffffffffffffffffffffffffffffff1663377af0da3060005461046b6040518060400160405280601081526020017f7461626c655f61747472696275746573000000000000000000000000000000008152506000548888610778565b6040518463ffffffff1660e01b815260040161048993929190610f4a565b600060405180830381600087803b1580156104a357600080fd5b505af11580156104b7573d6000803e3d6000fd5b50505050505050565b6000600146036104e65773012969f7e3439a9b04025b5a049eb9bad82a8c1290506106bc565b600a460361050a5773fad44bf5b843de943a09d4f3e84949a11d3aa3e690506106bc565b61a4b1460361052f57739abd75e8640871a5a20d3b4ee6330a04c962affd90506106bc565b61a4ba460361055457731a22854c5b1642760a827f20137a67930ae108d290506106bc565b6089460361057857735c4e6a9e5c1e1bf445a062006faf19ea6c49afea90506106bc565b61013a460361059d577359ef8bf2d6c102b4c42aef9189e1a9f0abfd652d90506106bc565b62aa36a746036105c35773c50c62498448acc8dbde43da77f8d5d2e2c7597d90506106bc565b6101a446036105e85773c72e8a7be04f2469f8c2db3f1bdf69a7d516abba90506106bc565b62066eee460361060e5773223a74b8323914afdc3ff1e5005564dc17231d6e90506106bc565b62013881460361063457734b48841d4b32c4650e4abc117a03fe8b51f38f6890506106bc565b6204cb2f460361065a5773030bcf3d50cad04c2e57391b12740982a930862190506106bc565b617a69460361067f5773e7f1725e7734ce288f8367e1bb143e90bb3f051290506106bc565b466040517f264e42cf0000000000000000000000000000000000000000000000000000000081526004016106b39190610f20565b60405180910390fd5b90565b606060006106cd868661073a565b90508084846040516020016106e493929190611177565b604051602081830303815290604052915050949350505050565b6060600061070c858561073a565b9050808360405160200161072192919061126c565b6040516020818303038152906040529150509392505050565b606082610746466107f9565b61074f846107f9565b604051602001610761939291906112f2565b604051602081830303815290604052905092915050565b60606000610786868661073a565b905060006040518060200160405280600081525090506000845111156107c957836040516020016107b79190611339565b60405160208183030381529060405290505b8185826040516020016107de939291906113f3565b60405160208183030381529060405292505050949350505050565b606060006001610808846108c7565b01905060008167ffffffffffffffff81111561082757610826610add565b5b6040519080825280601f01601f1916602001820160405280156108595781602001600182028036833780820191505090505b509050600082602001820190505b6001156108bc578080600190039150507f3031323334353637383961626364656600000000000000000000000000000000600a86061a8153600a85816108b0576108af61143a565b5b04945060008503610867575b819350505050919050565b600080600090507a184f03e93ff9f4daa797ed6e38ed64bf6a1f0100000000000000008310610925577a184f03e93ff9f4daa797ed6e38ed64bf6a1f010000000000000000838161091b5761091a61143a565b5b0492506040810190505b6d04ee2d6d415b85acef81000000008310610962576d04ee2d6d415b85acef810000000083816109585761095761143a565b5b0492506020810190505b662386f26fc10000831061099157662386f26fc1000083816109875761098661143a565b5b0492506010810190505b6305f5e10083106109ba576305f5e10083816109b0576109af61143a565b5b0492506008810190505b61271083106109df5761271083816109d5576109d461143a565b5b0492506004810190505b60648310610a0257606483816109f8576109f761143a565b5b0492506002810190505b600a8310610a11576001810190505b80915050919050565b6000604051905090565b600080fd5b600080fd5b600073ffffffffffffffffffffffffffffffffffffffff82169050919050565b6000610a5982610a2e565b9050919050565b610a6981610a4e565b8114610a7457600080fd5b50565b600081359050610a8681610a60565b92915050565b6000819050919050565b610a9f81610a8c565b8114610aaa57600080fd5b50565b600081359050610abc81610a96565b92915050565b600080fd5b600080fd5b6000601f19601f8301169050919050565b7f4e487b7100000000000000000000000000000000000000000000000000000000600052604160045260246000fd5b610b1582610acc565b810181811067ffffffffffffffff82111715610b3457610b33610add565b5b80604052505050565b6000610b47610a1a565b9050610b538282610b0c565b919050565b600067ffffffffffffffff821115610b7357610b72610add565b5b610b7c82610acc565b9050602081019050919050565b82818337600083830152505050565b6000610bab610ba684610b58565b610b3d565b905082815260208101848484011115610bc757610bc6610ac7565b5b610bd2848285610b89565b509392505050565b600082601f830112610bef57610bee610ac2565b5b8135610bff848260208601610b98565b91505092915050565b60008060008060808587031215610c2257610c21610a24565b5b6000610c3087828801610a77565b9450506020610c4187828801610a77565b9350506040610c5287828801610aad565b925050606085013567ffffffffffffffff811115610c7357610c72610a29565b5b610c7f87828801610bda565b91505092959194509250565b60007fffffffff0000000000000000000000000000000000000000000000000000000082169050919050565b610cc081610c8b565b82525050565b6000602082019050610cdb6000830184610cb7565b92915050565b600067ffffffffffffffff821115610cfc57610cfb610add565b5b610d0582610acc565b9050602081019050919050565b6000610d25610d2084610ce1565b610b3d565b905082815260208101848484011115610d4157610d40610ac7565b5b610d4c848285610b89565b509392505050565b600082601f830112610d6957610d68610ac2565b5b8135610d79848260208601610d12565b91505092915050565b60008060408385031215610d9957610d98610a24565b5b600083013567ffffffffffffffff811115610db757610db6610a29565b5b610dc385828601610d54565b925050602083013567ffffffffffffffff811115610de457610de3610a29565b5b610df085828601610d54565b9150509250929050565b600060208284031215610e1057610e0f610a24565b5b6000610e1e84828501610a77565b91505092915050565b600060208284031215610e3d57610e3c610a24565b5b600082013567ffffffffffffffff811115610e5b57610e5a610a29565b5b610e6784828501610d54565b91505092915050565b600081519050919050565b600082825260208201905092915050565b60005b83811015610eaa578082015181840152602081019050610e8f565b60008484015250505050565b6000610ec182610e70565b610ecb8185610e7b565b9350610edb818560208601610e8c565b610ee481610acc565b840191505092915050565b60006020820190508181036000830152610f098184610eb6565b905092915050565b610f1a81610a8c565b82525050565b6000602082019050610f356000830184610f11565b92915050565b610f4481610a4e565b82525050565b6000606082019050610f5f6000830186610f3b565b610f6c6020830185610f11565b8181036040830152610f7e8184610eb6565b9050949350505050565b6000606082019050610f9d6000830186610f3b565b610faa6020830185610f11565b610fb76040830184610f3b565b949350505050565b7f69643d0000000000000000000000000000000000000000000000000000000000815250565b600081905092915050565b6000610ffb82610e70565b6110058185610fe5565b9350611015818560208601610e8c565b80840191505092915050565b600061102c82610fbf565b60038201915061103c8284610ff0565b915081905092915050565b7f494e5345525420494e544f200000000000000000000000000000000000000000600082015250565b600061107d600c83610fe5565b915061108882611047565b600c82019050919050565b7f2800000000000000000000000000000000000000000000000000000000000000600082015250565b60006110c9600183610fe5565b91506110d482611093565b600182019050919050565b7f2956414c55455328000000000000000000000000000000000000000000000000600082015250565b6000611115600883610fe5565b9150611120826110df565b600882019050919050565b7f2900000000000000000000000000000000000000000000000000000000000000600082015250565b6000611161600183610fe5565b915061116c8261112b565b600182019050919050565b600061118282611070565b915061118e8286610ff0565b9150611199826110bc565b91506111a58285610ff0565b91506111b082611108565b91506111bc8284610ff0565b91506111c782611154565b9150819050949350505050565b7f44454c4554452046524f4d200000000000000000000000000000000000000000600082015250565b600061120a600c83610fe5565b9150611215826111d4565b600c82019050919050565b7f2057484552452000000000000000000000000000000000000000000000000000600082015250565b6000611256600783610fe5565b915061126182611220565b600782019050919050565b6000611277826111fd565b91506112838285610ff0565b915061128e82611249565b915061129a8284610ff0565b91508190509392505050565b7f5f00000000000000000000000000000000000000000000000000000000000000600082015250565b60006112dc600183610fe5565b91506112e7826112a6565b600182019050919050565b60006112fe8286610ff0565b9150611309826112cf565b91506113158285610ff0565b9150611320826112cf565b915061132c8284610ff0565b9150819050949350505050565b600061134482611249565b91506113508284610ff0565b915081905092915050565b7f5550444154452000000000000000000000000000000000000000000000000000600082015250565b6000611391600783610fe5565b915061139c8261135b565b600782019050919050565b7f2053455420000000000000000000000000000000000000000000000000000000600082015250565b60006113dd600583610fe5565b91506113e8826113a7565b600582019050919050565b60006113fe82611384565b915061140a8286610ff0565b9150611415826113d0565b91506114218285610ff0565b915061142d8284610ff0565b9150819050949350505050565b7f4e487b7100000000000000000000000000000000000000000000000000000000600052601260045260246000fdfea2646970667358221220bee3ba67981b5e972d78d218115c8b9244c4d9f83d8dbb3213c4a2279817366c64736f6c6343000818003369642074657874207072696d617279206b65792c7469746c6520746578742c6465736372697074696f6e20746578742c6461746120746578742c696d61676520746578742c766964656f20746578742c6c6f636174696f6e20746578742c757365725f636f6e74726163745f696420746578742c6261636b6572735f7461626c655f6e616d6520746578742c636f6d6d656e74735f7461626c655f6e616d6520746578742c63617465676f727920746578742c7375625f63617465676f727920746578742c676f616c20746578742c70726f6a6563745f636f6e74726163745f69642074657874","opcodes":"PUSH1 0x80 PUSH1 0x40 MSTORE CALLVALUE DUP1 ISZERO PUSH3 0x11 JUMPI PUSH1 0x0 DUP1 REVERT JUMPDEST POP PUSH3 0x22 PUSH3 0x28 PUSH1 0x20 SHL PUSH1 0x20 SHR JUMP JUMPDEST PUSH3 0x9C4 JUMP JUMPDEST PUSH3 0x38 PUSH3 0x122 PUSH1 0x20 SHL PUSH1 0x20 SHR JUMP JUMPDEST PUSH20 0xFFFFFFFFFFFFFFFFFFFFFFFFFFFFFFFFFFFFFFFF AND PUSH4 0xA15AB08D ADDRESS PUSH3 0xB5 PUSH1 0x40 MLOAD DUP1 PUSH2 0x120 ADD PUSH1 0x40 MSTORE DUP1 PUSH1 0xE7 DUP2 MSTORE PUSH1 0x20 ADD PUSH3 0x1E73 PUSH1 0xE7 SWAP2 CODECOPY PUSH1 0x40 MLOAD DUP1 PUSH1 0x40 ADD PUSH1 0x40 MSTORE DUP1 PUSH1 0x10 DUP2 MSTORE PUSH1 0x20 ADD PUSH32 0x7461626C655F6174747269627574657300000000000000000000000000000000 DUP2 MSTORE POP PUSH3 0x33B PUSH1 0x20 SHL PUSH1 0x20 SHR JUMP JUMPDEST PUSH1 0x40 MLOAD DUP4 PUSH4 0xFFFFFFFF AND PUSH1 0xE0 SHL DUP2 MSTORE PUSH1 0x4 ADD PUSH3 0xD4 SWAP3 SWAP2 SWAP1 PUSH3 0x6A5 JUMP JUMPDEST PUSH1 0x20 PUSH1 0x40 MLOAD DUP1 DUP4 SUB DUP2 PUSH1 0x0 DUP8 GAS CALL ISZERO DUP1 ISZERO PUSH3 0xF4 JUMPI RETURNDATASIZE PUSH1 0x0 DUP1 RETURNDATACOPY RETURNDATASIZE PUSH1 0x0 REVERT JUMPDEST POP POP POP POP PUSH1 0x40 MLOAD RETURNDATASIZE PUSH1 0x1F NOT PUSH1 0x1F DUP3 ADD AND DUP3 ADD DUP1 PUSH1 0x40 MSTORE POP DUP2 ADD SWAP1 PUSH3 0x11A SWAP2 SWAP1 PUSH3 0x719 JUMP JUMPDEST PUSH1 0x0 DUP2 SWAP1 SSTORE POP JUMP JUMPDEST PUSH1 0x0 PUSH1 0x1 CHAINID SUB PUSH3 0x14A JUMPI PUSH20 0x12969F7E3439A9B04025B5A049EB9BAD82A8C12 SWAP1 POP PUSH3 0x338 JUMP JUMPDEST PUSH1 0xA CHAINID SUB PUSH3 0x170 JUMPI PUSH20 0xFAD44BF5B843DE943A09D4F3E84949A11D3AA3E6 SWAP1 POP PUSH3 0x338 JUMP JUMPDEST PUSH2 0xA4B1 CHAINID SUB PUSH3 0x197 JUMPI PUSH20 0x9ABD75E8640871A5A20D3B4EE6330A04C962AFFD SWAP1 POP PUSH3 0x338 JUMP JUMPDEST PUSH2 0xA4BA CHAINID SUB PUSH3 0x1BE JUMPI PUSH20 0x1A22854C5B1642760A827F20137A67930AE108D2 SWAP1 POP PUSH3 0x338 JUMP JUMPDEST PUSH1 0x89 CHAINID SUB PUSH3 0x1E4 JUMPI PUSH20 0x5C4E6A9E5C1E1BF445A062006FAF19EA6C49AFEA SWAP1 POP PUSH3 0x338 JUMP JUMPDEST PUSH2 0x13A CHAINID SUB PUSH3 0x20B JUMPI PUSH20 0x59EF8BF2D6C102B4C42AEF9189E1A9F0ABFD652D SWAP1 POP PUSH3 0x338 JUMP JUMPDEST PUSH3 0xAA36A7 CHAINID SUB PUSH3 0x233 JUMPI PUSH20 0xC50C62498448ACC8DBDE43DA77F8D5D2E2C7597D SWAP1 POP PUSH3 0x338 JUMP JUMPDEST PUSH2 0x1A4 CHAINID SUB PUSH3 0x25A JUMPI PUSH20 0xC72E8A7BE04F2469F8C2DB3F1BDF69A7D516ABBA SWAP1 POP PUSH3 0x338 JUMP JUMPDEST PUSH3 0x66EEE CHAINID SUB PUSH3 0x282 JUMPI PUSH20 0x223A74B8323914AFDC3FF1E5005564DC17231D6E SWAP1 POP PUSH3 0x338 JUMP JUMPDEST PUSH3 0x13881 CHAINID SUB PUSH3 0x2AA JUMPI PUSH20 0x4B48841D4B32C4650E4ABC117A03FE8B51F38F68 SWAP1 POP PUSH3 0x338 JUMP JUMPDEST PUSH3 0x4CB2F CHAINID SUB PUSH3 0x2D2 JUMPI PUSH20 0x30BCF3D50CAD04C2E57391B12740982A9308621 SWAP1 POP PUSH3 0x338 JUMP JUMPDEST PUSH2 0x7A69 CHAINID SUB PUSH3 0x2F9 JUMPI PUSH20 0xE7F1725E7734CE288F8367E1BB143E90BB3F0512 SWAP1 POP PUSH3 0x338 JUMP JUMPDEST CHAINID PUSH1 0x40 MLOAD PUSH32 0x264E42CF00000000000000000000000000000000000000000000000000000000 DUP2 MSTORE PUSH1 0x4 ADD PUSH3 0x32F SWAP2 SWAP1 PUSH3 0x75C JUMP JUMPDEST PUSH1 0x40 MLOAD DUP1 SWAP2 SUB SWAP1 REVERT JUMPDEST SWAP1 JUMP JUMPDEST PUSH1 0x60 DUP2 PUSH3 0x34F CHAINID PUSH3 0x37B PUSH1 0x20 SHL PUSH1 0x20 SHR JUMP JUMPDEST DUP5 PUSH1 0x40 MLOAD PUSH1 0x20 ADD PUSH3 0x364 SWAP4 SWAP3 SWAP2 SWAP1 PUSH3 0x8FB JUMP JUMPDEST PUSH1 0x40 MLOAD PUSH1 0x20 DUP2 DUP4 SUB SUB DUP2 MSTORE SWAP1 PUSH1 0x40 MSTORE SWAP1 POP SWAP3 SWAP2 POP POP JUMP JUMPDEST PUSH1 0x60 PUSH1 0x0 PUSH1 0x1 PUSH3 0x392 DUP5 PUSH3 0x45A PUSH1 0x20 SHL PUSH1 0x20 SHR JUMP JUMPDEST ADD SWAP1 POP PUSH1 0x0 DUP2 PUSH8 0xFFFFFFFFFFFFFFFF DUP2 GT ISZERO PUSH3 0x3B4 JUMPI PUSH3 0x3B3 PUSH3 0x966 JUMP JUMPDEST JUMPDEST PUSH1 0x40 MLOAD SWAP1 DUP1 DUP3 MSTORE DUP1 PUSH1 0x1F ADD PUSH1 0x1F NOT AND PUSH1 0x20 ADD DUP3 ADD PUSH1 0x40 MSTORE DUP1 ISZERO PUSH3 0x3E7 JUMPI DUP2 PUSH1 0x20 ADD PUSH1 0x1 DUP3 MUL DUP1 CALLDATASIZE DUP4 CALLDATACOPY DUP1 DUP3 ADD SWAP2 POP POP SWAP1 POP JUMPDEST POP SWAP1 POP PUSH1 0x0 DUP3 PUSH1 0x20 ADD DUP3 ADD SWAP1 POP JUMPDEST PUSH1 0x1 ISZERO PUSH3 0x44F JUMPI DUP1 DUP1 PUSH1 0x1 SWAP1 SUB SWAP2 POP POP PUSH32 0x3031323334353637383961626364656600000000000000000000000000000000 PUSH1 0xA DUP7 MOD BYTE DUP2 MSTORE8 PUSH1 0xA DUP6 DUP2 PUSH3 0x442 JUMPI PUSH3 0x441 PUSH3 0x995 JUMP JUMPDEST JUMPDEST DIV SWAP5 POP PUSH1 0x0 DUP6 SUB PUSH3 0x3F5 JUMPI JUMPDEST DUP2 SWAP4 POP POP POP POP SWAP2 SWAP1 POP JUMP JUMPDEST PUSH1 0x0 DUP1 PUSH1 0x0 SWAP1 POP PUSH27 0x184F03E93FF9F4DAA797ED6E38ED64BF6A1F010000000000000000 DUP4 LT PUSH3 0x4BC JUMPI PUSH27 0x184F03E93FF9F4DAA797ED6E38ED64BF6A1F010000000000000000 DUP4 DUP2 PUSH3 0x4B2 JUMPI PUSH3 0x4B1 PUSH3 0x995 JUMP JUMPDEST JUMPDEST DIV SWAP3 POP PUSH1 0x40 DUP2 ADD SWAP1 POP JUMPDEST PUSH14 0x4EE2D6D415B85ACEF8100000000 DUP4 LT PUSH3 0x4FD JUMPI PUSH14 0x4EE2D6D415B85ACEF8100000000 DUP4 DUP2 PUSH3 0x4F3 JUMPI PUSH3 0x4F2 PUSH3 0x995 JUMP JUMPDEST JUMPDEST DIV SWAP3 POP PUSH1 0x20 DUP2 ADD SWAP1 POP JUMPDEST PUSH7 0x2386F26FC10000 DUP4 LT PUSH3 0x530 JUMPI PUSH7 0x2386F26FC10000 DUP4 DUP2 PUSH3 0x526 JUMPI PUSH3 0x525 PUSH3 0x995 JUMP JUMPDEST JUMPDEST DIV SWAP3 POP PUSH1 0x10 DUP2 ADD SWAP1 POP JUMPDEST PUSH4 0x5F5E100 DUP4 LT PUSH3 0x55D JUMPI PUSH4 0x5F5E100 DUP4 DUP2 PUSH3 0x553 JUMPI PUSH3 0x552 PUSH3 0x995 JUMP JUMPDEST JUMPDEST DIV SWAP3 POP PUSH1 0x8 DUP2 ADD SWAP1 POP JUMPDEST PUSH2 0x2710 DUP4 LT PUSH3 0x586 JUMPI PUSH2 0x2710 DUP4 DUP2 PUSH3 0x57C JUMPI PUSH3 0x57B PUSH3 0x995 JUMP JUMPDEST JUMPDEST DIV SWAP3 POP PUSH1 0x4 DUP2 ADD SWAP1 POP JUMPDEST PUSH1 0x64 DUP4 LT PUSH3 0x5AD JUMPI PUSH1 0x64 DUP4 DUP2 PUSH3 0x5A3 JUMPI PUSH3 0x5A2 PUSH3 0x995 JUMP JUMPDEST JUMPDEST DIV SWAP3 POP PUSH1 0x2 DUP2 ADD SWAP1 POP JUMPDEST PUSH1 0xA DUP4 LT PUSH3 0x5BD JUMPI PUSH1 0x1 DUP2 ADD SWAP1 POP JUMPDEST DUP1 SWAP2 POP POP SWAP2 SWAP1 POP JUMP JUMPDEST PUSH1 0x0 PUSH20 0xFFFFFFFFFFFFFFFFFFFFFFFFFFFFFFFFFFFFFFFF DUP3 AND SWAP1 POP SWAP2 SWAP1 POP JUMP JUMPDEST PUSH1 0x0 PUSH3 0x5F3 DUP3 PUSH3 0x5C6 JUMP JUMPDEST SWAP1 POP SWAP2 SWAP1 POP JUMP JUMPDEST PUSH3 0x605 DUP2 PUSH3 0x5E6 JUMP JUMPDEST DUP3 MSTORE POP POP JUMP JUMPDEST PUSH1 0x0 DUP2 MLOAD SWAP1 POP SWAP2 SWAP1 POP JUMP JUMPDEST PUSH1 0x0 DUP3 DUP3 MSTORE PUSH1 0x20 DUP3 ADD SWAP1 POP SWAP3 SWAP2 POP POP JUMP JUMPDEST PUSH1 0x0 JUMPDEST DUP4 DUP2 LT ISZERO PUSH3 0x647 JUMPI DUP1 DUP3 ADD MLOAD DUP2 DUP5 ADD MSTORE PUSH1 0x20 DUP2 ADD SWAP1 POP PUSH3 0x62A JUMP JUMPDEST PUSH1 0x0 DUP5 DUP5 ADD MSTORE POP POP POP POP JUMP JUMPDEST PUSH1 0x0 PUSH1 0x1F NOT PUSH1 0x1F DUP4 ADD AND SWAP1 POP SWAP2 SWAP1 POP JUMP JUMPDEST PUSH1 0x0 PUSH3 0x671 DUP3 PUSH3 0x60B JUMP JUMPDEST PUSH3 0x67D DUP2 DUP6 PUSH3 0x616 JUMP JUMPDEST SWAP4 POP PUSH3 0x68F DUP2 DUP6 PUSH1 0x20 DUP7 ADD PUSH3 0x627 JUMP JUMPDEST PUSH3 0x69A DUP2 PUSH3 0x653 JUMP JUMPDEST DUP5 ADD SWAP2 POP POP SWAP3 SWAP2 POP POP JUMP JUMPDEST PUSH1 0x0 PUSH1 0x40 DUP3 ADD SWAP1 POP PUSH3 0x6BC PUSH1 0x0 DUP4 ADD DUP6 PUSH3 0x5FA JUMP JUMPDEST DUP2 DUP2 SUB PUSH1 0x20 DUP4 ADD MSTORE PUSH3 0x6D0 DUP2 DUP5 PUSH3 0x664 JUMP JUMPDEST SWAP1 POP SWAP4 SWAP3 POP POP POP JUMP JUMPDEST PUSH1 0x0 DUP1 REVERT JUMPDEST PUSH1 0x0 DUP2 SWAP1 POP SWAP2 SWAP1 POP JUMP JUMPDEST PUSH3 0x6F3 DUP2 PUSH3 0x6DE JUMP JUMPDEST DUP2 EQ PUSH3 0x6FF JUMPI PUSH1 0x0 DUP1 REVERT JUMPDEST POP JUMP JUMPDEST PUSH1 0x0 DUP2 MLOAD SWAP1 POP PUSH3 0x713 DUP2 PUSH3 0x6E8 JUMP JUMPDEST SWAP3 SWAP2 POP POP JUMP JUMPDEST PUSH1 0x0 PUSH1 0x20 DUP3 DUP5 SUB SLT ISZERO PUSH3 0x732 JUMPI PUSH3 0x731 PUSH3 0x6D9 JUMP JUMPDEST JUMPDEST PUSH1 0x0 PUSH3 0x742 DUP5 DUP3 DUP6 ADD PUSH3 0x702 JUMP JUMPDEST SWAP2 POP POP SWAP3 SWAP2 POP POP JUMP JUMPDEST PUSH3 0x756 DUP2 PUSH3 0x6DE JUMP JUMPDEST DUP3 MSTORE POP POP JUMP JUMPDEST PUSH1 0x0 PUSH1 0x20 DUP3 ADD SWAP1 POP PUSH3 0x773 PUSH1 0x0 DUP4 ADD DUP5 PUSH3 0x74B JUMP JUMPDEST SWAP3 SWAP2 POP POP JUMP JUMPDEST PUSH1 0x0 DUP2 SWAP1 POP SWAP3 SWAP2 POP POP JUMP JUMPDEST PUSH32 0x435245415445205441424C452000000000000000000000000000000000000000 PUSH1 0x0 DUP3 ADD MSTORE POP JUMP JUMPDEST PUSH1 0x0 PUSH3 0x7BC PUSH1 0xD DUP4 PUSH3 0x779 JUMP JUMPDEST SWAP2 POP PUSH3 0x7C9 DUP3 PUSH3 0x784 JUMP JUMPDEST PUSH1 0xD DUP3 ADD SWAP1 POP SWAP2 SWAP1 POP JUMP JUMPDEST PUSH1 0x0 PUSH3 0x7E1 DUP3 PUSH3 0x60B JUMP JUMPDEST PUSH3 0x7ED DUP2 DUP6 PUSH3 0x779 JUMP JUMPDEST SWAP4 POP PUSH3 0x7FF DUP2 DUP6 PUSH1 0x20 DUP7 ADD PUSH3 0x627 JUMP JUMPDEST DUP1 DUP5 ADD SWAP2 POP POP SWAP3 SWAP2 POP POP JUMP JUMPDEST PUSH32 0x5F00000000000000000000000000000000000000000000000000000000000000 PUSH1 0x0 DUP3 ADD MSTORE POP JUMP JUMPDEST PUSH1 0x0 PUSH3 0x843 PUSH1 0x1 DUP4 PUSH3 0x779 JUMP JUMPDEST SWAP2 POP PUSH3 0x850 DUP3 PUSH3 0x80B JUMP JUMPDEST PUSH1 0x1 DUP3 ADD SWAP1 POP SWAP2 SWAP1 POP JUMP JUMPDEST PUSH32 0x2800000000000000000000000000000000000000000000000000000000000000 PUSH1 0x0 DUP3 ADD MSTORE POP JUMP JUMPDEST PUSH1 0x0 PUSH3 0x893 PUSH1 0x1 DUP4 PUSH3 0x779 JUMP JUMPDEST SWAP2 POP PUSH3 0x8A0 DUP3 PUSH3 0x85B JUMP JUMPDEST PUSH1 0x1 DUP3 ADD SWAP1 POP SWAP2 SWAP1 POP JUMP JUMPDEST PUSH32 0x2900000000000000000000000000000000000000000000000000000000000000 PUSH1 0x0 DUP3 ADD MSTORE POP JUMP JUMPDEST PUSH1 0x0 PUSH3 0x8E3 PUSH1 0x1 DUP4 PUSH3 0x779 JUMP JUMPDEST SWAP2 POP PUSH3 0x8F0 DUP3 PUSH3 0x8AB JUMP JUMPDEST PUSH1 0x1 DUP3 ADD SWAP1 POP SWAP2 SWAP1 POP JUMP JUMPDEST PUSH1 0x0 PUSH3 0x908 DUP3 PUSH3 0x7AD JUMP JUMPDEST SWAP2 POP PUSH3 0x916 DUP3 DUP7 PUSH3 0x7D4 JUMP JUMPDEST SWAP2 POP PUSH3 0x923 DUP3 PUSH3 0x834 JUMP JUMPDEST SWAP2 POP PUSH3 0x931 DUP3 DUP6 PUSH3 0x7D4 JUMP JUMPDEST SWAP2 POP PUSH3 0x93E DUP3 PUSH3 0x884 JUMP JUMPDEST SWAP2 POP PUSH3 0x94C DUP3 DUP5 PUSH3 0x7D4 JUMP JUMPDEST SWAP2 POP PUSH3 0x959 DUP3 PUSH3 0x8D4 JUMP JUMPDEST SWAP2 POP DUP2 SWAP1 POP SWAP5 SWAP4 POP POP POP POP JUMP JUMPDEST PUSH32 0x4E487B7100000000000000000000000000000000000000000000000000000000 PUSH1 0x0 MSTORE PUSH1 0x41 PUSH1 0x4 MSTORE PUSH1 0x24 PUSH1 0x0 REVERT JUMPDEST PUSH32 0x4E487B7100000000000000000000000000000000000000000000000000000000 PUSH1 0x0 MSTORE PUSH1 0x12 PUSH1 0x4 MSTORE PUSH1 0x24 PUSH1 0x0 REVERT JUMPDEST PUSH2 0x149F DUP1 PUSH3 0x9D4 PUSH1 0x0 CODECOPY PUSH1 0x0 RETURN INVALID PUSH1 0x80 PUSH1 0x40 MSTORE CALLVALUE DUP1 ISZERO PUSH2 0x10 JUMPI PUSH1 0x0 DUP1 REVERT JUMPDEST POP PUSH1 0x4 CALLDATASIZE LT PUSH2 0x7D JUMPI PUSH1 0x0 CALLDATALOAD PUSH1 0xE0 SHR DUP1 PUSH4 0x2A18AB6F GT PUSH2 0x5B JUMPI DUP1 PUSH4 0x2A18AB6F EQ PUSH2 0xEA JUMPI DUP1 PUSH4 0x5D5A33A2 EQ PUSH2 0x106 JUMPI DUP1 PUSH4 0x88E4F1CB EQ PUSH2 0x124 JUMPI DUP1 PUSH4 0xAAF5F338 EQ PUSH2 0x142 JUMPI PUSH2 0x7D JUMP JUMPDEST DUP1 PUSH4 0x150B7A02 EQ PUSH2 0x82 JUMPI DUP1 PUSH4 0x177B7E00 EQ PUSH2 0xB2 JUMPI DUP1 PUSH4 0x19129E5A EQ PUSH2 0xCE JUMPI JUMPDEST PUSH1 0x0 DUP1 REVERT JUMPDEST PUSH2 0x9C PUSH1 0x4 DUP1 CALLDATASIZE SUB DUP2 ADD SWAP1 PUSH2 0x97 SWAP2 SWAP1 PUSH2 0xC08 JUMP JUMPDEST PUSH2 0x15E JUMP JUMPDEST PUSH1 0x40 MLOAD PUSH2 0xA9 SWAP2 SWAP1 PUSH2 0xCC6 JUMP JUMPDEST PUSH1 0x40 MLOAD DUP1 SWAP2 SUB SWAP1 RETURN JUMPDEST PUSH2 0xCC PUSH1 0x4 DUP1 CALLDATASIZE SUB DUP2 ADD SWAP1 PUSH2 0xC7 SWAP2 SWAP1 PUSH2 0xD82 JUMP JUMPDEST PUSH2 0x172 JUMP JUMPDEST STOP JUMPDEST PUSH2 0xE8 PUSH1 0x4 DUP1 CALLDATASIZE SUB DUP2 ADD SWAP1 PUSH2 0xE3 SWAP2 SWAP1 PUSH2 0xDFA JUMP JUMPDEST PUSH2 0x230 JUMP JUMPDEST STOP JUMPDEST PUSH2 0x104 PUSH1 0x4 DUP1 CALLDATASIZE SUB DUP2 ADD SWAP1 PUSH2 0xFF SWAP2 SWAP1 PUSH2 0xE27 JUMP JUMPDEST PUSH2 0x2AB JUMP JUMPDEST STOP JUMPDEST PUSH2 0x10E PUSH2 0x38C JUMP JUMPDEST PUSH1 0x40 MLOAD PUSH2 0x11B SWAP2 SWAP1 PUSH2 0xEEF JUMP JUMPDEST PUSH1 0x40 MLOAD DUP1 SWAP2 SUB SWAP1 RETURN JUMPDEST PUSH2 0x12C PUSH2 0x3D4 JUMP JUMPDEST PUSH1 0x40 MLOAD PUSH2 0x139 SWAP2 SWAP1 PUSH2 0xF20 JUMP JUMPDEST PUSH1 0x40 MLOAD DUP1 SWAP2 SUB SWAP1 RETURN JUMPDEST PUSH2 0x15C PUSH1 0x4 DUP1 CALLDATASIZE SUB DUP2 ADD SWAP1 PUSH2 0x157 SWAP2 SWAP1 PUSH2 0xD82 JUMP JUMPDEST PUSH2 0x3DD JUMP JUMPDEST STOP JUMPDEST PUSH1 0x0 PUSH4 0x150B7A02 PUSH1 0xE0 SHL SWAP1 POP SWAP5 SWAP4 POP POP POP POP JUMP JUMPDEST PUSH2 0x17A PUSH2 0x4C0 JUMP JUMPDEST PUSH20 0xFFFFFFFFFFFFFFFFFFFFFFFFFFFFFFFFFFFFFFFF AND PUSH4 0x377AF0DA ADDRESS PUSH1 0x0 SLOAD PUSH2 0x1DC PUSH1 0x40 MLOAD DUP1 PUSH1 0x40 ADD PUSH1 0x40 MSTORE DUP1 PUSH1 0x10 DUP2 MSTORE PUSH1 0x20 ADD PUSH32 0x7461626C655F6174747269627574657300000000000000000000000000000000 DUP2 MSTORE POP PUSH1 0x0 SLOAD DUP9 DUP9 PUSH2 0x6BF JUMP JUMPDEST PUSH1 0x40 MLOAD DUP5 PUSH4 0xFFFFFFFF AND PUSH1 0xE0 SHL DUP2 MSTORE PUSH1 0x4 ADD PUSH2 0x1FA SWAP4 SWAP3 SWAP2 SWAP1 PUSH2 0xF4A JUMP JUMPDEST PUSH1 0x0 PUSH1 0x40 MLOAD DUP1 DUP4 SUB DUP2 PUSH1 0x0 DUP8 DUP1 EXTCODESIZE ISZERO DUP1 ISZERO PUSH2 0x214 JUMPI PUSH1 0x0 DUP1 REVERT JUMPDEST POP GAS CALL ISZERO DUP1 ISZERO PUSH2 0x228 JUMPI RETURNDATASIZE PUSH1 0x0 DUP1 RETURNDATACOPY RETURNDATASIZE PUSH1 0x0 REVERT JUMPDEST POP POP POP POP POP POP JUMP JUMPDEST PUSH2 0x238 PUSH2 0x4C0 JUMP JUMPDEST PUSH20 0xFFFFFFFFFFFFFFFFFFFFFFFFFFFFFFFFFFFFFFFF AND PUSH4 0x8BB0AB97 ADDRESS PUSH1 0x0 SLOAD DUP5 PUSH1 0x40 MLOAD DUP5 PUSH4 0xFFFFFFFF AND PUSH1 0xE0 SHL DUP2 MSTORE PUSH1 0x4 ADD PUSH2 0x276 SWAP4 SWAP3 SWAP2 SWAP1 PUSH2 0xF88 JUMP JUMPDEST PUSH1 0x0 PUSH1 0x40 MLOAD DUP1 DUP4 SUB DUP2 PUSH1 0x0 DUP8 DUP1 EXTCODESIZE ISZERO DUP1 ISZERO PUSH2 0x290 JUMPI PUSH1 0x0 DUP1 REVERT JUMPDEST POP GAS CALL ISZERO DUP1 ISZERO PUSH2 0x2A4 JUMPI RETURNDATASIZE PUSH1 0x0 DUP1 RETURNDATACOPY RETURNDATASIZE PUSH1 0x0 REVERT JUMPDEST POP POP POP POP POP JUMP JUMPDEST PUSH1 0x0 DUP2 PUSH1 0x40 MLOAD PUSH1 0x20 ADD PUSH2 0x2BE SWAP2 SWAP1 PUSH2 0x1021 JUMP JUMPDEST PUSH1 0x40 MLOAD PUSH1 0x20 DUP2 DUP4 SUB SUB DUP2 MSTORE SWAP1 PUSH1 0x40 MSTORE SWAP1 POP PUSH2 0x2D7 PUSH2 0x4C0 JUMP JUMPDEST PUSH20 0xFFFFFFFFFFFFFFFFFFFFFFFFFFFFFFFFFFFFFFFF AND PUSH4 0x377AF0DA ADDRESS PUSH1 0x0 SLOAD PUSH2 0x338 PUSH1 0x40 MLOAD DUP1 PUSH1 0x40 ADD PUSH1 0x40 MSTORE DUP1 PUSH1 0x10 DUP2 MSTORE PUSH1 0x20 ADD PUSH32 0x7461626C655F6174747269627574657300000000000000000000000000000000 DUP2 MSTORE POP PUSH1 0x0 SLOAD DUP8 PUSH2 0x6FE JUMP JUMPDEST PUSH1 0x40 MLOAD DUP5 PUSH4 0xFFFFFFFF AND PUSH1 0xE0 SHL DUP2 MSTORE PUSH1 0x4 ADD PUSH2 0x356 SWAP4 SWAP3 SWAP2 SWAP1 PUSH2 0xF4A JUMP JUMPDEST PUSH1 0x0 PUSH1 0x40 MLOAD DUP1 DUP4 SUB DUP2 PUSH1 0x0 DUP8 DUP1 EXTCODESIZE ISZERO DUP1 ISZERO PUSH2 0x370 JUMPI PUSH1 0x0 DUP1 REVERT JUMPDEST POP GAS CALL ISZERO DUP1 ISZERO PUSH2 0x384 JUMPI RETURNDATASIZE PUSH1 0x0 DUP1 RETURNDATACOPY RETURNDATASIZE PUSH1 0x0 REVERT JUMPDEST POP POP POP POP POP POP JUMP JUMPDEST PUSH1 0x60 PUSH2 0x3CF PUSH1 0x40 MLOAD DUP1 PUSH1 0x40 ADD PUSH1 0x40 MSTORE DUP1 PUSH1 0x10 DUP2 MSTORE PUSH1 0x20 ADD PUSH32 0x7461626C655F6174747269627574657300000000000000000000000000000000 DUP2 MSTORE POP PUSH1 0x0 SLOAD PUSH2 0x73A JUMP JUMPDEST SWAP1 POP SWAP1 JUMP JUMPDEST PUSH1 0x0 DUP1 SLOAD SWAP1 POP SWAP1 JUMP JUMPDEST PUSH1 0x0 DUP3 PUSH1 0x40 MLOAD PUSH1 0x20 ADD PUSH2 0x3F0 SWAP2 SWAP1 PUSH2 0x1021 JUMP JUMPDEST PUSH1 0x40 MLOAD PUSH1 0x20 DUP2 DUP4 SUB SUB DUP2 MSTORE SWAP1 PUSH1 0x40 MSTORE SWAP1 POP PUSH2 0x409 PUSH2 0x4C0 JUMP JUMPDEST PUSH20 0xFFFFFFFFFFFFFFFFFFFFFFFFFFFFFFFFFFFFFFFF AND PUSH4 0x377AF0DA ADDRESS PUSH1 0x0 SLOAD PUSH2 0x46B PUSH1 0x40 MLOAD DUP1 PUSH1 0x40 ADD PUSH1 0x40 MSTORE DUP1 PUSH1 0x10 DUP2 MSTORE PUSH1 0x20 ADD PUSH32 0x7461626C655F6174747269627574657300000000000000000000000000000000 DUP2 MSTORE POP PUSH1 0x0 SLOAD DUP9 DUP9 PUSH2 0x778 JUMP JUMPDEST PUSH1 0x40 MLOAD DUP5 PUSH4 0xFFFFFFFF AND PUSH1 0xE0 SHL DUP2 MSTORE PUSH1 0x4 ADD PUSH2 0x489 SWAP4 SWAP3 SWAP2 SWAP1 PUSH2 0xF4A JUMP JUMPDEST PUSH1 0x0 PUSH1 0x40 MLOAD DUP1 DUP4 SUB DUP2 PUSH1 0x0 DUP8 DUP1 EXTCODESIZE ISZERO DUP1 ISZERO PUSH2 0x4A3 JUMPI PUSH1 0x0 DUP1 REVERT JUMPDEST POP GAS CALL ISZERO DUP1 ISZERO PUSH2 0x4B7 JUMPI RETURNDATASIZE PUSH1 0x0 DUP1 RETURNDATACOPY RETURNDATASIZE PUSH1 0x0 REVERT JUMPDEST POP POP POP POP POP POP POP JUMP JUMPDEST PUSH1 0x0 PUSH1 0x1 CHAINID SUB PUSH2 0x4E6 JUMPI PUSH20 0x12969F7E3439A9B04025B5A049EB9BAD82A8C12 SWAP1 POP PUSH2 0x6BC JUMP JUMPDEST PUSH1 0xA CHAINID SUB PUSH2 0x50A JUMPI PUSH20 0xFAD44BF5B843DE943A09D4F3E84949A11D3AA3E6 SWAP1 POP PUSH2 0x6BC JUMP JUMPDEST PUSH2 0xA4B1 CHAINID SUB PUSH2 0x52F JUMPI PUSH20 0x9ABD75E8640871A5A20D3B4EE6330A04C962AFFD SWAP1 POP PUSH2 0x6BC JUMP JUMPDEST PUSH2 0xA4BA CHAINID SUB PUSH2 0x554 JUMPI PUSH20 0x1A22854C5B1642760A827F20137A67930AE108D2 SWAP1 POP PUSH2 0x6BC JUMP JUMPDEST PUSH1 0x89 CHAINID SUB PUSH2 0x578 JUMPI PUSH20 0x5C4E6A9E5C1E1BF445A062006FAF19EA6C49AFEA SWAP1 POP PUSH2 0x6BC JUMP JUMPDEST PUSH2 0x13A CHAINID SUB PUSH2 0x59D JUMPI PUSH20 0x59EF8BF2D6C102B4C42AEF9189E1A9F0ABFD652D SWAP1 POP PUSH2 0x6BC JUMP JUMPDEST PUSH3 0xAA36A7 CHAINID SUB PUSH2 0x5C3 JUMPI PUSH20 0xC50C62498448ACC8DBDE43DA77F8D5D2E2C7597D SWAP1 POP PUSH2 0x6BC JUMP JUMPDEST PUSH2 0x1A4 CHAINID SUB PUSH2 0x5E8 JUMPI PUSH20 0xC72E8A7BE04F2469F8C2DB3F1BDF69A7D516ABBA SWAP1 POP PUSH2 0x6BC JUMP JUMPDEST PUSH3 0x66EEE CHAINID SUB PUSH2 0x60E JUMPI PUSH20 0x223A74B8323914AFDC3FF1E5005564DC17231D6E SWAP1 POP PUSH2 0x6BC JUMP JUMPDEST PUSH3 0x13881 CHAINID SUB PUSH2 0x634 JUMPI PUSH20 0x4B48841D4B32C4650E4ABC117A03FE8B51F38F68 SWAP1 POP PUSH2 0x6BC JUMP JUMPDEST PUSH3 0x4CB2F CHAINID SUB PUSH2 0x65A JUMPI PUSH20 0x30BCF3D50CAD04C2E57391B12740982A9308621 SWAP1 POP PUSH2 0x6BC JUMP JUMPDEST PUSH2 0x7A69 CHAINID SUB PUSH2 0x67F JUMPI PUSH20 0xE7F1725E7734CE288F8367E1BB143E90BB3F0512 SWAP1 POP PUSH2 0x6BC JUMP JUMPDEST CHAINID PUSH1 0x40 MLOAD PUSH32 0x264E42CF00000000000000000000000000000000000000000000000000000000 DUP2 MSTORE PUSH1 0x4 ADD PUSH2 0x6B3 SWAP2 SWAP1 PUSH2 0xF20 JUMP JUMPDEST PUSH1 0x40 MLOAD DUP1 SWAP2 SUB SWAP1 REVERT JUMPDEST SWAP1 JUMP JUMPDEST PUSH1 0x60 PUSH1 0x0 PUSH2 0x6CD DUP7 DUP7 PUSH2 0x73A JUMP JUMPDEST SWAP1 POP DUP1 DUP5 DUP5 PUSH1 0x40 MLOAD PUSH1 0x20 ADD PUSH2 0x6E4 SWAP4 SWAP3 SWAP2 SWAP1 PUSH2 0x1177 JUMP JUMPDEST PUSH1 0x40 MLOAD PUSH1 0x20 DUP2 DUP4 SUB SUB DUP2 MSTORE SWAP1 PUSH1 0x40 MSTORE SWAP2 POP POP SWAP5 SWAP4 POP POP POP POP JUMP JUMPDEST PUSH1 0x60 PUSH1 0x0 PUSH2 0x70C DUP6 DUP6 PUSH2 0x73A JUMP JUMPDEST SWAP1 POP DUP1 DUP4 PUSH1 0x40 MLOAD PUSH1 0x20 ADD PUSH2 0x721 SWAP3 SWAP2 SWAP1 PUSH2 0x126C JUMP JUMPDEST PUSH1 0x40 MLOAD PUSH1 0x20 DUP2 DUP4 SUB SUB DUP2 MSTORE SWAP1 PUSH1 0x40 MSTORE SWAP2 POP POP SWAP4 SWAP3 POP POP POP JUMP JUMPDEST PUSH1 0x60 DUP3 PUSH2 0x746 CHAINID PUSH2 0x7F9 JUMP JUMPDEST PUSH2 0x74F DUP5 PUSH2 0x7F9 JUMP JUMPDEST PUSH1 0x40 MLOAD PUSH1 0x20 ADD PUSH2 0x761 SWAP4 SWAP3 SWAP2 SWAP1 PUSH2 0x12F2 JUMP JUMPDEST PUSH1 0x40 MLOAD PUSH1 0x20 DUP2 DUP4 SUB SUB DUP2 MSTORE SWAP1 PUSH1 0x40 MSTORE SWAP1 POP SWAP3 SWAP2 POP POP JUMP JUMPDEST PUSH1 0x60 PUSH1 0x0 PUSH2 0x786 DUP7 DUP7 PUSH2 0x73A JUMP JUMPDEST SWAP1 POP PUSH1 0x0 PUSH1 0x40 MLOAD DUP1 PUSH1 0x20 ADD PUSH1 0x40 MSTORE DUP1 PUSH1 0x0 DUP2 MSTORE POP SWAP1 POP PUSH1 0x0 DUP5 MLOAD GT ISZERO PUSH2 0x7C9 JUMPI DUP4 PUSH1 0x40 MLOAD PUSH1 0x20 ADD PUSH2 0x7B7 SWAP2 SWAP1 PUSH2 0x1339 JUMP JUMPDEST PUSH1 0x40 MLOAD PUSH1 0x20 DUP2 DUP4 SUB SUB DUP2 MSTORE SWAP1 PUSH1 0x40 MSTORE SWAP1 POP JUMPDEST DUP2 DUP6 DUP3 PUSH1 0x40 MLOAD PUSH1 0x20 ADD PUSH2 0x7DE SWAP4 SWAP3 SWAP2 SWAP1 PUSH2 0x13F3 JUMP JUMPDEST PUSH1 0x40 MLOAD PUSH1 0x20 DUP2 DUP4 SUB SUB DUP2 MSTORE SWAP1 PUSH1 0x40 MSTORE SWAP3 POP POP POP SWAP5 SWAP4 POP POP POP POP JUMP JUMPDEST PUSH1 0x60 PUSH1 0x0 PUSH1 0x1 PUSH2 0x808 DUP5 PUSH2 0x8C7 JUMP JUMPDEST ADD SWAP1 POP PUSH1 0x0 DUP2 PUSH8 0xFFFFFFFFFFFFFFFF DUP2 GT ISZERO PUSH2 0x827 JUMPI PUSH2 0x826 PUSH2 0xADD JUMP JUMPDEST JUMPDEST PUSH1 0x40 MLOAD SWAP1 DUP1 DUP3 MSTORE DUP1 PUSH1 0x1F ADD PUSH1 0x1F NOT AND PUSH1 0x20 ADD DUP3 ADD PUSH1 0x40 MSTORE DUP1 ISZERO PUSH2 0x859 JUMPI DUP2 PUSH1 0x20 ADD PUSH1 0x1 DUP3 MUL DUP1 CALLDATASIZE DUP4 CALLDATACOPY DUP1 DUP3 ADD SWAP2 POP POP SWAP1 POP JUMPDEST POP SWAP1 POP PUSH1 0x0 DUP3 PUSH1 0x20 ADD DUP3 ADD SWAP1 POP JUMPDEST PUSH1 0x1 ISZERO PUSH2 0x8BC JUMPI DUP1 DUP1 PUSH1 0x1 SWAP1 SUB SWAP2 POP POP PUSH32 0x3031323334353637383961626364656600000000000000000000000000000000 PUSH1 0xA DUP7 MOD BYTE DUP2 MSTORE8 PUSH1 0xA DUP6 DUP2 PUSH2 0x8B0 JUMPI PUSH2 0x8AF PUSH2 0x143A JUMP JUMPDEST JUMPDEST DIV SWAP5 POP PUSH1 0x0 DUP6 SUB PUSH2 0x867 JUMPI JUMPDEST DUP2 SWAP4 POP POP POP POP SWAP2 SWAP1 POP JUMP JUMPDEST PUSH1 0x0 DUP1 PUSH1 0x0 SWAP1 POP PUSH27 0x184F03E93FF9F4DAA797ED6E38ED64BF6A1F010000000000000000 DUP4 LT PUSH2 0x925 JUMPI PUSH27 0x184F03E93FF9F4DAA797ED6E38ED64BF6A1F010000000000000000 DUP4 DUP2 PUSH2 0x91B JUMPI PUSH2 0x91A PUSH2 0x143A JUMP JUMPDEST JUMPDEST DIV SWAP3 POP PUSH1 0x40 DUP2 ADD SWAP1 POP JUMPDEST PUSH14 0x4EE2D6D415B85ACEF8100000000 DUP4 LT PUSH2 0x962 JUMPI PUSH14 0x4EE2D6D415B85ACEF8100000000 DUP4 DUP2 PUSH2 0x958 JUMPI PUSH2 0x957 PUSH2 0x143A JUMP JUMPDEST JUMPDEST DIV SWAP3 POP PUSH1 0x20 DUP2 ADD SWAP1 POP JUMPDEST PUSH7 0x2386F26FC10000 DUP4 LT PUSH2 0x991 JUMPI PUSH7 0x2386F26FC10000 DUP4 DUP2 PUSH2 0x987 JUMPI PUSH2 0x986 PUSH2 0x143A JUMP JUMPDEST JUMPDEST DIV SWAP3 POP PUSH1 0x10 DUP2 ADD SWAP1 POP JUMPDEST PUSH4 0x5F5E100 DUP4 LT PUSH2 0x9BA JUMPI PUSH4 0x5F5E100 DUP4 DUP2 PUSH2 0x9B0 JUMPI PUSH2 0x9AF PUSH2 0x143A JUMP JUMPDEST JUMPDEST DIV SWAP3 POP PUSH1 0x8 DUP2 ADD SWAP1 POP JUMPDEST PUSH2 0x2710 DUP4 LT PUSH2 0x9DF JUMPI PUSH2 0x2710 DUP4 DUP2 PUSH2 0x9D5 JUMPI PUSH2 0x9D4 PUSH2 0x143A JUMP JUMPDEST JUMPDEST DIV SWAP3 POP PUSH1 0x4 DUP2 ADD SWAP1 POP JUMPDEST PUSH1 0x64 DUP4 LT PUSH2 0xA02 JUMPI PUSH1 0x64 DUP4 DUP2 PUSH2 0x9F8 JUMPI PUSH2 0x9F7 PUSH2 0x143A JUMP JUMPDEST JUMPDEST DIV SWAP3 POP PUSH1 0x2 DUP2 ADD SWAP1 POP JUMPDEST PUSH1 0xA DUP4 LT PUSH2 0xA11 JUMPI PUSH1 0x1 DUP2 ADD SWAP1 POP JUMPDEST DUP1 SWAP2 POP POP SWAP2 SWAP1 POP JUMP JUMPDEST PUSH1 0x0 PUSH1 0x40 MLOAD SWAP1 POP SWAP1 JUMP JUMPDEST PUSH1 0x0 DUP1 REVERT JUMPDEST PUSH1 0x0 DUP1 REVERT JUMPDEST PUSH1 0x0 PUSH20 0xFFFFFFFFFFFFFFFFFFFFFFFFFFFFFFFFFFFFFFFF DUP3 AND SWAP1 POP SWAP2 SWAP1 POP JUMP JUMPDEST PUSH1 0x0 PUSH2 0xA59 DUP3 PUSH2 0xA2E JUMP JUMPDEST SWAP1 POP SWAP2 SWAP1 POP JUMP JUMPDEST PUSH2 0xA69 DUP2 PUSH2 0xA4E JUMP JUMPDEST DUP2 EQ PUSH2 0xA74 JUMPI PUSH1 0x0 DUP1 REVERT JUMPDEST POP JUMP JUMPDEST PUSH1 0x0 DUP2 CALLDATALOAD SWAP1 POP PUSH2 0xA86 DUP2 PUSH2 0xA60 JUMP JUMPDEST SWAP3 SWAP2 POP POP JUMP JUMPDEST PUSH1 0x0 DUP2 SWAP1 POP SWAP2 SWAP1 POP JUMP JUMPDEST PUSH2 0xA9F DUP2 PUSH2 0xA8C JUMP JUMPDEST DUP2 EQ PUSH2 0xAAA JUMPI PUSH1 0x0 DUP1 REVERT JUMPDEST POP JUMP JUMPDEST PUSH1 0x0 DUP2 CALLDATALOAD SWAP1 POP PUSH2 0xABC DUP2 PUSH2 0xA96 JUMP JUMPDEST SWAP3 SWAP2 POP POP JUMP JUMPDEST PUSH1 0x0 DUP1 REVERT JUMPDEST PUSH1 0x0 DUP1 REVERT JUMPDEST PUSH1 0x0 PUSH1 0x1F NOT PUSH1 0x1F DUP4 ADD AND SWAP1 POP SWAP2 SWAP1 POP JUMP JUMPDEST PUSH32 0x4E487B7100000000000000000000000000000000000000000000000000000000 PUSH1 0x0 MSTORE PUSH1 0x41 PUSH1 0x4 MSTORE PUSH1 0x24 PUSH1 0x0 REVERT JUMPDEST PUSH2 0xB15 DUP3 PUSH2 0xACC JUMP JUMPDEST DUP2 ADD DUP2 DUP2 LT PUSH8 0xFFFFFFFFFFFFFFFF DUP3 GT OR ISZERO PUSH2 0xB34 JUMPI PUSH2 0xB33 PUSH2 0xADD JUMP JUMPDEST JUMPDEST DUP1 PUSH1 0x40 MSTORE POP POP POP JUMP JUMPDEST PUSH1 0x0 PUSH2 0xB47 PUSH2 0xA1A JUMP JUMPDEST SWAP1 POP PUSH2 0xB53 DUP3 DUP3 PUSH2 0xB0C JUMP JUMPDEST SWAP2 SWAP1 POP JUMP JUMPDEST PUSH1 0x0 PUSH8 0xFFFFFFFFFFFFFFFF DUP3 GT ISZERO PUSH2 0xB73 JUMPI PUSH2 0xB72 PUSH2 0xADD JUMP JUMPDEST JUMPDEST PUSH2 0xB7C DUP3 PUSH2 0xACC JUMP JUMPDEST SWAP1 POP PUSH1 0x20 DUP2 ADD SWAP1 POP SWAP2 SWAP1 POP JUMP JUMPDEST DUP3 DUP2 DUP4 CALLDATACOPY PUSH1 0x0 DUP4 DUP4 ADD MSTORE POP POP POP JUMP JUMPDEST PUSH1 0x0 PUSH2 0xBAB PUSH2 0xBA6 DUP5 PUSH2 0xB58 JUMP JUMPDEST PUSH2 0xB3D JUMP JUMPDEST SWAP1 POP DUP3 DUP2 MSTORE PUSH1 0x20 DUP2 ADD DUP5 DUP5 DUP5 ADD GT ISZERO PUSH2 0xBC7 JUMPI PUSH2 0xBC6 PUSH2 0xAC7 JUMP JUMPDEST JUMPDEST PUSH2 0xBD2 DUP5 DUP3 DUP6 PUSH2 0xB89 JUMP JUMPDEST POP SWAP4 SWAP3 POP POP POP JUMP JUMPDEST PUSH1 0x0 DUP3 PUSH1 0x1F DUP4 ADD SLT PUSH2 0xBEF JUMPI PUSH2 0xBEE PUSH2 0xAC2 JUMP JUMPDEST JUMPDEST DUP2 CALLDATALOAD PUSH2 0xBFF DUP5 DUP3 PUSH1 0x20 DUP7 ADD PUSH2 0xB98 JUMP JUMPDEST SWAP2 POP POP SWAP3 SWAP2 POP POP JUMP JUMPDEST PUSH1 0x0 DUP1 PUSH1 0x0 DUP1 PUSH1 0x80 DUP6 DUP8 SUB SLT ISZERO PUSH2 0xC22 JUMPI PUSH2 0xC21 PUSH2 0xA24 JUMP JUMPDEST JUMPDEST PUSH1 0x0 PUSH2 0xC30 DUP8 DUP3 DUP9 ADD PUSH2 0xA77 JUMP JUMPDEST SWAP5 POP POP PUSH1 0x20 PUSH2 0xC41 DUP8 DUP3 DUP9 ADD PUSH2 0xA77 JUMP JUMPDEST SWAP4 POP POP PUSH1 0x40 PUSH2 0xC52 DUP8 DUP3 DUP9 ADD PUSH2 0xAAD JUMP JUMPDEST SWAP3 POP POP PUSH1 0x60 DUP6 ADD CALLDATALOAD PUSH8 0xFFFFFFFFFFFFFFFF DUP2 GT ISZERO PUSH2 0xC73 JUMPI PUSH2 0xC72 PUSH2 0xA29 JUMP JUMPDEST JUMPDEST PUSH2 0xC7F DUP8 DUP3 DUP9 ADD PUSH2 0xBDA JUMP JUMPDEST SWAP2 POP POP SWAP3 SWAP6 SWAP2 SWAP5 POP SWAP3 POP JUMP JUMPDEST PUSH1 0x0 PUSH32 0xFFFFFFFF00000000000000000000000000000000000000000000000000000000 DUP3 AND SWAP1 POP SWAP2 SWAP1 POP JUMP JUMPDEST PUSH2 0xCC0 DUP2 PUSH2 0xC8B JUMP JUMPDEST DUP3 MSTORE POP POP JUMP JUMPDEST PUSH1 0x0 PUSH1 0x20 DUP3 ADD SWAP1 POP PUSH2 0xCDB PUSH1 0x0 DUP4 ADD DUP5 PUSH2 0xCB7 JUMP JUMPDEST SWAP3 SWAP2 POP POP JUMP JUMPDEST PUSH1 0x0 PUSH8 0xFFFFFFFFFFFFFFFF DUP3 GT ISZERO PUSH2 0xCFC JUMPI PUSH2 0xCFB PUSH2 0xADD JUMP JUMPDEST JUMPDEST PUSH2 0xD05 DUP3 PUSH2 0xACC JUMP JUMPDEST SWAP1 POP PUSH1 0x20 DUP2 ADD SWAP1 POP SWAP2 SWAP1 POP JUMP JUMPDEST PUSH1 0x0 PUSH2 0xD25 PUSH2 0xD20 DUP5 PUSH2 0xCE1 JUMP JUMPDEST PUSH2 0xB3D JUMP JUMPDEST SWAP1 POP DUP3 DUP2 MSTORE PUSH1 0x20 DUP2 ADD DUP5 DUP5 DUP5 ADD GT ISZERO PUSH2 0xD41 JUMPI PUSH2 0xD40 PUSH2 0xAC7 JUMP JUMPDEST JUMPDEST PUSH2 0xD4C DUP5 DUP3 DUP6 PUSH2 0xB89 JUMP JUMPDEST POP SWAP4 SWAP3 POP POP POP JUMP JUMPDEST PUSH1 0x0 DUP3 PUSH1 0x1F DUP4 ADD SLT PUSH2 0xD69 JUMPI PUSH2 0xD68 PUSH2 0xAC2 JUMP JUMPDEST JUMPDEST DUP2 CALLDATALOAD PUSH2 0xD79 DUP5 DUP3 PUSH1 0x20 DUP7 ADD PUSH2 0xD12 JUMP JUMPDEST SWAP2 POP POP SWAP3 SWAP2 POP POP JUMP JUMPDEST PUSH1 0x0 DUP1 PUSH1 0x40 DUP4 DUP6 SUB SLT ISZERO PUSH2 0xD99 JUMPI PUSH2 0xD98 PUSH2 0xA24 JUMP JUMPDEST JUMPDEST PUSH1 0x0 DUP4 ADD CALLDATALOAD PUSH8 0xFFFFFFFFFFFFFFFF DUP2 GT ISZERO PUSH2 0xDB7 JUMPI PUSH2 0xDB6 PUSH2 0xA29 JUMP JUMPDEST JUMPDEST PUSH2 0xDC3 DUP6 DUP3 DUP7 ADD PUSH2 0xD54 JUMP JUMPDEST SWAP3 POP POP PUSH1 0x20 DUP4 ADD CALLDATALOAD PUSH8 0xFFFFFFFFFFFFFFFF DUP2 GT ISZERO PUSH2 0xDE4 JUMPI PUSH2 0xDE3 PUSH2 0xA29 JUMP JUMPDEST JUMPDEST PUSH2 0xDF0 DUP6 DUP3 DUP7 ADD PUSH2 0xD54 JUMP JUMPDEST SWAP2 POP POP SWAP3 POP SWAP3 SWAP1 POP JUMP JUMPDEST PUSH1 0x0 PUSH1 0x20 DUP3 DUP5 SUB SLT ISZERO PUSH2 0xE10 JUMPI PUSH2 0xE0F PUSH2 0xA24 JUMP JUMPDEST JUMPDEST PUSH1 0x0 PUSH2 0xE1E DUP5 DUP3 DUP6 ADD PUSH2 0xA77 JUMP JUMPDEST SWAP2 POP POP SWAP3 SWAP2 POP POP JUMP JUMPDEST PUSH1 0x0 PUSH1 0x20 DUP3 DUP5 SUB SLT ISZERO PUSH2 0xE3D JUMPI PUSH2 0xE3C PUSH2 0xA24 JUMP JUMPDEST JUMPDEST PUSH1 0x0 DUP3 ADD CALLDATALOAD PUSH8 0xFFFFFFFFFFFFFFFF DUP2 GT ISZERO PUSH2 0xE5B JUMPI PUSH2 0xE5A PUSH2 0xA29 JUMP JUMPDEST JUMPDEST PUSH2 0xE67 DUP5 DUP3 DUP6 ADD PUSH2 0xD54 JUMP JUMPDEST SWAP2 POP POP SWAP3 SWAP2 POP POP JUMP JUMPDEST PUSH1 0x0 DUP2 MLOAD SWAP1 POP SWAP2 SWAP1 POP JUMP JUMPDEST PUSH1 0x0 DUP3 DUP3 MSTORE PUSH1 0x20 DUP3 ADD SWAP1 POP SWAP3 SWAP2 POP POP JUMP JUMPDEST PUSH1 0x0 JUMPDEST DUP4 DUP2 LT ISZERO PUSH2 0xEAA JUMPI DUP1 DUP3 ADD MLOAD DUP2 DUP5 ADD MSTORE PUSH1 0x20 DUP2 ADD SWAP1 POP PUSH2 0xE8F JUMP JUMPDEST PUSH1 0x0 DUP5 DUP5 ADD MSTORE POP POP POP POP JUMP JUMPDEST PUSH1 0x0 PUSH2 0xEC1 DUP3 PUSH2 0xE70 JUMP JUMPDEST PUSH2 0xECB DUP2 DUP6 PUSH2 0xE7B JUMP JUMPDEST SWAP4 POP PUSH2 0xEDB DUP2 DUP6 PUSH1 0x20 DUP7 ADD PUSH2 0xE8C JUMP JUMPDEST PUSH2 0xEE4 DUP2 PUSH2 0xACC JUMP JUMPDEST DUP5 ADD SWAP2 POP POP SWAP3 SWAP2 POP POP JUMP JUMPDEST PUSH1 0x0 PUSH1 0x20 DUP3 ADD SWAP1 POP DUP2 DUP2 SUB PUSH1 0x0 DUP4 ADD MSTORE PUSH2 0xF09 DUP2 DUP5 PUSH2 0xEB6 JUMP JUMPDEST SWAP1 POP SWAP3 SWAP2 POP POP JUMP JUMPDEST PUSH2 0xF1A DUP2 PUSH2 0xA8C JUMP JUMPDEST DUP3 MSTORE POP POP JUMP JUMPDEST PUSH1 0x0 PUSH1 0x20 DUP3 ADD SWAP1 POP PUSH2 0xF35 PUSH1 0x0 DUP4 ADD DUP5 PUSH2 0xF11 JUMP JUMPDEST SWAP3 SWAP2 POP POP JUMP JUMPDEST PUSH2 0xF44 DUP2 PUSH2 0xA4E JUMP JUMPDEST DUP3 MSTORE POP POP JUMP JUMPDEST PUSH1 0x0 PUSH1 0x60 DUP3 ADD SWAP1 POP PUSH2 0xF5F PUSH1 0x0 DUP4 ADD DUP7 PUSH2 0xF3B JUMP JUMPDEST PUSH2 0xF6C PUSH1 0x20 DUP4 ADD DUP6 PUSH2 0xF11 JUMP JUMPDEST DUP2 DUP2 SUB PUSH1 0x40 DUP4 ADD MSTORE PUSH2 0xF7E DUP2 DUP5 PUSH2 0xEB6 JUMP JUMPDEST SWAP1 POP SWAP5 SWAP4 POP POP POP POP JUMP JUMPDEST PUSH1 0x0 PUSH1 0x60 DUP3 ADD SWAP1 POP PUSH2 0xF9D PUSH1 0x0 DUP4 ADD DUP7 PUSH2 0xF3B JUMP JUMPDEST PUSH2 0xFAA PUSH1 0x20 DUP4 ADD DUP6 PUSH2 0xF11 JUMP JUMPDEST PUSH2 0xFB7 PUSH1 0x40 DUP4 ADD DUP5 PUSH2 0xF3B JUMP JUMPDEST SWAP5 SWAP4 POP POP POP POP JUMP JUMPDEST PUSH32 0x69643D0000000000000000000000000000000000000000000000000000000000 DUP2 MSTORE POP JUMP JUMPDEST PUSH1 0x0 DUP2 SWAP1 POP SWAP3 SWAP2 POP POP JUMP JUMPDEST PUSH1 0x0 PUSH2 0xFFB DUP3 PUSH2 0xE70 JUMP JUMPDEST PUSH2 0x1005 DUP2 DUP6 PUSH2 0xFE5 JUMP JUMPDEST SWAP4 POP PUSH2 0x1015 DUP2 DUP6 PUSH1 0x20 DUP7 ADD PUSH2 0xE8C JUMP JUMPDEST DUP1 DUP5 ADD SWAP2 POP POP SWAP3 SWAP2 POP POP JUMP JUMPDEST PUSH1 0x0 PUSH2 0x102C DUP3 PUSH2 0xFBF JUMP JUMPDEST PUSH1 0x3 DUP3 ADD SWAP2 POP PUSH2 0x103C DUP3 DUP5 PUSH2 0xFF0 JUMP JUMPDEST SWAP2 POP DUP2 SWAP1 POP SWAP3 SWAP2 POP POP JUMP JUMPDEST PUSH32 0x494E5345525420494E544F200000000000000000000000000000000000000000 PUSH1 0x0 DUP3 ADD MSTORE POP JUMP JUMPDEST PUSH1 0x0 PUSH2 0x107D PUSH1 0xC DUP4 PUSH2 0xFE5 JUMP JUMPDEST SWAP2 POP PUSH2 0x1088 DUP3 PUSH2 0x1047 JUMP JUMPDEST PUSH1 0xC DUP3 ADD SWAP1 POP SWAP2 SWAP1 POP JUMP JUMPDEST PUSH32 0x2800000000000000000000000000000000000000000000000000000000000000 PUSH1 0x0 DUP3 ADD MSTORE POP JUMP JUMPDEST PUSH1 0x0 PUSH2 0x10C9 PUSH1 0x1 DUP4 PUSH2 0xFE5 JUMP JUMPDEST SWAP2 POP PUSH2 0x10D4 DUP3 PUSH2 0x1093 JUMP JUMPDEST PUSH1 0x1 DUP3 ADD SWAP1 POP SWAP2 SWAP1 POP JUMP JUMPDEST PUSH32 0x2956414C55455328000000000000000000000000000000000000000000000000 PUSH1 0x0 DUP3 ADD MSTORE POP JUMP JUMPDEST PUSH1 0x0 PUSH2 0x1115 PUSH1 0x8 DUP4 PUSH2 0xFE5 JUMP JUMPDEST SWAP2 POP PUSH2 0x1120 DUP3 PUSH2 0x10DF JUMP JUMPDEST PUSH1 0x8 DUP3 ADD SWAP1 POP SWAP2 SWAP1 POP JUMP JUMPDEST PUSH32 0x2900000000000000000000000000000000000000000000000000000000000000 PUSH1 0x0 DUP3 ADD MSTORE POP JUMP JUMPDEST PUSH1 0x0 PUSH2 0x1161 PUSH1 0x1 DUP4 PUSH2 0xFE5 JUMP JUMPDEST SWAP2 POP PUSH2 0x116C DUP3 PUSH2 0x112B JUMP JUMPDEST PUSH1 0x1 DUP3 ADD SWAP1 POP SWAP2 SWAP1 POP JUMP JUMPDEST PUSH1 0x0 PUSH2 0x1182 DUP3 PUSH2 0x1070 JUMP JUMPDEST SWAP2 POP PUSH2 0x118E DUP3 DUP7 PUSH2 0xFF0 JUMP JUMPDEST SWAP2 POP PUSH2 0x1199 DUP3 PUSH2 0x10BC JUMP JUMPDEST SWAP2 POP PUSH2 0x11A5 DUP3 DUP6 PUSH2 0xFF0 JUMP JUMPDEST SWAP2 POP PUSH2 0x11B0 DUP3 PUSH2 0x1108 JUMP JUMPDEST SWAP2 POP PUSH2 0x11BC DUP3 DUP5 PUSH2 0xFF0 JUMP JUMPDEST SWAP2 POP PUSH2 0x11C7 DUP3 PUSH2 0x1154 JUMP JUMPDEST SWAP2 POP DUP2 SWAP1 POP SWAP5 SWAP4 POP POP POP POP JUMP JUMPDEST PUSH32 0x44454C4554452046524F4D200000000000000000000000000000000000000000 PUSH1 0x0 DUP3 ADD MSTORE POP JUMP JUMPDEST PUSH1 0x0 PUSH2 0x120A PUSH1 0xC DUP4 PUSH2 0xFE5 JUMP JUMPDEST SWAP2 POP PUSH2 0x1215 DUP3 PUSH2 0x11D4 JUMP JUMPDEST PUSH1 0xC DUP3 ADD SWAP1 POP SWAP2 SWAP1 POP JUMP JUMPDEST PUSH32 0x2057484552452000000000000000000000000000000000000000000000000000 PUSH1 0x0 DUP3 ADD MSTORE POP JUMP JUMPDEST PUSH1 0x0 PUSH2 0x1256 PUSH1 0x7 DUP4 PUSH2 0xFE5 JUMP JUMPDEST SWAP2 POP PUSH2 0x1261 DUP3 PUSH2 0x1220 JUMP JUMPDEST PUSH1 0x7 DUP3 ADD SWAP1 POP SWAP2 SWAP1 POP JUMP JUMPDEST PUSH1 0x0 PUSH2 0x1277 DUP3 PUSH2 0x11FD JUMP JUMPDEST SWAP2 POP PUSH2 0x1283 DUP3 DUP6 PUSH2 0xFF0 JUMP JUMPDEST SWAP2 POP PUSH2 0x128E DUP3 PUSH2 0x1249 JUMP JUMPDEST SWAP2 POP PUSH2 0x129A DUP3 DUP5 PUSH2 0xFF0 JUMP JUMPDEST SWAP2 POP DUP2 SWAP1 POP SWAP4 SWAP3 POP POP POP JUMP JUMPDEST PUSH32 0x5F00000000000000000000000000000000000000000000000000000000000000 PUSH1 0x0 DUP3 ADD MSTORE POP JUMP JUMPDEST PUSH1 0x0 PUSH2 0x12DC PUSH1 0x1 DUP4 PUSH2 0xFE5 JUMP JUMPDEST SWAP2 POP PUSH2 0x12E7 DUP3 PUSH2 0x12A6 JUMP JUMPDEST PUSH1 0x1 DUP3 ADD SWAP1 POP SWAP2 SWAP1 POP JUMP JUMPDEST PUSH1 0x0 PUSH2 0x12FE DUP3 DUP7 PUSH2 0xFF0 JUMP JUMPDEST SWAP2 POP PUSH2 0x1309 DUP3 PUSH2 0x12CF JUMP JUMPDEST SWAP2 POP PUSH2 0x1315 DUP3 DUP6 PUSH2 0xFF0 JUMP JUMPDEST SWAP2 POP PUSH2 0x1320 DUP3 PUSH2 0x12CF JUMP JUMPDEST SWAP2 POP PUSH2 0x132C DUP3 DUP5 PUSH2 0xFF0 JUMP JUMPDEST SWAP2 POP DUP2 SWAP1 POP SWAP5 SWAP4 POP POP POP POP JUMP JUMPDEST PUSH1 0x0 PUSH2 0x1344 DUP3 PUSH2 0x1249 JUMP JUMPDEST SWAP2 POP PUSH2 0x1350 DUP3 DUP5 PUSH2 0xFF0 JUMP JUMPDEST SWAP2 POP DUP2 SWAP1 POP SWAP3 SWAP2 POP POP JUMP JUMPDEST PUSH32 0x5550444154452000000000000000000000000000000000000000000000000000 PUSH1 0x0 DUP3 ADD MSTORE POP JUMP JUMPDEST PUSH1 0x0 PUSH2 0x1391 PUSH1 0x7 DUP4 PUSH2 0xFE5 JUMP JUMPDEST SWAP2 POP PUSH2 0x139C DUP3 PUSH2 0x135B JUMP JUMPDEST PUSH1 0x7 DUP3 ADD SWAP1 POP SWAP2 SWAP1 POP JUMP JUMPDEST PUSH32 0x2053455420000000000000000000000000000000000000000000000000000000 PUSH1 0x0 DUP3 ADD MSTORE POP JUMP JUMPDEST PUSH1 0x0 PUSH2 0x13DD PUSH1 0x5 DUP4 PUSH2 0xFE5 JUMP JUMPDEST SWAP2 POP PUSH2 0x13E8 DUP3 PUSH2 0x13A7 JUMP JUMPDEST PUSH1 0x5 DUP3 ADD SWAP1 POP SWAP2 SWAP1 POP JUMP JUMPDEST PUSH1 0x0 PUSH2 0x13FE DUP3 PUSH2 0x1384 JUMP JUMPDEST SWAP2 POP PUSH2 0x140A DUP3 DUP7 PUSH2 0xFF0 JUMP JUMPDEST SWAP2 POP PUSH2 0x1415 DUP3 PUSH2 0x13D0 JUMP JUMPDEST SWAP2 POP PUSH2 0x1421 DUP3 DUP6 PUSH2 0xFF0 JUMP JUMPDEST SWAP2 POP PUSH2 0x142D DUP3 DUP5 PUSH2 0xFF0 JUMP JUMPDEST SWAP2 POP DUP2 SWAP1 POP SWAP5 SWAP4 POP POP POP POP JUMP JUMPDEST PUSH32 0x4E487B7100000000000000000000000000000000000000000000000000000000 PUSH1 0x0 MSTORE PUSH1 0x12 PUSH1 0x4 MSTORE PUSH1 0x24 PUSH1 0x0 REVERT INVALID LOG2 PUSH5 0x6970667358 0x22 SLT KECCAK256 0xBE 0xE3 0xBA PUSH8 0x981B5E972D78D218 GT TLOAD DUP12 SWAP3 PREVRANDAO 0xC4 0xD9 0xF8 RETURNDATASIZE DUP14 0xBB ORIGIN SGT 0xC4 LOG2 0x27 SWAP9 OR CALLDATASIZE PUSH13 0x64736F6C634300081800336964 KECCAK256 PUSH21 0x657874207072696D617279206B65792C7469746C65 KECCAK256 PUSH21 0x6578742C6465736372697074696F6E20746578742C PUSH5 0x6174612074 PUSH6 0x78742C696D61 PUSH8 0x6520746578742C76 PUSH10 0x64656F20746578742C6C PUSH16 0x636174696F6E20746578742C75736572 PUSH0 PUSH4 0x6F6E7472 PUSH2 0x6374 PUSH0 PUSH10 0x6420746578742C626163 PUSH12 0x6572735F7461626C655F6E61 PUSH14 0x6520746578742C636F6D6D656E74 PUSH20 0x5F7461626C655F6E616D6520746578742C636174 PUSH6 0x676F72792074 PUSH6 0x78742C737562 PUSH0 PUSH4 0x61746567 PUSH16 0x727920746578742C676F616C20746578 PUSH21 0x2C70726F6A6563745F636F6E74726163745F696420 PUSH21 0x657874000000000000000000000000000000000000 "},"methodIdentifiers":{"deleteFromTable(string)":"2a18ab6f","getTableId()":"88e4f1cb","getTableName()":"5d5a33a2","insertIntoTable(string,string)":"177b7e00","onERC721Received(address,address,uint256,bytes)":"150b7a02","setAccessControl(address)":"19129e5a","updateTable(string,string)":"aaf5f338"}}}}}