{"contracts/UserTable.sol":{"UserTable":{"abi":[{"inputs":[],"stateMutability":"nonpayable","type":"constructor"},{"inputs":[{"internalType":"uint256","name":"chainid","type":"uint256"}],"name":"ChainNotSupported","type":"error"},{"inputs":[{"internalType":"uint256","name":"id","type":"uint256"}],"name":"deleteFromTable","outputs":[],"stateMutability":"nonpayable","type":"function"},{"inputs":[],"name":"getTableId","outputs":[{"internalType":"uint256","name":"","type":"uint256"}],"stateMutability":"view","type":"function"},{"inputs":[],"name":"getTableName","outputs":[{"internalType":"string","name":"","type":"string"}],"stateMutability":"view","type":"function"},{"inputs":[{"internalType":"string","name":"query","type":"string"}],"name":"insertIntoTable","outputs":[],"stateMutability":"nonpayable","type":"function"},{"inputs":[{"internalType":"address","name":"","type":"address"},{"internalType":"address","name":"","type":"address"},{"internalType":"uint256","name":"","type":"uint256"},{"internalType":"bytes","name":"","type":"bytes"}],"name":"onERC721Received","outputs":[{"internalType":"bytes4","name":"","type":"bytes4"}],"stateMutability":"nonpayable","type":"function"},{"inputs":[{"internalType":"address","name":"controller","type":"address"}],"name":"setAccessControl","outputs":[],"stateMutability":"nonpayable","type":"function"},{"inputs":[{"internalType":"uint256","name":"id","type":"uint256"},{"internalType":"string","name":"query","type":"string"}],"name":"updateTable","outputs":[],"stateMutability":"nonpayable","type":"function"}],"evm":{"bytecode":{"linkReferences":{},"object":"60806040523480156200001157600080fd5b50620000226200002860201b60201c565b620009c3565b620000386200012160201b60201c565b73ffffffffffffffffffffffffffffffffffffffff1663a15ab08d30620000b46040518060a00160405280607a815260200162001ef6607a91396040518060400160405280601081526020017f7461626c655f61747472696275746573000000000000000000000000000000008152506200033a60201b60201c565b6040518363ffffffff1660e01b8152600401620000d3929190620006a4565b6020604051808303816000875af1158015620000f3573d6000803e3d6000fd5b505050506040513d601f19601f8201168201806040525081019062000119919062000718565b600081905550565b600060014603620001495773012969f7e3439a9b04025b5a049eb9bad82a8c12905062000337565b600a46036200016f5773fad44bf5b843de943a09d4f3e84949a11d3aa3e6905062000337565b61a4b146036200019657739abd75e8640871a5a20d3b4ee6330a04c962affd905062000337565b61a4ba4603620001bd57731a22854c5b1642760a827f20137a67930ae108d2905062000337565b60894603620001e357735c4e6a9e5c1e1bf445a062006faf19ea6c49afea905062000337565b61013a46036200020a577359ef8bf2d6c102b4c42aef9189e1a9f0abfd652d905062000337565b62aa36a74603620002325773c50c62498448acc8dbde43da77f8d5d2e2c7597d905062000337565b6101a44603620002595773c72e8a7be04f2469f8c2db3f1bdf69a7d516abba905062000337565b62066eee4603620002815773223a74b8323914afdc3ff1e5005564dc17231d6e905062000337565b620138814603620002a957734b48841d4b32c4650e4abc117a03fe8b51f38f68905062000337565b6204cb2f4603620002d15773030bcf3d50cad04c2e57391b12740982a9308621905062000337565b617a694603620002f85773e7f1725e7734ce288f8367e1bb143e90bb3f0512905062000337565b466040517f264e42cf0000000000000000000000000000000000000000000000000000000081526004016200032e91906200075b565b60405180910390fd5b90565b6060816200034e466200037a60201b60201c565b846040516020016200036393929190620008fa565b604051602081830303815290604052905092915050565b60606000600162000391846200045960201b60201c565b01905060008167ffffffffffffffff811115620003b357620003b262000965565b5b6040519080825280601f01601f191660200182016040528015620003e65781602001600182028036833780820191505090505b509050600082602001820190505b6001156200044e578080600190039150507f3031323334353637383961626364656600000000000000000000000000000000600a86061a8153600a858162000441576200044062000994565b5b04945060008503620003f4575b819350505050919050565b600080600090507a184f03e93ff9f4daa797ed6e38ed64bf6a1f0100000000000000008310620004bb577a184f03e93ff9f4daa797ed6e38ed64bf6a1f0100000000000000008381620004b157620004b062000994565b5b0492506040810190505b6d04ee2d6d415b85acef81000000008310620004fc576d04ee2d6d415b85acef81000000008381620004f257620004f162000994565b5b0492506020810190505b662386f26fc1000083106200052f57662386f26fc10000838162000525576200052462000994565b5b0492506010810190505b6305f5e10083106200055c576305f5e100838162000552576200055162000994565b5b0492506008810190505b6127108310620005855761271083816200057b576200057a62000994565b5b0492506004810190505b60648310620005ac5760648381620005a257620005a162000994565b5b0492506002810190505b600a8310620005bc576001810190505b80915050919050565b600073ffffffffffffffffffffffffffffffffffffffff82169050919050565b6000620005f282620005c5565b9050919050565b6200060481620005e5565b82525050565b600081519050919050565b600082825260208201905092915050565b60005b838110156200064657808201518184015260208101905062000629565b60008484015250505050565b6000601f19601f8301169050919050565b600062000670826200060a565b6200067c818562000615565b93506200068e81856020860162000626565b620006998162000652565b840191505092915050565b6000604082019050620006bb6000830185620005f9565b8181036020830152620006cf818462000663565b90509392505050565b600080fd5b6000819050919050565b620006f281620006dd565b8114620006fe57600080fd5b50565b6000815190506200071281620006e7565b92915050565b600060208284031215620007315762000730620006d8565b5b6000620007418482850162000701565b91505092915050565b6200075581620006dd565b82525050565b60006020820190506200077260008301846200074a565b92915050565b600081905092915050565b7f435245415445205441424c452000000000000000000000000000000000000000600082015250565b6000620007bb600d8362000778565b9150620007c88262000783565b600d82019050919050565b6000620007e0826200060a565b620007ec818562000778565b9350620007fe81856020860162000626565b80840191505092915050565b7f5f00000000000000000000000000000000000000000000000000000000000000600082015250565b60006200084260018362000778565b91506200084f826200080a565b600182019050919050565b7f2800000000000000000000000000000000000000000000000000000000000000600082015250565b60006200089260018362000778565b91506200089f826200085a565b600182019050919050565b7f2900000000000000000000000000000000000000000000000000000000000000600082015250565b6000620008e260018362000778565b9150620008ef82620008aa565b600182019050919050565b60006200090782620007ac565b9150620009158286620007d3565b9150620009228262000833565b9150620009308285620007d3565b91506200093d8262000883565b91506200094b8284620007d3565b91506200095882620008d3565b9150819050949350505050565b7f4e487b7100000000000000000000000000000000000000000000000000000000600052604160045260246000fd5b7f4e487b7100000000000000000000000000000000000000000000000000000000600052601260045260246000fd5b61152380620009d36000396000f3fe608060405234801561001057600080fd5b506004361061007d5760003560e01c8063312fa4571161005b578063312fa457146100ea5780635d5a33a21461010657806366d49ff11461012457806388e4f1cb146101405761007d565b806304bfc47f14610082578063150b7a021461009e57806319129e5a146100ce575b600080fd5b61009c60048036038101906100979190610a8b565b61015e565b005b6100b860048036038101906100b39190610c5c565b610247565b6040516100c59190610d1a565b60405180910390f35b6100e860048036038101906100e39190610d35565b61025b565b005b61010460048036038101906100ff9190610e03565b6102d6565b005b61010e6103c1565b60405161011b9190610ede565b60405180910390f35b61013e60048036038101906101399190610f00565b610409565b005b6101486104de565b6040516101559190610f58565b60405180910390f35b6000610169826104e7565b6040516020016101799190610fd5565b60405160208183030381529060405290506101926105b5565b73ffffffffffffffffffffffffffffffffffffffff1663377af0da306000546101f36040518060400160405280601081526020017f7461626c655f6174747269627574657300000000000000000000000000000000815250600054876107b4565b6040518463ffffffff1660e01b81526004016102119392919061100a565b600060405180830381600087803b15801561022b57600080fd5b505af115801561023f573d6000803e3d6000fd5b505050505050565b600063150b7a0260e01b9050949350505050565b6102636105b5565b73ffffffffffffffffffffffffffffffffffffffff16638bb0ab9730600054846040518463ffffffff1660e01b81526004016102a193929190611048565b600060405180830381600087803b1580156102bb57600080fd5b505af11580156102cf573d6000803e3d6000fd5b5050505050565b60006102e1836104e7565b6040516020016102f19190610fd5565b604051602081830303815290604052905061030a6105b5565b73ffffffffffffffffffffffffffffffffffffffff1663377af0da3060005461036c6040518060400160405280601081526020017f7461626c655f617474726962757465730000000000000000000000000000000081525060005488886107f0565b6040518463ffffffff1660e01b815260040161038a9392919061100a565b600060405180830381600087803b1580156103a457600080fd5b505af11580156103b8573d6000803e3d6000fd5b50505050505050565b60606104046040518060400160405280601081526020017f7461626c655f6174747269627574657300000000000000000000000000000000815250600054610871565b905090565b6104116105b5565b73ffffffffffffffffffffffffffffffffffffffff1663377af0da3060005461048b6040518060400160405280601081526020017f7461626c655f61747472696275746573000000000000000000000000000000008152506000546040518060800160405280604c81526020016114a2604c9139886108af565b6040518463ffffffff1660e01b81526004016104a99392919061100a565b600060405180830381600087803b1580156104c357600080fd5b505af11580156104d7573d6000803e3d6000fd5b5050505050565b60008054905090565b6060600060016104f6846108ee565b01905060008167ffffffffffffffff81111561051557610514610b31565b5b6040519080825280601f01601f1916602001820160405280156105475781602001600182028036833780820191505090505b509050600082602001820190505b6001156105aa578080600190039150507f3031323334353637383961626364656600000000000000000000000000000000600a86061a8153600a858161059e5761059d61107f565b5b04945060008503610555575b819350505050919050565b6000600146036105db5773012969f7e3439a9b04025b5a049eb9bad82a8c1290506107b1565b600a46036105ff5773fad44bf5b843de943a09d4f3e84949a11d3aa3e690506107b1565b61a4b1460361062457739abd75e8640871a5a20d3b4ee6330a04c962affd90506107b1565b61a4ba460361064957731a22854c5b1642760a827f20137a67930ae108d290506107b1565b6089460361066d57735c4e6a9e5c1e1bf445a062006faf19ea6c49afea90506107b1565b61013a4603610692577359ef8bf2d6c102b4c42aef9189e1a9f0abfd652d90506107b1565b62aa36a746036106b85773c50c62498448acc8dbde43da77f8d5d2e2c7597d90506107b1565b6101a446036106dd5773c72e8a7be04f2469f8c2db3f1bdf69a7d516abba90506107b1565b62066eee46036107035773223a74b8323914afdc3ff1e5005564dc17231d6e90506107b1565b62013881460361072957734b48841d4b32c4650e4abc117a03fe8b51f38f6890506107b1565b6204cb2f460361074f5773030bcf3d50cad04c2e57391b12740982a930862190506107b1565b617a6946036107745773e7f1725e7734ce288f8367e1bb143e90bb3f051290506107b1565b466040517f264e42cf0000000000000000000000000000000000000000000000000000000081526004016107a89190610f58565b60405180910390fd5b90565b606060006107c28585610871565b905080836040516020016107d7929190611146565b6040516020818303038152906040529150509392505050565b606060006107fe8686610871565b90506000604051806020016040528060008152509050600084511115610841578360405160200161082f9190611180565b60405160208183030381529060405290505b8185826040516020016108569392919061123a565b60405160208183030381529060405292505050949350505050565b60608261087d466104e7565b610886846104e7565b604051602001610898939291906112cd565b604051602081830303815290604052905092915050565b606060006108bd8686610871565b90508084846040516020016108d493929190611444565b604051602081830303815290604052915050949350505050565b600080600090507a184f03e93ff9f4daa797ed6e38ed64bf6a1f010000000000000000831061094c577a184f03e93ff9f4daa797ed6e38ed64bf6a1f01000000000000000083816109425761094161107f565b5b0492506040810190505b6d04ee2d6d415b85acef81000000008310610989576d04ee2d6d415b85acef8100000000838161097f5761097e61107f565b5b0492506020810190505b662386f26fc1000083106109b857662386f26fc1000083816109ae576109ad61107f565b5b0492506010810190505b6305f5e10083106109e1576305f5e10083816109d7576109d661107f565b5b0492506008810190505b6127108310610a065761271083816109fc576109fb61107f565b5b0492506004810190505b60648310610a295760648381610a1f57610a1e61107f565b5b0492506002810190505b600a8310610a38576001810190505b80915050919050565b6000604051905090565b600080fd5b600080fd5b6000819050919050565b610a6881610a55565b8114610a7357600080fd5b50565b600081359050610a8581610a5f565b92915050565b600060208284031215610aa157610aa0610a4b565b5b6000610aaf84828501610a76565b91505092915050565b600073ffffffffffffffffffffffffffffffffffffffff82169050919050565b6000610ae382610ab8565b9050919050565b610af381610ad8565b8114610afe57600080fd5b50565b600081359050610b1081610aea565b92915050565b600080fd5b600080fd5b6000601f19601f8301169050919050565b7f4e487b7100000000000000000000000000000000000000000000000000000000600052604160045260246000fd5b610b6982610b20565b810181811067ffffffffffffffff82111715610b8857610b87610b31565b5b80604052505050565b6000610b9b610a41565b9050610ba78282610b60565b919050565b600067ffffffffffffffff821115610bc757610bc6610b31565b5b610bd082610b20565b9050602081019050919050565b82818337600083830152505050565b6000610bff610bfa84610bac565b610b91565b905082815260208101848484011115610c1b57610c1a610b1b565b5b610c26848285610bdd565b509392505050565b600082601f830112610c4357610c42610b16565b5b8135610c53848260208601610bec565b91505092915050565b60008060008060808587031215610c7657610c75610a4b565b5b6000610c8487828801610b01565b9450506020610c9587828801610b01565b9350506040610ca687828801610a76565b925050606085013567ffffffffffffffff811115610cc757610cc6610a50565b5b610cd387828801610c2e565b91505092959194509250565b60007fffffffff0000000000000000000000000000000000000000000000000000000082169050919050565b610d1481610cdf565b82525050565b6000602082019050610d2f6000830184610d0b565b92915050565b600060208284031215610d4b57610d4a610a4b565b5b6000610d5984828501610b01565b91505092915050565b600067ffffffffffffffff821115610d7d57610d7c610b31565b5b610d8682610b20565b9050602081019050919050565b6000610da6610da184610d62565b610b91565b905082815260208101848484011115610dc257610dc1610b1b565b5b610dcd848285610bdd565b509392505050565b600082601f830112610dea57610de9610b16565b5b8135610dfa848260208601610d93565b91505092915050565b60008060408385031215610e1a57610e19610a4b565b5b6000610e2885828601610a76565b925050602083013567ffffffffffffffff811115610e4957610e48610a50565b5b610e5585828601610dd5565b9150509250929050565b600081519050919050565b600082825260208201905092915050565b60005b83811015610e99578082015181840152602081019050610e7e565b60008484015250505050565b6000610eb082610e5f565b610eba8185610e6a565b9350610eca818560208601610e7b565b610ed381610b20565b840191505092915050565b60006020820190508181036000830152610ef88184610ea5565b905092915050565b600060208284031215610f1657610f15610a4b565b5b600082013567ffffffffffffffff811115610f3457610f33610a50565b5b610f4084828501610dd5565b91505092915050565b610f5281610a55565b82525050565b6000602082019050610f6d6000830184610f49565b92915050565b7f69643d0000000000000000000000000000000000000000000000000000000000815250565b600081905092915050565b6000610faf82610e5f565b610fb98185610f99565b9350610fc9818560208601610e7b565b80840191505092915050565b6000610fe082610f73565b600382019150610ff08284610fa4565b915081905092915050565b61100481610ad8565b82525050565b600060608201905061101f6000830186610ffb565b61102c6020830185610f49565b818103604083015261103e8184610ea5565b9050949350505050565b600060608201905061105d6000830186610ffb565b61106a6020830185610f49565b6110776040830184610ffb565b949350505050565b7f4e487b7100000000000000000000000000000000000000000000000000000000600052601260045260246000fd5b7f44454c4554452046524f4d200000000000000000000000000000000000000000600082015250565b60006110e4600c83610f99565b91506110ef826110ae565b600c82019050919050565b7f2057484552452000000000000000000000000000000000000000000000000000600082015250565b6000611130600783610f99565b915061113b826110fa565b600782019050919050565b6000611151826110d7565b915061115d8285610fa4565b915061116882611123565b91506111748284610fa4565b91508190509392505050565b600061118b82611123565b91506111978284610fa4565b915081905092915050565b7f5550444154452000000000000000000000000000000000000000000000000000600082015250565b60006111d8600783610f99565b91506111e3826111a2565b600782019050919050565b7f2053455420000000000000000000000000000000000000000000000000000000600082015250565b6000611224600583610f99565b915061122f826111ee565b600582019050919050565b6000611245826111cb565b91506112518286610fa4565b915061125c82611217565b91506112688285610fa4565b91506112748284610fa4565b9150819050949350505050565b7f5f00000000000000000000000000000000000000000000000000000000000000600082015250565b60006112b7600183610f99565b91506112c282611281565b600182019050919050565b60006112d98286610fa4565b91506112e4826112aa565b91506112f08285610fa4565b91506112fb826112aa565b91506113078284610fa4565b9150819050949350505050565b7f494e5345525420494e544f200000000000000000000000000000000000000000600082015250565b600061134a600c83610f99565b915061135582611314565b600c82019050919050565b7f2800000000000000000000000000000000000000000000000000000000000000600082015250565b6000611396600183610f99565b91506113a182611360565b600182019050919050565b7f2956414c55455328000000000000000000000000000000000000000000000000600082015250565b60006113e2600883610f99565b91506113ed826113ac565b600882019050919050565b7f2900000000000000000000000000000000000000000000000000000000000000600082015250565b600061142e600183610f99565b9150611439826113f8565b600182019050919050565b600061144f8261133d565b915061145b8286610fa4565b915061146682611389565b91506114728285610fa4565b915061147d826113d5565b91506114898284610fa4565b915061149482611421565b915081905094935050505056fe69642c6e616d652c656d61696c2c646174612c62696f6772617068792c696d6167652c6c6f636174696f6e2c70617373776f72642c70726f6a6563745f7265666572656e63795f7461626c65a2646970667358221220d4a8c1c004e3a95b1505b35fc5fb77582f82bfa846abbc11f006beea9a7fedb064736f6c63430008180033696420696e74207072696d617279206b65792c6e616d6520746578742c656d61696c20746578742c62696f67726170687920746578742c696d61676520746578742c6c6f636174696f6e20746578742c70617373776f726420746578742c70726f6a6563745f7265666572656e63795f7461626c652074657874","opcodes":"PUSH1 0x80 PUSH1 0x40 MSTORE CALLVALUE DUP1 ISZERO PUSH3 0x11 JUMPI PUSH1 0x0 DUP1 REVERT JUMPDEST POP PUSH3 0x22 PUSH3 0x28 PUSH1 0x20 SHL PUSH1 0x20 SHR JUMP JUMPDEST PUSH3 0x9C3 JUMP JUMPDEST PUSH3 0x38 PUSH3 0x121 PUSH1 0x20 SHL PUSH1 0x20 SHR JUMP JUMPDEST PUSH20 0xFFFFFFFFFFFFFFFFFFFFFFFFFFFFFFFFFFFFFFFF AND PUSH4 0xA15AB08D ADDRESS PUSH3 0xB4 PUSH1 0x40 MLOAD DUP1 PUSH1 0xA0 ADD PUSH1 0x40 MSTORE DUP1 PUSH1 0x7A DUP2 MSTORE PUSH1 0x20 ADD PUSH3 0x1EF6 PUSH1 0x7A SWAP2 CODECOPY PUSH1 0x40 MLOAD DUP1 PUSH1 0x40 ADD PUSH1 0x40 MSTORE DUP1 PUSH1 0x10 DUP2 MSTORE PUSH1 0x20 ADD PUSH32 0x7461626C655F6174747269627574657300000000000000000000000000000000 DUP2 MSTORE POP PUSH3 0x33A PUSH1 0x20 SHL PUSH1 0x20 SHR JUMP JUMPDEST PUSH1 0x40 MLOAD DUP4 PUSH4 0xFFFFFFFF AND PUSH1 0xE0 SHL DUP2 MSTORE PUSH1 0x4 ADD PUSH3 0xD3 SWAP3 SWAP2 SWAP1 PUSH3 0x6A4 JUMP JUMPDEST PUSH1 0x20 PUSH1 0x40 MLOAD DUP1 DUP4 SUB DUP2 PUSH1 0x0 DUP8 GAS CALL ISZERO DUP1 ISZERO PUSH3 0xF3 JUMPI RETURNDATASIZE PUSH1 0x0 DUP1 RETURNDATACOPY RETURNDATASIZE PUSH1 0x0 REVERT JUMPDEST POP POP POP POP PUSH1 0x40 MLOAD RETURNDATASIZE PUSH1 0x1F NOT PUSH1 0x1F DUP3 ADD AND DUP3 ADD DUP1 PUSH1 0x40 MSTORE POP DUP2 ADD SWAP1 PUSH3 0x119 SWAP2 SWAP1 PUSH3 0x718 JUMP JUMPDEST PUSH1 0x0 DUP2 SWAP1 SSTORE POP JUMP JUMPDEST PUSH1 0x0 PUSH1 0x1 CHAINID SUB PUSH3 0x149 JUMPI PUSH20 0x12969F7E3439A9B04025B5A049EB9BAD82A8C12 SWAP1 POP PUSH3 0x337 JUMP JUMPDEST PUSH1 0xA CHAINID SUB PUSH3 0x16F JUMPI PUSH20 0xFAD44BF5B843DE943A09D4F3E84949A11D3AA3E6 SWAP1 POP PUSH3 0x337 JUMP JUMPDEST PUSH2 0xA4B1 CHAINID SUB PUSH3 0x196 JUMPI PUSH20 0x9ABD75E8640871A5A20D3B4EE6330A04C962AFFD SWAP1 POP PUSH3 0x337 JUMP JUMPDEST PUSH2 0xA4BA CHAINID SUB PUSH3 0x1BD JUMPI PUSH20 0x1A22854C5B1642760A827F20137A67930AE108D2 SWAP1 POP PUSH3 0x337 JUMP JUMPDEST PUSH1 0x89 CHAINID SUB PUSH3 0x1E3 JUMPI PUSH20 0x5C4E6A9E5C1E1BF445A062006FAF19EA6C49AFEA SWAP1 POP PUSH3 0x337 JUMP JUMPDEST PUSH2 0x13A CHAINID SUB PUSH3 0x20A JUMPI PUSH20 0x59EF8BF2D6C102B4C42AEF9189E1A9F0ABFD652D SWAP1 POP PUSH3 0x337 JUMP JUMPDEST PUSH3 0xAA36A7 CHAINID SUB PUSH3 0x232 JUMPI PUSH20 0xC50C62498448ACC8DBDE43DA77F8D5D2E2C7597D SWAP1 POP PUSH3 0x337 JUMP JUMPDEST PUSH2 0x1A4 CHAINID SUB PUSH3 0x259 JUMPI PUSH20 0xC72E8A7BE04F2469F8C2DB3F1BDF69A7D516ABBA SWAP1 POP PUSH3 0x337 JUMP JUMPDEST PUSH3 0x66EEE CHAINID SUB PUSH3 0x281 JUMPI PUSH20 0x223A74B8323914AFDC3FF1E5005564DC17231D6E SWAP1 POP PUSH3 0x337 JUMP JUMPDEST PUSH3 0x13881 CHAINID SUB PUSH3 0x2A9 JUMPI PUSH20 0x4B48841D4B32C4650E4ABC117A03FE8B51F38F68 SWAP1 POP PUSH3 0x337 JUMP JUMPDEST PUSH3 0x4CB2F CHAINID SUB PUSH3 0x2D1 JUMPI PUSH20 0x30BCF3D50CAD04C2E57391B12740982A9308621 SWAP1 POP PUSH3 0x337 JUMP JUMPDEST PUSH2 0x7A69 CHAINID SUB PUSH3 0x2F8 JUMPI PUSH20 0xE7F1725E7734CE288F8367E1BB143E90BB3F0512 SWAP1 POP PUSH3 0x337 JUMP JUMPDEST CHAINID PUSH1 0x40 MLOAD PUSH32 0x264E42CF00000000000000000000000000000000000000000000000000000000 DUP2 MSTORE PUSH1 0x4 ADD PUSH3 0x32E SWAP2 SWAP1 PUSH3 0x75B JUMP JUMPDEST PUSH1 0x40 MLOAD DUP1 SWAP2 SUB SWAP1 REVERT JUMPDEST SWAP1 JUMP JUMPDEST PUSH1 0x60 DUP2 PUSH3 0x34E CHAINID PUSH3 0x37A PUSH1 0x20 SHL PUSH1 0x20 SHR JUMP JUMPDEST DUP5 PUSH1 0x40 MLOAD PUSH1 0x20 ADD PUSH3 0x363 SWAP4 SWAP3 SWAP2 SWAP1 PUSH3 0x8FA JUMP JUMPDEST PUSH1 0x40 MLOAD PUSH1 0x20 DUP2 DUP4 SUB SUB DUP2 MSTORE SWAP1 PUSH1 0x40 MSTORE SWAP1 POP SWAP3 SWAP2 POP POP JUMP JUMPDEST PUSH1 0x60 PUSH1 0x0 PUSH1 0x1 PUSH3 0x391 DUP5 PUSH3 0x459 PUSH1 0x20 SHL PUSH1 0x20 SHR JUMP JUMPDEST ADD SWAP1 POP PUSH1 0x0 DUP2 PUSH8 0xFFFFFFFFFFFFFFFF DUP2 GT ISZERO PUSH3 0x3B3 JUMPI PUSH3 0x3B2 PUSH3 0x965 JUMP JUMPDEST JUMPDEST PUSH1 0x40 MLOAD SWAP1 DUP1 DUP3 MSTORE DUP1 PUSH1 0x1F ADD PUSH1 0x1F NOT AND PUSH1 0x20 ADD DUP3 ADD PUSH1 0x40 MSTORE DUP1 ISZERO PUSH3 0x3E6 JUMPI DUP2 PUSH1 0x20 ADD PUSH1 0x1 DUP3 MUL DUP1 CALLDATASIZE DUP4 CALLDATACOPY DUP1 DUP3 ADD SWAP2 POP POP SWAP1 POP JUMPDEST POP SWAP1 POP PUSH1 0x0 DUP3 PUSH1 0x20 ADD DUP3 ADD SWAP1 POP JUMPDEST PUSH1 0x1 ISZERO PUSH3 0x44E JUMPI DUP1 DUP1 PUSH1 0x1 SWAP1 SUB SWAP2 POP POP PUSH32 0x3031323334353637383961626364656600000000000000000000000000000000 PUSH1 0xA DUP7 MOD BYTE DUP2 MSTORE8 PUSH1 0xA DUP6 DUP2 PUSH3 0x441 JUMPI PUSH3 0x440 PUSH3 0x994 JUMP JUMPDEST JUMPDEST DIV SWAP5 POP PUSH1 0x0 DUP6 SUB PUSH3 0x3F4 JUMPI JUMPDEST DUP2 SWAP4 POP POP POP POP SWAP2 SWAP1 POP JUMP JUMPDEST PUSH1 0x0 DUP1 PUSH1 0x0 SWAP1 POP PUSH27 0x184F03E93FF9F4DAA797ED6E38ED64BF6A1F010000000000000000 DUP4 LT PUSH3 0x4BB JUMPI PUSH27 0x184F03E93FF9F4DAA797ED6E38ED64BF6A1F010000000000000000 DUP4 DUP2 PUSH3 0x4B1 JUMPI PUSH3 0x4B0 PUSH3 0x994 JUMP JUMPDEST JUMPDEST DIV SWAP3 POP PUSH1 0x40 DUP2 ADD SWAP1 POP JUMPDEST PUSH14 0x4EE2D6D415B85ACEF8100000000 DUP4 LT PUSH3 0x4FC JUMPI PUSH14 0x4EE2D6D415B85ACEF8100000000 DUP4 DUP2 PUSH3 0x4F2 JUMPI PUSH3 0x4F1 PUSH3 0x994 JUMP JUMPDEST JUMPDEST DIV SWAP3 POP PUSH1 0x20 DUP2 ADD SWAP1 POP JUMPDEST PUSH7 0x2386F26FC10000 DUP4 LT PUSH3 0x52F JUMPI PUSH7 0x2386F26FC10000 DUP4 DUP2 PUSH3 0x525 JUMPI PUSH3 0x524 PUSH3 0x994 JUMP JUMPDEST JUMPDEST DIV SWAP3 POP PUSH1 0x10 DUP2 ADD SWAP1 POP JUMPDEST PUSH4 0x5F5E100 DUP4 LT PUSH3 0x55C JUMPI PUSH4 0x5F5E100 DUP4 DUP2 PUSH3 0x552 JUMPI PUSH3 0x551 PUSH3 0x994 JUMP JUMPDEST JUMPDEST DIV SWAP3 POP PUSH1 0x8 DUP2 ADD SWAP1 POP JUMPDEST PUSH2 0x2710 DUP4 LT PUSH3 0x585 JUMPI PUSH2 0x2710 DUP4 DUP2 PUSH3 0x57B JUMPI PUSH3 0x57A PUSH3 0x994 JUMP JUMPDEST JUMPDEST DIV SWAP3 POP PUSH1 0x4 DUP2 ADD SWAP1 POP JUMPDEST PUSH1 0x64 DUP4 LT PUSH3 0x5AC JUMPI PUSH1 0x64 DUP4 DUP2 PUSH3 0x5A2 JUMPI PUSH3 0x5A1 PUSH3 0x994 JUMP JUMPDEST JUMPDEST DIV SWAP3 POP PUSH1 0x2 DUP2 ADD SWAP1 POP JUMPDEST PUSH1 0xA DUP4 LT PUSH3 0x5BC JUMPI PUSH1 0x1 DUP2 ADD SWAP1 POP JUMPDEST DUP1 SWAP2 POP POP SWAP2 SWAP1 POP JUMP JUMPDEST PUSH1 0x0 PUSH20 0xFFFFFFFFFFFFFFFFFFFFFFFFFFFFFFFFFFFFFFFF DUP3 AND SWAP1 POP SWAP2 SWAP1 POP JUMP JUMPDEST PUSH1 0x0 PUSH3 0x5F2 DUP3 PUSH3 0x5C5 JUMP JUMPDEST SWAP1 POP SWAP2 SWAP1 POP JUMP JUMPDEST PUSH3 0x604 DUP2 PUSH3 0x5E5 JUMP JUMPDEST DUP3 MSTORE POP POP JUMP JUMPDEST PUSH1 0x0 DUP2 MLOAD SWAP1 POP SWAP2 SWAP1 POP JUMP JUMPDEST PUSH1 0x0 DUP3 DUP3 MSTORE PUSH1 0x20 DUP3 ADD SWAP1 POP SWAP3 SWAP2 POP POP JUMP JUMPDEST PUSH1 0x0 JUMPDEST DUP4 DUP2 LT ISZERO PUSH3 0x646 JUMPI DUP1 DUP3 ADD MLOAD DUP2 DUP5 ADD MSTORE PUSH1 0x20 DUP2 ADD SWAP1 POP PUSH3 0x629 JUMP JUMPDEST PUSH1 0x0 DUP5 DUP5 ADD MSTORE POP POP POP POP JUMP JUMPDEST PUSH1 0x0 PUSH1 0x1F NOT PUSH1 0x1F DUP4 ADD AND SWAP1 POP SWAP2 SWAP1 POP JUMP JUMPDEST PUSH1 0x0 PUSH3 0x670 DUP3 PUSH3 0x60A JUMP JUMPDEST PUSH3 0x67C DUP2 DUP6 PUSH3 0x615 JUMP JUMPDEST SWAP4 POP PUSH3 0x68E DUP2 DUP6 PUSH1 0x20 DUP7 ADD PUSH3 0x626 JUMP JUMPDEST PUSH3 0x699 DUP2 PUSH3 0x652 JUMP JUMPDEST DUP5 ADD SWAP2 POP POP SWAP3 SWAP2 POP POP JUMP JUMPDEST PUSH1 0x0 PUSH1 0x40 DUP3 ADD SWAP1 POP PUSH3 0x6BB PUSH1 0x0 DUP4 ADD DUP6 PUSH3 0x5F9 JUMP JUMPDEST DUP2 DUP2 SUB PUSH1 0x20 DUP4 ADD MSTORE PUSH3 0x6CF DUP2 DUP5 PUSH3 0x663 JUMP JUMPDEST SWAP1 POP SWAP4 SWAP3 POP POP POP JUMP JUMPDEST PUSH1 0x0 DUP1 REVERT JUMPDEST PUSH1 0x0 DUP2 SWAP1 POP SWAP2 SWAP1 POP JUMP JUMPDEST PUSH3 0x6F2 DUP2 PUSH3 0x6DD JUMP JUMPDEST DUP2 EQ PUSH3 0x6FE JUMPI PUSH1 0x0 DUP1 REVERT JUMPDEST POP JUMP JUMPDEST PUSH1 0x0 DUP2 MLOAD SWAP1 POP PUSH3 0x712 DUP2 PUSH3 0x6E7 JUMP JUMPDEST SWAP3 SWAP2 POP POP JUMP JUMPDEST PUSH1 0x0 PUSH1 0x20 DUP3 DUP5 SUB SLT ISZERO PUSH3 0x731 JUMPI PUSH3 0x730 PUSH3 0x6D8 JUMP JUMPDEST JUMPDEST PUSH1 0x0 PUSH3 0x741 DUP5 DUP3 DUP6 ADD PUSH3 0x701 JUMP JUMPDEST SWAP2 POP POP SWAP3 SWAP2 POP POP JUMP JUMPDEST PUSH3 0x755 DUP2 PUSH3 0x6DD JUMP JUMPDEST DUP3 MSTORE POP POP JUMP JUMPDEST PUSH1 0x0 PUSH1 0x20 DUP3 ADD SWAP1 POP PUSH3 0x772 PUSH1 0x0 DUP4 ADD DUP5 PUSH3 0x74A JUMP JUMPDEST SWAP3 SWAP2 POP POP JUMP JUMPDEST PUSH1 0x0 DUP2 SWAP1 POP SWAP3 SWAP2 POP POP JUMP JUMPDEST PUSH32 0x435245415445205441424C452000000000000000000000000000000000000000 PUSH1 0x0 DUP3 ADD MSTORE POP JUMP JUMPDEST PUSH1 0x0 PUSH3 0x7BB PUSH1 0xD DUP4 PUSH3 0x778 JUMP JUMPDEST SWAP2 POP PUSH3 0x7C8 DUP3 PUSH3 0x783 JUMP JUMPDEST PUSH1 0xD DUP3 ADD SWAP1 POP SWAP2 SWAP1 POP JUMP JUMPDEST PUSH1 0x0 PUSH3 0x7E0 DUP3 PUSH3 0x60A JUMP JUMPDEST PUSH3 0x7EC DUP2 DUP6 PUSH3 0x778 JUMP JUMPDEST SWAP4 POP PUSH3 0x7FE DUP2 DUP6 PUSH1 0x20 DUP7 ADD PUSH3 0x626 JUMP JUMPDEST DUP1 DUP5 ADD SWAP2 POP POP SWAP3 SWAP2 POP POP JUMP JUMPDEST PUSH32 0x5F00000000000000000000000000000000000000000000000000000000000000 PUSH1 0x0 DUP3 ADD MSTORE POP JUMP JUMPDEST PUSH1 0x0 PUSH3 0x842 PUSH1 0x1 DUP4 PUSH3 0x778 JUMP JUMPDEST SWAP2 POP PUSH3 0x84F DUP3 PUSH3 0x80A JUMP JUMPDEST PUSH1 0x1 DUP3 ADD SWAP1 POP SWAP2 SWAP1 POP JUMP JUMPDEST PUSH32 0x2800000000000000000000000000000000000000000000000000000000000000 PUSH1 0x0 DUP3 ADD MSTORE POP JUMP JUMPDEST PUSH1 0x0 PUSH3 0x892 PUSH1 0x1 DUP4 PUSH3 0x778 JUMP JUMPDEST SWAP2 POP PUSH3 0x89F DUP3 PUSH3 0x85A JUMP JUMPDEST PUSH1 0x1 DUP3 ADD SWAP1 POP SWAP2 SWAP1 POP JUMP JUMPDEST PUSH32 0x2900000000000000000000000000000000000000000000000000000000000000 PUSH1 0x0 DUP3 ADD MSTORE POP JUMP JUMPDEST PUSH1 0x0 PUSH3 0x8E2 PUSH1 0x1 DUP4 PUSH3 0x778 JUMP JUMPDEST SWAP2 POP PUSH3 0x8EF DUP3 PUSH3 0x8AA JUMP JUMPDEST PUSH1 0x1 DUP3 ADD SWAP1 POP SWAP2 SWAP1 POP JUMP JUMPDEST PUSH1 0x0 PUSH3 0x907 DUP3 PUSH3 0x7AC JUMP JUMPDEST SWAP2 POP PUSH3 0x915 DUP3 DUP7 PUSH3 0x7D3 JUMP JUMPDEST SWAP2 POP PUSH3 0x922 DUP3 PUSH3 0x833 JUMP JUMPDEST SWAP2 POP PUSH3 0x930 DUP3 DUP6 PUSH3 0x7D3 JUMP JUMPDEST SWAP2 POP PUSH3 0x93D DUP3 PUSH3 0x883 JUMP JUMPDEST SWAP2 POP PUSH3 0x94B DUP3 DUP5 PUSH3 0x7D3 JUMP JUMPDEST SWAP2 POP PUSH3 0x958 DUP3 PUSH3 0x8D3 JUMP JUMPDEST SWAP2 POP DUP2 SWAP1 POP SWAP5 SWAP4 POP POP POP POP JUMP JUMPDEST PUSH32 0x4E487B7100000000000000000000000000000000000000000000000000000000 PUSH1 0x0 MSTORE PUSH1 0x41 PUSH1 0x4 MSTORE PUSH1 0x24 PUSH1 0x0 REVERT JUMPDEST PUSH32 0x4E487B7100000000000000000000000000000000000000000000000000000000 PUSH1 0x0 MSTORE PUSH1 0x12 PUSH1 0x4 MSTORE PUSH1 0x24 PUSH1 0x0 REVERT JUMPDEST PUSH2 0x1523 DUP1 PUSH3 0x9D3 PUSH1 0x0 CODECOPY PUSH1 0x0 RETURN INVALID PUSH1 0x80 PUSH1 0x40 MSTORE CALLVALUE DUP1 ISZERO PUSH2 0x10 JUMPI PUSH1 0x0 DUP1 REVERT JUMPDEST POP PUSH1 0x4 CALLDATASIZE LT PUSH2 0x7D JUMPI PUSH1 0x0 CALLDATALOAD PUSH1 0xE0 SHR DUP1 PUSH4 0x312FA457 GT PUSH2 0x5B JUMPI DUP1 PUSH4 0x312FA457 EQ PUSH2 0xEA JUMPI DUP1 PUSH4 0x5D5A33A2 EQ PUSH2 0x106 JUMPI DUP1 PUSH4 0x66D49FF1 EQ PUSH2 0x124 JUMPI DUP1 PUSH4 0x88E4F1CB EQ PUSH2 0x140 JUMPI PUSH2 0x7D JUMP JUMPDEST DUP1 PUSH4 0x4BFC47F EQ PUSH2 0x82 JUMPI DUP1 PUSH4 0x150B7A02 EQ PUSH2 0x9E JUMPI DUP1 PUSH4 0x19129E5A EQ PUSH2 0xCE JUMPI JUMPDEST PUSH1 0x0 DUP1 REVERT JUMPDEST PUSH2 0x9C PUSH1 0x4 DUP1 CALLDATASIZE SUB DUP2 ADD SWAP1 PUSH2 0x97 SWAP2 SWAP1 PUSH2 0xA8B JUMP JUMPDEST PUSH2 0x15E JUMP JUMPDEST STOP JUMPDEST PUSH2 0xB8 PUSH1 0x4 DUP1 CALLDATASIZE SUB DUP2 ADD SWAP1 PUSH2 0xB3 SWAP2 SWAP1 PUSH2 0xC5C JUMP JUMPDEST PUSH2 0x247 JUMP JUMPDEST PUSH1 0x40 MLOAD PUSH2 0xC5 SWAP2 SWAP1 PUSH2 0xD1A JUMP JUMPDEST PUSH1 0x40 MLOAD DUP1 SWAP2 SUB SWAP1 RETURN JUMPDEST PUSH2 0xE8 PUSH1 0x4 DUP1 CALLDATASIZE SUB DUP2 ADD SWAP1 PUSH2 0xE3 SWAP2 SWAP1 PUSH2 0xD35 JUMP JUMPDEST PUSH2 0x25B JUMP JUMPDEST STOP JUMPDEST PUSH2 0x104 PUSH1 0x4 DUP1 CALLDATASIZE SUB DUP2 ADD SWAP1 PUSH2 0xFF SWAP2 SWAP1 PUSH2 0xE03 JUMP JUMPDEST PUSH2 0x2D6 JUMP JUMPDEST STOP JUMPDEST PUSH2 0x10E PUSH2 0x3C1 JUMP JUMPDEST PUSH1 0x40 MLOAD PUSH2 0x11B SWAP2 SWAP1 PUSH2 0xEDE JUMP JUMPDEST PUSH1 0x40 MLOAD DUP1 SWAP2 SUB SWAP1 RETURN JUMPDEST PUSH2 0x13E PUSH1 0x4 DUP1 CALLDATASIZE SUB DUP2 ADD SWAP1 PUSH2 0x139 SWAP2 SWAP1 PUSH2 0xF00 JUMP JUMPDEST PUSH2 0x409 JUMP JUMPDEST STOP JUMPDEST PUSH2 0x148 PUSH2 0x4DE JUMP JUMPDEST PUSH1 0x40 MLOAD PUSH2 0x155 SWAP2 SWAP1 PUSH2 0xF58 JUMP JUMPDEST PUSH1 0x40 MLOAD DUP1 SWAP2 SUB SWAP1 RETURN JUMPDEST PUSH1 0x0 PUSH2 0x169 DUP3 PUSH2 0x4E7 JUMP JUMPDEST PUSH1 0x40 MLOAD PUSH1 0x20 ADD PUSH2 0x179 SWAP2 SWAP1 PUSH2 0xFD5 JUMP JUMPDEST PUSH1 0x40 MLOAD PUSH1 0x20 DUP2 DUP4 SUB SUB DUP2 MSTORE SWAP1 PUSH1 0x40 MSTORE SWAP1 POP PUSH2 0x192 PUSH2 0x5B5 JUMP JUMPDEST PUSH20 0xFFFFFFFFFFFFFFFFFFFFFFFFFFFFFFFFFFFFFFFF AND PUSH4 0x377AF0DA ADDRESS PUSH1 0x0 SLOAD PUSH2 0x1F3 PUSH1 0x40 MLOAD DUP1 PUSH1 0x40 ADD PUSH1 0x40 MSTORE DUP1 PUSH1 0x10 DUP2 MSTORE PUSH1 0x20 ADD PUSH32 0x7461626C655F6174747269627574657300000000000000000000000000000000 DUP2 MSTORE POP PUSH1 0x0 SLOAD DUP8 PUSH2 0x7B4 JUMP JUMPDEST PUSH1 0x40 MLOAD DUP5 PUSH4 0xFFFFFFFF AND PUSH1 0xE0 SHL DUP2 MSTORE PUSH1 0x4 ADD PUSH2 0x211 SWAP4 SWAP3 SWAP2 SWAP1 PUSH2 0x100A JUMP JUMPDEST PUSH1 0x0 PUSH1 0x40 MLOAD DUP1 DUP4 SUB DUP2 PUSH1 0x0 DUP8 DUP1 EXTCODESIZE ISZERO DUP1 ISZERO PUSH2 0x22B JUMPI PUSH1 0x0 DUP1 REVERT JUMPDEST POP GAS CALL ISZERO DUP1 ISZERO PUSH2 0x23F JUMPI RETURNDATASIZE PUSH1 0x0 DUP1 RETURNDATACOPY RETURNDATASIZE PUSH1 0x0 REVERT JUMPDEST POP POP POP POP POP POP JUMP JUMPDEST PUSH1 0x0 PUSH4 0x150B7A02 PUSH1 0xE0 SHL SWAP1 POP SWAP5 SWAP4 POP POP POP POP JUMP JUMPDEST PUSH2 0x263 PUSH2 0x5B5 JUMP JUMPDEST PUSH20 0xFFFFFFFFFFFFFFFFFFFFFFFFFFFFFFFFFFFFFFFF AND PUSH4 0x8BB0AB97 ADDRESS PUSH1 0x0 SLOAD DUP5 PUSH1 0x40 MLOAD DUP5 PUSH4 0xFFFFFFFF AND PUSH1 0xE0 SHL DUP2 MSTORE PUSH1 0x4 ADD PUSH2 0x2A1 SWAP4 SWAP3 SWAP2 SWAP1 PUSH2 0x1048 JUMP JUMPDEST PUSH1 0x0 PUSH1 0x40 MLOAD DUP1 DUP4 SUB DUP2 PUSH1 0x0 DUP8 DUP1 EXTCODESIZE ISZERO DUP1 ISZERO PUSH2 0x2BB JUMPI PUSH1 0x0 DUP1 REVERT JUMPDEST POP GAS CALL ISZERO DUP1 ISZERO PUSH2 0x2CF JUMPI RETURNDATASIZE PUSH1 0x0 DUP1 RETURNDATACOPY RETURNDATASIZE PUSH1 0x0 REVERT JUMPDEST POP POP POP POP POP JUMP JUMPDEST PUSH1 0x0 PUSH2 0x2E1 DUP4 PUSH2 0x4E7 JUMP JUMPDEST PUSH1 0x40 MLOAD PUSH1 0x20 ADD PUSH2 0x2F1 SWAP2 SWAP1 PUSH2 0xFD5 JUMP JUMPDEST PUSH1 0x40 MLOAD PUSH1 0x20 DUP2 DUP4 SUB SUB DUP2 MSTORE SWAP1 PUSH1 0x40 MSTORE SWAP1 POP PUSH2 0x30A PUSH2 0x5B5 JUMP JUMPDEST PUSH20 0xFFFFFFFFFFFFFFFFFFFFFFFFFFFFFFFFFFFFFFFF AND PUSH4 0x377AF0DA ADDRESS PUSH1 0x0 SLOAD PUSH2 0x36C PUSH1 0x40 MLOAD DUP1 PUSH1 0x40 ADD PUSH1 0x40 MSTORE DUP1 PUSH1 0x10 DUP2 MSTORE PUSH1 0x20 ADD PUSH32 0x7461626C655F6174747269627574657300000000000000000000000000000000 DUP2 MSTORE POP PUSH1 0x0 SLOAD DUP9 DUP9 PUSH2 0x7F0 JUMP JUMPDEST PUSH1 0x40 MLOAD DUP5 PUSH4 0xFFFFFFFF AND PUSH1 0xE0 SHL DUP2 MSTORE PUSH1 0x4 ADD PUSH2 0x38A SWAP4 SWAP3 SWAP2 SWAP1 PUSH2 0x100A JUMP JUMPDEST PUSH1 0x0 PUSH1 0x40 MLOAD DUP1 DUP4 SUB DUP2 PUSH1 0x0 DUP8 DUP1 EXTCODESIZE ISZERO DUP1 ISZERO PUSH2 0x3A4 JUMPI PUSH1 0x0 DUP1 REVERT JUMPDEST POP GAS CALL ISZERO DUP1 ISZERO PUSH2 0x3B8 JUMPI RETURNDATASIZE PUSH1 0x0 DUP1 RETURNDATACOPY RETURNDATASIZE PUSH1 0x0 REVERT JUMPDEST POP POP POP POP POP POP POP JUMP JUMPDEST PUSH1 0x60 PUSH2 0x404 PUSH1 0x40 MLOAD DUP1 PUSH1 0x40 ADD PUSH1 0x40 MSTORE DUP1 PUSH1 0x10 DUP2 MSTORE PUSH1 0x20 ADD PUSH32 0x7461626C655F6174747269627574657300000000000000000000000000000000 DUP2 MSTORE POP PUSH1 0x0 SLOAD PUSH2 0x871 JUMP JUMPDEST SWAP1 POP SWAP1 JUMP JUMPDEST PUSH2 0x411 PUSH2 0x5B5 JUMP JUMPDEST PUSH20 0xFFFFFFFFFFFFFFFFFFFFFFFFFFFFFFFFFFFFFFFF AND PUSH4 0x377AF0DA ADDRESS PUSH1 0x0 SLOAD PUSH2 0x48B PUSH1 0x40 MLOAD DUP1 PUSH1 0x40 ADD PUSH1 0x40 MSTORE DUP1 PUSH1 0x10 DUP2 MSTORE PUSH1 0x20 ADD PUSH32 0x7461626C655F6174747269627574657300000000000000000000000000000000 DUP2 MSTORE POP PUSH1 0x0 SLOAD PUSH1 0x40 MLOAD DUP1 PUSH1 0x80 ADD PUSH1 0x40 MSTORE DUP1 PUSH1 0x4C DUP2 MSTORE PUSH1 0x20 ADD PUSH2 0x14A2 PUSH1 0x4C SWAP2 CODECOPY DUP9 PUSH2 0x8AF JUMP JUMPDEST PUSH1 0x40 MLOAD DUP5 PUSH4 0xFFFFFFFF AND PUSH1 0xE0 SHL DUP2 MSTORE PUSH1 0x4 ADD PUSH2 0x4A9 SWAP4 SWAP3 SWAP2 SWAP1 PUSH2 0x100A JUMP JUMPDEST PUSH1 0x0 PUSH1 0x40 MLOAD DUP1 DUP4 SUB DUP2 PUSH1 0x0 DUP8 DUP1 EXTCODESIZE ISZERO DUP1 ISZERO PUSH2 0x4C3 JUMPI PUSH1 0x0 DUP1 REVERT JUMPDEST POP GAS CALL ISZERO DUP1 ISZERO PUSH2 0x4D7 JUMPI RETURNDATASIZE PUSH1 0x0 DUP1 RETURNDATACOPY RETURNDATASIZE PUSH1 0x0 REVERT JUMPDEST POP POP POP POP POP JUMP JUMPDEST PUSH1 0x0 DUP1 SLOAD SWAP1 POP SWAP1 JUMP JUMPDEST PUSH1 0x60 PUSH1 0x0 PUSH1 0x1 PUSH2 0x4F6 DUP5 PUSH2 0x8EE JUMP JUMPDEST ADD SWAP1 POP PUSH1 0x0 DUP2 PUSH8 0xFFFFFFFFFFFFFFFF DUP2 GT ISZERO PUSH2 0x515 JUMPI PUSH2 0x514 PUSH2 0xB31 JUMP JUMPDEST JUMPDEST PUSH1 0x40 MLOAD SWAP1 DUP1 DUP3 MSTORE DUP1 PUSH1 0x1F ADD PUSH1 0x1F NOT AND PUSH1 0x20 ADD DUP3 ADD PUSH1 0x40 MSTORE DUP1 ISZERO PUSH2 0x547 JUMPI DUP2 PUSH1 0x20 ADD PUSH1 0x1 DUP3 MUL DUP1 CALLDATASIZE DUP4 CALLDATACOPY DUP1 DUP3 ADD SWAP2 POP POP SWAP1 POP JUMPDEST POP SWAP1 POP PUSH1 0x0 DUP3 PUSH1 0x20 ADD DUP3 ADD SWAP1 POP JUMPDEST PUSH1 0x1 ISZERO PUSH2 0x5AA JUMPI DUP1 DUP1 PUSH1 0x1 SWAP1 SUB SWAP2 POP POP PUSH32 0x3031323334353637383961626364656600000000000000000000000000000000 PUSH1 0xA DUP7 MOD BYTE DUP2 MSTORE8 PUSH1 0xA DUP6 DUP2 PUSH2 0x59E JUMPI PUSH2 0x59D PUSH2 0x107F JUMP JUMPDEST JUMPDEST DIV SWAP5 POP PUSH1 0x0 DUP6 SUB PUSH2 0x555 JUMPI JUMPDEST DUP2 SWAP4 POP POP POP POP SWAP2 SWAP1 POP JUMP JUMPDEST PUSH1 0x0 PUSH1 0x1 CHAINID SUB PUSH2 0x5DB JUMPI PUSH20 0x12969F7E3439A9B04025B5A049EB9BAD82A8C12 SWAP1 POP PUSH2 0x7B1 JUMP JUMPDEST PUSH1 0xA CHAINID SUB PUSH2 0x5FF JUMPI PUSH20 0xFAD44BF5B843DE943A09D4F3E84949A11D3AA3E6 SWAP1 POP PUSH2 0x7B1 JUMP JUMPDEST PUSH2 0xA4B1 CHAINID SUB PUSH2 0x624 JUMPI PUSH20 0x9ABD75E8640871A5A20D3B4EE6330A04C962AFFD SWAP1 POP PUSH2 0x7B1 JUMP JUMPDEST PUSH2 0xA4BA CHAINID SUB PUSH2 0x649 JUMPI PUSH20 0x1A22854C5B1642760A827F20137A67930AE108D2 SWAP1 POP PUSH2 0x7B1 JUMP JUMPDEST PUSH1 0x89 CHAINID SUB PUSH2 0x66D JUMPI PUSH20 0x5C4E6A9E5C1E1BF445A062006FAF19EA6C49AFEA SWAP1 POP PUSH2 0x7B1 JUMP JUMPDEST PUSH2 0x13A CHAINID SUB PUSH2 0x692 JUMPI PUSH20 0x59EF8BF2D6C102B4C42AEF9189E1A9F0ABFD652D SWAP1 POP PUSH2 0x7B1 JUMP JUMPDEST PUSH3 0xAA36A7 CHAINID SUB PUSH2 0x6B8 JUMPI PUSH20 0xC50C62498448ACC8DBDE43DA77F8D5D2E2C7597D SWAP1 POP PUSH2 0x7B1 JUMP JUMPDEST PUSH2 0x1A4 CHAINID SUB PUSH2 0x6DD JUMPI PUSH20 0xC72E8A7BE04F2469F8C2DB3F1BDF69A7D516ABBA SWAP1 POP PUSH2 0x7B1 JUMP JUMPDEST PUSH3 0x66EEE CHAINID SUB PUSH2 0x703 JUMPI PUSH20 0x223A74B8323914AFDC3FF1E5005564DC17231D6E SWAP1 POP PUSH2 0x7B1 JUMP JUMPDEST PUSH3 0x13881 CHAINID SUB PUSH2 0x729 JUMPI PUSH20 0x4B48841D4B32C4650E4ABC117A03FE8B51F38F68 SWAP1 POP PUSH2 0x7B1 JUMP JUMPDEST PUSH3 0x4CB2F CHAINID SUB PUSH2 0x74F JUMPI PUSH20 0x30BCF3D50CAD04C2E57391B12740982A9308621 SWAP1 POP PUSH2 0x7B1 JUMP JUMPDEST PUSH2 0x7A69 CHAINID SUB PUSH2 0x774 JUMPI PUSH20 0xE7F1725E7734CE288F8367E1BB143E90BB3F0512 SWAP1 POP PUSH2 0x7B1 JUMP JUMPDEST CHAINID PUSH1 0x40 MLOAD PUSH32 0x264E42CF00000000000000000000000000000000000000000000000000000000 DUP2 MSTORE PUSH1 0x4 ADD PUSH2 0x7A8 SWAP2 SWAP1 PUSH2 0xF58 JUMP JUMPDEST PUSH1 0x40 MLOAD DUP1 SWAP2 SUB SWAP1 REVERT JUMPDEST SWAP1 JUMP JUMPDEST PUSH1 0x60 PUSH1 0x0 PUSH2 0x7C2 DUP6 DUP6 PUSH2 0x871 JUMP JUMPDEST SWAP1 POP DUP1 DUP4 PUSH1 0x40 MLOAD PUSH1 0x20 ADD PUSH2 0x7D7 SWAP3 SWAP2 SWAP1 PUSH2 0x1146 JUMP JUMPDEST PUSH1 0x40 MLOAD PUSH1 0x20 DUP2 DUP4 SUB SUB DUP2 MSTORE SWAP1 PUSH1 0x40 MSTORE SWAP2 POP POP SWAP4 SWAP3 POP POP POP JUMP JUMPDEST PUSH1 0x60 PUSH1 0x0 PUSH2 0x7FE DUP7 DUP7 PUSH2 0x871 JUMP JUMPDEST SWAP1 POP PUSH1 0x0 PUSH1 0x40 MLOAD DUP1 PUSH1 0x20 ADD PUSH1 0x40 MSTORE DUP1 PUSH1 0x0 DUP2 MSTORE POP SWAP1 POP PUSH1 0x0 DUP5 MLOAD GT ISZERO PUSH2 0x841 JUMPI DUP4 PUSH1 0x40 MLOAD PUSH1 0x20 ADD PUSH2 0x82F SWAP2 SWAP1 PUSH2 0x1180 JUMP JUMPDEST PUSH1 0x40 MLOAD PUSH1 0x20 DUP2 DUP4 SUB SUB DUP2 MSTORE SWAP1 PUSH1 0x40 MSTORE SWAP1 POP JUMPDEST DUP2 DUP6 DUP3 PUSH1 0x40 MLOAD PUSH1 0x20 ADD PUSH2 0x856 SWAP4 SWAP3 SWAP2 SWAP1 PUSH2 0x123A JUMP JUMPDEST PUSH1 0x40 MLOAD PUSH1 0x20 DUP2 DUP4 SUB SUB DUP2 MSTORE SWAP1 PUSH1 0x40 MSTORE SWAP3 POP POP POP SWAP5 SWAP4 POP POP POP POP JUMP JUMPDEST PUSH1 0x60 DUP3 PUSH2 0x87D CHAINID PUSH2 0x4E7 JUMP JUMPDEST PUSH2 0x886 DUP5 PUSH2 0x4E7 JUMP JUMPDEST PUSH1 0x40 MLOAD PUSH1 0x20 ADD PUSH2 0x898 SWAP4 SWAP3 SWAP2 SWAP1 PUSH2 0x12CD JUMP JUMPDEST PUSH1 0x40 MLOAD PUSH1 0x20 DUP2 DUP4 SUB SUB DUP2 MSTORE SWAP1 PUSH1 0x40 MSTORE SWAP1 POP SWAP3 SWAP2 POP POP JUMP JUMPDEST PUSH1 0x60 PUSH1 0x0 PUSH2 0x8BD DUP7 DUP7 PUSH2 0x871 JUMP JUMPDEST SWAP1 POP DUP1 DUP5 DUP5 PUSH1 0x40 MLOAD PUSH1 0x20 ADD PUSH2 0x8D4 SWAP4 SWAP3 SWAP2 SWAP1 PUSH2 0x1444 JUMP JUMPDEST PUSH1 0x40 MLOAD PUSH1 0x20 DUP2 DUP4 SUB SUB DUP2 MSTORE SWAP1 PUSH1 0x40 MSTORE SWAP2 POP POP SWAP5 SWAP4 POP POP POP POP JUMP JUMPDEST PUSH1 0x0 DUP1 PUSH1 0x0 SWAP1 POP PUSH27 0x184F03E93FF9F4DAA797ED6E38ED64BF6A1F010000000000000000 DUP4 LT PUSH2 0x94C JUMPI PUSH27 0x184F03E93FF9F4DAA797ED6E38ED64BF6A1F010000000000000000 DUP4 DUP2 PUSH2 0x942 JUMPI PUSH2 0x941 PUSH2 0x107F JUMP JUMPDEST JUMPDEST DIV SWAP3 POP PUSH1 0x40 DUP2 ADD SWAP1 POP JUMPDEST PUSH14 0x4EE2D6D415B85ACEF8100000000 DUP4 LT PUSH2 0x989 JUMPI PUSH14 0x4EE2D6D415B85ACEF8100000000 DUP4 DUP2 PUSH2 0x97F JUMPI PUSH2 0x97E PUSH2 0x107F JUMP JUMPDEST JUMPDEST DIV SWAP3 POP PUSH1 0x20 DUP2 ADD SWAP1 POP JUMPDEST PUSH7 0x2386F26FC10000 DUP4 LT PUSH2 0x9B8 JUMPI PUSH7 0x2386F26FC10000 DUP4 DUP2 PUSH2 0x9AE JUMPI PUSH2 0x9AD PUSH2 0x107F JUMP JUMPDEST JUMPDEST DIV SWAP3 POP PUSH1 0x10 DUP2 ADD SWAP1 POP JUMPDEST PUSH4 0x5F5E100 DUP4 LT PUSH2 0x9E1 JUMPI PUSH4 0x5F5E100 DUP4 DUP2 PUSH2 0x9D7 JUMPI PUSH2 0x9D6 PUSH2 0x107F JUMP JUMPDEST JUMPDEST DIV SWAP3 POP PUSH1 0x8 DUP2 ADD SWAP1 POP JUMPDEST PUSH2 0x2710 DUP4 LT PUSH2 0xA06 JUMPI PUSH2 0x2710 DUP4 DUP2 PUSH2 0x9FC JUMPI PUSH2 0x9FB PUSH2 0x107F JUMP JUMPDEST JUMPDEST DIV SWAP3 POP PUSH1 0x4 DUP2 ADD SWAP1 POP JUMPDEST PUSH1 0x64 DUP4 LT PUSH2 0xA29 JUMPI PUSH1 0x64 DUP4 DUP2 PUSH2 0xA1F JUMPI PUSH2 0xA1E PUSH2 0x107F JUMP JUMPDEST JUMPDEST DIV SWAP3 POP PUSH1 0x2 DUP2 ADD SWAP1 POP JUMPDEST PUSH1 0xA DUP4 LT PUSH2 0xA38 JUMPI PUSH1 0x1 DUP2 ADD SWAP1 POP JUMPDEST DUP1 SWAP2 POP POP SWAP2 SWAP1 POP JUMP JUMPDEST PUSH1 0x0 PUSH1 0x40 MLOAD SWAP1 POP SWAP1 JUMP JUMPDEST PUSH1 0x0 DUP1 REVERT JUMPDEST PUSH1 0x0 DUP1 REVERT JUMPDEST PUSH1 0x0 DUP2 SWAP1 POP SWAP2 SWAP1 POP JUMP JUMPDEST PUSH2 0xA68 DUP2 PUSH2 0xA55 JUMP JUMPDEST DUP2 EQ PUSH2 0xA73 JUMPI PUSH1 0x0 DUP1 REVERT JUMPDEST POP JUMP JUMPDEST PUSH1 0x0 DUP2 CALLDATALOAD SWAP1 POP PUSH2 0xA85 DUP2 PUSH2 0xA5F JUMP JUMPDEST SWAP3 SWAP2 POP POP JUMP JUMPDEST PUSH1 0x0 PUSH1 0x20 DUP3 DUP5 SUB SLT ISZERO PUSH2 0xAA1 JUMPI PUSH2 0xAA0 PUSH2 0xA4B JUMP JUMPDEST JUMPDEST PUSH1 0x0 PUSH2 0xAAF DUP5 DUP3 DUP6 ADD PUSH2 0xA76 JUMP JUMPDEST SWAP2 POP POP SWAP3 SWAP2 POP POP JUMP JUMPDEST PUSH1 0x0 PUSH20 0xFFFFFFFFFFFFFFFFFFFFFFFFFFFFFFFFFFFFFFFF DUP3 AND SWAP1 POP SWAP2 SWAP1 POP JUMP JUMPDEST PUSH1 0x0 PUSH2 0xAE3 DUP3 PUSH2 0xAB8 JUMP JUMPDEST SWAP1 POP SWAP2 SWAP1 POP JUMP JUMPDEST PUSH2 0xAF3 DUP2 PUSH2 0xAD8 JUMP JUMPDEST DUP2 EQ PUSH2 0xAFE JUMPI PUSH1 0x0 DUP1 REVERT JUMPDEST POP JUMP JUMPDEST PUSH1 0x0 DUP2 CALLDATALOAD SWAP1 POP PUSH2 0xB10 DUP2 PUSH2 0xAEA JUMP JUMPDEST SWAP3 SWAP2 POP POP JUMP JUMPDEST PUSH1 0x0 DUP1 REVERT JUMPDEST PUSH1 0x0 DUP1 REVERT JUMPDEST PUSH1 0x0 PUSH1 0x1F NOT PUSH1 0x1F DUP4 ADD AND SWAP1 POP SWAP2 SWAP1 POP JUMP JUMPDEST PUSH32 0x4E487B7100000000000000000000000000000000000000000000000000000000 PUSH1 0x0 MSTORE PUSH1 0x41 PUSH1 0x4 MSTORE PUSH1 0x24 PUSH1 0x0 REVERT JUMPDEST PUSH2 0xB69 DUP3 PUSH2 0xB20 JUMP JUMPDEST DUP2 ADD DUP2 DUP2 LT PUSH8 0xFFFFFFFFFFFFFFFF DUP3 GT OR ISZERO PUSH2 0xB88 JUMPI PUSH2 0xB87 PUSH2 0xB31 JUMP JUMPDEST JUMPDEST DUP1 PUSH1 0x40 MSTORE POP POP POP JUMP JUMPDEST PUSH1 0x0 PUSH2 0xB9B PUSH2 0xA41 JUMP JUMPDEST SWAP1 POP PUSH2 0xBA7 DUP3 DUP3 PUSH2 0xB60 JUMP JUMPDEST SWAP2 SWAP1 POP JUMP JUMPDEST PUSH1 0x0 PUSH8 0xFFFFFFFFFFFFFFFF DUP3 GT ISZERO PUSH2 0xBC7 JUMPI PUSH2 0xBC6 PUSH2 0xB31 JUMP JUMPDEST JUMPDEST PUSH2 0xBD0 DUP3 PUSH2 0xB20 JUMP JUMPDEST SWAP1 POP PUSH1 0x20 DUP2 ADD SWAP1 POP SWAP2 SWAP1 POP JUMP JUMPDEST DUP3 DUP2 DUP4 CALLDATACOPY PUSH1 0x0 DUP4 DUP4 ADD MSTORE POP POP POP JUMP JUMPDEST PUSH1 0x0 PUSH2 0xBFF PUSH2 0xBFA DUP5 PUSH2 0xBAC JUMP JUMPDEST PUSH2 0xB91 JUMP JUMPDEST SWAP1 POP DUP3 DUP2 MSTORE PUSH1 0x20 DUP2 ADD DUP5 DUP5 DUP5 ADD GT ISZERO PUSH2 0xC1B JUMPI PUSH2 0xC1A PUSH2 0xB1B JUMP JUMPDEST JUMPDEST PUSH2 0xC26 DUP5 DUP3 DUP6 PUSH2 0xBDD JUMP JUMPDEST POP SWAP4 SWAP3 POP POP POP JUMP JUMPDEST PUSH1 0x0 DUP3 PUSH1 0x1F DUP4 ADD SLT PUSH2 0xC43 JUMPI PUSH2 0xC42 PUSH2 0xB16 JUMP JUMPDEST JUMPDEST DUP2 CALLDATALOAD PUSH2 0xC53 DUP5 DUP3 PUSH1 0x20 DUP7 ADD PUSH2 0xBEC JUMP JUMPDEST SWAP2 POP POP SWAP3 SWAP2 POP POP JUMP JUMPDEST PUSH1 0x0 DUP1 PUSH1 0x0 DUP1 PUSH1 0x80 DUP6 DUP8 SUB SLT ISZERO PUSH2 0xC76 JUMPI PUSH2 0xC75 PUSH2 0xA4B JUMP JUMPDEST JUMPDEST PUSH1 0x0 PUSH2 0xC84 DUP8 DUP3 DUP9 ADD PUSH2 0xB01 JUMP JUMPDEST SWAP5 POP POP PUSH1 0x20 PUSH2 0xC95 DUP8 DUP3 DUP9 ADD PUSH2 0xB01 JUMP JUMPDEST SWAP4 POP POP PUSH1 0x40 PUSH2 0xCA6 DUP8 DUP3 DUP9 ADD PUSH2 0xA76 JUMP JUMPDEST SWAP3 POP POP PUSH1 0x60 DUP6 ADD CALLDATALOAD PUSH8 0xFFFFFFFFFFFFFFFF DUP2 GT ISZERO PUSH2 0xCC7 JUMPI PUSH2 0xCC6 PUSH2 0xA50 JUMP JUMPDEST JUMPDEST PUSH2 0xCD3 DUP8 DUP3 DUP9 ADD PUSH2 0xC2E JUMP JUMPDEST SWAP2 POP POP SWAP3 SWAP6 SWAP2 SWAP5 POP SWAP3 POP JUMP JUMPDEST PUSH1 0x0 PUSH32 0xFFFFFFFF00000000000000000000000000000000000000000000000000000000 DUP3 AND SWAP1 POP SWAP2 SWAP1 POP JUMP JUMPDEST PUSH2 0xD14 DUP2 PUSH2 0xCDF JUMP JUMPDEST DUP3 MSTORE POP POP JUMP JUMPDEST PUSH1 0x0 PUSH1 0x20 DUP3 ADD SWAP1 POP PUSH2 0xD2F PUSH1 0x0 DUP4 ADD DUP5 PUSH2 0xD0B JUMP JUMPDEST SWAP3 SWAP2 POP POP JUMP JUMPDEST PUSH1 0x0 PUSH1 0x20 DUP3 DUP5 SUB SLT ISZERO PUSH2 0xD4B JUMPI PUSH2 0xD4A PUSH2 0xA4B JUMP JUMPDEST JUMPDEST PUSH1 0x0 PUSH2 0xD59 DUP5 DUP3 DUP6 ADD PUSH2 0xB01 JUMP JUMPDEST SWAP2 POP POP SWAP3 SWAP2 POP POP JUMP JUMPDEST PUSH1 0x0 PUSH8 0xFFFFFFFFFFFFFFFF DUP3 GT ISZERO PUSH2 0xD7D JUMPI PUSH2 0xD7C PUSH2 0xB31 JUMP JUMPDEST JUMPDEST PUSH2 0xD86 DUP3 PUSH2 0xB20 JUMP JUMPDEST SWAP1 POP PUSH1 0x20 DUP2 ADD SWAP1 POP SWAP2 SWAP1 POP JUMP JUMPDEST PUSH1 0x0 PUSH2 0xDA6 PUSH2 0xDA1 DUP5 PUSH2 0xD62 JUMP JUMPDEST PUSH2 0xB91 JUMP JUMPDEST SWAP1 POP DUP3 DUP2 MSTORE PUSH1 0x20 DUP2 ADD DUP5 DUP5 DUP5 ADD GT ISZERO PUSH2 0xDC2 JUMPI PUSH2 0xDC1 PUSH2 0xB1B JUMP JUMPDEST JUMPDEST PUSH2 0xDCD DUP5 DUP3 DUP6 PUSH2 0xBDD JUMP JUMPDEST POP SWAP4 SWAP3 POP POP POP JUMP JUMPDEST PUSH1 0x0 DUP3 PUSH1 0x1F DUP4 ADD SLT PUSH2 0xDEA JUMPI PUSH2 0xDE9 PUSH2 0xB16 JUMP JUMPDEST JUMPDEST DUP2 CALLDATALOAD PUSH2 0xDFA DUP5 DUP3 PUSH1 0x20 DUP7 ADD PUSH2 0xD93 JUMP JUMPDEST SWAP2 POP POP SWAP3 SWAP2 POP POP JUMP JUMPDEST PUSH1 0x0 DUP1 PUSH1 0x40 DUP4 DUP6 SUB SLT ISZERO PUSH2 0xE1A JUMPI PUSH2 0xE19 PUSH2 0xA4B JUMP JUMPDEST JUMPDEST PUSH1 0x0 PUSH2 0xE28 DUP6 DUP3 DUP7 ADD PUSH2 0xA76 JUMP JUMPDEST SWAP3 POP POP PUSH1 0x20 DUP4 ADD CALLDATALOAD PUSH8 0xFFFFFFFFFFFFFFFF DUP2 GT ISZERO PUSH2 0xE49 JUMPI PUSH2 0xE48 PUSH2 0xA50 JUMP JUMPDEST JUMPDEST PUSH2 0xE55 DUP6 DUP3 DUP7 ADD PUSH2 0xDD5 JUMP JUMPDEST SWAP2 POP POP SWAP3 POP SWAP3 SWAP1 POP JUMP JUMPDEST PUSH1 0x0 DUP2 MLOAD SWAP1 POP SWAP2 SWAP1 POP JUMP JUMPDEST PUSH1 0x0 DUP3 DUP3 MSTORE PUSH1 0x20 DUP3 ADD SWAP1 POP SWAP3 SWAP2 POP POP JUMP JUMPDEST PUSH1 0x0 JUMPDEST DUP4 DUP2 LT ISZERO PUSH2 0xE99 JUMPI DUP1 DUP3 ADD MLOAD DUP2 DUP5 ADD MSTORE PUSH1 0x20 DUP2 ADD SWAP1 POP PUSH2 0xE7E JUMP JUMPDEST PUSH1 0x0 DUP5 DUP5 ADD MSTORE POP POP POP POP JUMP JUMPDEST PUSH1 0x0 PUSH2 0xEB0 DUP3 PUSH2 0xE5F JUMP JUMPDEST PUSH2 0xEBA DUP2 DUP6 PUSH2 0xE6A JUMP JUMPDEST SWAP4 POP PUSH2 0xECA DUP2 DUP6 PUSH1 0x20 DUP7 ADD PUSH2 0xE7B JUMP JUMPDEST PUSH2 0xED3 DUP2 PUSH2 0xB20 JUMP JUMPDEST DUP5 ADD SWAP2 POP POP SWAP3 SWAP2 POP POP JUMP JUMPDEST PUSH1 0x0 PUSH1 0x20 DUP3 ADD SWAP1 POP DUP2 DUP2 SUB PUSH1 0x0 DUP4 ADD MSTORE PUSH2 0xEF8 DUP2 DUP5 PUSH2 0xEA5 JUMP JUMPDEST SWAP1 POP SWAP3 SWAP2 POP POP JUMP JUMPDEST PUSH1 0x0 PUSH1 0x20 DUP3 DUP5 SUB SLT ISZERO PUSH2 0xF16 JUMPI PUSH2 0xF15 PUSH2 0xA4B JUMP JUMPDEST JUMPDEST PUSH1 0x0 DUP3 ADD CALLDATALOAD PUSH8 0xFFFFFFFFFFFFFFFF DUP2 GT ISZERO PUSH2 0xF34 JUMPI PUSH2 0xF33 PUSH2 0xA50 JUMP JUMPDEST JUMPDEST PUSH2 0xF40 DUP5 DUP3 DUP6 ADD PUSH2 0xDD5 JUMP JUMPDEST SWAP2 POP POP SWAP3 SWAP2 POP POP JUMP JUMPDEST PUSH2 0xF52 DUP2 PUSH2 0xA55 JUMP JUMPDEST DUP3 MSTORE POP POP JUMP JUMPDEST PUSH1 0x0 PUSH1 0x20 DUP3 ADD SWAP1 POP PUSH2 0xF6D PUSH1 0x0 DUP4 ADD DUP5 PUSH2 0xF49 JUMP JUMPDEST SWAP3 SWAP2 POP POP JUMP JUMPDEST PUSH32 0x69643D0000000000000000000000000000000000000000000000000000000000 DUP2 MSTORE POP JUMP JUMPDEST PUSH1 0x0 DUP2 SWAP1 POP SWAP3 SWAP2 POP POP JUMP JUMPDEST PUSH1 0x0 PUSH2 0xFAF DUP3 PUSH2 0xE5F JUMP JUMPDEST PUSH2 0xFB9 DUP2 DUP6 PUSH2 0xF99 JUMP JUMPDEST SWAP4 POP PUSH2 0xFC9 DUP2 DUP6 PUSH1 0x20 DUP7 ADD PUSH2 0xE7B JUMP JUMPDEST DUP1 DUP5 ADD SWAP2 POP POP SWAP3 SWAP2 POP POP JUMP JUMPDEST PUSH1 0x0 PUSH2 0xFE0 DUP3 PUSH2 0xF73 JUMP JUMPDEST PUSH1 0x3 DUP3 ADD SWAP2 POP PUSH2 0xFF0 DUP3 DUP5 PUSH2 0xFA4 JUMP JUMPDEST SWAP2 POP DUP2 SWAP1 POP SWAP3 SWAP2 POP POP JUMP JUMPDEST PUSH2 0x1004 DUP2 PUSH2 0xAD8 JUMP JUMPDEST DUP3 MSTORE POP POP JUMP JUMPDEST PUSH1 0x0 PUSH1 0x60 DUP3 ADD SWAP1 POP PUSH2 0x101F PUSH1 0x0 DUP4 ADD DUP7 PUSH2 0xFFB JUMP JUMPDEST PUSH2 0x102C PUSH1 0x20 DUP4 ADD DUP6 PUSH2 0xF49 JUMP JUMPDEST DUP2 DUP2 SUB PUSH1 0x40 DUP4 ADD MSTORE PUSH2 0x103E DUP2 DUP5 PUSH2 0xEA5 JUMP JUMPDEST SWAP1 POP SWAP5 SWAP4 POP POP POP POP JUMP JUMPDEST PUSH1 0x0 PUSH1 0x60 DUP3 ADD SWAP1 POP PUSH2 0x105D PUSH1 0x0 DUP4 ADD DUP7 PUSH2 0xFFB JUMP JUMPDEST PUSH2 0x106A PUSH1 0x20 DUP4 ADD DUP6 PUSH2 0xF49 JUMP JUMPDEST PUSH2 0x1077 PUSH1 0x40 DUP4 ADD DUP5 PUSH2 0xFFB JUMP JUMPDEST SWAP5 SWAP4 POP POP POP POP JUMP JUMPDEST PUSH32 0x4E487B7100000000000000000000000000000000000000000000000000000000 PUSH1 0x0 MSTORE PUSH1 0x12 PUSH1 0x4 MSTORE PUSH1 0x24 PUSH1 0x0 REVERT JUMPDEST PUSH32 0x44454C4554452046524F4D200000000000000000000000000000000000000000 PUSH1 0x0 DUP3 ADD MSTORE POP JUMP JUMPDEST PUSH1 0x0 PUSH2 0x10E4 PUSH1 0xC DUP4 PUSH2 0xF99 JUMP JUMPDEST SWAP2 POP PUSH2 0x10EF DUP3 PUSH2 0x10AE JUMP JUMPDEST PUSH1 0xC DUP3 ADD SWAP1 POP SWAP2 SWAP1 POP JUMP JUMPDEST PUSH32 0x2057484552452000000000000000000000000000000000000000000000000000 PUSH1 0x0 DUP3 ADD MSTORE POP JUMP JUMPDEST PUSH1 0x0 PUSH2 0x1130 PUSH1 0x7 DUP4 PUSH2 0xF99 JUMP JUMPDEST SWAP2 POP PUSH2 0x113B DUP3 PUSH2 0x10FA JUMP JUMPDEST PUSH1 0x7 DUP3 ADD SWAP1 POP SWAP2 SWAP1 POP JUMP JUMPDEST PUSH1 0x0 PUSH2 0x1151 DUP3 PUSH2 0x10D7 JUMP JUMPDEST SWAP2 POP PUSH2 0x115D DUP3 DUP6 PUSH2 0xFA4 JUMP JUMPDEST SWAP2 POP PUSH2 0x1168 DUP3 PUSH2 0x1123 JUMP JUMPDEST SWAP2 POP PUSH2 0x1174 DUP3 DUP5 PUSH2 0xFA4 JUMP JUMPDEST SWAP2 POP DUP2 SWAP1 POP SWAP4 SWAP3 POP POP POP JUMP JUMPDEST PUSH1 0x0 PUSH2 0x118B DUP3 PUSH2 0x1123 JUMP JUMPDEST SWAP2 POP PUSH2 0x1197 DUP3 DUP5 PUSH2 0xFA4 JUMP JUMPDEST SWAP2 POP DUP2 SWAP1 POP SWAP3 SWAP2 POP POP JUMP JUMPDEST PUSH32 0x5550444154452000000000000000000000000000000000000000000000000000 PUSH1 0x0 DUP3 ADD MSTORE POP JUMP JUMPDEST PUSH1 0x0 PUSH2 0x11D8 PUSH1 0x7 DUP4 PUSH2 0xF99 JUMP JUMPDEST SWAP2 POP PUSH2 0x11E3 DUP3 PUSH2 0x11A2 JUMP JUMPDEST PUSH1 0x7 DUP3 ADD SWAP1 POP SWAP2 SWAP1 POP JUMP JUMPDEST PUSH32 0x2053455420000000000000000000000000000000000000000000000000000000 PUSH1 0x0 DUP3 ADD MSTORE POP JUMP JUMPDEST PUSH1 0x0 PUSH2 0x1224 PUSH1 0x5 DUP4 PUSH2 0xF99 JUMP JUMPDEST SWAP2 POP PUSH2 0x122F DUP3 PUSH2 0x11EE JUMP JUMPDEST PUSH1 0x5 DUP3 ADD SWAP1 POP SWAP2 SWAP1 POP JUMP JUMPDEST PUSH1 0x0 PUSH2 0x1245 DUP3 PUSH2 0x11CB JUMP JUMPDEST SWAP2 POP PUSH2 0x1251 DUP3 DUP7 PUSH2 0xFA4 JUMP JUMPDEST SWAP2 POP PUSH2 0x125C DUP3 PUSH2 0x1217 JUMP JUMPDEST SWAP2 POP PUSH2 0x1268 DUP3 DUP6 PUSH2 0xFA4 JUMP JUMPDEST SWAP2 POP PUSH2 0x1274 DUP3 DUP5 PUSH2 0xFA4 JUMP JUMPDEST SWAP2 POP DUP2 SWAP1 POP SWAP5 SWAP4 POP POP POP POP JUMP JUMPDEST PUSH32 0x5F00000000000000000000000000000000000000000000000000000000000000 PUSH1 0x0 DUP3 ADD MSTORE POP JUMP JUMPDEST PUSH1 0x0 PUSH2 0x12B7 PUSH1 0x1 DUP4 PUSH2 0xF99 JUMP JUMPDEST SWAP2 POP PUSH2 0x12C2 DUP3 PUSH2 0x1281 JUMP JUMPDEST PUSH1 0x1 DUP3 ADD SWAP1 POP SWAP2 SWAP1 POP JUMP JUMPDEST PUSH1 0x0 PUSH2 0x12D9 DUP3 DUP7 PUSH2 0xFA4 JUMP JUMPDEST SWAP2 POP PUSH2 0x12E4 DUP3 PUSH2 0x12AA JUMP JUMPDEST SWAP2 POP PUSH2 0x12F0 DUP3 DUP6 PUSH2 0xFA4 JUMP JUMPDEST SWAP2 POP PUSH2 0x12FB DUP3 PUSH2 0x12AA JUMP JUMPDEST SWAP2 POP PUSH2 0x1307 DUP3 DUP5 PUSH2 0xFA4 JUMP JUMPDEST SWAP2 POP DUP2 SWAP1 POP SWAP5 SWAP4 POP POP POP POP JUMP JUMPDEST PUSH32 0x494E5345525420494E544F200000000000000000000000000000000000000000 PUSH1 0x0 DUP3 ADD MSTORE POP JUMP JUMPDEST PUSH1 0x0 PUSH2 0x134A PUSH1 0xC DUP4 PUSH2 0xF99 JUMP JUMPDEST SWAP2 POP PUSH2 0x1355 DUP3 PUSH2 0x1314 JUMP JUMPDEST PUSH1 0xC DUP3 ADD SWAP1 POP SWAP2 SWAP1 POP JUMP JUMPDEST PUSH32 0x2800000000000000000000000000000000000000000000000000000000000000 PUSH1 0x0 DUP3 ADD MSTORE POP JUMP JUMPDEST PUSH1 0x0 PUSH2 0x1396 PUSH1 0x1 DUP4 PUSH2 0xF99 JUMP JUMPDEST SWAP2 POP PUSH2 0x13A1 DUP3 PUSH2 0x1360 JUMP JUMPDEST PUSH1 0x1 DUP3 ADD SWAP1 POP SWAP2 SWAP1 POP JUMP JUMPDEST PUSH32 0x2956414C55455328000000000000000000000000000000000000000000000000 PUSH1 0x0 DUP3 ADD MSTORE POP JUMP JUMPDEST PUSH1 0x0 PUSH2 0x13E2 PUSH1 0x8 DUP4 PUSH2 0xF99 JUMP JUMPDEST SWAP2 POP PUSH2 0x13ED DUP3 PUSH2 0x13AC JUMP JUMPDEST PUSH1 0x8 DUP3 ADD SWAP1 POP SWAP2 SWAP1 POP JUMP JUMPDEST PUSH32 0x2900000000000000000000000000000000000000000000000000000000000000 PUSH1 0x0 DUP3 ADD MSTORE POP JUMP JUMPDEST PUSH1 0x0 PUSH2 0x142E PUSH1 0x1 DUP4 PUSH2 0xF99 JUMP JUMPDEST SWAP2 POP PUSH2 0x1439 DUP3 PUSH2 0x13F8 JUMP JUMPDEST PUSH1 0x1 DUP3 ADD SWAP1 POP SWAP2 SWAP1 POP JUMP JUMPDEST PUSH1 0x0 PUSH2 0x144F DUP3 PUSH2 0x133D JUMP JUMPDEST SWAP2 POP PUSH2 0x145B DUP3 DUP7 PUSH2 0xFA4 JUMP JUMPDEST SWAP2 POP PUSH2 0x1466 DUP3 PUSH2 0x1389 JUMP JUMPDEST SWAP2 POP PUSH2 0x1472 DUP3 DUP6 PUSH2 0xFA4 JUMP JUMPDEST SWAP2 POP PUSH2 0x147D DUP3 PUSH2 0x13D5 JUMP JUMPDEST SWAP2 POP PUSH2 0x1489 DUP3 DUP5 PUSH2 0xFA4 JUMP JUMPDEST SWAP2 POP PUSH2 0x1494 DUP3 PUSH2 0x1421 JUMP JUMPDEST SWAP2 POP DUP2 SWAP1 POP SWAP5 SWAP4 POP POP POP POP JUMP INVALID PUSH10 0x642C6E616D652C656D61 PUSH10 0x6C2C646174612C62696F PUSH8 0x72617068792C696D PUSH2 0x6765 0x2C PUSH13 0x6F636174696F6E2C7061737377 PUSH16 0x72642C70726F6A6563745F7265666572 PUSH6 0x6E63795F7461 PUSH3 0x6C65A2 PUSH5 0x6970667358 0x22 SLT KECCAK256 0xD4 0xA8 0xC1 0xC0 DIV 0xE3 0xA9 JUMPDEST ISZERO SDIV 0xB3 PUSH0 0xC5 0xFB PUSH24 0x582F82BFA846ABBC11F006BEEA9A7FEDB064736F6C634300 ADDMOD XOR STOP CALLER PUSH10 0x6420696E74207072696D PUSH2 0x7279 KECCAK256 PUSH12 0x65792C6E616D652074657874 0x2C PUSH6 0x6D61696C2074 PUSH6 0x78742C62696F PUSH8 0x7261706879207465 PUSH25 0x742C696D61676520746578742C6C6F636174696F6E20746578 PUSH21 0x2C70617373776F726420746578742C70726F6A6563 PUSH21 0x5F7265666572656E63795F7461626C652074657874 "},"methodIdentifiers":{"deleteFromTable(uint256)":"04bfc47f","getTableId()":"88e4f1cb","getTableName()":"5d5a33a2","insertIntoTable(string)":"66d49ff1","onERC721Received(address,address,uint256,bytes)":"150b7a02","setAccessControl(address)":"19129e5a","updateTable(uint256,string)":"312fa457"}}}}}