{
  "_format": "hh-sol-artifact-1",
  "contractName": "SolidarySwap",
  "sourceName": "contracts/SolidarySwap.sol",
  "abi": [
    {
      "inputs": [],
      "stateMutability": "nonpayable",
      "type": "constructor"
    },
    {
      "inputs": [],
      "name": "getProjectsContractId",
      "outputs": [
        {
          "internalType": "address",
          "name": "",
          "type": "address"
        }
      ],
      "stateMutability": "view",
      "type": "function"
    },
    {
      "inputs": [],
      "name": "getUsersContractId",
      "outputs": [
        {
          "internalType": "address",
          "name": "",
          "type": "address"
        }
      ],
      "stateMutability": "view",
      "type": "function"
    },
    {
      "inputs": [
        {
          "internalType": "address",
          "name": "",
          "type": "address"
        },
        {
          "internalType": "address",
          "name": "",
          "type": "address"
        },
        {
          "internalType": "uint256",
          "name": "",
          "type": "uint256"
        },
        {
          "internalType": "bytes",
          "name": "",
          "type": "bytes"
        }
      ],
      "name": "onERC721Received",
      "outputs": [
        {
          "internalType": "bytes4",
          "name": "",
          "type": "bytes4"
        }
      ],
      "stateMutability": "nonpayable",
      "type": "function"
    }
  ],
  "bytecode": "0x608060405234801561001057600080fd5b50600060405161001f906100f3565b604051809103906000f08015801561003b573d6000803e3d6000fd5b509050806000806101000a81548173ffffffffffffffffffffffffffffffffffffffff021916908373ffffffffffffffffffffffffffffffffffffffff160217905550600060405161008c90610100565b604051809103906000f0801580156100a8573d6000803e3d6000fd5b50905080600160006101000a81548173ffffffffffffffffffffffffffffffffffffffff021916908373ffffffffffffffffffffffffffffffffffffffff160217905550505061010d565b611f5a8061055c83390190565b611ee9806124b683390190565b6104408061011c6000396000f3fe608060405234801561001057600080fd5b50600436106100415760003560e01c80630cc8fb1014610046578063150b7a021461006457806384f4aa4514610094575b600080fd5b61004e6100b2565b60405161005b919061015a565b60405180910390f35b61007e60048036038101906100799190610331565b6100db565b60405161008b91906103ef565b60405180910390f35b61009c6100ef565b6040516100a9919061015a565b60405180910390f35b60008060009054906101000a900473ffffffffffffffffffffffffffffffffffffffff16905090565b600063150b7a0260e01b9050949350505050565b6000600160009054906101000a900473ffffffffffffffffffffffffffffffffffffffff16905090565b600073ffffffffffffffffffffffffffffffffffffffff82169050919050565b600061014482610119565b9050919050565b61015481610139565b82525050565b600060208201905061016f600083018461014b565b92915050565b6000604051905090565b600080fd5b600080fd5b61019281610139565b811461019d57600080fd5b50565b6000813590506101af81610189565b92915050565b6000819050919050565b6101c8816101b5565b81146101d357600080fd5b50565b6000813590506101e5816101bf565b92915050565b600080fd5b600080fd5b6000601f19601f8301169050919050565b7f4e487b7100000000000000000000000000000000000000000000000000000000600052604160045260246000fd5b61023e826101f5565b810181811067ffffffffffffffff8211171561025d5761025c610206565b5b80604052505050565b6000610270610175565b905061027c8282610235565b919050565b600067ffffffffffffffff82111561029c5761029b610206565b5b6102a5826101f5565b9050602081019050919050565b82818337600083830152505050565b60006102d46102cf84610281565b610266565b9050828152602081018484840111156102f0576102ef6101f0565b5b6102fb8482856102b2565b509392505050565b600082601f830112610318576103176101eb565b5b81356103288482602086016102c1565b91505092915050565b6000806000806080858703121561034b5761034a61017f565b5b6000610359878288016101a0565b945050602061036a878288016101a0565b935050604061037b878288016101d6565b925050606085013567ffffffffffffffff81111561039c5761039b610184565b5b6103a887828801610303565b91505092959194509250565b60007fffffffff0000000000000000000000000000000000000000000000000000000082169050919050565b6103e9816103b4565b82525050565b600060208201905061040460008301846103e0565b9291505056fea264697066735822122008e87a7a5675eea051fe75ac8e93c07d1e74b32feac7788b21e02598406aa5b264736f6c6343000818003360806040523480156200001157600080fd5b50620000226200002860201b60201c565b620009c4565b620000386200012260201b60201c565b73ffffffffffffffffffffffffffffffffffffffff1663a15ab08d30620000b560405180610120016040528060e7815260200162001e7360e791396040518060400160405280601081526020017f7461626c655f61747472696275746573000000000000000000000000000000008152506200033b60201b60201c565b6040518363ffffffff1660e01b8152600401620000d4929190620006a5565b6020604051808303816000875af1158015620000f4573d6000803e3d6000fd5b505050506040513d601f19601f820116820180604052508101906200011a919062000719565b600081905550565b6000600146036200014a5773012969f7e3439a9b04025b5a049eb9bad82a8c12905062000338565b600a4603620001705773fad44bf5b843de943a09d4f3e84949a11d3aa3e6905062000338565b61a4b146036200019757739abd75e8640871a5a20d3b4ee6330a04c962affd905062000338565b61a4ba4603620001be57731a22854c5b1642760a827f20137a67930ae108d2905062000338565b60894603620001e457735c4e6a9e5c1e1bf445a062006faf19ea6c49afea905062000338565b61013a46036200020b577359ef8bf2d6c102b4c42aef9189e1a9f0abfd652d905062000338565b62aa36a74603620002335773c50c62498448acc8dbde43da77f8d5d2e2c7597d905062000338565b6101a446036200025a5773c72e8a7be04f2469f8c2db3f1bdf69a7d516abba905062000338565b62066eee4603620002825773223a74b8323914afdc3ff1e5005564dc17231d6e905062000338565b620138814603620002aa57734b48841d4b32c4650e4abc117a03fe8b51f38f68905062000338565b6204cb2f4603620002d25773030bcf3d50cad04c2e57391b12740982a9308621905062000338565b617a694603620002f95773e7f1725e7734ce288f8367e1bb143e90bb3f0512905062000338565b466040517f264e42cf0000000000000000000000000000000000000000000000000000000081526004016200032f91906200075c565b60405180910390fd5b90565b6060816200034f466200037b60201b60201c565b846040516020016200036493929190620008fb565b604051602081830303815290604052905092915050565b60606000600162000392846200045a60201b60201c565b01905060008167ffffffffffffffff811115620003b457620003b362000966565b5b6040519080825280601f01601f191660200182016040528015620003e75781602001600182028036833780820191505090505b509050600082602001820190505b6001156200044f578080600190039150507f3031323334353637383961626364656600000000000000000000000000000000600a86061a8153600a858162000442576200044162000995565b5b04945060008503620003f5575b819350505050919050565b600080600090507a184f03e93ff9f4daa797ed6e38ed64bf6a1f0100000000000000008310620004bc577a184f03e93ff9f4daa797ed6e38ed64bf6a1f0100000000000000008381620004b257620004b162000995565b5b0492506040810190505b6d04ee2d6d415b85acef81000000008310620004fd576d04ee2d6d415b85acef81000000008381620004f357620004f262000995565b5b0492506020810190505b662386f26fc1000083106200053057662386f26fc10000838162000526576200052562000995565b5b0492506010810190505b6305f5e10083106200055d576305f5e100838162000553576200055262000995565b5b0492506008810190505b6127108310620005865761271083816200057c576200057b62000995565b5b0492506004810190505b60648310620005ad5760648381620005a357620005a262000995565b5b0492506002810190505b600a8310620005bd576001810190505b80915050919050565b600073ffffffffffffffffffffffffffffffffffffffff82169050919050565b6000620005f382620005c6565b9050919050565b6200060581620005e6565b82525050565b600081519050919050565b600082825260208201905092915050565b60005b83811015620006475780820151818401526020810190506200062a565b60008484015250505050565b6000601f19601f8301169050919050565b600062000671826200060b565b6200067d818562000616565b93506200068f81856020860162000627565b6200069a8162000653565b840191505092915050565b6000604082019050620006bc6000830185620005fa565b8181036020830152620006d0818462000664565b90509392505050565b600080fd5b6000819050919050565b620006f381620006de565b8114620006ff57600080fd5b50565b6000815190506200071381620006e8565b92915050565b600060208284031215620007325762000731620006d9565b5b6000620007428482850162000702565b91505092915050565b6200075681620006de565b82525050565b60006020820190506200077360008301846200074b565b92915050565b600081905092915050565b7f435245415445205441424c452000000000000000000000000000000000000000600082015250565b6000620007bc600d8362000779565b9150620007c98262000784565b600d82019050919050565b6000620007e1826200060b565b620007ed818562000779565b9350620007ff81856020860162000627565b80840191505092915050565b7f5f00000000000000000000000000000000000000000000000000000000000000600082015250565b60006200084360018362000779565b915062000850826200080b565b600182019050919050565b7f2800000000000000000000000000000000000000000000000000000000000000600082015250565b60006200089360018362000779565b9150620008a0826200085b565b600182019050919050565b7f2900000000000000000000000000000000000000000000000000000000000000600082015250565b6000620008e360018362000779565b9150620008f082620008ab565b600182019050919050565b60006200090882620007ad565b9150620009168286620007d4565b9150620009238262000834565b9150620009318285620007d4565b91506200093e8262000884565b91506200094c8284620007d4565b91506200095982620008d4565b9150819050949350505050565b7f4e487b7100000000000000000000000000000000000000000000000000000000600052604160045260246000fd5b7f4e487b7100000000000000000000000000000000000000000000000000000000600052601260045260246000fd5b61149f80620009d46000396000f3fe608060405234801561001057600080fd5b506004361061007d5760003560e01c80632a18ab6f1161005b5780632a18ab6f146100ea5780635d5a33a21461010657806388e4f1cb14610124578063aaf5f338146101425761007d565b8063150b7a0214610082578063177b7e00146100b257806319129e5a146100ce575b600080fd5b61009c60048036038101906100979190610c08565b61015e565b6040516100a99190610cc6565b60405180910390f35b6100cc60048036038101906100c79190610d82565b610172565b005b6100e860048036038101906100e39190610dfa565b610230565b005b61010460048036038101906100ff9190610e27565b6102ab565b005b61010e61038c565b60405161011b9190610eef565b60405180910390f35b61012c6103d4565b6040516101399190610f20565b60405180910390f35b61015c60048036038101906101579190610d82565b6103dd565b005b600063150b7a0260e01b9050949350505050565b61017a6104c0565b73ffffffffffffffffffffffffffffffffffffffff1663377af0da306000546101dc6040518060400160405280601081526020017f7461626c655f617474726962757465730000000000000000000000000000000081525060005488886106bf565b6040518463ffffffff1660e01b81526004016101fa93929190610f4a565b600060405180830381600087803b15801561021457600080fd5b505af1158015610228573d6000803e3d6000fd5b505050505050565b6102386104c0565b73ffffffffffffffffffffffffffffffffffffffff16638bb0ab9730600054846040518463ffffffff1660e01b815260040161027693929190610f88565b600060405180830381600087803b15801561029057600080fd5b505af11580156102a4573d6000803e3d6000fd5b5050505050565b6000816040516020016102be9190611021565b60405160208183030381529060405290506102d76104c0565b73ffffffffffffffffffffffffffffffffffffffff1663377af0da306000546103386040518060400160405280601081526020017f7461626c655f6174747269627574657300000000000000000000000000000000815250600054876106fe565b6040518463ffffffff1660e01b815260040161035693929190610f4a565b600060405180830381600087803b15801561037057600080fd5b505af1158015610384573d6000803e3d6000fd5b505050505050565b60606103cf6040518060400160405280601081526020017f7461626c655f617474726962757465730000000000000000000000000000000081525060005461073a565b905090565b60008054905090565b6000826040516020016103f09190611021565b60405160208183030381529060405290506104096104c0565b73ffffffffffffffffffffffffffffffffffffffff1663377af0da3060005461046b6040518060400160405280601081526020017f7461626c655f61747472696275746573000000000000000000000000000000008152506000548888610778565b6040518463ffffffff1660e01b815260040161048993929190610f4a565b600060405180830381600087803b1580156104a357600080fd5b505af11580156104b7573d6000803e3d6000fd5b50505050505050565b6000600146036104e65773012969f7e3439a9b04025b5a049eb9bad82a8c1290506106bc565b600a460361050a5773fad44bf5b843de943a09d4f3e84949a11d3aa3e690506106bc565b61a4b1460361052f57739abd75e8640871a5a20d3b4ee6330a04c962affd90506106bc565b61a4ba460361055457731a22854c5b1642760a827f20137a67930ae108d290506106bc565b6089460361057857735c4e6a9e5c1e1bf445a062006faf19ea6c49afea90506106bc565b61013a460361059d577359ef8bf2d6c102b4c42aef9189e1a9f0abfd652d90506106bc565b62aa36a746036105c35773c50c62498448acc8dbde43da77f8d5d2e2c7597d90506106bc565b6101a446036105e85773c72e8a7be04f2469f8c2db3f1bdf69a7d516abba90506106bc565b62066eee460361060e5773223a74b8323914afdc3ff1e5005564dc17231d6e90506106bc565b62013881460361063457734b48841d4b32c4650e4abc117a03fe8b51f38f6890506106bc565b6204cb2f460361065a5773030bcf3d50cad04c2e57391b12740982a930862190506106bc565b617a69460361067f5773e7f1725e7734ce288f8367e1bb143e90bb3f051290506106bc565b466040517f264e42cf0000000000000000000000000000000000000000000000000000000081526004016106b39190610f20565b60405180910390fd5b90565b606060006106cd868661073a565b90508084846040516020016106e493929190611177565b604051602081830303815290604052915050949350505050565b6060600061070c858561073a565b9050808360405160200161072192919061126c565b6040516020818303038152906040529150509392505050565b606082610746466107f9565b61074f846107f9565b604051602001610761939291906112f2565b604051602081830303815290604052905092915050565b60606000610786868661073a565b905060006040518060200160405280600081525090506000845111156107c957836040516020016107b79190611339565b60405160208183030381529060405290505b8185826040516020016107de939291906113f3565b60405160208183030381529060405292505050949350505050565b606060006001610808846108c7565b01905060008167ffffffffffffffff81111561082757610826610add565b5b6040519080825280601f01601f1916602001820160405280156108595781602001600182028036833780820191505090505b509050600082602001820190505b6001156108bc578080600190039150507f3031323334353637383961626364656600000000000000000000000000000000600a86061a8153600a85816108b0576108af61143a565b5b04945060008503610867575b819350505050919050565b600080600090507a184f03e93ff9f4daa797ed6e38ed64bf6a1f0100000000000000008310610925577a184f03e93ff9f4daa797ed6e38ed64bf6a1f010000000000000000838161091b5761091a61143a565b5b0492506040810190505b6d04ee2d6d415b85acef81000000008310610962576d04ee2d6d415b85acef810000000083816109585761095761143a565b5b0492506020810190505b662386f26fc10000831061099157662386f26fc1000083816109875761098661143a565b5b0492506010810190505b6305f5e10083106109ba576305f5e10083816109b0576109af61143a565b5b0492506008810190505b61271083106109df5761271083816109d5576109d461143a565b5b0492506004810190505b60648310610a0257606483816109f8576109f761143a565b5b0492506002810190505b600a8310610a11576001810190505b80915050919050565b6000604051905090565b600080fd5b600080fd5b600073ffffffffffffffffffffffffffffffffffffffff82169050919050565b6000610a5982610a2e565b9050919050565b610a6981610a4e565b8114610a7457600080fd5b50565b600081359050610a8681610a60565b92915050565b6000819050919050565b610a9f81610a8c565b8114610aaa57600080fd5b50565b600081359050610abc81610a96565b92915050565b600080fd5b600080fd5b6000601f19601f8301169050919050565b7f4e487b7100000000000000000000000000000000000000000000000000000000600052604160045260246000fd5b610b1582610acc565b810181811067ffffffffffffffff82111715610b3457610b33610add565b5b80604052505050565b6000610b47610a1a565b9050610b538282610b0c565b919050565b600067ffffffffffffffff821115610b7357610b72610add565b5b610b7c82610acc565b9050602081019050919050565b82818337600083830152505050565b6000610bab610ba684610b58565b610b3d565b905082815260208101848484011115610bc757610bc6610ac7565b5b610bd2848285610b89565b509392505050565b600082601f830112610bef57610bee610ac2565b5b8135610bff848260208601610b98565b91505092915050565b60008060008060808587031215610c2257610c21610a24565b5b6000610c3087828801610a77565b9450506020610c4187828801610a77565b9350506040610c5287828801610aad565b925050606085013567ffffffffffffffff811115610c7357610c72610a29565b5b610c7f87828801610bda565b91505092959194509250565b60007fffffffff0000000000000000000000000000000000000000000000000000000082169050919050565b610cc081610c8b565b82525050565b6000602082019050610cdb6000830184610cb7565b92915050565b600067ffffffffffffffff821115610cfc57610cfb610add565b5b610d0582610acc565b9050602081019050919050565b6000610d25610d2084610ce1565b610b3d565b905082815260208101848484011115610d4157610d40610ac7565b5b610d4c848285610b89565b509392505050565b600082601f830112610d6957610d68610ac2565b5b8135610d79848260208601610d12565b91505092915050565b60008060408385031215610d9957610d98610a24565b5b600083013567ffffffffffffffff811115610db757610db6610a29565b5b610dc385828601610d54565b925050602083013567ffffffffffffffff811115610de457610de3610a29565b5b610df085828601610d54565b9150509250929050565b600060208284031215610e1057610e0f610a24565b5b6000610e1e84828501610a77565b91505092915050565b600060208284031215610e3d57610e3c610a24565b5b600082013567ffffffffffffffff811115610e5b57610e5a610a29565b5b610e6784828501610d54565b91505092915050565b600081519050919050565b600082825260208201905092915050565b60005b83811015610eaa578082015181840152602081019050610e8f565b60008484015250505050565b6000610ec182610e70565b610ecb8185610e7b565b9350610edb818560208601610e8c565b610ee481610acc565b840191505092915050565b60006020820190508181036000830152610f098184610eb6565b905092915050565b610f1a81610a8c565b82525050565b6000602082019050610f356000830184610f11565b92915050565b610f4481610a4e565b82525050565b6000606082019050610f5f6000830186610f3b565b610f6c6020830185610f11565b8181036040830152610f7e8184610eb6565b9050949350505050565b6000606082019050610f9d6000830186610f3b565b610faa6020830185610f11565b610fb76040830184610f3b565b949350505050565b7f69643d0000000000000000000000000000000000000000000000000000000000815250565b600081905092915050565b6000610ffb82610e70565b6110058185610fe5565b9350611015818560208601610e8c565b80840191505092915050565b600061102c82610fbf565b60038201915061103c8284610ff0565b915081905092915050565b7f494e5345525420494e544f200000000000000000000000000000000000000000600082015250565b600061107d600c83610fe5565b915061108882611047565b600c82019050919050565b7f2800000000000000000000000000000000000000000000000000000000000000600082015250565b60006110c9600183610fe5565b91506110d482611093565b600182019050919050565b7f2956414c55455328000000000000000000000000000000000000000000000000600082015250565b6000611115600883610fe5565b9150611120826110df565b600882019050919050565b7f2900000000000000000000000000000000000000000000000000000000000000600082015250565b6000611161600183610fe5565b915061116c8261112b565b600182019050919050565b600061118282611070565b915061118e8286610ff0565b9150611199826110bc565b91506111a58285610ff0565b91506111b082611108565b91506111bc8284610ff0565b91506111c782611154565b9150819050949350505050565b7f44454c4554452046524f4d200000000000000000000000000000000000000000600082015250565b600061120a600c83610fe5565b9150611215826111d4565b600c82019050919050565b7f2057484552452000000000000000000000000000000000000000000000000000600082015250565b6000611256600783610fe5565b915061126182611220565b600782019050919050565b6000611277826111fd565b91506112838285610ff0565b915061128e82611249565b915061129a8284610ff0565b91508190509392505050565b7f5f00000000000000000000000000000000000000000000000000000000000000600082015250565b60006112dc600183610fe5565b91506112e7826112a6565b600182019050919050565b60006112fe8286610ff0565b9150611309826112cf565b91506113158285610ff0565b9150611320826112cf565b915061132c8284610ff0565b9150819050949350505050565b600061134482611249565b91506113508284610ff0565b915081905092915050565b7f5550444154452000000000000000000000000000000000000000000000000000600082015250565b6000611391600783610fe5565b915061139c8261135b565b600782019050919050565b7f2053455420000000000000000000000000000000000000000000000000000000600082015250565b60006113dd600583610fe5565b91506113e8826113a7565b600582019050919050565b60006113fe82611384565b915061140a8286610ff0565b9150611415826113d0565b91506114218285610ff0565b915061142d8284610ff0565b9150819050949350505050565b7f4e487b7100000000000000000000000000000000000000000000000000000000600052601260045260246000fdfea2646970667358221220bee3ba67981b5e972d78d218115c8b9244c4d9f83d8dbb3213c4a2279817366c64736f6c6343000818003369642074657874207072696d617279206b65792c7469746c6520746578742c6465736372697074696f6e20746578742c6461746120746578742c696d61676520746578742c766964656f20746578742c6c6f636174696f6e20746578742c757365725f636f6e74726163745f696420746578742c6261636b6572735f7461626c655f6e616d6520746578742c636f6d6d656e74735f7461626c655f6e616d6520746578742c63617465676f727920746578742c7375625f63617465676f727920746578742c676f616c20746578742c70726f6a6563745f636f6e74726163745f6964207465787460806040523480156200001157600080fd5b50620000226200002860201b60201c565b620009c3565b620000386200012160201b60201c565b73ffffffffffffffffffffffffffffffffffffffff1663a15ab08d30620000b46040518060a001604052806077815260200162001e72607791396040518060400160405280601081526020017f7461626c655f61747472696275746573000000000000000000000000000000008152506200033a60201b60201c565b6040518363ffffffff1660e01b8152600401620000d3929190620006a4565b6020604051808303816000875af1158015620000f3573d6000803e3d6000fd5b505050506040513d601f19601f8201168201806040525081019062000119919062000718565b600081905550565b600060014603620001495773012969f7e3439a9b04025b5a049eb9bad82a8c12905062000337565b600a46036200016f5773fad44bf5b843de943a09d4f3e84949a11d3aa3e6905062000337565b61a4b146036200019657739abd75e8640871a5a20d3b4ee6330a04c962affd905062000337565b61a4ba4603620001bd57731a22854c5b1642760a827f20137a67930ae108d2905062000337565b60894603620001e357735c4e6a9e5c1e1bf445a062006faf19ea6c49afea905062000337565b61013a46036200020a577359ef8bf2d6c102b4c42aef9189e1a9f0abfd652d905062000337565b62aa36a74603620002325773c50c62498448acc8dbde43da77f8d5d2e2c7597d905062000337565b6101a44603620002595773c72e8a7be04f2469f8c2db3f1bdf69a7d516abba905062000337565b62066eee4603620002815773223a74b8323914afdc3ff1e5005564dc17231d6e905062000337565b620138814603620002a957734b48841d4b32c4650e4abc117a03fe8b51f38f68905062000337565b6204cb2f4603620002d15773030bcf3d50cad04c2e57391b12740982a9308621905062000337565b617a694603620002f85773e7f1725e7734ce288f8367e1bb143e90bb3f0512905062000337565b466040517f264e42cf0000000000000000000000000000000000000000000000000000000081526004016200032e91906200075b565b60405180910390fd5b90565b6060816200034e466200037a60201b60201c565b846040516020016200036393929190620008fa565b604051602081830303815290604052905092915050565b60606000600162000391846200045960201b60201c565b01905060008167ffffffffffffffff811115620003b357620003b262000965565b5b6040519080825280601f01601f191660200182016040528015620003e65781602001600182028036833780820191505090505b509050600082602001820190505b6001156200044e578080600190039150507f3031323334353637383961626364656600000000000000000000000000000000600a86061a8153600a858162000441576200044062000994565b5b04945060008503620003f4575b819350505050919050565b600080600090507a184f03e93ff9f4daa797ed6e38ed64bf6a1f0100000000000000008310620004bb577a184f03e93ff9f4daa797ed6e38ed64bf6a1f0100000000000000008381620004b157620004b062000994565b5b0492506040810190505b6d04ee2d6d415b85acef81000000008310620004fc576d04ee2d6d415b85acef81000000008381620004f257620004f162000994565b5b0492506020810190505b662386f26fc1000083106200052f57662386f26fc10000838162000525576200052462000994565b5b0492506010810190505b6305f5e10083106200055c576305f5e100838162000552576200055162000994565b5b0492506008810190505b6127108310620005855761271083816200057b576200057a62000994565b5b0492506004810190505b60648310620005ac5760648381620005a257620005a162000994565b5b0492506002810190505b600a8310620005bc576001810190505b80915050919050565b600073ffffffffffffffffffffffffffffffffffffffff82169050919050565b6000620005f282620005c5565b9050919050565b6200060481620005e5565b82525050565b600081519050919050565b600082825260208201905092915050565b60005b838110156200064657808201518184015260208101905062000629565b60008484015250505050565b6000601f19601f8301169050919050565b600062000670826200060a565b6200067c818562000615565b93506200068e81856020860162000626565b620006998162000652565b840191505092915050565b6000604082019050620006bb6000830185620005f9565b8181036020830152620006cf818462000663565b90509392505050565b600080fd5b6000819050919050565b620006f281620006dd565b8114620006fe57600080fd5b50565b6000815190506200071281620006e7565b92915050565b600060208284031215620007315762000730620006d8565b5b6000620007418482850162000701565b91505092915050565b6200075581620006dd565b82525050565b60006020820190506200077260008301846200074a565b92915050565b600081905092915050565b7f435245415445205441424c452000000000000000000000000000000000000000600082015250565b6000620007bb600d8362000778565b9150620007c88262000783565b600d82019050919050565b6000620007e0826200060a565b620007ec818562000778565b9350620007fe81856020860162000626565b80840191505092915050565b7f5f00000000000000000000000000000000000000000000000000000000000000600082015250565b60006200084260018362000778565b91506200084f826200080a565b600182019050919050565b7f2800000000000000000000000000000000000000000000000000000000000000600082015250565b60006200089260018362000778565b91506200089f826200085a565b600182019050919050565b7f2900000000000000000000000000000000000000000000000000000000000000600082015250565b6000620008e260018362000778565b9150620008ef82620008aa565b600182019050919050565b60006200090782620007ac565b9150620009158286620007d3565b9150620009228262000833565b9150620009308285620007d3565b91506200093d8262000883565b91506200094b8284620007d3565b91506200095882620008d3565b9150819050949350505050565b7f4e487b7100000000000000000000000000000000000000000000000000000000600052604160045260246000fd5b7f4e487b7100000000000000000000000000000000000000000000000000000000600052601260045260246000fd5b61149f80620009d36000396000f3fe608060405234801561001057600080fd5b506004361061007d5760003560e01c80632a18ab6f1161005b5780632a18ab6f146100ea5780635d5a33a21461010657806388e4f1cb14610124578063aaf5f338146101425761007d565b8063150b7a0214610082578063177b7e00146100b257806319129e5a146100ce575b600080fd5b61009c60048036038101906100979190610c08565b61015e565b6040516100a99190610cc6565b60405180910390f35b6100cc60048036038101906100c79190610d82565b610172565b005b6100e860048036038101906100e39190610dfa565b610230565b005b61010460048036038101906100ff9190610e27565b6102ab565b005b61010e61038c565b60405161011b9190610eef565b60405180910390f35b61012c6103d4565b6040516101399190610f20565b60405180910390f35b61015c60048036038101906101579190610d82565b6103dd565b005b600063150b7a0260e01b9050949350505050565b61017a6104c0565b73ffffffffffffffffffffffffffffffffffffffff1663377af0da306000546101dc6040518060400160405280601081526020017f7461626c655f617474726962757465730000000000000000000000000000000081525060005488886106bf565b6040518463ffffffff1660e01b81526004016101fa93929190610f4a565b600060405180830381600087803b15801561021457600080fd5b505af1158015610228573d6000803e3d6000fd5b505050505050565b6102386104c0565b73ffffffffffffffffffffffffffffffffffffffff16638bb0ab9730600054846040518463ffffffff1660e01b815260040161027693929190610f88565b600060405180830381600087803b15801561029057600080fd5b505af11580156102a4573d6000803e3d6000fd5b5050505050565b6000816040516020016102be9190611021565b60405160208183030381529060405290506102d76104c0565b73ffffffffffffffffffffffffffffffffffffffff1663377af0da306000546103386040518060400160405280601081526020017f7461626c655f6174747269627574657300000000000000000000000000000000815250600054876106fe565b6040518463ffffffff1660e01b815260040161035693929190610f4a565b600060405180830381600087803b15801561037057600080fd5b505af1158015610384573d6000803e3d6000fd5b505050505050565b60606103cf6040518060400160405280601081526020017f7461626c655f617474726962757465730000000000000000000000000000000081525060005461073a565b905090565b60008054905090565b6000826040516020016103f09190611021565b60405160208183030381529060405290506104096104c0565b73ffffffffffffffffffffffffffffffffffffffff1663377af0da3060005461046b6040518060400160405280601081526020017f7461626c655f61747472696275746573000000000000000000000000000000008152506000548888610778565b6040518463ffffffff1660e01b815260040161048993929190610f4a565b600060405180830381600087803b1580156104a357600080fd5b505af11580156104b7573d6000803e3d6000fd5b50505050505050565b6000600146036104e65773012969f7e3439a9b04025b5a049eb9bad82a8c1290506106bc565b600a460361050a5773fad44bf5b843de943a09d4f3e84949a11d3aa3e690506106bc565b61a4b1460361052f57739abd75e8640871a5a20d3b4ee6330a04c962affd90506106bc565b61a4ba460361055457731a22854c5b1642760a827f20137a67930ae108d290506106bc565b6089460361057857735c4e6a9e5c1e1bf445a062006faf19ea6c49afea90506106bc565b61013a460361059d577359ef8bf2d6c102b4c42aef9189e1a9f0abfd652d90506106bc565b62aa36a746036105c35773c50c62498448acc8dbde43da77f8d5d2e2c7597d90506106bc565b6101a446036105e85773c72e8a7be04f2469f8c2db3f1bdf69a7d516abba90506106bc565b62066eee460361060e5773223a74b8323914afdc3ff1e5005564dc17231d6e90506106bc565b62013881460361063457734b48841d4b32c4650e4abc117a03fe8b51f38f6890506106bc565b6204cb2f460361065a5773030bcf3d50cad04c2e57391b12740982a930862190506106bc565b617a69460361067f5773e7f1725e7734ce288f8367e1bb143e90bb3f051290506106bc565b466040517f264e42cf0000000000000000000000000000000000000000000000000000000081526004016106b39190610f20565b60405180910390fd5b90565b606060006106cd868661073a565b90508084846040516020016106e493929190611177565b604051602081830303815290604052915050949350505050565b6060600061070c858561073a565b9050808360405160200161072192919061126c565b6040516020818303038152906040529150509392505050565b606082610746466107f9565b61074f846107f9565b604051602001610761939291906112f2565b604051602081830303815290604052905092915050565b60606000610786868661073a565b905060006040518060200160405280600081525090506000845111156107c957836040516020016107b79190611339565b60405160208183030381529060405290505b8185826040516020016107de939291906113f3565b60405160208183030381529060405292505050949350505050565b606060006001610808846108c7565b01905060008167ffffffffffffffff81111561082757610826610add565b5b6040519080825280601f01601f1916602001820160405280156108595781602001600182028036833780820191505090505b509050600082602001820190505b6001156108bc578080600190039150507f3031323334353637383961626364656600000000000000000000000000000000600a86061a8153600a85816108b0576108af61143a565b5b04945060008503610867575b819350505050919050565b600080600090507a184f03e93ff9f4daa797ed6e38ed64bf6a1f0100000000000000008310610925577a184f03e93ff9f4daa797ed6e38ed64bf6a1f010000000000000000838161091b5761091a61143a565b5b0492506040810190505b6d04ee2d6d415b85acef81000000008310610962576d04ee2d6d415b85acef810000000083816109585761095761143a565b5b0492506020810190505b662386f26fc10000831061099157662386f26fc1000083816109875761098661143a565b5b0492506010810190505b6305f5e10083106109ba576305f5e10083816109b0576109af61143a565b5b0492506008810190505b61271083106109df5761271083816109d5576109d461143a565b5b0492506004810190505b60648310610a0257606483816109f8576109f761143a565b5b0492506002810190505b600a8310610a11576001810190505b80915050919050565b6000604051905090565b600080fd5b600080fd5b600073ffffffffffffffffffffffffffffffffffffffff82169050919050565b6000610a5982610a2e565b9050919050565b610a6981610a4e565b8114610a7457600080fd5b50565b600081359050610a8681610a60565b92915050565b6000819050919050565b610a9f81610a8c565b8114610aaa57600080fd5b50565b600081359050610abc81610a96565b92915050565b600080fd5b600080fd5b6000601f19601f8301169050919050565b7f4e487b7100000000000000000000000000000000000000000000000000000000600052604160045260246000fd5b610b1582610acc565b810181811067ffffffffffffffff82111715610b3457610b33610add565b5b80604052505050565b6000610b47610a1a565b9050610b538282610b0c565b919050565b600067ffffffffffffffff821115610b7357610b72610add565b5b610b7c82610acc565b9050602081019050919050565b82818337600083830152505050565b6000610bab610ba684610b58565b610b3d565b905082815260208101848484011115610bc757610bc6610ac7565b5b610bd2848285610b89565b509392505050565b600082601f830112610bef57610bee610ac2565b5b8135610bff848260208601610b98565b91505092915050565b60008060008060808587031215610c2257610c21610a24565b5b6000610c3087828801610a77565b9450506020610c4187828801610a77565b9350506040610c5287828801610aad565b925050606085013567ffffffffffffffff811115610c7357610c72610a29565b5b610c7f87828801610bda565b91505092959194509250565b60007fffffffff0000000000000000000000000000000000000000000000000000000082169050919050565b610cc081610c8b565b82525050565b6000602082019050610cdb6000830184610cb7565b92915050565b600067ffffffffffffffff821115610cfc57610cfb610add565b5b610d0582610acc565b9050602081019050919050565b6000610d25610d2084610ce1565b610b3d565b905082815260208101848484011115610d4157610d40610ac7565b5b610d4c848285610b89565b509392505050565b600082601f830112610d6957610d68610ac2565b5b8135610d79848260208601610d12565b91505092915050565b60008060408385031215610d9957610d98610a24565b5b600083013567ffffffffffffffff811115610db757610db6610a29565b5b610dc385828601610d54565b925050602083013567ffffffffffffffff811115610de457610de3610a29565b5b610df085828601610d54565b9150509250929050565b600060208284031215610e1057610e0f610a24565b5b6000610e1e84828501610a77565b91505092915050565b600060208284031215610e3d57610e3c610a24565b5b600082013567ffffffffffffffff811115610e5b57610e5a610a29565b5b610e6784828501610d54565b91505092915050565b600081519050919050565b600082825260208201905092915050565b60005b83811015610eaa578082015181840152602081019050610e8f565b60008484015250505050565b6000610ec182610e70565b610ecb8185610e7b565b9350610edb818560208601610e8c565b610ee481610acc565b840191505092915050565b60006020820190508181036000830152610f098184610eb6565b905092915050565b610f1a81610a8c565b82525050565b6000602082019050610f356000830184610f11565b92915050565b610f4481610a4e565b82525050565b6000606082019050610f5f6000830186610f3b565b610f6c6020830185610f11565b8181036040830152610f7e8184610eb6565b9050949350505050565b6000606082019050610f9d6000830186610f3b565b610faa6020830185610f11565b610fb76040830184610f3b565b949350505050565b7f69643d0000000000000000000000000000000000000000000000000000000000815250565b600081905092915050565b6000610ffb82610e70565b6110058185610fe5565b9350611015818560208601610e8c565b80840191505092915050565b600061102c82610fbf565b60038201915061103c8284610ff0565b915081905092915050565b7f494e5345525420494e544f200000000000000000000000000000000000000000600082015250565b600061107d600c83610fe5565b915061108882611047565b600c82019050919050565b7f2800000000000000000000000000000000000000000000000000000000000000600082015250565b60006110c9600183610fe5565b91506110d482611093565b600182019050919050565b7f2956414c55455328000000000000000000000000000000000000000000000000600082015250565b6000611115600883610fe5565b9150611120826110df565b600882019050919050565b7f2900000000000000000000000000000000000000000000000000000000000000600082015250565b6000611161600183610fe5565b915061116c8261112b565b600182019050919050565b600061118282611070565b915061118e8286610ff0565b9150611199826110bc565b91506111a58285610ff0565b91506111b082611108565b91506111bc8284610ff0565b91506111c782611154565b9150819050949350505050565b7f44454c4554452046524f4d200000000000000000000000000000000000000000600082015250565b600061120a600c83610fe5565b9150611215826111d4565b600c82019050919050565b7f2057484552452000000000000000000000000000000000000000000000000000600082015250565b6000611256600783610fe5565b915061126182611220565b600782019050919050565b6000611277826111fd565b91506112838285610ff0565b915061128e82611249565b915061129a8284610ff0565b91508190509392505050565b7f5f00000000000000000000000000000000000000000000000000000000000000600082015250565b60006112dc600183610fe5565b91506112e7826112a6565b600182019050919050565b60006112fe8286610ff0565b9150611309826112cf565b91506113158285610ff0565b9150611320826112cf565b915061132c8284610ff0565b9150819050949350505050565b600061134482611249565b91506113508284610ff0565b915081905092915050565b7f5550444154452000000000000000000000000000000000000000000000000000600082015250565b6000611391600783610fe5565b915061139c8261135b565b600782019050919050565b7f2053455420000000000000000000000000000000000000000000000000000000600082015250565b60006113dd600583610fe5565b91506113e8826113a7565b600582019050919050565b60006113fe82611384565b915061140a8286610ff0565b9150611415826113d0565b91506114218285610ff0565b915061142d8284610ff0565b9150819050949350505050565b7f4e487b7100000000000000000000000000000000000000000000000000000000600052601260045260246000fdfea26469706673582212201b999fefb2c099ee9ed44d214e10b845c9771c8204505cface3456e5b43cff0164736f6c6343000818003369642074657874207072696d617279206b65792c6e616d6520746578742c656d61696c20746578742c62696f67726170687920746578742c696d61676520746578742c6c6f636174696f6e20746578742c70617373776f726420746578742c70726f6a6563745f636f6e74726163745f69642074657874",
  "linkReferences": {},
  "deployedLinkReferences": {}
}